{
  "abi": [
    {
      "inputs": [
        {
          "internalType": "address",
          "name": "_bensyc",
          "type": "address"
        }
      ],
      "stateMutability": "nonpayable",
      "type": "constructor"
    },
    {
      "inputs": [
        {
          "internalType": "bytes32",
          "name": "expected",
          "type": "bytes32"
        },
        {
          "internalType": "bytes32",
          "name": "provided",
          "type": "bytes32"
        }
      ],
      "name": "InvalidNamehash",
      "type": "error"
    },
    {
      "inputs": [
        {
          "internalType": "string",
          "name": "str",
          "type": "string"
        }
      ],
      "name": "InvalidParentDomain",
      "type": "error"
    },
    {
      "inputs": [
        {
          "internalType": "string",
          "name": "id",
          "type": "string"
        },
        {
          "internalType": "uint256",
          "name": "index",
          "type": "uint256"
        }
      ],
      "name": "InvalidTokenID",
      "type": "error"
    },
    {
      "inputs": [
        {
          "internalType": "address",
          "name": "sender",
          "type": "address"
        },
        {
          "internalType": "string[]",
          "name": "urls",
          "type": "string[]"
        },
        {
          "internalType": "bytes",
          "name": "callData",
          "type": "bytes"
        },
        {
          "internalType": "bytes4",
          "name": "callbackFunction",
          "type": "bytes4"
        },
        {
          "internalType": "bytes",
          "name": "extraData",
          "type": "bytes"
        }
      ],
      "name": "OffchainLookup",
      "type": "error"
    },
    {
      "inputs": [
        {
          "internalType": "bytes32",
          "name": "expected",
          "type": "bytes32"
        },
        {
          "internalType": "bytes32",
          "name": "check",
          "type": "bytes32"
        },
        {
          "internalType": "bytes",
          "name": "data",
          "type": "bytes"
        },
        {
          "internalType": "uint256",
          "name": "blknum",
          "type": "uint256"
        },
        {
          "internalType": "bytes",
          "name": "result",
          "type": "bytes"
        }
      ],
      "name": "RequestError",
      "type": "error"
    },
    {
      "inputs": [
        {
          "internalType": "bytes32",
          "name": "node",
          "type": "bytes32"
        },
        {
          "internalType": "bytes",
          "name": "data",
          "type": "bytes"
        }
      ],
      "name": "ResolverNotSet",
      "type": "error"
    },
    {
      "inputs": [
        {
          "internalType": "address",
          "name": "resolver",
          "type": "address"
        },
        {
          "internalType": "bytes",
          "name": "_call",
          "type": "bytes"
        },
        {
          "internalType": "bytes",
          "name": "_error",
          "type": "bytes"
        }
      ],
      "name": "StaticCallFailed",
      "type": "error"
    },
    {
      "stateMutability": "payable",
      "type": "fallback"
    },
    {
      "inputs": [],
      "name": "BENSYC",
      "outputs": [
        {
          "internalType": "contract iBENSYC",
          "name": "",
          "type": "address"
        }
      ],
      "stateMutability": "view",
      "type": "function"
    },
    {
      "inputs": [],
      "name": "DESTROY",
      "outputs": [],
      "stateMutability": "nonpayable",
      "type": "function"
    },
    {
      "inputs": [],
      "name": "ENS",
      "outputs": [
        {
          "internalType": "contract iENS",
          "name": "",
          "type": "address"
        }
      ],
      "stateMutability": "view",
      "type": "function"
    },
    {
      "inputs": [],
      "name": "baseHash",
      "outputs": [
        {
          "internalType": "bytes32",
          "name": "",
          "type": "bytes32"
        }
      ],
      "stateMutability": "view",
      "type": "function"
    },
    {
      "inputs": [
        {
          "internalType": "bytes",
          "name": "name",
          "type": "bytes"
        }
      ],
      "name": "dnsDecode",
      "outputs": [
        {
          "internalType": "bytes32",
          "name": "",
          "type": "bytes32"
        },
        {
          "internalType": "bool",
          "name": "",
          "type": "bool"
        }
      ],
      "stateMutability": "view",
      "type": "function"
    },
    {
      "inputs": [
        {
          "internalType": "bytes32",
          "name": "_callhash",
          "type": "bytes32"
        },
        {
          "internalType": "bytes",
          "name": "data",
          "type": "bytes"
        }
      ],
      "name": "getResult",
      "outputs": [
        {
          "internalType": "bytes",
          "name": "",
          "type": "bytes"
        }
      ],
      "stateMutability": "view",
      "type": "function"
    },
    {
      "inputs": [],
      "name": "primaryDomainHash",
      "outputs": [
        {
          "internalType": "bytes32",
          "name": "",
          "type": "bytes32"
        }
      ],
      "stateMutability": "view",
      "type": "function"
    },
    {
      "inputs": [
        {
          "internalType": "bytes",
          "name": "name",
          "type": "bytes"
        },
        {
          "internalType": "bytes",
          "name": "data",
          "type": "bytes"
        }
      ],
      "name": "resolve",
      "outputs": [
        {
          "internalType": "bytes",
          "name": "",
          "type": "bytes"
        }
      ],
      "stateMutability": "view",
      "type": "function"
    },
    {
      "inputs": [
        {
          "internalType": "bytes",
          "name": "response",
          "type": "bytes"
        },
        {
          "internalType": "bytes",
          "name": "extraData",
          "type": "bytes"
        }
      ],
      "name": "resolveWithoutProof",
      "outputs": [
        {
          "internalType": "bytes",
          "name": "",
          "type": "bytes"
        }
      ],
      "stateMutability": "view",
      "type": "function"
    },
    {
      "inputs": [],
      "name": "secondaryDomainHash",
      "outputs": [
        {
          "internalType": "bytes32",
          "name": "",
          "type": "bytes32"
        }
      ],
      "stateMutability": "view",
      "type": "function"
    },
    {
      "inputs": [
        {
          "internalType": "bytes4",
          "name": "sig",
          "type": "bytes4"
        }
      ],
      "name": "supportsInterface",
      "outputs": [
        {
          "internalType": "bool",
          "name": "",
          "type": "bool"
        }
      ],
      "stateMutability": "pure",
      "type": "function"
    },
    {
      "inputs": [],
      "name": "withdrawEther",
      "outputs": [],
      "stateMutability": "nonpayable",
      "type": "function"
    },
    {
      "inputs": [
        {
          "internalType": "address",
          "name": "_token",
          "type": "address"
        },
        {
          "internalType": "uint256",
          "name": "_bal",
          "type": "uint256"
        }
      ],
      "name": "withdrawToken",
      "outputs": [],
      "stateMutability": "nonpayable",
      "type": "function"
    },
    {
      "stateMutability": "payable",
      "type": "receive"
    }
  ],
  "bytecode": {
    "object": "0x60e060405234801561001057600080fd5b506040516116a43803806116a483398101604081905261002f91610199565b60408051600060208201527f4f5b812789fc606be1b3b16908db13fc7a9adf7ca72641f84d75b47069d3d7f09181019190915260600160408051808303601f19018152828252805160209182012060a08190528383018352600684526562656e73796360d01b938201939093528151908101929092527f45f018cb234434a0198389c8a483d87ace97ad7b298925083904c99a8f46c01d9082015260600160408051808303601f19018152828252805160209182012060805260a051838301835260118452703137b932b232b739bcb0b1b43a31b63ab160791b938201939093528151908101929092527f7a46b638f71fee598932cc3ef366f2f3dcdae81da0064fba529d5ae43b3ac9c59082015260600160408051601f19818403018152919052805160209091012060c052600080546001600160a01b039092166001600160a01b0319928316179055600180549091166e0c2e074ec69a0dfb2997ba6c7d2e1e1790556101c9565b6000602082840312156101ab57600080fd5b81516001600160a01b03811681146101c257600080fd5b9392505050565b60805160a05160c051611490610214600039600081816102b801528181610a6d0152610afb0152600081816101cb0152610aad0152600081816101890152610a3001526114906000f3fe6080604052600436106100c65760003560e01c806375fcc9111161007f5780639061b923116100595780639061b923146102665780639e281a9814610286578063c78946a3146102a6578063e1b6a190146102da57600080fd5b806375fcc91114610204578063875e18f7146102315780638e47aeb21461024657600080fd5b806301ffc9a7146100d557806303e4efe51461010a5780631d2e2cc41461013f57806342f0bfd114610177578063441af61a146101b95780637362377b146101ed57600080fd5b366100d057600080fd5b600080fd5b3480156100e157600080fd5b506100f56100f0366004610d69565b6102fa565b60405190151581526020015b60405180910390f35b34801561011657600080fd5b5061012a610125366004610ddc565b610331565b60408051928352901515602083015201610101565b34801561014b57600080fd5b5060015461015f906001600160a01b031681565b6040516001600160a01b039091168152602001610101565b34801561018357600080fd5b506101ab7f000000000000000000000000000000000000000000000000000000000000000081565b604051908152602001610101565b3480156101c557600080fd5b506101ab7f000000000000000000000000000000000000000000000000000000000000000081565b3480156101f957600080fd5b50610202610650565b005b34801561021057600080fd5b5061022461021f366004610e1e565b610711565b6040516101019190610ec6565b34801561023d57600080fd5b506102026108c1565b34801561025257600080fd5b50610224610261366004610ed9565b610956565b34801561027257600080fd5b50610224610281366004610ed9565b610a29565b34801561029257600080fd5b506102026102a1366004610f5a565b610c6d565b3480156102b257600080fd5b506101ab7f000000000000000000000000000000000000000000000000000000000000000081565b3480156102e657600080fd5b5060005461015f906001600160a01b031681565b60006001600160e01b03198216639061b92360e01b148061032b57506001600160e01b031982166301ffc9a760e01b145b92915050565b60408051600480825260a082019092526000918291829182918291816020015b606081526020019060019003908161035157905050905060005b87878581811061037d5761037d610f9c565b909101356001600160f81b0319161590506104225760018401936103a4908590898b610fb2565b6103ad91610fdc565b60f81c848101949091506103c4908590898b610fb2565b8080601f016020809104026020016040519081016040528093929190818152602001838380828437600092019190915250508451859250869150811061040c5761040c610f9c565b602002602001018190525082600101925061036b565b60009350600092505b8160008151811061043e5761043e610f9c565b60200260200101515183101561055f57603060f81b8260008151811061046657610466610f9c565b6020026020010151848151811061047f5761047f610f9c565b01602001516001600160f81b03191610806104d75750603960f81b826000815181106104ad576104ad610f9c565b602002602001015184815181106104c6576104c6610f9c565b01602001516001600160f81b031916115b1561050d57816000815181106104ef576104ef610f9c565b60200260200101518051906020012060009550955050505050610649565b60308260008151811061052257610522610f9c565b6020026020010151848151811061053b5761053b610f9c565b602001015160f81c60f81b60f81c0360ff1684600a0201935082600101925061042b565b60008054906101000a90046001600160a01b03166001600160a01b03166318160ddd6040518163ffffffff1660e01b8152600401602060405180830381865afa1580156105b0573d6000803e3d6000fd5b505050506040513d601f19601f820116820180604052508101906105d4919061100c565b841061061c57816000815181106105ed576105ed610f9c565b6020026020010151612710604051635857555960e11b8152600401610613929190611025565b60405180910390fd5b8160008151811061062f5761062f610f9c565b602002602001015180519060200120600195509550505050505b9250929050565b60008054906101000a90046001600160a01b03166001600160a01b03166301e51ae86040518163ffffffff1660e01b8152600401602060405180830381865afa1580156106a1573d6000803e3d6000fd5b505050506040513d601f19601f820116820180604052508101906106c59190611047565b6001600160a01b0316336001600160a01b0316146106e257600080fd5b60405133904780156108fc02916000818181858888f1935050505015801561070e573d6000803e3d6000fd5b50565b60606000602483116107525761072b600460008587610fb2565b8660405160200161073e93929190611064565b604051602081830303815290604052610792565b610760600460008587610fb2565b8661076e866024818a610fb2565b604051602001610782959493929190611076565b6040516020818303038152906040525b600154604051630178b8bf60e01b8152600481018890529192506000916001600160a01b0390911690630178b8bf90602401602060405180830381865afa1580156107e1573d6000803e3d6000fd5b505050506040513d601f19601f820116820180604052508101906108059190611047565b90506001600160a01b03811661083257858260405163b0c6789f60e01b815260040161061392919061109e565b600080826001600160a01b03168460405161084d91906110bf565b600060405180830381855afa9150503d8060008114610888576040519150601f19603f3d011682016040523d82523d6000602084013e61088d565b606091505b5091509150816108b6578284826040516377c6081360e01b8152600401610613939291906110db565b979650505050505050565b60008054906101000a90046001600160a01b03166001600160a01b03166301e51ae86040518163ffffffff1660e01b8152600401602060405180830381865afa158015610912573d6000803e3d6000fd5b505050506040513d601f19601f820116820180604052508101906109369190611047565b6001600160a01b0316336001600160a01b03161461095357600080fd5b33ff5b6060600080806109688587018761111b565b9250925092506000333083858c8c60405160200161098b969594939291906111df565b60405160208183030381529060405280519060200120905083811415806109bb57506109b883600561123e565b43115b156109e557838183858c8c604051630f0aa61960e11b81526004016106139695949392919061128d565b88888080601f016020809104026020016040519081016040528093929190818152602001838380828437600092019190915250929c9b505050505050505050505050565b60606000807f0000000000000000000000000000000000000000000000000000000000000000610a5d602460048789610fb2565b610a66916112d2565b03610a93577f00000000000000000000000000000000000000000000000000000000000000009150610b42565b610a9d8787610331565b909250905080610af557604080517f0000000000000000000000000000000000000000000000000000000000000000602082015290810183905260600160405160208183030381529060405280519060200120610b3f565b604080517f00000000000000000000000000000000000000000000000000000000000000006020820152908101839052606001604051602081830303815290604052805190602001205b91505b6000610b4f838787610711565b6040805160028082526060820190925291925060009190816020015b6060815260200190600190039081610b6b57905050905060405180606001604052806021815260200161143a6021913981600081518110610bae57610bae610f9c565b60200260200101819052506040518060600160405280602781526020016114136027913981600181518110610be557610be5610f9c565b6020026020010181905250308183638e47aeb260e01b33308c8c438a604051602001610c16969594939291906112f0565b60405160208183030381529060405280519060200120438c8c604051602001610c429493929190611347565b60408051601f1981840301815290829052630556f18360e41b82526106139594939291600401611367565b60008054906101000a90046001600160a01b03166001600160a01b03166301e51ae86040518163ffffffff1660e01b8152600401602060405180830381865afa158015610cbe573d6000803e3d6000fd5b505050506040513d601f19601f82011682018060405250810190610ce29190611047565b6001600160a01b0316336001600160a01b031614610cff57600080fd5b6040516323b872dd60e01b8152306004820152336024820152604481018290526001600160a01b038316906323b872dd90606401600060405180830381600087803b158015610d4d57600080fd5b505af1158015610d61573d6000803e3d6000fd5b505050505050565b600060208284031215610d7b57600080fd5b81356001600160e01b031981168114610d9357600080fd5b9392505050565b60008083601f840112610dac57600080fd5b50813567ffffffffffffffff811115610dc457600080fd5b60208301915083602082850101111561064957600080fd5b60008060208385031215610def57600080fd5b823567ffffffffffffffff811115610e0657600080fd5b610e1285828601610d9a565b90969095509350505050565b600080600060408486031215610e3357600080fd5b83359250602084013567ffffffffffffffff811115610e5157600080fd5b610e5d86828701610d9a565b9497909650939450505050565b60005b83811015610e85578181015183820152602001610e6d565b83811115610e94576000848401525b50505050565b60008151808452610eb2816020860160208601610e6a565b601f01601f19169290920160200192915050565b602081526000610d936020830184610e9a565b60008060008060408587031215610eef57600080fd5b843567ffffffffffffffff80821115610f0757600080fd5b610f1388838901610d9a565b90965094506020870135915080821115610f2c57600080fd5b50610f3987828801610d9a565b95989497509550505050565b6001600160a01b038116811461070e57600080fd5b60008060408385031215610f6d57600080fd5b8235610f7881610f45565b946020939093013593505050565b634e487b7160e01b600052604160045260246000fd5b634e487b7160e01b600052603260045260246000fd5b60008085851115610fc257600080fd5b83861115610fcf57600080fd5b5050820193919092039150565b6001600160f81b031981358181169160018510156110045780818660010360031b1b83161692505b505092915050565b60006020828403121561101e57600080fd5b5051919050565b6040815260006110386040830185610e9a565b90508260208301529392505050565b60006020828403121561105957600080fd5b8151610d9381610f45565b82848237909101908152602001919050565b8486823760008582018581528385602083013760009301602001928352509095945050505050565b8281526040602082015260006110b76040830184610e9a565b949350505050565b600082516110d1818460208701610e6a565b9190910192915050565b6001600160a01b03841681526060602082018190526000906110ff90830185610e9a565b82810360408401526111118185610e9a565b9695505050505050565b60008060006060848603121561113057600080fd5b8335925060208401359150604084013567ffffffffffffffff8082111561115657600080fd5b818601915086601f83011261116a57600080fd5b81358181111561117c5761117c610f86565b604051601f8201601f19908116603f011681019083821181831017156111a4576111a4610f86565b816040528281528960208487010111156111bd57600080fd5b8260208601602083013760006020848301015280955050505050509250925092565b60006bffffffffffffffffffffffff19808960601b168352808860601b166014840152508551611216816028850160208a01610e6a565b8083019050856028820152838560488301376000930160480192835250909695505050505050565b6000821982111561125f57634e487b7160e01b600052601160045260246000fd5b500190565b81835281816020850137506000828201602090810191909152601f909101601f19169091010190565b86815285602082015260a0604082015260006112ac60a0830187610e9a565b85606084015282810360808401526112c5818587611264565b9998505050505050505050565b8035602083101561032b57600019602084900360031b1b1692915050565b60006bffffffffffffffffffffffff19808960601b168352808860601b16601484015250848660288401378482018460288201528351611337816048840160208801610e6a565b0160480198975050505050505050565b848152836020820152606060408201526000611111606083018486611264565b600060a0820160018060a01b0388168352602060a08185015281885180845260c08601915060c08160051b8701019350828a0160005b828110156113cb5760bf198887030184526113b9868351610e9a565b9550928401929084019060010161139d565b505050505082810360408401526113e28187610e9a565b6001600160e01b031986166060850152905082810360808401526114068185610e9a565b9897505050505050505056fe646174613a6170706c69636174696f6e2f6a736f6e2c7b2264617461223a227b646174617d227d646174613a746578742f706c61696e2c7b2264617461223a227b646174617d227da2646970667358221220ef96f03a64483061739e16bd9654991650e3393c41bfa4ba54f903a257be731d64736f6c634300080f0033",
    "linkReferences": {}
  },
  "methodIdentifiers": {
    "BENSYC()": "e1b6a190",
    "DESTROY()": "875e18f7",
    "ENS()": "1d2e2cc4",
    "baseHash()": "441af61a",
    "dnsDecode(bytes)": "03e4efe5",
    "getResult(bytes32,bytes)": "75fcc911",
    "primaryDomainHash()": "c78946a3",
    "resolve(bytes,bytes)": "9061b923",
    "resolveWithoutProof(bytes,bytes)": "8e47aeb2",
    "secondaryDomainHash()": "42f0bfd1",
    "supportsInterface(bytes4)": "01ffc9a7",
    "withdrawEther()": "7362377b",
    "withdrawToken(address,uint256)": "9e281a98"
  },
  "id": 13
}