{
  "abi": [
    {
      "inputs": [
        {
          "internalType": "address",
          "name": "_bensyc",
          "type": "address"
        }
      ],
      "stateMutability": "nonpayable",
      "type": "constructor"
    },
    {
      "inputs": [
        {
          "internalType": "bytes32",
          "name": "expected",
          "type": "bytes32"
        },
        {
          "internalType": "bytes32",
          "name": "provided",
          "type": "bytes32"
        }
      ],
      "name": "InvalidNamehash",
      "type": "error"
    },
    {
      "inputs": [
        {
          "internalType": "string",
          "name": "str",
          "type": "string"
        }
      ],
      "name": "InvalidParentDomain",
      "type": "error"
    },
    {
      "inputs": [
        {
          "internalType": "string",
          "name": "id",
          "type": "string"
        },
        {
          "internalType": "uint256",
          "name": "index",
          "type": "uint256"
        }
      ],
      "name": "InvalidTokenID",
      "type": "error"
    },
    {
      "inputs": [
        {
          "internalType": "address",
          "name": "sender",
          "type": "address"
        },
        {
          "internalType": "string[]",
          "name": "urls",
          "type": "string[]"
        },
        {
          "internalType": "bytes",
          "name": "callData",
          "type": "bytes"
        },
        {
          "internalType": "bytes4",
          "name": "callbackFunction",
          "type": "bytes4"
        },
        {
          "internalType": "bytes",
          "name": "extraData",
          "type": "bytes"
        }
      ],
      "name": "OffchainLookup",
      "type": "error"
    },
    {
      "inputs": [
        {
          "internalType": "bytes32",
          "name": "expected",
          "type": "bytes32"
        },
        {
          "internalType": "bytes32",
          "name": "check",
          "type": "bytes32"
        },
        {
          "internalType": "bytes",
          "name": "data",
          "type": "bytes"
        },
        {
          "internalType": "uint256",
          "name": "blknum",
          "type": "uint256"
        },
        {
          "internalType": "bytes",
          "name": "result",
          "type": "bytes"
        }
      ],
      "name": "RequestError",
      "type": "error"
    },
    {
      "inputs": [
        {
          "internalType": "bytes32",
          "name": "node",
          "type": "bytes32"
        },
        {
          "internalType": "bytes",
          "name": "data",
          "type": "bytes"
        }
      ],
      "name": "ResolverNotSet",
      "type": "error"
    },
    {
      "inputs": [
        {
          "internalType": "address",
          "name": "resolver",
          "type": "address"
        },
        {
          "internalType": "bytes",
          "name": "_call",
          "type": "bytes"
        },
        {
          "internalType": "bytes",
          "name": "_error",
          "type": "bytes"
        }
      ],
      "name": "StaticCallFailed",
      "type": "error"
    },
    {
      "stateMutability": "payable",
      "type": "fallback"
    },
    {
      "inputs": [],
      "name": "BENSYC",
      "outputs": [
        {
          "internalType": "contract iBENSYC",
          "name": "",
          "type": "address"
        }
      ],
      "stateMutability": "view",
      "type": "function"
    },
    {
      "inputs": [],
      "name": "DESTROY",
      "outputs": [],
      "stateMutability": "nonpayable",
      "type": "function"
    },
    {
      "inputs": [],
      "name": "ENS",
      "outputs": [
        {
          "internalType": "contract iENS",
          "name": "",
          "type": "address"
        }
      ],
      "stateMutability": "view",
      "type": "function"
    },
    {
      "inputs": [],
      "name": "PrimaryResolver",
      "outputs": [
        {
          "internalType": "address",
          "name": "",
          "type": "address"
        }
      ],
      "stateMutability": "view",
      "type": "function"
    },
    {
      "inputs": [],
      "name": "baseHash",
      "outputs": [
        {
          "internalType": "bytes32",
          "name": "",
          "type": "bytes32"
        }
      ],
      "stateMutability": "view",
      "type": "function"
    },
    {
      "inputs": [
        {
          "internalType": "bytes",
          "name": "name",
          "type": "bytes"
        }
      ],
      "name": "dnsDecode",
      "outputs": [
        {
          "internalType": "bytes32",
          "name": "",
          "type": "bytes32"
        },
        {
          "internalType": "bool",
          "name": "",
          "type": "bool"
        }
      ],
      "stateMutability": "view",
      "type": "function"
    },
    {
      "inputs": [
        {
          "internalType": "bytes32",
          "name": "_callhash",
          "type": "bytes32"
        },
        {
          "internalType": "bytes",
          "name": "data",
          "type": "bytes"
        }
      ],
      "name": "getResult",
      "outputs": [
        {
          "internalType": "bytes",
          "name": "",
          "type": "bytes"
        }
      ],
      "stateMutability": "view",
      "type": "function"
    },
    {
      "inputs": [],
      "name": "primaryDomainHash",
      "outputs": [
        {
          "internalType": "bytes32",
          "name": "",
          "type": "bytes32"
        }
      ],
      "stateMutability": "view",
      "type": "function"
    },
    {
      "inputs": [
        {
          "internalType": "bytes",
          "name": "name",
          "type": "bytes"
        },
        {
          "internalType": "bytes",
          "name": "data",
          "type": "bytes"
        }
      ],
      "name": "resolve",
      "outputs": [
        {
          "internalType": "bytes",
          "name": "",
          "type": "bytes"
        }
      ],
      "stateMutability": "view",
      "type": "function"
    },
    {
      "inputs": [
        {
          "internalType": "bytes",
          "name": "response",
          "type": "bytes"
        },
        {
          "internalType": "bytes",
          "name": "extraData",
          "type": "bytes"
        }
      ],
      "name": "resolveWithoutProof",
      "outputs": [
        {
          "internalType": "bytes",
          "name": "",
          "type": "bytes"
        }
      ],
      "stateMutability": "view",
      "type": "function"
    },
    {
      "inputs": [],
      "name": "secondaryDomainHash",
      "outputs": [
        {
          "internalType": "bytes32",
          "name": "",
          "type": "bytes32"
        }
      ],
      "stateMutability": "view",
      "type": "function"
    },
    {
      "inputs": [],
      "name": "secondaryLabelHash",
      "outputs": [
        {
          "internalType": "bytes32",
          "name": "",
          "type": "bytes32"
        }
      ],
      "stateMutability": "view",
      "type": "function"
    },
    {
      "inputs": [
        {
          "internalType": "bytes4",
          "name": "sig",
          "type": "bytes4"
        }
      ],
      "name": "supportsInterface",
      "outputs": [
        {
          "internalType": "bool",
          "name": "",
          "type": "bool"
        }
      ],
      "stateMutability": "pure",
      "type": "function"
    },
    {
      "inputs": [],
      "name": "withdrawEther",
      "outputs": [],
      "stateMutability": "nonpayable",
      "type": "function"
    },
    {
      "inputs": [
        {
          "internalType": "address",
          "name": "_token",
          "type": "address"
        },
        {
          "internalType": "uint256",
          "name": "_bal",
          "type": "uint256"
        }
      ],
      "name": "withdrawToken",
      "outputs": [],
      "stateMutability": "nonpayable",
      "type": "function"
    },
    {
      "stateMutability": "payable",
      "type": "receive"
    }
  ],
  "bytecode": {
    "object": "0x6101406040526006610100526562656e73796360d01b610120527f45f018cb234434a0198389c8a483d87ace97ad7b298925083904c99a8f46c01d60805234801561004957600080fd5b50604051611abc380380611abc83398101604081905261006891610195565b60408051600060208201527f4f5b812789fc606be1b3b16908db13fc7a9adf7ca72641f84d75b47069d3d7f09181019190915260600160408051808303601f19018152828252805160209182012060c0819052608051918401529082015260600160408051808303601f19018152828252805160209182012060a05260c051838301835260118452703137b932b232b739bcb0b1b43a31b63ab160791b938201939093528151908101929092527f7a46b638f71fee598932cc3ef366f2f3dcdae81da0064fba529d5ae43b3ac9c59082015260600160408051601f19818403018152919052805160209091012060e052600080546001600160a01b039092166001600160a01b0319928316179055600180549091166e0c2e074ec69a0dfb2997ba6c7d2e1e1790556101c5565b6000602082840312156101a757600080fd5b81516001600160a01b03811681146101be57600080fd5b9392505050565b60805160a05160c05160e0516118a261021a6000396000818161032c01528181610cf70152610d8e01526000818161020b0152610d340152600081816101c90152610cba015260006102f801526118a26000f3fe6080604052600436106100ec5760003560e01c8063875e18f71161008a578063aab9d2fc11610059578063aab9d2fc146102e6578063c78946a31461031a578063d4b348d51461034e578063e1b6a1901461037b57600080fd5b8063875e18f7146102715780638e47aeb2146102865780639061b923146102a65780639e281a98146102c657600080fd5b806342f0bfd1116100c657806342f0bfd1146101b7578063441af61a146101f95780637362377b1461022d57806375fcc9111461024457600080fd5b806301ffc9a7146100fb57806303e4efe5146101305780631d2e2cc41461016557600080fd5b366100f657600080fd5b600080fd5b34801561010757600080fd5b5061011b61011636600461106f565b6103a8565b60405190151581526020015b60405180910390f35b34801561013c57600080fd5b5061015061014b3660046110fa565b610441565b60408051928352901515602083015201610127565b34801561017157600080fd5b506001546101929073ffffffffffffffffffffffffffffffffffffffff1681565b60405173ffffffffffffffffffffffffffffffffffffffff9091168152602001610127565b3480156101c357600080fd5b506101eb7f000000000000000000000000000000000000000000000000000000000000000081565b604051908152602001610127565b34801561020557600080fd5b506101eb7f000000000000000000000000000000000000000000000000000000000000000081565b34801561023957600080fd5b506102426107db565b005b34801561025057600080fd5b5061026461025f36600461113c565b6108d0565b60405161012791906111d8565b34801561027d57600080fd5b50610242610afe565b34801561029257600080fd5b506102646102a13660046111eb565b610bc7565b3480156102b257600080fd5b506102646102c13660046111eb565b610cb3565b3480156102d257600080fd5b506102426102e1366004611279565b610f19565b3480156102f257600080fd5b506101eb7f000000000000000000000000000000000000000000000000000000000000000081565b34801561032657600080fd5b506101eb7f000000000000000000000000000000000000000000000000000000000000000081565b34801561035a57600080fd5b506002546101929073ffffffffffffffffffffffffffffffffffffffff1681565b34801561038757600080fd5b506000546101929073ffffffffffffffffffffffffffffffffffffffff1681565b60007fffffffff0000000000000000000000000000000000000000000000000000000082167f9061b92300000000000000000000000000000000000000000000000000000000148061043b57507fffffffff0000000000000000000000000000000000000000000000000000000082167f01ffc9a700000000000000000000000000000000000000000000000000000000145b92915050565b60408051600480825260a082019092526000918291829182918291816020015b606081526020019060019003908161046157905050905060005b87878581811061048d5761048d6112d4565b909101357fff000000000000000000000000000000000000000000000000000000000000001615905061054a5760018401936104cc908590898b611303565b6104d59161132d565b60f81c848101949091506104ec908590898b611303565b8080601f0160208091040260200160405190810160405280939291908181526020018383808284376000920191909152505084518592508691508110610534576105346112d4565b602002602001018190525082600101925061047b565b60009350600092505b81600081518110610566576105666112d4565b6020026020010151518310156106b757603060f81b8260008151811061058e5761058e6112d4565b602002602001015184815181106105a7576105a76112d4565b01602001517fff0000000000000000000000000000000000000000000000000000000000000016108061062f5750603960f81b826000815181106105ed576105ed6112d4565b60200260200101518481518110610606576106066112d4565b01602001517fff0000000000000000000000000000000000000000000000000000000000000016115b156106655781600081518110610647576106476112d4565b602002602001015180519060200120600095509550505050506107d4565b60308260008151811061067a5761067a6112d4565b60200260200101518481518110610693576106936112d4565b602001015160f81c60f81b60f81c0360ff1684600a02019350826001019250610553565b60008054906101000a900473ffffffffffffffffffffffffffffffffffffffff1673ffffffffffffffffffffffffffffffffffffffff166318160ddd6040518163ffffffff1660e01b8152600401602060405180830381865afa158015610722573d6000803e3d6000fd5b505050506040513d601f19601f820116820180604052508101906107469190611375565b84106107a7578160008151811061075f5761075f6112d4565b60200260200101516127106040517fb0aeaab200000000000000000000000000000000000000000000000000000000815260040161079e92919061138e565b60405180910390fd5b816000815181106107ba576107ba6112d4565b602002602001015180519060200120600195509550505050505b9250929050565b60008054906101000a900473ffffffffffffffffffffffffffffffffffffffff1673ffffffffffffffffffffffffffffffffffffffff166301e51ae86040518163ffffffff1660e01b8152600401602060405180830381865afa158015610846573d6000803e3d6000fd5b505050506040513d601f19601f8201168201806040525081019061086a91906113b0565b73ffffffffffffffffffffffffffffffffffffffff163373ffffffffffffffffffffffffffffffffffffffff16146108a157600080fd5b60405133904780156108fc02916000818181858888f193505050501580156108cd573d6000803e3d6000fd5b50565b6060600060248311610911576108ea600460008587611303565b866040516020016108fd939291906113cd565b604051602081830303815290604052610951565b61091f600460008587611303565b8661092d866024818a611303565b6040516020016109419594939291906113df565b6040516020818303038152906040525b6001546040517f0178b8bf0000000000000000000000000000000000000000000000000000000081526004810188905291925060009173ffffffffffffffffffffffffffffffffffffffff90911690630178b8bf90602401602060405180830381865afa1580156109c6573d6000803e3d6000fd5b505050506040513d601f19601f820116820180604052508101906109ea91906113b0565b905073ffffffffffffffffffffffffffffffffffffffff8116610a3d5785826040517fb0c6789f00000000000000000000000000000000000000000000000000000000815260040161079e929190611407565b6000808273ffffffffffffffffffffffffffffffffffffffff1684604051610a659190611428565b600060405180830381855afa9150503d8060008114610aa0576040519150601f19603f3d011682016040523d82523d6000602084013e610aa5565b606091505b5091509150811580610ab657508051155b15610af3578284826040517f77c6081300000000000000000000000000000000000000000000000000000000815260040161079e93929190611444565b979650505050505050565b60008054906101000a900473ffffffffffffffffffffffffffffffffffffffff1673ffffffffffffffffffffffffffffffffffffffff166301e51ae86040518163ffffffff1660e01b8152600401602060405180830381865afa158015610b69573d6000803e3d6000fd5b505050506040513d601f19601f82011682018060405250810190610b8d91906113b0565b73ffffffffffffffffffffffffffffffffffffffff163373ffffffffffffffffffffffffffffffffffffffff1614610bc457600080fd5b33ff5b606060008080610bd98587018761148f565b9250925092506000333083858c8c604051602001610bfc96959493929190611553565b6040516020818303038152906040528051906020012090508381141580610c2c5750610c298360056115c5565b43115b15610c6f57838183858c8c6040517f1e154c3200000000000000000000000000000000000000000000000000000000815260040161079e9695949392919061162a565b88888080601f016020809104026020016040519081016040528093929190818152602001838380828437600092019190915250929c9b505050505050505050505050565b60606000807f0000000000000000000000000000000000000000000000000000000000000000610ce7602460048789611303565b610cf09161166f565b03610d1d577f00000000000000000000000000000000000000000000000000000000000000009150610dd5565b610d278787610441565b909250905080610d8857817f0000000000000000000000000000000000000000000000000000000000000000604051602001610d6d929190918252602082015260400190565b60405160208183030381529060405280519060200120610dd2565b604080517f00000000000000000000000000000000000000000000000000000000000000006020820152908101839052606001604051602081830303815290604052805190602001205b91505b6000610de28387876108d0565b6040805160028082526060820190925291925060009190816020015b6060815260200190600190039081610dfe57905050905060405180606001604052806021815260200161184c6021913981600081518110610e4157610e416112d4565b60200260200101819052506040518060600160405280602781526020016118256027913981600181518110610e7857610e786112d4565b6020026020010181905250308183638e47aeb260e01b33308c8c438a604051602001610ea9969594939291906116ab565b60405160208183030381529060405280519060200120438c8c604051602001610ed59493929190611715565b60408051601f19818403018152908290527f556f183000000000000000000000000000000000000000000000000000000000825261079e9594939291600401611735565b60008054906101000a900473ffffffffffffffffffffffffffffffffffffffff1673ffffffffffffffffffffffffffffffffffffffff166301e51ae86040518163ffffffff1660e01b8152600401602060405180830381865afa158015610f84573d6000803e3d6000fd5b505050506040513d601f19601f82011682018060405250810190610fa891906113b0565b73ffffffffffffffffffffffffffffffffffffffff163373ffffffffffffffffffffffffffffffffffffffff1614610fdf57600080fd5b6040517f23b872dd0000000000000000000000000000000000000000000000000000000081523060048201523360248201526044810182905273ffffffffffffffffffffffffffffffffffffffff8316906323b872dd90606401600060405180830381600087803b15801561105357600080fd5b505af1158015611067573d6000803e3d6000fd5b505050505050565b60006020828403121561108157600080fd5b81357fffffffff00000000000000000000000000000000000000000000000000000000811681146110b157600080fd5b9392505050565b60008083601f8401126110ca57600080fd5b50813567ffffffffffffffff8111156110e257600080fd5b6020830191508360208285010111156107d457600080fd5b6000806020838503121561110d57600080fd5b823567ffffffffffffffff81111561112457600080fd5b611130858286016110b8565b90969095509350505050565b60008060006040848603121561115157600080fd5b83359250602084013567ffffffffffffffff81111561116f57600080fd5b61117b868287016110b8565b9497909650939450505050565b60005b838110156111a357818101518382015260200161118b565b50506000910152565b600081518084526111c4816020860160208601611188565b601f01601f19169290920160200192915050565b6020815260006110b160208301846111ac565b6000806000806040858703121561120157600080fd5b843567ffffffffffffffff8082111561121957600080fd5b611225888389016110b8565b9096509450602087013591508082111561123e57600080fd5b5061124b878288016110b8565b95989497509550505050565b73ffffffffffffffffffffffffffffffffffffffff811681146108cd57600080fd5b6000806040838503121561128c57600080fd5b823561129781611257565b946020939093013593505050565b7f4e487b7100000000000000000000000000000000000000000000000000000000600052604160045260246000fd5b7f4e487b7100000000000000000000000000000000000000000000000000000000600052603260045260246000fd5b6000808585111561131357600080fd5b8386111561132057600080fd5b5050820193919092039150565b7fff00000000000000000000000000000000000000000000000000000000000000813581811691600185101561136d5780818660010360031b1b83161692505b505092915050565b60006020828403121561138757600080fd5b5051919050565b6040815260006113a160408301856111ac565b90508260208301529392505050565b6000602082840312156113c257600080fd5b81516110b181611257565b82848237909101908152602001919050565b8486823760008582018581528385602083013760009301602001928352509095945050505050565b82815260406020820152600061142060408301846111ac565b949350505050565b6000825161143a818460208701611188565b9190910192915050565b73ffffffffffffffffffffffffffffffffffffffff8416815260606020820152600061147360608301856111ac565b828103604084015261148581856111ac565b9695505050505050565b6000806000606084860312156114a457600080fd5b8335925060208401359150604084013567ffffffffffffffff808211156114ca57600080fd5b818601915086601f8301126114de57600080fd5b8135818111156114f0576114f06112a5565b604051601f8201601f19908116603f01168101908382118183101715611518576115186112a5565b8160405282815289602084870101111561153157600080fd5b8260208601602083013760006020848301015280955050505050509250925092565b60007fffffffffffffffffffffffffffffffffffffffff000000000000000000000000808960601b168352808860601b16601484015250855161159d816028850160208a01611188565b8083019050856028820152838560488301376000930160480192835250909695505050505050565b8082018082111561043b577f4e487b7100000000000000000000000000000000000000000000000000000000600052601160045260246000fd5b818352818160208501375060006020828401015260006020601f19601f840116840101905092915050565b86815285602082015260a06040820152600061164960a08301876111ac565b85606084015282810360808401526116628185876115ff565b9998505050505050505050565b8035602083101561043b577fffffffffffffffffffffffffffffffffffffffffffffffffffffffffffffffff602084900360031b1b1692915050565b60007fffffffffffffffffffffffffffffffffffffffff000000000000000000000000808960601b168352808860601b16601484015250848660288401378482018460288201528351611705816048840160208801611188565b0160480198975050505050505050565b8481528360208201526060604082015260006114856060830184866115ff565b600060a0820173ffffffffffffffffffffffffffffffffffffffff88168352602060a08185015281885180845260c08601915060c08160051b8701019350828a0160005b828110156117c5577fffffffffffffffffffffffffffffffffffffffffffffffffffffffffffffff408887030184526117b38683516111ac565b95509284019290840190600101611779565b505050505082810360408401526117dc81876111ac565b7fffffffff00000000000000000000000000000000000000000000000000000000861660608501529050828103608084015261181881856111ac565b9897505050505050505056fe646174613a6170706c69636174696f6e2f6a736f6e2c7b2264617461223a227b646174617d227d646174613a746578742f706c61696e2c7b2264617461223a227b646174617d227da264697066735822122068cab31f4ee3604f907e666213c724b00e3770e769a675b0b8e6738cfff5255d64736f6c63430008100033",
    "linkReferences": {}
  },
  "methodIdentifiers": {
    "BENSYC()": "e1b6a190",
    "DESTROY()": "875e18f7",
    "ENS()": "1d2e2cc4",
    "PrimaryResolver()": "d4b348d5",
    "baseHash()": "441af61a",
    "dnsDecode(bytes)": "03e4efe5",
    "getResult(bytes32,bytes)": "75fcc911",
    "primaryDomainHash()": "c78946a3",
    "resolve(bytes,bytes)": "9061b923",
    "resolveWithoutProof(bytes,bytes)": "8e47aeb2",
    "secondaryDomainHash()": "42f0bfd1",
    "secondaryLabelHash()": "aab9d2fc",
    "supportsInterface(bytes4)": "01ffc9a7",
    "withdrawEther()": "7362377b",
    "withdrawToken(address,uint256)": "9e281a98"
  },
  "id": 12
}