{
  "abi": [
    {
      "inputs": [
        {
          "internalType": "address",
          "name": "_bensyc",
          "type": "address"
        }
      ],
      "stateMutability": "nonpayable",
      "type": "constructor"
    },
    {
      "inputs": [
        {
          "internalType": "bytes32",
          "name": "expected",
          "type": "bytes32"
        },
        {
          "internalType": "bytes32",
          "name": "provided",
          "type": "bytes32"
        }
      ],
      "name": "InvalidNamehash",
      "type": "error"
    },
    {
      "inputs": [
        {
          "internalType": "string",
          "name": "str",
          "type": "string"
        }
      ],
      "name": "InvalidParentDomain",
      "type": "error"
    },
    {
      "inputs": [
        {
          "internalType": "string",
          "name": "id",
          "type": "string"
        },
        {
          "internalType": "uint256",
          "name": "index",
          "type": "uint256"
        }
      ],
      "name": "InvalidTokenID",
      "type": "error"
    },
    {
      "inputs": [
        {
          "internalType": "address",
          "name": "sender",
          "type": "address"
        },
        {
          "internalType": "string[]",
          "name": "urls",
          "type": "string[]"
        },
        {
          "internalType": "bytes",
          "name": "callData",
          "type": "bytes"
        },
        {
          "internalType": "bytes4",
          "name": "callbackFunction",
          "type": "bytes4"
        },
        {
          "internalType": "bytes",
          "name": "extraData",
          "type": "bytes"
        }
      ],
      "name": "OffchainLookup",
      "type": "error"
    },
    {
      "inputs": [
        {
          "internalType": "bytes32",
          "name": "expected",
          "type": "bytes32"
        },
        {
          "internalType": "bytes32",
          "name": "check",
          "type": "bytes32"
        },
        {
          "internalType": "bytes",
          "name": "data",
          "type": "bytes"
        },
        {
          "internalType": "uint256",
          "name": "blknum",
          "type": "uint256"
        },
        {
          "internalType": "bytes",
          "name": "result",
          "type": "bytes"
        }
      ],
      "name": "RequestError",
      "type": "error"
    },
    {
      "inputs": [
        {
          "internalType": "bytes32",
          "name": "node",
          "type": "bytes32"
        },
        {
          "internalType": "bytes",
          "name": "data",
          "type": "bytes"
        }
      ],
      "name": "ResolverNotSet",
      "type": "error"
    },
    {
      "inputs": [
        {
          "internalType": "address",
          "name": "resolver",
          "type": "address"
        },
        {
          "internalType": "bytes",
          "name": "_call",
          "type": "bytes"
        },
        {
          "internalType": "bytes",
          "name": "_error",
          "type": "bytes"
        }
      ],
      "name": "StaticCallFailed",
      "type": "error"
    },
    {
      "stateMutability": "payable",
      "type": "fallback"
    },
    {
      "inputs": [],
      "name": "BENSYC",
      "outputs": [
        {
          "internalType": "contract iBENSYC",
          "name": "",
          "type": "address"
        }
      ],
      "stateMutability": "view",
      "type": "function"
    },
    {
      "inputs": [],
      "name": "DESTROY",
      "outputs": [],
      "stateMutability": "nonpayable",
      "type": "function"
    },
    {
      "inputs": [],
      "name": "ENS",
      "outputs": [
        {
          "internalType": "contract iENS",
          "name": "",
          "type": "address"
        }
      ],
      "stateMutability": "view",
      "type": "function"
    },
    {
      "inputs": [],
      "name": "baseHash",
      "outputs": [
        {
          "internalType": "bytes32",
          "name": "",
          "type": "bytes32"
        }
      ],
      "stateMutability": "view",
      "type": "function"
    },
    {
      "inputs": [
        {
          "internalType": "bytes",
          "name": "name",
          "type": "bytes"
        }
      ],
      "name": "dnsDecode",
      "outputs": [
        {
          "internalType": "bytes32",
          "name": "",
          "type": "bytes32"
        },
        {
          "internalType": "bool",
          "name": "",
          "type": "bool"
        }
      ],
      "stateMutability": "view",
      "type": "function"
    },
    {
      "inputs": [
        {
          "internalType": "bytes32",
          "name": "_callhash",
          "type": "bytes32"
        },
        {
          "internalType": "bytes",
          "name": "data",
          "type": "bytes"
        }
      ],
      "name": "getResult",
      "outputs": [
        {
          "internalType": "bytes",
          "name": "",
          "type": "bytes"
        }
      ],
      "stateMutability": "view",
      "type": "function"
    },
    {
      "inputs": [],
      "name": "primaryDomainHash",
      "outputs": [
        {
          "internalType": "bytes32",
          "name": "",
          "type": "bytes32"
        }
      ],
      "stateMutability": "view",
      "type": "function"
    },
    {
      "inputs": [
        {
          "internalType": "bytes",
          "name": "name",
          "type": "bytes"
        },
        {
          "internalType": "bytes",
          "name": "data",
          "type": "bytes"
        }
      ],
      "name": "resolve",
      "outputs": [
        {
          "internalType": "bytes",
          "name": "",
          "type": "bytes"
        }
      ],
      "stateMutability": "view",
      "type": "function"
    },
    {
      "inputs": [
        {
          "internalType": "bytes",
          "name": "response",
          "type": "bytes"
        },
        {
          "internalType": "bytes",
          "name": "extraData",
          "type": "bytes"
        }
      ],
      "name": "resolveWithoutProof",
      "outputs": [
        {
          "internalType": "bytes",
          "name": "",
          "type": "bytes"
        }
      ],
      "stateMutability": "view",
      "type": "function"
    },
    {
      "inputs": [],
      "name": "secondaryDomainHash",
      "outputs": [
        {
          "internalType": "bytes32",
          "name": "",
          "type": "bytes32"
        }
      ],
      "stateMutability": "view",
      "type": "function"
    },
    {
      "inputs": [
        {
          "internalType": "bytes4",
          "name": "sig",
          "type": "bytes4"
        }
      ],
      "name": "supportsInterface",
      "outputs": [
        {
          "internalType": "bool",
          "name": "",
          "type": "bool"
        }
      ],
      "stateMutability": "pure",
      "type": "function"
    },
    {
      "inputs": [],
      "name": "withdrawEther",
      "outputs": [],
      "stateMutability": "nonpayable",
      "type": "function"
    },
    {
      "inputs": [
        {
          "internalType": "address",
          "name": "_token",
          "type": "address"
        },
        {
          "internalType": "uint256",
          "name": "_bal",
          "type": "uint256"
        }
      ],
      "name": "withdrawToken",
      "outputs": [],
      "stateMutability": "nonpayable",
      "type": "function"
    },
    {
      "stateMutability": "payable",
      "type": "receive"
    }
  ],
  "bytecode": {
    "object": "0x60e060405234801561001057600080fd5b50604051611a2a380380611a2a83398101604081905261002f91610199565b60408051600060208201527f4f5b812789fc606be1b3b16908db13fc7a9adf7ca72641f84d75b47069d3d7f09181019190915260600160408051808303601f19018152828252805160209182012060a08190528383018352600684526562656e73796360d01b938201939093528151908101929092527f45f018cb234434a0198389c8a483d87ace97ad7b298925083904c99a8f46c01d9082015260600160408051808303601f19018152828252805160209182012060805260a051838301835260118452703137b932b232b739bcb0b1b43a31b63ab160791b938201939093528151908101929092527f7a46b638f71fee598932cc3ef366f2f3dcdae81da0064fba529d5ae43b3ac9c59082015260600160408051601f19818403018152919052805160209091012060c052600080546001600160a01b039092166001600160a01b0319928316179055600180549091166e0c2e074ec69a0dfb2997ba6c7d2e1e1790556101c9565b6000602082840312156101ab57600080fd5b81516001600160a01b03811681146101c257600080fd5b9392505050565b60805160a05160c051611816610214600039600081816102e201528181610c740152610d020152600081816101f50152610cb40152600081816101b30152610c3701526118166000f3fe6080604052600436106100d65760003560e01c806375fcc9111161007f5780639061b923116100595780639061b923146102905780639e281a98146102b0578063c78946a3146102d0578063e1b6a1901461030457600080fd5b806375fcc9111461022e578063875e18f71461025b5780638e47aeb21461027057600080fd5b806342f0bfd1116100b057806342f0bfd1146101a1578063441af61a146101e35780637362377b1461021757600080fd5b806301ffc9a7146100e557806303e4efe51461011a5780631d2e2cc41461014f57600080fd5b366100e057600080fd5b600080fd5b3480156100f157600080fd5b50610105610100366004610fe3565b610331565b60405190151581526020015b60405180910390f35b34801561012657600080fd5b5061013a61013536600461106e565b6103ca565b60408051928352901515602083015201610111565b34801561015b57600080fd5b5060015461017c9073ffffffffffffffffffffffffffffffffffffffff1681565b60405173ffffffffffffffffffffffffffffffffffffffff9091168152602001610111565b3480156101ad57600080fd5b506101d57f000000000000000000000000000000000000000000000000000000000000000081565b604051908152602001610111565b3480156101ef57600080fd5b506101d57f000000000000000000000000000000000000000000000000000000000000000081565b34801561022357600080fd5b5061022c610764565b005b34801561023a57600080fd5b5061024e6102493660046110b0565b610859565b604051610111919061114c565b34801561026757600080fd5b5061022c610a7b565b34801561027c57600080fd5b5061024e61028b36600461115f565b610b44565b34801561029c57600080fd5b5061024e6102ab36600461115f565b610c30565b3480156102bc57600080fd5b5061022c6102cb3660046111ed565b610e8d565b3480156102dc57600080fd5b506101d57f000000000000000000000000000000000000000000000000000000000000000081565b34801561031057600080fd5b5060005461017c9073ffffffffffffffffffffffffffffffffffffffff1681565b60007fffffffff0000000000000000000000000000000000000000000000000000000082167f9061b9230000000000000000000000000000000000000000000000000000000014806103c457507fffffffff0000000000000000000000000000000000000000000000000000000082167f01ffc9a700000000000000000000000000000000000000000000000000000000145b92915050565b60408051600480825260a082019092526000918291829182918291816020015b60608152602001906001900390816103ea57905050905060005b87878581811061041657610416611248565b909101357fff00000000000000000000000000000000000000000000000000000000000000161590506104d3576001840193610455908590898b611277565b61045e916112a1565b60f81c84810194909150610475908590898b611277565b8080601f01602080910402602001604051908101604052809392919081815260200183838082843760009201919091525050845185925086915081106104bd576104bd611248565b6020026020010181905250826001019250610404565b60009350600092505b816000815181106104ef576104ef611248565b60200260200101515183101561064057603060f81b8260008151811061051757610517611248565b6020026020010151848151811061053057610530611248565b01602001517fff000000000000000000000000000000000000000000000000000000000000001610806105b85750603960f81b8260008151811061057657610576611248565b6020026020010151848151811061058f5761058f611248565b01602001517fff0000000000000000000000000000000000000000000000000000000000000016115b156105ee57816000815181106105d0576105d0611248565b6020026020010151805190602001206000955095505050505061075d565b60308260008151811061060357610603611248565b6020026020010151848151811061061c5761061c611248565b602001015160f81c60f81b60f81c0360ff1684600a020193508260010192506104dc565b60008054906101000a900473ffffffffffffffffffffffffffffffffffffffff1673ffffffffffffffffffffffffffffffffffffffff166318160ddd6040518163ffffffff1660e01b8152600401602060405180830381865afa1580156106ab573d6000803e3d6000fd5b505050506040513d601f19601f820116820180604052508101906106cf91906112e9565b841061073057816000815181106106e8576106e8611248565b60200260200101516127106040517fb0aeaab2000000000000000000000000000000000000000000000000000000008152600401610727929190611302565b60405180910390fd5b8160008151811061074357610743611248565b602002602001015180519060200120600195509550505050505b9250929050565b60008054906101000a900473ffffffffffffffffffffffffffffffffffffffff1673ffffffffffffffffffffffffffffffffffffffff166301e51ae86040518163ffffffff1660e01b8152600401602060405180830381865afa1580156107cf573d6000803e3d6000fd5b505050506040513d601f19601f820116820180604052508101906107f39190611324565b73ffffffffffffffffffffffffffffffffffffffff163373ffffffffffffffffffffffffffffffffffffffff161461082a57600080fd5b60405133904780156108fc02916000818181858888f19350505050158015610856573d6000803e3d6000fd5b50565b606060006024831161089a57610873600460008587611277565b8660405160200161088693929190611341565b6040516020818303038152906040526108da565b6108a8600460008587611277565b866108b6866024818a611277565b6040516020016108ca959493929190611353565b6040516020818303038152906040525b6001546040517f0178b8bf0000000000000000000000000000000000000000000000000000000081526004810188905291925060009173ffffffffffffffffffffffffffffffffffffffff90911690630178b8bf90602401602060405180830381865afa15801561094f573d6000803e3d6000fd5b505050506040513d601f19601f820116820180604052508101906109739190611324565b905073ffffffffffffffffffffffffffffffffffffffff81166109c65785826040517fb0c6789f00000000000000000000000000000000000000000000000000000000815260040161072792919061137b565b6000808273ffffffffffffffffffffffffffffffffffffffff16846040516109ee919061139c565b600060405180830381855afa9150503d8060008114610a29576040519150601f19603f3d011682016040523d82523d6000602084013e610a2e565b606091505b509150915081610a70578284826040517f77c60813000000000000000000000000000000000000000000000000000000008152600401610727939291906113b8565b979650505050505050565b60008054906101000a900473ffffffffffffffffffffffffffffffffffffffff1673ffffffffffffffffffffffffffffffffffffffff166301e51ae86040518163ffffffff1660e01b8152600401602060405180830381865afa158015610ae6573d6000803e3d6000fd5b505050506040513d601f19601f82011682018060405250810190610b0a9190611324565b73ffffffffffffffffffffffffffffffffffffffff163373ffffffffffffffffffffffffffffffffffffffff1614610b4157600080fd5b33ff5b606060008080610b5685870187611403565b9250925092506000333083858c8c604051602001610b79969594939291906114c7565b6040516020818303038152906040528051906020012090508381141580610ba95750610ba6836005611539565b43115b15610bec57838183858c8c6040517f1e154c320000000000000000000000000000000000000000000000000000000081526004016107279695949392919061159e565b88888080601f016020809104026020016040519081016040528093929190818152602001838380828437600092019190915250929c9b505050505050505050505050565b60606000807f0000000000000000000000000000000000000000000000000000000000000000610c64602460048789611277565b610c6d916115e3565b03610c9a577f00000000000000000000000000000000000000000000000000000000000000009150610d49565b610ca487876103ca565b909250905080610cfc57604080517f0000000000000000000000000000000000000000000000000000000000000000602082015290810183905260600160405160208183030381529060405280519060200120610d46565b604080517f00000000000000000000000000000000000000000000000000000000000000006020820152908101839052606001604051602081830303815290604052805190602001205b91505b6000610d56838787610859565b6040805160028082526060820190925291925060009190816020015b6060815260200190600190039081610d725790505090506040518060600160405280602181526020016117c06021913981600081518110610db557610db5611248565b60200260200101819052506040518060600160405280602781526020016117996027913981600181518110610dec57610dec611248565b6020026020010181905250308183638e47aeb260e01b33308c8c438a604051602001610e1d9695949392919061161f565b60405160208183030381529060405280519060200120438c8c604051602001610e499493929190611689565b60408051601f19818403018152908290527f556f183000000000000000000000000000000000000000000000000000000000825261072795949392916004016116a9565b60008054906101000a900473ffffffffffffffffffffffffffffffffffffffff1673ffffffffffffffffffffffffffffffffffffffff166301e51ae86040518163ffffffff1660e01b8152600401602060405180830381865afa158015610ef8573d6000803e3d6000fd5b505050506040513d601f19601f82011682018060405250810190610f1c9190611324565b73ffffffffffffffffffffffffffffffffffffffff163373ffffffffffffffffffffffffffffffffffffffff1614610f5357600080fd5b6040517f23b872dd0000000000000000000000000000000000000000000000000000000081523060048201523360248201526044810182905273ffffffffffffffffffffffffffffffffffffffff8316906323b872dd90606401600060405180830381600087803b158015610fc757600080fd5b505af1158015610fdb573d6000803e3d6000fd5b505050505050565b600060208284031215610ff557600080fd5b81357fffffffff000000000000000000000000000000000000000000000000000000008116811461102557600080fd5b9392505050565b60008083601f84011261103e57600080fd5b50813567ffffffffffffffff81111561105657600080fd5b60208301915083602082850101111561075d57600080fd5b6000806020838503121561108157600080fd5b823567ffffffffffffffff81111561109857600080fd5b6110a48582860161102c565b90969095509350505050565b6000806000604084860312156110c557600080fd5b83359250602084013567ffffffffffffffff8111156110e357600080fd5b6110ef8682870161102c565b9497909650939450505050565b60005b838110156111175781810151838201526020016110ff565b50506000910152565b600081518084526111388160208601602086016110fc565b601f01601f19169290920160200192915050565b6020815260006110256020830184611120565b6000806000806040858703121561117557600080fd5b843567ffffffffffffffff8082111561118d57600080fd5b6111998883890161102c565b909650945060208701359150808211156111b257600080fd5b506111bf8782880161102c565b95989497509550505050565b73ffffffffffffffffffffffffffffffffffffffff8116811461085657600080fd5b6000806040838503121561120057600080fd5b823561120b816111cb565b946020939093013593505050565b7f4e487b7100000000000000000000000000000000000000000000000000000000600052604160045260246000fd5b7f4e487b7100000000000000000000000000000000000000000000000000000000600052603260045260246000fd5b6000808585111561128757600080fd5b8386111561129457600080fd5b5050820193919092039150565b7fff0000000000000000000000000000000000000000000000000000000000000081358181169160018510156112e15780818660010360031b1b83161692505b505092915050565b6000602082840312156112fb57600080fd5b5051919050565b6040815260006113156040830185611120565b90508260208301529392505050565b60006020828403121561133657600080fd5b8151611025816111cb565b82848237909101908152602001919050565b8486823760008582018581528385602083013760009301602001928352509095945050505050565b8281526040602082015260006113946040830184611120565b949350505050565b600082516113ae8184602087016110fc565b9190910192915050565b73ffffffffffffffffffffffffffffffffffffffff841681526060602082015260006113e76060830185611120565b82810360408401526113f98185611120565b9695505050505050565b60008060006060848603121561141857600080fd5b8335925060208401359150604084013567ffffffffffffffff8082111561143e57600080fd5b818601915086601f83011261145257600080fd5b81358181111561146457611464611219565b604051601f8201601f19908116603f0116810190838211818310171561148c5761148c611219565b816040528281528960208487010111156114a557600080fd5b8260208601602083013760006020848301015280955050505050509250925092565b60007fffffffffffffffffffffffffffffffffffffffff000000000000000000000000808960601b168352808860601b166014840152508551611511816028850160208a016110fc565b8083019050856028820152838560488301376000930160480192835250909695505050505050565b808201808211156103c4577f4e487b7100000000000000000000000000000000000000000000000000000000600052601160045260246000fd5b818352818160208501375060006020828401015260006020601f19601f840116840101905092915050565b86815285602082015260a0604082015260006115bd60a0830187611120565b85606084015282810360808401526115d6818587611573565b9998505050505050505050565b803560208310156103c4577fffffffffffffffffffffffffffffffffffffffffffffffffffffffffffffffff602084900360031b1b1692915050565b60007fffffffffffffffffffffffffffffffffffffffff000000000000000000000000808960601b168352808860601b166014840152508486602884013784820184602882015283516116798160488401602088016110fc565b0160480198975050505050505050565b8481528360208201526060604082015260006113f9606083018486611573565b600060a0820173ffffffffffffffffffffffffffffffffffffffff88168352602060a08185015281885180845260c08601915060c08160051b8701019350828a0160005b82811015611739577fffffffffffffffffffffffffffffffffffffffffffffffffffffffffffffff40888703018452611727868351611120565b955092840192908401906001016116ed565b505050505082810360408401526117508187611120565b7fffffffff00000000000000000000000000000000000000000000000000000000861660608501529050828103608084015261178c8185611120565b9897505050505050505056fe646174613a6170706c69636174696f6e2f6a736f6e2c7b2264617461223a227b646174617d227d646174613a746578742f706c61696e2c7b2264617461223a227b646174617d227da26469706673582212206fd8be07216f830d9d96a173d28391e90607fe86c8d1fb3fb72430cf60aa66c964736f6c63430008100033",
    "linkReferences": {}
  },
  "methodIdentifiers": {
    "BENSYC()": "e1b6a190",
    "DESTROY()": "875e18f7",
    "ENS()": "1d2e2cc4",
    "baseHash()": "441af61a",
    "dnsDecode(bytes)": "03e4efe5",
    "getResult(bytes32,bytes)": "75fcc911",
    "primaryDomainHash()": "c78946a3",
    "resolve(bytes,bytes)": "9061b923",
    "resolveWithoutProof(bytes,bytes)": "8e47aeb2",
    "secondaryDomainHash()": "42f0bfd1",
    "supportsInterface(bytes4)": "01ffc9a7",
    "withdrawEther()": "7362377b",
    "withdrawToken(address,uint256)": "9e281a98"
  },
  "id": 13
}