{
  "abi": [
    {
      "inputs": [
        {
          "internalType": "address",
          "name": "_bensyc",
          "type": "address"
        }
      ],
      "stateMutability": "nonpayable",
      "type": "constructor"
    },
    {
      "inputs": [
        {
          "internalType": "bytes32",
          "name": "expected",
          "type": "bytes32"
        },
        {
          "internalType": "bytes32",
          "name": "provided",
          "type": "bytes32"
        }
      ],
      "name": "InvalidNamehash",
      "type": "error"
    },
    {
      "inputs": [
        {
          "internalType": "string",
          "name": "str",
          "type": "string"
        }
      ],
      "name": "InvalidParentDomain",
      "type": "error"
    },
    {
      "inputs": [
        {
          "internalType": "string",
          "name": "id",
          "type": "string"
        },
        {
          "internalType": "uint256",
          "name": "index",
          "type": "uint256"
        }
      ],
      "name": "InvalidTokenID",
      "type": "error"
    },
    {
      "inputs": [
        {
          "internalType": "address",
          "name": "sender",
          "type": "address"
        },
        {
          "internalType": "string[]",
          "name": "urls",
          "type": "string[]"
        },
        {
          "internalType": "bytes",
          "name": "callData",
          "type": "bytes"
        },
        {
          "internalType": "bytes4",
          "name": "callbackFunction",
          "type": "bytes4"
        },
        {
          "internalType": "bytes",
          "name": "extraData",
          "type": "bytes"
        }
      ],
      "name": "OffchainLookup",
      "type": "error"
    },
    {
      "inputs": [
        {
          "internalType": "bytes32",
          "name": "expected",
          "type": "bytes32"
        },
        {
          "internalType": "bytes32",
          "name": "check",
          "type": "bytes32"
        },
        {
          "internalType": "bytes",
          "name": "data",
          "type": "bytes"
        },
        {
          "internalType": "uint256",
          "name": "blknum",
          "type": "uint256"
        },
        {
          "internalType": "bytes",
          "name": "result",
          "type": "bytes"
        }
      ],
      "name": "RequestError",
      "type": "error"
    },
    {
      "inputs": [
        {
          "internalType": "address",
          "name": "resolver",
          "type": "address"
        },
        {
          "internalType": "bytes",
          "name": "_call",
          "type": "bytes"
        }
      ],
      "name": "StaticCallFailed",
      "type": "error"
    },
    {
      "stateMutability": "payable",
      "type": "fallback"
    },
    {
      "inputs": [],
      "name": "BENSYC",
      "outputs": [
        {
          "internalType": "contract iBENSYC",
          "name": "",
          "type": "address"
        }
      ],
      "stateMutability": "view",
      "type": "function"
    },
    {
      "inputs": [],
      "name": "DESTROY",
      "outputs": [],
      "stateMutability": "nonpayable",
      "type": "function"
    },
    {
      "inputs": [],
      "name": "ENS",
      "outputs": [
        {
          "internalType": "contract iENS",
          "name": "",
          "type": "address"
        }
      ],
      "stateMutability": "view",
      "type": "function"
    },
    {
      "inputs": [],
      "name": "PrimaryResolver",
      "outputs": [
        {
          "internalType": "address",
          "name": "",
          "type": "address"
        }
      ],
      "stateMutability": "view",
      "type": "function"
    },
    {
      "inputs": [
        {
          "internalType": "bytes",
          "name": "name",
          "type": "bytes"
        }
      ],
      "name": "dnsDecode",
      "outputs": [
        {
          "internalType": "bytes32",
          "name": "",
          "type": "bytes32"
        }
      ],
      "stateMutability": "view",
      "type": "function"
    },
    {
      "inputs": [
        {
          "internalType": "bytes32",
          "name": "_primaryNamehash",
          "type": "bytes32"
        },
        {
          "internalType": "bytes",
          "name": "data",
          "type": "bytes"
        }
      ],
      "name": "getResult",
      "outputs": [
        {
          "internalType": "bytes",
          "name": "",
          "type": "bytes"
        }
      ],
      "stateMutability": "view",
      "type": "function"
    },
    {
      "inputs": [],
      "name": "primaryDomainHash",
      "outputs": [
        {
          "internalType": "bytes32",
          "name": "",
          "type": "bytes32"
        }
      ],
      "stateMutability": "view",
      "type": "function"
    },
    {
      "inputs": [
        {
          "internalType": "bytes",
          "name": "name",
          "type": "bytes"
        },
        {
          "internalType": "bytes",
          "name": "data",
          "type": "bytes"
        }
      ],
      "name": "resolve",
      "outputs": [
        {
          "internalType": "bytes",
          "name": "",
          "type": "bytes"
        }
      ],
      "stateMutability": "view",
      "type": "function"
    },
    {
      "inputs": [
        {
          "internalType": "bytes",
          "name": "response",
          "type": "bytes"
        },
        {
          "internalType": "bytes",
          "name": "extraData",
          "type": "bytes"
        }
      ],
      "name": "resolveWithoutProof",
      "outputs": [
        {
          "internalType": "bytes",
          "name": "",
          "type": "bytes"
        }
      ],
      "stateMutability": "view",
      "type": "function"
    },
    {
      "inputs": [],
      "name": "secondaryDomainHash",
      "outputs": [
        {
          "internalType": "bytes32",
          "name": "",
          "type": "bytes32"
        }
      ],
      "stateMutability": "view",
      "type": "function"
    },
    {
      "inputs": [],
      "name": "secondaryLabelHash",
      "outputs": [
        {
          "internalType": "bytes32",
          "name": "",
          "type": "bytes32"
        }
      ],
      "stateMutability": "view",
      "type": "function"
    },
    {
      "inputs": [
        {
          "internalType": "bytes4",
          "name": "sig",
          "type": "bytes4"
        }
      ],
      "name": "supportsInterface",
      "outputs": [
        {
          "internalType": "bool",
          "name": "",
          "type": "bool"
        }
      ],
      "stateMutability": "pure",
      "type": "function"
    },
    {
      "inputs": [],
      "name": "withdraw",
      "outputs": [],
      "stateMutability": "nonpayable",
      "type": "function"
    },
    {
      "inputs": [
        {
          "internalType": "address",
          "name": "_token",
          "type": "address"
        },
        {
          "internalType": "uint256",
          "name": "_bal",
          "type": "uint256"
        }
      ],
      "name": "withdraw",
      "outputs": [],
      "stateMutability": "nonpayable",
      "type": "function"
    },
    {
      "stateMutability": "payable",
      "type": "receive"
    }
  ],
  "bytecode": {
    "object": "0x610120604052600660e0526562656e73796360d01b610100527f45f018cb234434a0198389c8a483d87ace97ad7b298925083904c99a8f46c01d60805234801561004857600080fd5b50604051611bc8380380611bc883398101604081905261006791610192565b604080516000602082018190527f4f5b812789fc606be1b3b16908db13fc7a9adf7ca72641f84d75b47069d3d7f09282019290925260600160408051601f19818403018152828252805160209182012060805191840181905291830152915060600160408051808303601f19018152828252805160209182012060a052828201825260118352703137b932b232b739bcb0b1b43a31b63ab160791b9281019290925280519182018390527f7a46b638f71fee598932cc3ef366f2f3dcdae81da0064fba529d5ae43b3ac9c59082015260600160408051601f19818403018152919052805160209091012060c05250600080546001600160a01b039092166001600160a01b0319928316179055600180549091166e0c2e074ec69a0dfb2997ba6c7d2e1e1790556101c2565b6000602082840312156101a457600080fd5b81516001600160a01b03811681146101bb57600080fd5b9392505050565b60805160a05160c0516119ad61021b600039600081816102b801528181610d340152610e6c0152600081816101ce01528181610cf601528181610d810152610dcf015260008181610284015261051401526119ad6000f3fe6080604052600436106100e15760003560e01c80638e47aeb21161007f578063c78946a311610059578063c78946a3146102a6578063d4b348d5146102da578063e1b6a19014610307578063f3fef3a31461033457600080fd5b80638e47aeb2146102325780639061b92314610252578063aab9d2fc1461027257600080fd5b80633ccfd60b116100bb5780633ccfd60b146101a557806342f0bfd1146101bc57806375fcc911146101f0578063875e18f71461021d57600080fd5b806301ffc9a7146100f057806303e4efe5146101255780631d2e2cc41461015357600080fd5b366100eb57600080fd5b600080fd5b3480156100fc57600080fd5b5061011061010b366004611114565b610354565b60405190151581526020015b60405180910390f35b34801561013157600080fd5b506101456101403660046111a6565b6103ed565b60405190815260200161011c565b34801561015f57600080fd5b506001546101809073ffffffffffffffffffffffffffffffffffffffff1681565b60405173ffffffffffffffffffffffffffffffffffffffff909116815260200161011c565b3480156101b157600080fd5b506101ba61086b565b005b3480156101c857600080fd5b506101457f000000000000000000000000000000000000000000000000000000000000000081565b3480156101fc57600080fd5b5061021061020b3660046111e8565b610960565b60405161011c9190611290565b34801561022957600080fd5b506101ba610b3b565b34801561023e57600080fd5b5061021061024d3660046112a3565b610c04565b34801561025e57600080fd5b5061021061026d3660046112a3565b610cf0565b34801561027e57600080fd5b506101457f000000000000000000000000000000000000000000000000000000000000000081565b3480156102b257600080fd5b506101457f000000000000000000000000000000000000000000000000000000000000000081565b3480156102e657600080fd5b506002546101809073ffffffffffffffffffffffffffffffffffffffff1681565b34801561031357600080fd5b506000546101809073ffffffffffffffffffffffffffffffffffffffff1681565b34801561034057600080fd5b506101ba61034f366004611331565b610fbe565b60007fffffffff0000000000000000000000000000000000000000000000000000000082167f9061b9230000000000000000000000000000000000000000000000000000000014806103e757507fffffffff0000000000000000000000000000000000000000000000000000000082167f01ffc9a700000000000000000000000000000000000000000000000000000000145b92915050565b604080516007808252610100820190925260009182918291829190816020015b606081526020019060019003908161040d5790505090505b8585848181106104375761043761138c565b909101357fff0000000000000000000000000000000000000000000000000000000000000016159050610512576000868487610472826113ea565b96506104819287929190611422565b61048a9161144c565b60f81c905086848761049c8483611494565b96506104ab9287929190611422565b8080601f01602080910402602001604051908101604052809392919081815260200183838082843760009201919091525050845185925086915081106104f3576104f361138c565b60200260200101819052508280610509906113ea565b93505050610425565b7f0000000000000000000000000000000000000000000000000000000000000000816001815181106105465761054661138c565b602002602001015180519060200120146105b1578060018151811061056d5761056d61138c565b60200260200101516040517f4739a7cb0000000000000000000000000000000000000000000000000000000081526004016105a89190611290565b60405180910390fd5b60009250600091505b806000815181106105cd576105cd61138c565b60200260200101515182101561075757603060f81b816000815181106105f5576105f561138c565b6020026020010151838151811061060e5761060e61138c565b01602001517fff000000000000000000000000000000000000000000000000000000000000001610806106965750603960f81b816000815181106106545761065461138c565b6020026020010151838151811061066d5761066d61138c565b01602001517fff0000000000000000000000000000000000000000000000000000000000000016115b156106eb57806000815181106106ae576106ae61138c565b6020026020010151836040517fb0aeaab20000000000000000000000000000000000000000000000000000000081526004016105a89291906114ac565b6030816000815181106107005761070061138c565b602002602001015183815181106107195761071961138c565b016020015161072b919060f81c6114ce565b60ff1661073984600a6114f1565b6107439190611494565b92508161074f816113ea565b9250506105ba565b60008054906101000a900473ffffffffffffffffffffffffffffffffffffffff1673ffffffffffffffffffffffffffffffffffffffff166318160ddd6040518163ffffffff1660e01b8152600401602060405180830381865afa1580156107c2573d6000803e3d6000fd5b505050506040513d601f19601f820116820180604052508101906107e6919061152e565b831061083e57806000815181106107ff576107ff61138c565b60200260200101516127106040517fb0aeaab20000000000000000000000000000000000000000000000000000000081526004016105a89291906114ac565b806000815181106108515761085161138c565b602002602001015180519060200120935050505092915050565b60008054906101000a900473ffffffffffffffffffffffffffffffffffffffff1673ffffffffffffffffffffffffffffffffffffffff166301e51ae86040518163ffffffff1660e01b8152600401602060405180830381865afa1580156108d6573d6000803e3d6000fd5b505050506040513d601f19601f820116820180604052508101906108fa9190611547565b73ffffffffffffffffffffffffffffffffffffffff163373ffffffffffffffffffffffffffffffffffffffff161461093157600080fd5b60405133904780156108fc02916000818181858888f1935050505015801561095d573d6000803e3d6000fd5b50565b60606000602483116109a15761097a600460008587611422565b8660405160200161098d93929190611564565b6040516020818303038152906040526109e1565b6109af600460008587611422565b866109bd866024818a611422565b6040516020016109d1959493929190611576565b6040516020818303038152906040525b6001546040517f0178b8bf0000000000000000000000000000000000000000000000000000000081526004810188905291925060009173ffffffffffffffffffffffffffffffffffffffff90911690630178b8bf90602401602060405180830381865afa158015610a56573d6000803e3d6000fd5b505050506040513d601f19601f82011682018060405250810190610a7a9190611547565b90506000808273ffffffffffffffffffffffffffffffffffffffff1684604051610aa4919061159e565b600060405180830381855afa9150503d8060008114610adf576040519150601f19603f3d011682016040523d82523d6000602084013e610ae4565b606091505b5091509150811580610af557508051155b15610b305782846040517fdfd8d5810000000000000000000000000000000000000000000000000000000081526004016105a89291906115ba565b979650505050505050565b60008054906101000a900473ffffffffffffffffffffffffffffffffffffffff1673ffffffffffffffffffffffffffffffffffffffff166301e51ae86040518163ffffffff1660e01b8152600401602060405180830381865afa158015610ba6573d6000803e3d6000fd5b505050506040513d601f19601f82011682018060405250810190610bca9190611547565b73ffffffffffffffffffffffffffffffffffffffff163373ffffffffffffffffffffffffffffffffffffffff1614610c0157600080fd5b33ff5b606060008080610c16858701876115f1565b9250925092506000333083858c8c604051602001610c39969594939291906116b5565b6040516020818303038152906040528051906020012090508381141580610c695750610c66836005611494565b43115b15610cac57838183858c8c6040517f1e154c320000000000000000000000000000000000000000000000000000000081526004016105a896959493929190611752565b88888080601f016020809104026020016040519081016040528093929190818152602001838380828437600092019190915250929c9b505050505050505050505050565b606060007f0000000000000000000000000000000000000000000000000000000000000000610d23602460048688611422565b610d2c91611797565b03610d5857507f0000000000000000000000000000000000000000000000000000000000000000610eb2565b610d6286866103ed565b9050610d72602460048587611422565b610d7b91611797565b604080517f000000000000000000000000000000000000000000000000000000000000000060208201529081018390526060016040516020818303038152906040528051906020012014610e6657604080517f0000000000000000000000000000000000000000000000000000000000000000602082015290810182905260600160408051601f198184030181529190528051602090910120610e22602460048688611422565b610e2b91611797565b6040517fb2205450000000000000000000000000000000000000000000000000000000008152600481019290925260248201526044016105a8565b604080517f000000000000000000000000000000000000000000000000000000000000000060208201529081018290526060016040516020818303038152906040528051906020012090505b6000610ebf828686610960565b60408051600180825281830190925291925060009190816020015b6060815260200190600190039081610eda5790505090506040518060600160405280602181526020016119576021913981600081518110610f1d57610f1d61138c565b6020026020010181905250308183638e47aeb260e01b33308b8b438a604051602001610f4e969594939291906117d3565b60405160208183030381529060405280519060200120438b8b604051602001610f7a949392919061183d565b60408051601f19818403018152908290527f556f18300000000000000000000000000000000000000000000000000000000082526105a89594939291600401611867565b60008054906101000a900473ffffffffffffffffffffffffffffffffffffffff1673ffffffffffffffffffffffffffffffffffffffff166301e51ae86040518163ffffffff1660e01b8152600401602060405180830381865afa158015611029573d6000803e3d6000fd5b505050506040513d601f19601f8201168201806040525081019061104d9190611547565b73ffffffffffffffffffffffffffffffffffffffff163373ffffffffffffffffffffffffffffffffffffffff161461108457600080fd5b6040517f23b872dd0000000000000000000000000000000000000000000000000000000081523060048201523360248201526044810182905273ffffffffffffffffffffffffffffffffffffffff8316906323b872dd90606401600060405180830381600087803b1580156110f857600080fd5b505af115801561110c573d6000803e3d6000fd5b505050505050565b60006020828403121561112657600080fd5b81357fffffffff000000000000000000000000000000000000000000000000000000008116811461115657600080fd5b9392505050565b60008083601f84011261116f57600080fd5b50813567ffffffffffffffff81111561118757600080fd5b60208301915083602082850101111561119f57600080fd5b9250929050565b600080602083850312156111b957600080fd5b823567ffffffffffffffff8111156111d057600080fd5b6111dc8582860161115d565b90969095509350505050565b6000806000604084860312156111fd57600080fd5b83359250602084013567ffffffffffffffff81111561121b57600080fd5b6112278682870161115d565b9497909650939450505050565b60005b8381101561124f578181015183820152602001611237565b8381111561125e576000848401525b50505050565b6000815180845261127c816020860160208601611234565b601f01601f19169290920160200192915050565b6020815260006111566020830184611264565b600080600080604085870312156112b957600080fd5b843567ffffffffffffffff808211156112d157600080fd5b6112dd8883890161115d565b909650945060208701359150808211156112f657600080fd5b506113038782880161115d565b95989497509550505050565b73ffffffffffffffffffffffffffffffffffffffff8116811461095d57600080fd5b6000806040838503121561134457600080fd5b823561134f8161130f565b946020939093013593505050565b7f4e487b7100000000000000000000000000000000000000000000000000000000600052604160045260246000fd5b7f4e487b7100000000000000000000000000000000000000000000000000000000600052603260045260246000fd5b7f4e487b7100000000000000000000000000000000000000000000000000000000600052601160045260246000fd5b60007fffffffffffffffffffffffffffffffffffffffffffffffffffffffffffffffff820361141b5761141b6113bb565b5060010190565b6000808585111561143257600080fd5b8386111561143f57600080fd5b5050820193919092039150565b7fff00000000000000000000000000000000000000000000000000000000000000813581811691600185101561148c5780818660010360031b1b83161692505b505092915050565b600082198211156114a7576114a76113bb565b500190565b6040815260006114bf6040830185611264565b90508260208301529392505050565b600060ff821660ff8416808210156114e8576114e86113bb565b90039392505050565b6000817fffffffffffffffffffffffffffffffffffffffffffffffffffffffffffffffff0483118215151615611529576115296113bb565b500290565b60006020828403121561154057600080fd5b5051919050565b60006020828403121561155957600080fd5b81516111568161130f565b82848237909101908152602001919050565b8486823760008582018581528385602083013760009301602001928352509095945050505050565b600082516115b0818460208701611234565b9190910192915050565b73ffffffffffffffffffffffffffffffffffffffff831681526040602082015260006115e96040830184611264565b949350505050565b60008060006060848603121561160657600080fd5b8335925060208401359150604084013567ffffffffffffffff8082111561162c57600080fd5b818601915086601f83011261164057600080fd5b8135818111156116525761165261135d565b604051601f8201601f19908116603f0116810190838211818310171561167a5761167a61135d565b8160405282815289602084870101111561169357600080fd5b8260208601602083013760006020848301015280955050505050509250925092565b60007fffffffffffffffffffffffffffffffffffffffff000000000000000000000000808960601b168352808860601b1660148401525085516116ff816028850160208a01611234565b8083019050856028820152838560488301376000930160480192835250909695505050505050565b818352818160208501375060006020828401015260006020601f19601f840116840101905092915050565b86815285602082015260a06040820152600061177160a0830187611264565b856060840152828103608084015261178a818587611727565b9998505050505050505050565b803560208310156103e7577fffffffffffffffffffffffffffffffffffffffffffffffffffffffffffffffff602084900360031b1b1692915050565b60007fffffffffffffffffffffffffffffffffffffffff000000000000000000000000808960601b168352808860601b1660148401525084866028840137848201846028820152835161182d816048840160208801611234565b0160480198975050505050505050565b84815283602082015260606040820152600061185d606083018486611727565b9695505050505050565b600060a0820173ffffffffffffffffffffffffffffffffffffffff88168352602060a08185015281885180845260c08601915060c08160051b8701019350828a0160005b828110156118f7577fffffffffffffffffffffffffffffffffffffffffffffffffffffffffffffff408887030184526118e5868351611264565b955092840192908401906001016118ab565b5050505050828103604084015261190e8187611264565b7fffffffff00000000000000000000000000000000000000000000000000000000861660608501529050828103608084015261194a8185611264565b9897505050505050505056fe646174613a746578742f706c61696e2c7b2264617461223a227b646174617d227da2646970667358221220348cc88ab6ef01d9a39f039515ebcf47b04652cc2285ad7e9f666a429a97267364736f6c634300080f0033",
    "linkReferences": {}
  },
  "methodIdentifiers": {
    "BENSYC()": "e1b6a190",
    "DESTROY()": "875e18f7",
    "ENS()": "1d2e2cc4",
    "PrimaryResolver()": "d4b348d5",
    "dnsDecode(bytes)": "03e4efe5",
    "getResult(bytes32,bytes)": "75fcc911",
    "primaryDomainHash()": "c78946a3",
    "resolve(bytes,bytes)": "9061b923",
    "resolveWithoutProof(bytes,bytes)": "8e47aeb2",
    "secondaryDomainHash()": "42f0bfd1",
    "secondaryLabelHash()": "aab9d2fc",
    "supportsInterface(bytes4)": "01ffc9a7",
    "withdraw()": "3ccfd60b",
    "withdraw(address,uint256)": "f3fef3a3"
  },
  "id": 11
}