{
  "abi": [
    {
      "inputs": [],
      "name": "DESTROY",
      "outputs": [],
      "stateMutability": "nonpayable",
      "type": "function"
    },
    {
      "inputs": [],
      "name": "Dev",
      "outputs": [
        {
          "internalType": "address",
          "name": "",
          "type": "address"
        }
      ],
      "stateMutability": "view",
      "type": "function"
    },
    {
      "inputs": [
        {
          "internalType": "uint256",
          "name": "id",
          "type": "uint256"
        }
      ],
      "name": "generate",
      "outputs": [
        {
          "internalType": "string",
          "name": "",
          "type": "string"
        }
      ],
      "stateMutability": "view",
      "type": "function"
    },
    {
      "inputs": [
        {
          "internalType": "uint256",
          "name": "id",
          "type": "uint256"
        }
      ],
      "name": "image",
      "outputs": [
        {
          "internalType": "string",
          "name": "",
          "type": "string"
        }
      ],
      "stateMutability": "view",
      "type": "function"
    }
  ],
  "bytecode": {
    "object": "0x61018060405260de60808181529062001a7060a039600190620000239082620004d0565b506040518060e0016040528060be8152602001620019b260be91396002906200004d9082620004d0565b506040518061020001604052806101cc815260200162001b4e6101cc91396003906200007a9082620004d0565b50604051806104c0016040528061049c815260200162001d1a61049c9139600490620000a79082620004d0565b50604080516101a08101825260016101608201908152600360fc1b610180830152815281518083018352600280825261031360f41b602083810191909152808401929092528351808501855281815261032360f41b81840152838501528351808501855281815261033360f41b8184015260608401528351808501855281815261034360f41b8184015260808401528351808501855281815261035360f41b8184015260a08401528351808501855281815261036360f41b8184015260c08401528351808501855281815261037360f41b8184015260e08401528351808501855281815261038360f41b818401526101008401528351808501855290815261039360f41b818301526101208301528251808401909352600383526203130360ec1b90830152610140810191909152620001e590600590600b62000354565b50604080516101a08101825260046101608201818152635a65726f60e01b6101808401528252825180840184526003808252624f6e6560e81b60208381019190915280850192909252845180860186528181526254776f60e81b818401528486015284518086018652600580825264546872656560d81b82850152606086019190915285518087018752848152632337bab960e11b81850152608086015285518087018752848152634669766560e01b8185015260a086015285518087018752828152620a6d2f60eb1b8185015260c0860152855180870187528181526429b2bb32b760d91b8185015260e08601528551808701875290815264115a59da1d60da1b8184015261010085015284518086018652928352634e696e6560e01b838301526101208401929092528351808501909452908352622a32b760e91b908301526101408101919091526200033f90600690600b62000354565b503480156200034d57600080fd5b506200059c565b8280548282559060005260206000209081019282156200039f579160200282015b828111156200039f57825182906200038e9082620004d0565b509160200191906001019062000375565b50620003ad929150620003b1565b5090565b80821115620003ad576000620003c88282620003d2565b50600101620003b1565b508054620003e09062000441565b6000825580601f10620003f1575050565b601f01602090049060005260206000209081019062000411919062000414565b50565b5b80821115620003ad576000815560010162000415565b634e487b7160e01b600052604160045260246000fd5b600181811c908216806200045657607f821691505b6020821081036200047757634e487b7160e01b600052602260045260246000fd5b50919050565b601f821115620004cb57600081815260208120601f850160051c81016020861015620004a65750805b601f850160051c820191505b81811015620004c757828155600101620004b2565b5050505b505050565b81516001600160401b03811115620004ec57620004ec6200042b565b6200050481620004fd845462000441565b846200047d565b602080601f8311600181146200053c5760008415620005235750858301515b600019600386901b1c1916600185901b178555620004c7565b600085815260208120601f198616915b828110156200056d578886015182559484019460019091019084016200054c565b50858210156200058c5787850151600019600388901b60f8161c191681555b5050505050600190811b01905550565b61140680620005ac6000396000f3fe608060405234801561001057600080fd5b506004361061004c5760003560e01c806301e51ae8146100515780634a7dd5231461009b578063875e18f7146100bb578063c79178c6146100c5575b600080fd5b6000546100719073ffffffffffffffffffffffffffffffffffffffff1681565b60405173ffffffffffffffffffffffffffffffffffffffff90911681526020015b60405180910390f35b6100ae6100a9366004610aab565b6100d8565b6040516100929190610af4565b6100c3610144565b005b6100ae6100d3366004610aab565b61016b565b606060006100e5836102e5565b6040516020016100f59190610b61565b604051602081830303815290604052905080816101118561016b565b61011a86610422565b60405160200161012d9493929190610ba2565b604051602081830303815290604052915050919050565b60005473ffffffffffffffffffffffffffffffffffffffff16331461016857600080fd5b33ff5b60606000806101d58460405160200161018691815260200190565b604080517fffffffffffffffffffffffffffffffffffffffffffffffffffffffffffffffe081840301815282825280516020918201209083015201604051602081830303815290604052610541565b91509150606060005b600a8110156102555781600582815481106101fb576101fb610d4a565b9060005260206000200185838151811061021757610217610d4a565b602002602001015160405160200161023193929190610e4d565b6040516020818303038152906040529150808061024d90610f31565b9150506101de565b508082604051602001610269929190610f4b565b60405160208183030381529060405290506102bc60018260028560038760046102918d6102e5565b6040516020016102a898979695949392919061101a565b6040516020818303038152906040526108f1565b6040516020016102cc91906110f0565b6040516020818303038152906040529350505050919050565b60608160000361032857505060408051808201909152600181527f3000000000000000000000000000000000000000000000000000000000000000602082015290565b8160005b8115610352578061033c81610f31565b915061034b9050600a83611164565b915061032c565b60008167ffffffffffffffff81111561036d5761036d611178565b6040519080825280601f01601f191660200182016040528015610397576020820181803683370190505b5090505b841561041a576103ac6001836111a7565b91506103b9600a866111be565b6103c49060306111d2565b60f81b8183815181106103d9576103d9610d4a565b60200101907effffffffffffffffffffffffffffffffffffffffffffffffffffffffffffff1916908160001a905350610413600a86611164565b945061039b565b949350505050565b606080600a5b80156104945761043881856111be565b600003610482576006818154811061045257610452610d4a565b9060005260206000200160405160200161046c91906111ea565b6040516020818303038152906040529150610494565b8061048c81611249565b915050610428565b5060fa8311156104f8576126168310156104bd576040518060200160405280600081525061052f565b6040518060400160405280600f81526020017f224f6d65676122203a20747275652c000000000000000000000000000000000081525061052f565b6040518060400160405280600e81526020017f22416c706861223a20747275652c0000000000000000000000000000000000008152505b8160405160200161012d929190611260565b6060806000600684516002610556919061128f565b6105609190611164565b61056b9060016111d2565b90508067ffffffffffffffff81111561058657610586611178565b6040519080825280602002602001820160405280156105b957816020015b60608152602001906001900390816105a45790505b50925060006040518060400160405280601081526020017f303132333435363738396162636465660000000000000000000000000000000081525090506000806000600688516106099190611164565b61061490600661128f565b6040805160068082528183019092529192506000919060208201818036833701905050905060005b82811015610863578560108b838151811061065957610659610d4a565b016020015161066b919060f81c6112ae565b60ff168151811061067e5761067e610d4a565b01602001517fff0000000000000000000000000000000000000000000000000000000000000016826106b186600261128f565b815181106106c1576106c1610d4a565b60200101907effffffffffffffffffffffffffffffffffffffffffffffffffffffffffffff1916908160001a9053508560108b838151811061070557610705610d4a565b0160200151610717919060f81c6112d0565b60ff168151811061072a5761072a610d4a565b01602001517fff00000000000000000000000000000000000000000000000000000000000000168261075d86600261128f565b6107689060016111d2565b8151811061077857610778610d4a565b60200101907effffffffffffffffffffffffffffffffffffffffffffffffffffffffffffff1916908160001a905350836107b181610f31565b9450508360030361085157816040516020016107cd91906112f2565b6040516020818303038152906040528986815181106107ee576107ee610d4a565b6020026020010181905250878260405160200161080c92919061130e565b6040516020818303038152906040529750848061082890610f31565b604080516006808252818301909252919750600096509091506020820181803683370190505091505b8061085b81610f31565b91505061063c565b50868860008151811061087857610878610d4a565b602002602001015160405160200161089192919061130e565b6040516020818303038152906040529650876000815181106108b5576108b5610d4a565b6020026020010151886001886108cb91906111a7565b815181106108db576108db610d4a565b6020026020010181905250505050505050915091565b6060815160000361091057505060408051602081019091526000815290565b6000604051806060016040528060408152602001611391604091399050600060038451600261093f91906111d2565b6109499190611164565b61095490600461128f565b905060006109638260206111d2565b67ffffffffffffffff81111561097b5761097b611178565b6040519080825280601f01601f1916602001820160405280156109a5576020820181803683370190505b509050818152600183018586518101602084015b81831015610a11576003830192508251603f8160121c168501518253600182019150603f81600c1c168501518253600182019150603f8160061c168501518253600182019150603f81168501518253506001016109b9565b600389510660018114610a2b5760028114610a7557610a9d565b7f3d3d0000000000000000000000000000000000000000000000000000000000007ffffffffffffffffffffffffffffffffffffffffffffffffffffffffffffffffe830152610a9d565b7f3d000000000000000000000000000000000000000000000000000000000000006000198301525b509398975050505050505050565b600060208284031215610abd57600080fd5b5035919050565b60005b83811015610adf578181015183820152602001610ac7565b83811115610aee576000848401525b50505050565b6020815260008251806020840152610b13816040850160208701610ac4565b601f017fffffffffffffffffffffffffffffffffffffffffffffffffffffffffffffffe0169190910160400192915050565b60008151610b57818560208601610ac4565b9290920192915050565b60008251610b73818460208701610ac4565b7f2e426f726564454e535961636874436c75622e65746800000000000000000000920191825250601601919050565b7f646174613a746578742f706c61696e2c7b226e616d65223a2200000000000000815260008551610bda816019850160208a01610ac4565b7f222c0000000000000000000000000000000000000000000000000000000000006019918401918201527f226465736372697074696f6e223a2231206f662031304b20426f72656420454e601b8201527f5320596163687420436c7562204d656d6265727368697020436172642e222c00603b8201527f2265787465726e616c5f75726c223a202268747470733a2f2f00000000000000605a8201528551610c89816073840160208a01610ac4565b7f2e6c696d6f222c00000000000000000000000000000000000000000000000000910160738101919091527f22696d616765223a220000000000000000000000000000000000000000000000607a820152610ce76083820186610b45565b7f222c00000000000000000000000000000000000000000000000000000000000081529050610d196002820185610b45565b7f7d000000000000000000000000000000000000000000000000000000000000008152600101979650505050505050565b7f4e487b7100000000000000000000000000000000000000000000000000000000600052603260045260246000fd5b8054600090600181811c9080831680610d9357607f831692505b60208084108203610dcd577f4e487b7100000000000000000000000000000000000000000000000000000000600052602260045260246000fd5b818015610de15760018114610e1457610e41565b7fffffffffffffffffffffffffffffffffffffffffffffffffffffffffffffff0086168952841515850289019650610e41565b60008881526020902060005b86811015610e395781548b820152908501908301610e20565b505084890196505b50505050505092915050565b60008451610e5f818460208901610ac4565b7f3c73746f70206f66667365743d22000000000000000000000000000000000000908301908152610e93600e820186610d79565b90507f2522207374796c653d2273746f702d636f6c6f723a230000000000000000000081528351610ecb816016840160208801610ac4565b7f3b222f3e0000000000000000000000000000000000000000000000000000000060169290910191820152601a0195945050505050565b7f4e487b7100000000000000000000000000000000000000000000000000000000600052601160045260246000fd5b60006000198203610f4457610f44610f02565b5060010190565b60008351610f5d818460208801610ac4565b80830190507f3c73746f70206f66667365743d2231303025223e3c616e696d6174652061747481527f7269627574654e616d653d2273746f702d636f6c6f72222076616c7565733d2260208201528351610fbe816040840160208801610ac4565b7f22206475723d22313131732220726570656174436f756e743d22696e64656669604092909101918201527f6e697465223e3c2f616e696d6174653e3c2f73746f703e0000000000000000006060820152607701949350505050565b6000611026828b610d79565b8951611036818360208e01610ac4565b6110428183018b610d79565b9150508751611055818360208c01610ac4565b61106181830189610d79565b9150508551611074818360208a01610ac4565b61108081830187610d79565b9150508351611093818360208801610ac4565b7f2e426f726564454e535961636874436c75622e6574683c2f746578743e3c2f7391019081527f76673e000000000000000000000000000000000000000000000000000000000060208201526023019a9950505050505050505050565b7f646174613a696d6167652f7376672b786d6c3b6261736536342c00000000000081526000825161112881601a850160208701610ac4565b91909101601a0192915050565b7f4e487b7100000000000000000000000000000000000000000000000000000000600052601260045260246000fd5b60008261117357611173611135565b500490565b7f4e487b7100000000000000000000000000000000000000000000000000000000600052604160045260246000fd5b6000828210156111b9576111b9610f02565b500390565b6000826111cd576111cd611135565b500690565b600082198211156111e5576111e5610f02565b500190565b7f22000000000000000000000000000000000000000000000000000000000000008152600061121c6001830184610d79565b7f223a20747275650000000000000000000000000000000000000000000000000081526007019392505050565b60008161125857611258610f02565b506000190190565b60008351611272818460208801610ac4565b835190830190611286818360208801610ac4565b01949350505050565b60008160001904831182151516156112a9576112a9610f02565b500290565b600060ff8316806112c1576112c1611135565b8060ff84160491505092915050565b600060ff8316806112e3576112e3611135565b8060ff84160691505092915050565b60008251611304818460208701610ac4565b9190910192915050565b60008351611320818460208801610ac4565b7f2300000000000000000000000000000000000000000000000000000000000000908301908152835161135a816001840160208801610ac4565b7f3b000000000000000000000000000000000000000000000000000000000000006001929091019182015260020194935050505056fe4142434445464748494a4b4c4d4e4f505152535455565758595a6162636465666768696a6b6c6d6e6f707172737475767778797a303132333435363738392b2fa26469706673582212208980bfa1edfc0255d961297fdaa6fbfa73a6bf36359848763dbcad60fb67424d64736f6c634300080f00333c2f72616469616c4772616469656e743e3c2f646566733e3c7265637420783d22302220793d2230222077696474683d223130302522206865696768743d2231303025222066696c6c3d2275726c2823726772616429222f3e3c672064783d223230222064793d223022207472616e73666f726d3d227363616c652832332922207374796c653d226f7061636974793a302e39223e3c673e3c616e696d617465206174747269627574654e616d653d2266696c6c222076616c7565733d223c73766720786d6c6e733d22687474703a2f2f7777772e77332e6f72672f323030302f737667222077696474683d2238333022206865696768743d2238333022207374796c653d222d7765626b69742d757365722d73656c6563743a206e6f6e653b2d6d6f7a2d757365722d73656c6563743a206e6f6e653b2d6d732d757365722d73656c6563743a206e6f6e653b757365722d73656c6563743a206e6f6e653b223e3c646566733e3c72616469616c4772616469656e742069643d227267726164222063783d22353025222063793d223530252220723d22343025223e22206475723d223432732220726570656174436f756e743d22696e646566696e697465222f3e3c7061746820643d224d3520313663302d342d352d332d34203173332035203320356c312d367a6d3236203063302d3420352d3320342031732d3320352d3320356c2d312d367a222f3e3c7061746820643d224d33322e36352032312e37333663302031302e3839322d342e3639312031342e3038372d31342e36352031342e30383753332e3334392033322e36323820332e3334392032312e37333620382e3034322e333233203138202e3332337331342e36352031302e3532312031342e36352032312e3431337a222f3e3c2f673e203c706174682066696c6c3d22233636373537662220643d224d32372e35363720323363312e34392d342e34353820322e3038382d372e3331322d2e3434332d372e33313248382e383736632d322e35333220302d312e39333320322e3835342d2e34343420372e33313243332e3530342033342e3230312031372e3136362033342e3832332031382033342e3832335333322e3330332033332e3736342032372e3536372032337a222f3e3c673e3c616e696d617465206174747269627574654e616d653d2266696c6c222076616c7565733d2222206475723d223231732220726570656174436f756e743d22696e646566696e697465222f3e3c7061746820643d224d31352031382e303033613220322030203120312d34203063302d312e3130342e3839362d3120322d3173322d2e313035203220317a6d31302030613220322030203120312d34203063302d312e3130342e3839362d3120322d3173322d2e313035203220317a222f3e3c2f673e3c673e3c656c6c697073652063783d2231352e353732222063793d2232332e363535222072783d22312e343238222072793d2231222f3e3c7061746820643d224d32312e3835362032332e3635356330202e3535332d2e36333920312d312e3432382031732d312e3432392d2e3434372d312e3432392d31202e3633392d3120312e3432392d3120312e3432382e34343820312e34323820317a222f3e3c2f673e3c706174682066696c6c3d22233939616162352220643d224d32312e30322032312e3034632d312e3936352d2e32362d332e30322e3833342d332e30322e383334732d312e3035352d312e3039342d332e3032312d2e383334632d332e3135362e3431372d332e32383520332e3238372d312e39333920332e3130352e3736362d2e3130342e3133352d2e39333820312e3731332d312e35353673332e3234372e363620332e3234372e363620312e3636372d312e32373620332e3234362d2e3635392e39343720312e34353220312e37313420312e35353663312e3334362e31383120312e3231382d322e3638392d312e39342d332e3130367a222f3e3c706174682066696c6c3d22233331333733642220643d224d32342e3833352033302e303231632d312e3230392e3332332d332e3230342e3539362d362e3833352e353936732d352e3632352d2e3237322d362e3833352d2e353936632d332e3230352d2e3835342d312e3932332d312e37333520302d312e34373773332e3633312e34313520362e3833352e34313520342e3931342d2e31353620362e3833352d2e34313520332e3230342e363233203020312e3437377a222f3e3c706174682066696c6c3d22233636373537662220202020643d224d342e3235332031362e36323563312e3430332d312e3232352d312e3037382d332e3736362d322e3139362d322e3534342d2e3334312e3337332e3932312d2e31383820312e33333620312e3038362e3330382e3934322e30303120322e3230382e383620312e3435387a6d32372e3439332030632d312e3430322d312e32323520312e3037382d332e37363620322e3139362d322e3534342e3334312e3337332d2e3932312d2e3138382d312e33333720312e3038362d2e3330362e393432203020322e3230382d2e38353920312e3435387a222f3e3c2f673e3c7265637420793d22373530222077696474683d223130302522206865696768743d223830222066696c6c3d22236666666666663535222f3e3c7465787420783d2232352220793d2238313022207374796c653d22666f6e742d73697a653a34656d3b2220666f6e742d66616d696c793d226d6f6e6f73706163652220746578744c656e6774683d2237373522206c656e67746841646a7573743d2273706163696e67416e64476c79706873223e",
    "linkReferences": {}
  },
  "methodIdentifiers": {
    "DESTROY()": "875e18f7",
    "Dev()": "01e51ae8",
    "generate(uint256)": "4a7dd523",
    "image(uint256)": "c79178c6"
  },
  "id": 9
}