{
  "abi": [
    {
      "inputs": [
        {
          "internalType": "address",
          "name": "_resolver",
          "type": "address"
        },
        {
          "internalType": "uint256",
          "name": "_maxSupply",
          "type": "uint256"
        },
        {
          "internalType": "uint256",
          "name": "_startTime",
          "type": "uint256"
        }
      ],
      "stateMutability": "nonpayable",
      "type": "constructor"
    },
    {
      "inputs": [
        {
          "internalType": "address",
          "name": "addr",
          "type": "address"
        }
      ],
      "name": "ERC721IncompatibleReceiver",
      "type": "error"
    },
    {
      "inputs": [
        {
          "internalType": "uint256",
          "name": "size",
          "type": "uint256"
        },
        {
          "internalType": "uint256",
          "name": "yourSize",
          "type": "uint256"
        }
      ],
      "name": "InsufficientEtherSent",
      "type": "error"
    },
    {
      "inputs": [
        {
          "internalType": "uint256",
          "name": "id",
          "type": "uint256"
        }
      ],
      "name": "InvalidTokenID",
      "type": "error"
    },
    {
      "inputs": [],
      "name": "MintEnded",
      "type": "error"
    },
    {
      "inputs": [],
      "name": "MintingPaused",
      "type": "error"
    },
    {
      "inputs": [
        {
          "internalType": "address",
          "name": "owner",
          "type": "address"
        },
        {
          "internalType": "address",
          "name": "from",
          "type": "address"
        },
        {
          "internalType": "uint256",
          "name": "id",
          "type": "uint256"
        }
      ],
      "name": "NotSubdomainOwner",
      "type": "error"
    },
    {
      "inputs": [
        {
          "internalType": "address",
          "name": "_dev",
          "type": "address"
        },
        {
          "internalType": "address",
          "name": "_you",
          "type": "address"
        }
      ],
      "name": "OnlyDev",
      "type": "error"
    },
    {
      "inputs": [],
      "name": "OversizedBatch",
      "type": "error"
    },
    {
      "inputs": [],
      "name": "TooSoonToMint",
      "type": "error"
    },
    {
      "inputs": [
        {
          "internalType": "address",
          "name": "operator",
          "type": "address"
        },
        {
          "internalType": "address",
          "name": "owner",
          "type": "address"
        },
        {
          "internalType": "uint256",
          "name": "id",
          "type": "uint256"
        }
      ],
      "name": "Unauthorized",
      "type": "error"
    },
    {
      "inputs": [],
      "name": "ZeroAddress",
      "type": "error"
    },
    {
      "anonymous": false,
      "inputs": [
        {
          "indexed": true,
          "internalType": "address",
          "name": "_owner",
          "type": "address"
        },
        {
          "indexed": true,
          "internalType": "address",
          "name": "approved",
          "type": "address"
        },
        {
          "indexed": true,
          "internalType": "uint256",
          "name": "id",
          "type": "uint256"
        }
      ],
      "name": "Approval",
      "type": "event"
    },
    {
      "anonymous": false,
      "inputs": [
        {
          "indexed": true,
          "internalType": "address",
          "name": "_owner",
          "type": "address"
        },
        {
          "indexed": true,
          "internalType": "address",
          "name": "operator",
          "type": "address"
        },
        {
          "indexed": false,
          "internalType": "bool",
          "name": "approved",
          "type": "bool"
        }
      ],
      "name": "ApprovalForAll",
      "type": "event"
    },
    {
      "anonymous": false,
      "inputs": [
        {
          "indexed": true,
          "internalType": "address",
          "name": "previousOwner",
          "type": "address"
        },
        {
          "indexed": true,
          "internalType": "address",
          "name": "newOwner",
          "type": "address"
        }
      ],
      "name": "OwnershipTransferred",
      "type": "event"
    },
    {
      "anonymous": false,
      "inputs": [
        {
          "indexed": true,
          "internalType": "address",
          "name": "from",
          "type": "address"
        },
        {
          "indexed": true,
          "internalType": "address",
          "name": "to",
          "type": "address"
        },
        {
          "indexed": true,
          "internalType": "uint256",
          "name": "id",
          "type": "uint256"
        }
      ],
      "name": "Transfer",
      "type": "event"
    },
    {
      "stateMutability": "payable",
      "type": "fallback"
    },
    {
      "inputs": [],
      "name": "DESTROY",
      "outputs": [],
      "stateMutability": "payable",
      "type": "function"
    },
    {
      "inputs": [],
      "name": "DefaultResolver",
      "outputs": [
        {
          "internalType": "address",
          "name": "",
          "type": "address"
        }
      ],
      "stateMutability": "view",
      "type": "function"
    },
    {
      "inputs": [],
      "name": "Dev",
      "outputs": [
        {
          "internalType": "address",
          "name": "",
          "type": "address"
        }
      ],
      "stateMutability": "view",
      "type": "function"
    },
    {
      "inputs": [],
      "name": "DomainHash",
      "outputs": [
        {
          "internalType": "bytes32",
          "name": "",
          "type": "bytes32"
        }
      ],
      "stateMutability": "view",
      "type": "function"
    },
    {
      "inputs": [],
      "name": "ENS",
      "outputs": [
        {
          "internalType": "contract iENS",
          "name": "",
          "type": "address"
        }
      ],
      "stateMutability": "view",
      "type": "function"
    },
    {
      "inputs": [
        {
          "internalType": "uint256",
          "name": "",
          "type": "uint256"
        }
      ],
      "name": "ID2Labelhash",
      "outputs": [
        {
          "internalType": "bytes32",
          "name": "",
          "type": "bytes32"
        }
      ],
      "stateMutability": "view",
      "type": "function"
    },
    {
      "inputs": [
        {
          "internalType": "uint256",
          "name": "id",
          "type": "uint256"
        }
      ],
      "name": "ID2Namehash",
      "outputs": [
        {
          "internalType": "bytes32",
          "name": "",
          "type": "bytes32"
        }
      ],
      "stateMutability": "view",
      "type": "function"
    },
    {
      "inputs": [
        {
          "internalType": "bytes32",
          "name": "",
          "type": "bytes32"
        }
      ],
      "name": "Namehash2ID",
      "outputs": [
        {
          "internalType": "uint256",
          "name": "",
          "type": "uint256"
        }
      ],
      "stateMutability": "view",
      "type": "function"
    },
    {
      "inputs": [],
      "name": "active",
      "outputs": [
        {
          "internalType": "bool",
          "name": "",
          "type": "bool"
        }
      ],
      "stateMutability": "view",
      "type": "function"
    },
    {
      "inputs": [
        {
          "internalType": "address",
          "name": "approved",
          "type": "address"
        },
        {
          "internalType": "uint256",
          "name": "id",
          "type": "uint256"
        }
      ],
      "name": "approve",
      "outputs": [],
      "stateMutability": "payable",
      "type": "function"
    },
    {
      "inputs": [
        {
          "internalType": "address",
          "name": "",
          "type": "address"
        }
      ],
      "name": "balanceOf",
      "outputs": [
        {
          "internalType": "uint256",
          "name": "",
          "type": "uint256"
        }
      ],
      "stateMutability": "view",
      "type": "function"
    },
    {
      "inputs": [
        {
          "internalType": "uint256",
          "name": "batchSize",
          "type": "uint256"
        }
      ],
      "name": "batchMint",
      "outputs": [],
      "stateMutability": "payable",
      "type": "function"
    },
    {
      "inputs": [],
      "name": "contractURI",
      "outputs": [
        {
          "internalType": "string",
          "name": "",
          "type": "string"
        }
      ],
      "stateMutability": "view",
      "type": "function"
    },
    {
      "inputs": [
        {
          "internalType": "uint256",
          "name": "",
          "type": "uint256"
        }
      ],
      "name": "getApproved",
      "outputs": [
        {
          "internalType": "address",
          "name": "",
          "type": "address"
        }
      ],
      "stateMutability": "view",
      "type": "function"
    },
    {
      "inputs": [
        {
          "internalType": "address",
          "name": "",
          "type": "address"
        },
        {
          "internalType": "address",
          "name": "",
          "type": "address"
        }
      ],
      "name": "isApprovedForAll",
      "outputs": [
        {
          "internalType": "bool",
          "name": "",
          "type": "bool"
        }
      ],
      "stateMutability": "view",
      "type": "function"
    },
    {
      "inputs": [],
      "name": "maxSupply",
      "outputs": [
        {
          "internalType": "uint256",
          "name": "",
          "type": "uint256"
        }
      ],
      "stateMutability": "view",
      "type": "function"
    },
    {
      "inputs": [],
      "name": "metaIPFS",
      "outputs": [
        {
          "internalType": "string",
          "name": "",
          "type": "string"
        }
      ],
      "stateMutability": "view",
      "type": "function"
    },
    {
      "inputs": [],
      "name": "mint",
      "outputs": [],
      "stateMutability": "payable",
      "type": "function"
    },
    {
      "inputs": [],
      "name": "mintPrice",
      "outputs": [
        {
          "internalType": "uint256",
          "name": "",
          "type": "uint256"
        }
      ],
      "stateMutability": "view",
      "type": "function"
    },
    {
      "inputs": [],
      "name": "name",
      "outputs": [
        {
          "internalType": "string",
          "name": "",
          "type": "string"
        }
      ],
      "stateMutability": "view",
      "type": "function"
    },
    {
      "inputs": [],
      "name": "owner",
      "outputs": [
        {
          "internalType": "address",
          "name": "",
          "type": "address"
        }
      ],
      "stateMutability": "view",
      "type": "function"
    },
    {
      "inputs": [
        {
          "internalType": "uint256",
          "name": "id",
          "type": "uint256"
        }
      ],
      "name": "ownerOf",
      "outputs": [
        {
          "internalType": "address",
          "name": "",
          "type": "address"
        }
      ],
      "stateMutability": "view",
      "type": "function"
    },
    {
      "inputs": [],
      "name": "royalty",
      "outputs": [
        {
          "internalType": "uint256",
          "name": "",
          "type": "uint256"
        }
      ],
      "stateMutability": "view",
      "type": "function"
    },
    {
      "inputs": [
        {
          "internalType": "uint256",
          "name": "id",
          "type": "uint256"
        },
        {
          "internalType": "uint256",
          "name": "_salePrice",
          "type": "uint256"
        }
      ],
      "name": "royaltyInfo",
      "outputs": [
        {
          "internalType": "address",
          "name": "",
          "type": "address"
        },
        {
          "internalType": "uint256",
          "name": "",
          "type": "uint256"
        }
      ],
      "stateMutability": "view",
      "type": "function"
    },
    {
      "inputs": [
        {
          "internalType": "address",
          "name": "from",
          "type": "address"
        },
        {
          "internalType": "address",
          "name": "to",
          "type": "address"
        },
        {
          "internalType": "uint256",
          "name": "id",
          "type": "uint256"
        }
      ],
      "name": "safeTransferFrom",
      "outputs": [],
      "stateMutability": "payable",
      "type": "function"
    },
    {
      "inputs": [
        {
          "internalType": "address",
          "name": "from",
          "type": "address"
        },
        {
          "internalType": "address",
          "name": "to",
          "type": "address"
        },
        {
          "internalType": "uint256",
          "name": "id",
          "type": "uint256"
        },
        {
          "internalType": "bytes",
          "name": "data",
          "type": "bytes"
        }
      ],
      "name": "safeTransferFrom",
      "outputs": [],
      "stateMutability": "payable",
      "type": "function"
    },
    {
      "inputs": [
        {
          "internalType": "address",
          "name": "operator",
          "type": "address"
        },
        {
          "internalType": "bool",
          "name": "approved",
          "type": "bool"
        }
      ],
      "name": "setApprovalForAll",
      "outputs": [],
      "stateMutability": "payable",
      "type": "function"
    },
    {
      "inputs": [
        {
          "internalType": "string",
          "name": "_contractURI",
          "type": "string"
        }
      ],
      "name": "setContractURI",
      "outputs": [],
      "stateMutability": "nonpayable",
      "type": "function"
    },
    {
      "inputs": [
        {
          "internalType": "address",
          "name": "_resolver",
          "type": "address"
        }
      ],
      "name": "setDefaultResolver",
      "outputs": [],
      "stateMutability": "nonpayable",
      "type": "function"
    },
    {
      "inputs": [
        {
          "internalType": "bytes4",
          "name": "sig",
          "type": "bytes4"
        },
        {
          "internalType": "bool",
          "name": "value",
          "type": "bool"
        }
      ],
      "name": "setInterface",
      "outputs": [],
      "stateMutability": "payable",
      "type": "function"
    },
    {
      "inputs": [
        {
          "internalType": "uint256",
          "name": "_royalty",
          "type": "uint256"
        }
      ],
      "name": "setRoyalty",
      "outputs": [],
      "stateMutability": "nonpayable",
      "type": "function"
    },
    {
      "inputs": [],
      "name": "startTime",
      "outputs": [
        {
          "internalType": "uint256",
          "name": "",
          "type": "uint256"
        }
      ],
      "stateMutability": "view",
      "type": "function"
    },
    {
      "inputs": [
        {
          "internalType": "bytes4",
          "name": "",
          "type": "bytes4"
        }
      ],
      "name": "supportsInterface",
      "outputs": [
        {
          "internalType": "bool",
          "name": "",
          "type": "bool"
        }
      ],
      "stateMutability": "view",
      "type": "function"
    },
    {
      "inputs": [],
      "name": "symbol",
      "outputs": [
        {
          "internalType": "string",
          "name": "",
          "type": "string"
        }
      ],
      "stateMutability": "view",
      "type": "function"
    },
    {
      "inputs": [],
      "name": "toggleActive",
      "outputs": [],
      "stateMutability": "nonpayable",
      "type": "function"
    },
    {
      "inputs": [
        {
          "internalType": "uint256",
          "name": "id",
          "type": "uint256"
        }
      ],
      "name": "tokenURI",
      "outputs": [
        {
          "internalType": "string",
          "name": "",
          "type": "string"
        }
      ],
      "stateMutability": "view",
      "type": "function"
    },
    {
      "inputs": [],
      "name": "totalSupply",
      "outputs": [
        {
          "internalType": "uint256",
          "name": "",
          "type": "uint256"
        }
      ],
      "stateMutability": "view",
      "type": "function"
    },
    {
      "inputs": [
        {
          "internalType": "address",
          "name": "from",
          "type": "address"
        },
        {
          "internalType": "address",
          "name": "to",
          "type": "address"
        },
        {
          "internalType": "uint256",
          "name": "id",
          "type": "uint256"
        }
      ],
      "name": "transferFrom",
      "outputs": [],
      "stateMutability": "payable",
      "type": "function"
    },
    {
      "inputs": [
        {
          "internalType": "address",
          "name": "newDev",
          "type": "address"
        }
      ],
      "name": "transferOwnership",
      "outputs": [],
      "stateMutability": "nonpayable",
      "type": "function"
    },
    {
      "inputs": [],
      "name": "withdrawEther",
      "outputs": [],
      "stateMutability": "payable",
      "type": "function"
    },
    {
      "inputs": [
        {
          "internalType": "address",
          "name": "token",
          "type": "address"
        }
      ],
      "name": "withdrawToken",
      "outputs": [],
      "stateMutability": "payable",
      "type": "function"
    },
    {
      "stateMutability": "payable",
      "type": "receive"
    }
  ],
  "bytecode": {
    "object": "0x6000805460ff60a01b1916600160a01b179055610120604052601560e09081527f426f726564454e535961636874436c75622e65746800000000000000000000006101005260029062000053908262000386565b5060408051808201909152600681526542454e53594360d01b602082015260039062000080908262000386565b50662386f26fc1000060065560405180606001604052806035815260200162002c2660359139600790620000b5908262000386565b5060056008556040518060600160405280602e815260200162002bf8602e9139600990620000e4908262000386565b50348015620000f257600080fd5b5060405162002c5b38038062002c5b833981016040819052620001159162000452565b60018054336001600160a01b031991821617909155600080546e0c2e074ec69a0dfb2997ba6c7d2e1e908316178155600480549092166001600160a01b038616179091556040805160208101929092527f4f5b812789fc606be1b3b16908db13fc7a9adf7ca72641f84d75b47069d3d7f09082015260600160408051601f198184030181528282528051602091820120908301527f7a46b638f71fee598932cc3ef366f2f3dcdae81da0064fba529d5ae43b3ac9c59082015260600160408051808303601f19018152919052805160209182012060a05260809290925260c052600e9052507ff78053c79e0b9aa452e27b1a016da828f8da009fc4e41d10c85bd3a969c7facb8054600160ff1991821681179092557f2128e120182d3aad40be1b13f6e6837469325eed442c0118fa5598c7f671c92b80548216831790557fee4d32f332f0a2d0ddc34ffb2ec7a1b8568e915f8f5b625da8ece9305abb079a80548216831790557facee4afab9ecaa8ae5295b11b5f85101d139b31d8872b02073faef8923dbb604805482168317905563152a902d60e11b6000527fe13efcc3391fd06a1796af9f3856980176fe91811e54bc42ace51e572d1d17c88054909116909117905562000497565b634e487b7160e01b600052604160045260246000fd5b600181811c908216806200030c57607f821691505b6020821081036200032d57634e487b7160e01b600052602260045260246000fd5b50919050565b601f8211156200038157600081815260208120601f850160051c810160208610156200035c5750805b601f850160051c820191505b818110156200037d5782815560010162000368565b5050505b505050565b81516001600160401b03811115620003a257620003a2620002e1565b620003ba81620003b38454620002f7565b8462000333565b602080601f831160018114620003f25760008415620003d95750858301515b600019600386901b1c1916600185901b1785556200037d565b600085815260208120601f198616915b82811015620004235788860151825594840194600190910190840162000402565b5085821015620004425787850151600019600388901b60f8161c191681555b5050505050600190811b01905550565b6000806000606084860312156200046857600080fd5b83516001600160a01b03811681146200048057600080fd5b602085015160409095015190969495509392505050565b60805160a05160c0516126eb6200050d600039600081816105a7015281816109d00152610f8d0152600081816105db01528181610b3001528181610bdc01528181611131015281816111dd015281816115a30152611c2801526000818161076b01528181610a2a0152610ff101526126eb6000f3fe6080604052600436106102c95760003560e01c80637362377b11610179578063a22cb465116100d6578063c66485b21161008a578063e8a3d48511610064578063e8a3d4851461078d578063e985e9c5146107a2578063f2fde38b146107dd57600080fd5b8063c66485b214610719578063c87b56dd14610739578063d5abeb011461075957600080fd5b8063b88d4fde116100bb578063b88d4fde146106d3578063bb8762c8146106e6578063c0a43a7c1461070657600080fd5b8063a22cb46514610693578063a37f9f99146106a657600080fd5b8063894760691161012d578063938e3d7b11610112578063938e3d7b1461064957806395d89b411461066957806398adcbba1461067e57600080fd5b806389476069146106185780638da5cb5b1461062b57600080fd5b80638315ae651161015e5780638315ae65146105c95780638467be0d146105fd578063875e18f71461061057600080fd5b80637362377b1461058d57806378e979251461059557600080fd5b806323b872dd1161022757806342842e0e116101db5780636817c76c116101c05780636817c76c1461051d5780636eada5aa1461053357806370a082311461056057600080fd5b806342842e0e146104605780636352211e146104fd57600080fd5b806329ee566c1161020c57806329ee566c146104885780632a55205a1461049e5780634209a2e1146104dd57600080fd5b806323b872dd1461046057806329c68dc11461047357600080fd5b8063081812fc1161027e5780631249c58b116102635780631249c58b1461041457806318160ddd1461041c5780631d2e2cc41461044057600080fd5b8063081812fc146103c9578063095ea7b3146103ff57600080fd5b806301ffc9a7116102af57806301ffc9a71461033557806302fb0c5e1461037557806306fdde03146103a757600080fd5b8062b7aff7146102d857806301e51ae81461031557600080fd5b366102d357600080fd5b600080fd5b3480156102e457600080fd5b506004546102f8906001600160a01b031681565b6040516001600160a01b0390911681526020015b60405180910390f35b34801561032157600080fd5b506001546102f8906001600160a01b031681565b34801561034157600080fd5b50610365610350366004611ee7565b600e6020526000908152604090205460ff1681565b604051901515815260200161030c565b34801561038157600080fd5b506000546103659074010000000000000000000000000000000000000000900460ff1681565b3480156103b357600080fd5b506103bc6107fd565b60405161030c9190611f5b565b3480156103d557600080fd5b506102f86103e4366004611f6e565b600c602052600090815260409020546001600160a01b031681565b61041261040d366004611fa3565b61088b565b005b61041261097a565b34801561042857600080fd5b5061043260055481565b60405190815260200161030c565b34801561044c57600080fd5b506000546102f8906001600160a01b031681565b61041261046e366004611fcd565b610cba565b34801561047f57600080fd5b50610412610cda565b34801561049457600080fd5b5061043260085481565b3480156104aa57600080fd5b506104be6104b9366004612009565b610d80565b604080516001600160a01b03909316835260208301919091520161030c565b3480156104e957600080fd5b506104126104f8366004611f6e565b610db7565b34801561050957600080fd5b506102f8610518366004611f6e565b610e15565b34801561052957600080fd5b5061043260065481565b34801561053f57600080fd5b5061043261054e366004611f6e565b600f6020526000908152604090205481565b34801561056c57600080fd5b5061043261057b36600461202b565b600a6020526000908152604090205481565b610412610e77565b3480156105a157600080fd5b506104327f000000000000000000000000000000000000000000000000000000000000000081565b3480156105d557600080fd5b506104327f000000000000000000000000000000000000000000000000000000000000000081565b61041261060b366004611f6e565b610f37565b6104126112c2565b61041261062636600461202b565b61131e565b34801561063757600080fd5b506001546001600160a01b03166102f8565b34801561065557600080fd5b50610412610664366004612046565b611444565b34801561067557600080fd5b506103bc6114aa565b34801561068a57600080fd5b506103bc6114b7565b6104126106a13660046120c6565b6114c4565b3480156106b257600080fd5b506104326106c1366004611f6e565b60106020526000908152604090205481565b6104126106e136600461212c565b61154e565b3480156106f257600080fd5b50610432610701366004611f6e565b611560565b610412610714366004612208565b61160e565b34801561072557600080fd5b5061041261073436600461202b565b611755565b34801561074557600080fd5b506103bc610754366004611f6e565b6117e8565b34801561076557600080fd5b506104327f000000000000000000000000000000000000000000000000000000000000000081565b34801561079957600080fd5b506103bc61185c565b3480156107ae57600080fd5b506103656107bd366004612226565b600d60209081526000928352604080842090915290825290205460ff1681565b3480156107e957600080fd5b506104126107f836600461202b565b611869565b6002805461080a90612259565b80601f016020809104026020016040519081016040528092919081815260200182805461083690612259565b80156108835780601f1061085857610100808354040283529160200191610883565b820191906000526020600020905b81548152906001019060200180831161086657829003601f168201915b505050505081565b6000818152600b60205260409020546001600160a01b03163314610909576000818152600b6020526040908190205490517f431ef6160000000000000000000000000000000000000000000000000000000081523360048201526001600160a01b039091166024820152604481018290526064015b60405180910390fd5b6000818152600c602052604080822080547fffffffffffffffffffffffff0000000000000000000000000000000000000000166001600160a01b0386169081179091559051839233917f8c5be1e5ebec7d5bd14f71427d1e84f3dd0314c0f7b2291e5b200ac8c7c3b9259190a45050565b60005474010000000000000000000000000000000000000000900460ff166109ce576040517feb56075600000000000000000000000000000000000000000000000000000000815260040160405180910390fd5b7f0000000000000000000000000000000000000000000000000000000000000000421015610a28576040517fcffd304500000000000000000000000000000000000000000000000000000000815260040160405180910390fd5b7f000000000000000000000000000000000000000000000000000000000000000060055410610a83576040517f49084b9400000000000000000000000000000000000000000000000000000000815260040160405180910390fd5b600654341015610acc576006546040517f8ad0844f0000000000000000000000000000000000000000000000000000000081526004810191909152346024820152604401610900565b6005546000610ada82611936565b604051602001610aea91906122c2565b60408051808303601f1901815290829052805160209091012060008054600480547f5ef2c7f00000000000000000000000000000000000000000000000000000000086527f000000000000000000000000000000000000000000000000000000000000000091860191909152602485018490523360448601526001600160a01b03908116606486015260848501929092529193501690635ef2c7f09060a401600060405180830381600087803b158015610ba357600080fd5b505af1158015610bb7573d6000803e3d6000fd5b5050506000838152600f602090815260408083208590555185935060109291610c0d917f000000000000000000000000000000000000000000000000000000000000000091879101918252602082015260400190565b60408051601f19818403018152918152815160209283012083528282019390935290820160009081209390935560058054600190810190915533808552600a83528385208054909201909155858452600b90915281832080547fffffffffffffffffffffffff0000000000000000000000000000000000000000168217905590518492907fddf252ad1be2c89b69c2b068fc378daa952ba7f163c4a11628f55a4df523b3ef908290a45050565b610cd583838360405180602001604052806000815250611a73565b505050565b6001546001600160a01b03163314610d33576001546040517f8ea458f60000000000000000000000000000000000000000000000000000000081526001600160a01b039091166004820152336024820152604401610900565b600080547fffffffffffffffffffffff00ffffffffffffffffffffffffffffffffffffffff8116740100000000000000000000000000000000000000009182900460ff1615909102179055565b60015460085460009182916001600160a01b0390911690610da260648661233c565b610dac9190612350565b915091509250929050565b6001546001600160a01b03163314610e10576001546040517f8ea458f60000000000000000000000000000000000000000000000000000000081526001600160a01b039091166004820152336024820152604401610900565b600855565b6000816005548110610e56576040517fb7c882eb00000000000000000000000000000000000000000000000000000000815260048101829052602401610900565b6000838152600b60205260409020546001600160a01b031691505b50919050565b6001546040516000916001600160a01b03169047908381818185875af1925050503d8060008114610ec4576040519150601f19603f3d011682016040523d82523d6000602084013e610ec9565b606091505b5050905080610f34576040517f08c379a000000000000000000000000000000000000000000000000000000000815260206004820152601360248201527f4554485f5452414e534645525f4641494c4544000000000000000000000000006044820152606401610900565b50565b60005474010000000000000000000000000000000000000000900460ff16610f8b576040517feb56075600000000000000000000000000000000000000000000000000000000815260040160405180910390fd5b7f0000000000000000000000000000000000000000000000000000000000000000421015610fe5576040517fcffd304500000000000000000000000000000000000000000000000000000000815260040160405180910390fd5b600c81118061102057507f00000000000000000000000000000000000000000000000000000000000000008160055461101e919061236f565b115b15611057576040517f4d6c426100000000000000000000000000000000000000000000000000000000815260040160405180910390fd5b806006546110659190612350565b3410156110b6578060065461107a9190612350565b6040517f8ad0844f0000000000000000000000000000000000000000000000000000000081526004810191909152346024820152604401610900565b60055460006110c5838361236f565b905060005b818310156112a5576110db83611936565b6040516020016110eb91906122c2565b60408051808303601f1901815290829052805160209091012060008054600480547f5ef2c7f00000000000000000000000000000000000000000000000000000000086527f000000000000000000000000000000000000000000000000000000000000000091860191909152602485018490523360448601526001600160a01b03908116606486015260848501929092529193501690635ef2c7f09060a401600060405180830381600087803b1580156111a457600080fd5b505af11580156111b8573d6000803e3d6000fd5b5050506000848152600f60209081526040808320859055518693506010929161120e917f000000000000000000000000000000000000000000000000000000000000000091879101918252602082015260400190565b60408051601f198184030181529181528151602092830120835282820193909352908201600090812093909355858352600b905280822080547fffffffffffffffffffffffff0000000000000000000000000000000000000000163390811790915590518592907fddf252ad1be2c89b69c2b068fc378daa952ba7f163c4a11628f55a4df523b3ef908290a48260010192506110ca565b5060055550336000908152600a6020526040902080549091019055565b6001546001600160a01b0316331461131b576001546040517f8ea458f60000000000000000000000000000000000000000000000000000000081526001600160a01b039091166004820152336024820152604401610900565b33ff5b6001546040517f70a0823100000000000000000000000000000000000000000000000000000000815230600482018190526001600160a01b03848116936323b872dd9391169084906370a0823190602401602060405180830381865afa15801561138c573d6000803e3d6000fd5b505050506040513d601f19601f820116820180604052508101906113b09190612388565b6040517fffffffff0000000000000000000000000000000000000000000000000000000060e086901b1681526001600160a01b03938416600482015292909116602483015260448201526064016020604051808303816000875af115801561141c573d6000803e3d6000fd5b505050506040513d601f19601f8201168201806040525081019061144091906123a1565b5050565b6001546001600160a01b0316331461149d576001546040517f8ea458f60000000000000000000000000000000000000000000000000000000081526001600160a01b039091166004820152336024820152604401610900565b6007610cd582848361240c565b6003805461080a90612259565b6009805461080a90612259565b336000818152600d602090815260408083206001600160a01b0387168085529083529281902080547fffffffffffffffffffffffffffffffffffffffffffffffffffffffffffffff001686151590811790915590519081529192917f17307eab39ab6107e8899845ad3d59bd9653f200f220920489ca2b5937696c31910160405180910390a35050565b61155a84848484611a73565b50505050565b60008160055481106115a1576040517fb7c882eb00000000000000000000000000000000000000000000000000000000815260048101829052602401610900565b7f0000000000000000000000000000000000000000000000000000000000000000600f6000858152602001908152602001600020546040516020016115f0929190918252602082015260400190565b60405160208183030381529060405280519060200120915050919050565b6001546001600160a01b03163314611667576001546040517f8ea458f60000000000000000000000000000000000000000000000000000000081526001600160a01b039091166004820152336024820152604401610900565b7fffffffff0000000000000000000000000000000000000000000000000000000080831690036116f3576040517f08c379a000000000000000000000000000000000000000000000000000000000815260206004820152601a60248201527f494e56414c49445f494e544552464143455f53454c4543544f520000000000006044820152606401610900565b7fffffffff00000000000000000000000000000000000000000000000000000000919091166000908152600e6020526040902080547fffffffffffffffffffffffffffffffffffffffffffffffffffffffffffffff0016911515919091179055565b6001546001600160a01b031633146117ae576001546040517f8ea458f60000000000000000000000000000000000000000000000000000000081526001600160a01b039091166004820152336024820152604401610900565b600480547fffffffffffffffffffffffff0000000000000000000000000000000000000000166001600160a01b0392909216919091179055565b6060816005548110611829576040517fb7c882eb00000000000000000000000000000000000000000000000000000000815260048101829052602401610900565b600961183484611936565b6040516020016118459291906124cc565b604051602081830303815290604052915050919050565b6007805461080a90612259565b6001546001600160a01b031633146118c2576001546040517f8ea458f60000000000000000000000000000000000000000000000000000000081526001600160a01b039091166004820152336024820152604401610900565b6001546040516001600160a01b038084169216907f8be0079c531659141344cd1fd0a4f28419497f9722a3daafe3b4186f6b6457e090600090a3600180547fffffffffffffffffffffffff0000000000000000000000000000000000000000166001600160a01b0392909216919091179055565b60608160000361197957505060408051808201909152600181527f3000000000000000000000000000000000000000000000000000000000000000602082015290565b8160005b81156119a3578061198d816125ec565b915061199c9050600a8361233c565b915061197d565b60008167ffffffffffffffff8111156119be576119be6120fd565b6040519080825280601f01601f1916602001820160405280156119e8576020820181803683370190505b5090505b8415611a6b576119fd600183612606565b9150611a0a600a86612619565b611a1590603061236f565b60f81b818381518110611a2a57611a2a61262d565b60200101907effffffffffffffffffffffffffffffffffffffffffffffffffffffffffffff1916908160001a905350611a64600a8661233c565b94506119ec565b949350505050565b6001600160a01b038316611ab3576040517fd92e233d00000000000000000000000000000000000000000000000000000000815260040160405180910390fd5b6000828152600b60205260409020546001600160a01b03858116911614611b31576000828152600b6020526040908190205490517f7af40ae60000000000000000000000000000000000000000000000000000000081526001600160a01b039182166004820152908516602482015260448101839052606401610900565b6000828152600b60205260409020546001600160a01b03163314801590611b7c57506001600160a01b0384166000908152600d6020908152604080832033845290915290205460ff16155b8015611b9f57506000828152600c60205260409020546001600160a01b03163314155b15611bee576040517f431ef6160000000000000000000000000000000000000000000000000000000081523360048201526001600160a01b038516602482015260448101839052606401610900565b60008054838252600f6020526040918290205491517f06ab59230000000000000000000000000000000000000000000000000000000081527f0000000000000000000000000000000000000000000000000000000000000000600482015260248101929092526001600160a01b03858116604484015216906306ab5923906064016020604051808303816000875af1158015611c8e573d6000803e3d6000fd5b505050506040513d601f19601f82011682018060405250810190611cb29190612388565b506001600160a01b038085166000818152600a60209081526040808320805460001901905593871680835284832080546001019055868352600b825284832080547fffffffffffffffffffffffff00000000000000000000000000000000000000009081168317909155600c90925284832080549092169091559251859392917fddf252ad1be2c89b69c2b068fc378daa952ba7f163c4a11628f55a4df523b3ef91a46001600160a01b0383163b1561155a576040517f150b7a020000000000000000000000000000000000000000000000000000000081526001600160a01b0384169063150b7a0290611db090339088908790879060040161265c565b6020604051808303816000875af1925050508015611deb575060408051601f3d908101601f19168201909252611de891810190612698565b60015b611e2c576040517f3a9f8cb30000000000000000000000000000000000000000000000000000000081526001600160a01b0384166004820152602401610900565b7fffffffff0000000000000000000000000000000000000000000000000000000081167f150b7a020000000000000000000000000000000000000000000000000000000014611eb2576040517f3a9f8cb30000000000000000000000000000000000000000000000000000000081526001600160a01b0385166004820152602401610900565b5050505050565b7fffffffff0000000000000000000000000000000000000000000000000000000081168114610f3457600080fd5b600060208284031215611ef957600080fd5b8135611f0481611eb9565b9392505050565b60005b83811015611f26578181015183820152602001611f0e565b50506000910152565b60008151808452611f47816020860160208601611f0b565b601f01601f19169290920160200192915050565b602081526000611f046020830184611f2f565b600060208284031215611f8057600080fd5b5035919050565b80356001600160a01b0381168114611f9e57600080fd5b919050565b60008060408385031215611fb657600080fd5b611fbf83611f87565b946020939093013593505050565b600080600060608486031215611fe257600080fd5b611feb84611f87565b9250611ff960208501611f87565b9150604084013590509250925092565b6000806040838503121561201c57600080fd5b50508035926020909101359150565b60006020828403121561203d57600080fd5b611f0482611f87565b6000806020838503121561205957600080fd5b823567ffffffffffffffff8082111561207157600080fd5b818501915085601f83011261208557600080fd5b81358181111561209457600080fd5b8660208285010111156120a657600080fd5b60209290920196919550909350505050565b8015158114610f3457600080fd5b600080604083850312156120d957600080fd5b6120e283611f87565b915060208301356120f2816120b8565b809150509250929050565b7f4e487b7100000000000000000000000000000000000000000000000000000000600052604160045260246000fd5b6000806000806080858703121561214257600080fd5b61214b85611f87565b935061215960208601611f87565b925060408501359150606085013567ffffffffffffffff8082111561217d57600080fd5b818701915087601f83011261219157600080fd5b8135818111156121a3576121a36120fd565b604051601f8201601f19908116603f011681019083821181831017156121cb576121cb6120fd565b816040528281528a60208487010111156121e457600080fd5b82602086016020830137600060208483010152809550505050505092959194509250565b6000806040838503121561221b57600080fd5b82356120e281611eb9565b6000806040838503121561223957600080fd5b61224283611f87565b915061225060208401611f87565b90509250929050565b600181811c9082168061226d57607f821691505b602082108103610e71577f4e487b7100000000000000000000000000000000000000000000000000000000600052602260045260246000fd5b600081516122b8818560208601611f0b565b9290920192915050565b600082516122d4818460208701611f0b565b9190910192915050565b7f4e487b7100000000000000000000000000000000000000000000000000000000600052601260045260246000fd5b7f4e487b7100000000000000000000000000000000000000000000000000000000600052601160045260246000fd5b60008261234b5761234b6122de565b500490565b600081600019048311821515161561236a5761236a61230d565b500290565b808201808211156123825761238261230d565b92915050565b60006020828403121561239a57600080fd5b5051919050565b6000602082840312156123b357600080fd5b8151611f04816120b8565b601f821115610cd557600081815260208120601f850160051c810160208610156123e55750805b601f850160051c820191505b81811015612404578281556001016123f1565b505050505050565b67ffffffffffffffff831115612424576124246120fd565b612438836124328354612259565b836123be565b6000601f84116001811461246c57600085156124545750838201355b600019600387901b1c1916600186901b178355611eb2565b600083815260209020601f19861690835b8281101561249d578685013582556020948501946001909201910161247d565b50868210156124ba5760001960f88860031b161c19848701351681555b505060018560011b0183555050505050565b7f697066733a2f2f000000000000000000000000000000000000000000000000008152600060076000855461250081612259565b60018281168015612518576001811461254f57612582565b7fffffffffffffffffffffffffffffffffffffffffffffffffffffffffffffff008416868901528583151584028901019450612582565b8960005260208060002060005b858110156125775781548b82018a015290840190820161255c565b505050858389010194505b507f2f0000000000000000000000000000000000000000000000000000000000000084526125b2818501896122a6565b9450505050506125e1817f2e6a736f6e0000000000000000000000000000000000000000000000000000009052565b600501949350505050565b600060001982036125ff576125ff61230d565b5060010190565b818103818111156123825761238261230d565b600082612628576126286122de565b500690565b7f4e487b7100000000000000000000000000000000000000000000000000000000600052603260045260246000fd5b60006001600160a01b0380871683528086166020840152508360408301526080606083015261268e6080830184611f2f565b9695505050505050565b6000602082840312156126aa57600080fd5b8151611f0481611eb956fea264697066735822122048abab22a2fdbb4669ef029575d22c95a61e1cbc178c967b39aacc3fe2457f4564736f6c63430008100033516d596757584b4144755367577a694e676d7059613450416d68464c33573761474c52354331646b52754e47664d697066733a2f2f516d636579786f4e71665076314c4e66596e6d677861735872386d38676843335462597546626271684838706656",
    "linkReferences": {}
  },
  "methodIdentifiers": {
    "DESTROY()": "875e18f7",
    "DefaultResolver()": "00b7aff7",
    "Dev()": "01e51ae8",
    "DomainHash()": "8315ae65",
    "ENS()": "1d2e2cc4",
    "ID2Labelhash(uint256)": "6eada5aa",
    "ID2Namehash(uint256)": "bb8762c8",
    "Namehash2ID(bytes32)": "a37f9f99",
    "active()": "02fb0c5e",
    "approve(address,uint256)": "095ea7b3",
    "balanceOf(address)": "70a08231",
    "batchMint(uint256)": "8467be0d",
    "contractURI()": "e8a3d485",
    "getApproved(uint256)": "081812fc",
    "isApprovedForAll(address,address)": "e985e9c5",
    "maxSupply()": "d5abeb01",
    "metaIPFS()": "98adcbba",
    "mint()": "1249c58b",
    "mintPrice()": "6817c76c",
    "name()": "06fdde03",
    "owner()": "8da5cb5b",
    "ownerOf(uint256)": "6352211e",
    "royalty()": "29ee566c",
    "royaltyInfo(uint256,uint256)": "2a55205a",
    "safeTransferFrom(address,address,uint256)": "42842e0e",
    "safeTransferFrom(address,address,uint256,bytes)": "b88d4fde",
    "setApprovalForAll(address,bool)": "a22cb465",
    "setContractURI(string)": "938e3d7b",
    "setDefaultResolver(address)": "c66485b2",
    "setInterface(bytes4,bool)": "c0a43a7c",
    "setRoyalty(uint256)": "4209a2e1",
    "startTime()": "78e97925",
    "supportsInterface(bytes4)": "01ffc9a7",
    "symbol()": "95d89b41",
    "toggleActive()": "29c68dc1",
    "tokenURI(uint256)": "c87b56dd",
    "totalSupply()": "18160ddd",
    "transferFrom(address,address,uint256)": "23b872dd",
    "transferOwnership(address)": "f2fde38b",
    "withdrawEther()": "7362377b",
    "withdrawToken(address)": "89476069"
  },
  "id": 8
}