{
  "abi": [
    {
      "inputs": [],
      "stateMutability": "nonpayable",
      "type": "constructor"
    },
    {
      "inputs": [],
      "name": "ContractPaused",
      "type": "error"
    },
    {
      "inputs": [
        {
          "internalType": "address",
          "name": "addr",
          "type": "address"
        }
      ],
      "name": "ERC721IncompatibleReceiver",
      "type": "error"
    },
    {
      "inputs": [
        {
          "internalType": "uint256",
          "name": "size",
          "type": "uint256"
        },
        {
          "internalType": "uint256",
          "name": "yourSize",
          "type": "uint256"
        }
      ],
      "name": "InsufficientEtherSent",
      "type": "error"
    },
    {
      "inputs": [
        {
          "internalType": "uint256",
          "name": "id",
          "type": "uint256"
        }
      ],
      "name": "InvalidTokenID",
      "type": "error"
    },
    {
      "inputs": [],
      "name": "MintEnded",
      "type": "error"
    },
    {
      "inputs": [
        {
          "internalType": "address",
          "name": "owner",
          "type": "address"
        },
        {
          "internalType": "address",
          "name": "from",
          "type": "address"
        },
        {
          "internalType": "uint256",
          "name": "id",
          "type": "uint256"
        }
      ],
      "name": "NotSubdomainOwner",
      "type": "error"
    },
    {
      "inputs": [
        {
          "internalType": "address",
          "name": "_dev",
          "type": "address"
        },
        {
          "internalType": "address",
          "name": "_you",
          "type": "address"
        }
      ],
      "name": "OnlyDev",
      "type": "error"
    },
    {
      "inputs": [],
      "name": "OversizedBatch",
      "type": "error"
    },
    {
      "inputs": [
        {
          "internalType": "address",
          "name": "operator",
          "type": "address"
        },
        {
          "internalType": "address",
          "name": "owner",
          "type": "address"
        },
        {
          "internalType": "uint256",
          "name": "id",
          "type": "uint256"
        }
      ],
      "name": "Unauthorized",
      "type": "error"
    },
    {
      "inputs": [],
      "name": "ZeroAddress",
      "type": "error"
    },
    {
      "anonymous": false,
      "inputs": [
        {
          "indexed": true,
          "internalType": "bytes32",
          "name": "node",
          "type": "bytes32"
        },
        {
          "indexed": false,
          "internalType": "address",
          "name": "a",
          "type": "address"
        }
      ],
      "name": "AddressChanged",
      "type": "event"
    },
    {
      "anonymous": false,
      "inputs": [
        {
          "indexed": true,
          "internalType": "bytes32",
          "name": "node",
          "type": "bytes32"
        },
        {
          "indexed": false,
          "internalType": "uint256",
          "name": "coinType",
          "type": "uint256"
        },
        {
          "indexed": false,
          "internalType": "bytes",
          "name": "newAddress",
          "type": "bytes"
        }
      ],
      "name": "AddressChanged",
      "type": "event"
    },
    {
      "anonymous": false,
      "inputs": [
        {
          "indexed": true,
          "internalType": "address",
          "name": "_owner",
          "type": "address"
        },
        {
          "indexed": true,
          "internalType": "address",
          "name": "approved",
          "type": "address"
        },
        {
          "indexed": true,
          "internalType": "uint256",
          "name": "id",
          "type": "uint256"
        }
      ],
      "name": "Approval",
      "type": "event"
    },
    {
      "anonymous": false,
      "inputs": [
        {
          "indexed": true,
          "internalType": "address",
          "name": "_owner",
          "type": "address"
        },
        {
          "indexed": true,
          "internalType": "address",
          "name": "operator",
          "type": "address"
        },
        {
          "indexed": false,
          "internalType": "bool",
          "name": "approved",
          "type": "bool"
        }
      ],
      "name": "ApprovalForAll",
      "type": "event"
    },
    {
      "anonymous": false,
      "inputs": [
        {
          "indexed": true,
          "internalType": "bytes32",
          "name": "node",
          "type": "bytes32"
        },
        {
          "indexed": false,
          "internalType": "bytes",
          "name": "_contenthash",
          "type": "bytes"
        }
      ],
      "name": "ContenthashChanged",
      "type": "event"
    },
    {
      "anonymous": false,
      "inputs": [
        {
          "indexed": true,
          "internalType": "bytes32",
          "name": "node",
          "type": "bytes32"
        },
        {
          "indexed": false,
          "internalType": "string",
          "name": "name",
          "type": "string"
        }
      ],
      "name": "NameChanged",
      "type": "event"
    },
    {
      "anonymous": false,
      "inputs": [
        {
          "indexed": true,
          "internalType": "address",
          "name": "previousOwner",
          "type": "address"
        },
        {
          "indexed": true,
          "internalType": "address",
          "name": "newOwner",
          "type": "address"
        }
      ],
      "name": "OwnershipTransferred",
      "type": "event"
    },
    {
      "anonymous": false,
      "inputs": [
        {
          "indexed": true,
          "internalType": "bytes32",
          "name": "node",
          "type": "bytes32"
        },
        {
          "indexed": false,
          "internalType": "bytes32",
          "name": "x",
          "type": "bytes32"
        },
        {
          "indexed": false,
          "internalType": "bytes32",
          "name": "y",
          "type": "bytes32"
        }
      ],
      "name": "PubkeyChanged",
      "type": "event"
    },
    {
      "anonymous": false,
      "inputs": [
        {
          "indexed": true,
          "internalType": "bytes32",
          "name": "node",
          "type": "bytes32"
        },
        {
          "indexed": true,
          "internalType": "string",
          "name": "key",
          "type": "string"
        },
        {
          "indexed": false,
          "internalType": "string",
          "name": "value",
          "type": "string"
        }
      ],
      "name": "TextRecordChanged",
      "type": "event"
    },
    {
      "anonymous": false,
      "inputs": [
        {
          "indexed": true,
          "internalType": "address",
          "name": "from",
          "type": "address"
        },
        {
          "indexed": true,
          "internalType": "address",
          "name": "to",
          "type": "address"
        },
        {
          "indexed": true,
          "internalType": "uint256",
          "name": "id",
          "type": "uint256"
        }
      ],
      "name": "Transfer",
      "type": "event"
    },
    {
      "stateMutability": "payable",
      "type": "fallback"
    },
    {
      "inputs": [],
      "name": "DESTROY",
      "outputs": [],
      "stateMutability": "payable",
      "type": "function"
    },
    {
      "inputs": [],
      "name": "DefaultContenthash",
      "outputs": [
        {
          "internalType": "bytes",
          "name": "",
          "type": "bytes"
        }
      ],
      "stateMutability": "view",
      "type": "function"
    },
    {
      "inputs": [],
      "name": "DefaultResolver",
      "outputs": [
        {
          "internalType": "address",
          "name": "",
          "type": "address"
        }
      ],
      "stateMutability": "view",
      "type": "function"
    },
    {
      "inputs": [],
      "name": "Dev",
      "outputs": [
        {
          "internalType": "address",
          "name": "",
          "type": "address"
        }
      ],
      "stateMutability": "view",
      "type": "function"
    },
    {
      "inputs": [],
      "name": "DomainHash",
      "outputs": [
        {
          "internalType": "bytes32",
          "name": "",
          "type": "bytes32"
        }
      ],
      "stateMutability": "view",
      "type": "function"
    },
    {
      "inputs": [],
      "name": "ENS",
      "outputs": [
        {
          "internalType": "contract iENS",
          "name": "",
          "type": "address"
        }
      ],
      "stateMutability": "view",
      "type": "function"
    },
    {
      "inputs": [
        {
          "internalType": "uint256",
          "name": "",
          "type": "uint256"
        }
      ],
      "name": "ID2Labelhash",
      "outputs": [
        {
          "internalType": "bytes32",
          "name": "",
          "type": "bytes32"
        }
      ],
      "stateMutability": "view",
      "type": "function"
    },
    {
      "inputs": [
        {
          "internalType": "uint256",
          "name": "id",
          "type": "uint256"
        }
      ],
      "name": "ID2Namehash",
      "outputs": [
        {
          "internalType": "bytes32",
          "name": "",
          "type": "bytes32"
        }
      ],
      "stateMutability": "view",
      "type": "function"
    },
    {
      "inputs": [
        {
          "internalType": "bytes32",
          "name": "",
          "type": "bytes32"
        }
      ],
      "name": "Namehash2ID",
      "outputs": [
        {
          "internalType": "uint256",
          "name": "",
          "type": "uint256"
        }
      ],
      "stateMutability": "view",
      "type": "function"
    },
    {
      "inputs": [
        {
          "internalType": "bytes32",
          "name": "",
          "type": "bytes32"
        },
        {
          "internalType": "string",
          "name": "",
          "type": "string"
        }
      ],
      "name": "_text",
      "outputs": [
        {
          "internalType": "string",
          "name": "",
          "type": "string"
        }
      ],
      "stateMutability": "view",
      "type": "function"
    },
    {
      "inputs": [],
      "name": "active",
      "outputs": [
        {
          "internalType": "bool",
          "name": "",
          "type": "bool"
        }
      ],
      "stateMutability": "view",
      "type": "function"
    },
    {
      "inputs": [
        {
          "internalType": "bytes32",
          "name": "node",
          "type": "bytes32"
        }
      ],
      "name": "addr",
      "outputs": [
        {
          "internalType": "address payable",
          "name": "",
          "type": "address"
        }
      ],
      "stateMutability": "view",
      "type": "function"
    },
    {
      "inputs": [
        {
          "internalType": "bytes32",
          "name": "node",
          "type": "bytes32"
        },
        {
          "internalType": "uint256",
          "name": "coinType",
          "type": "uint256"
        }
      ],
      "name": "addr",
      "outputs": [
        {
          "internalType": "bytes",
          "name": "_addr",
          "type": "bytes"
        }
      ],
      "stateMutability": "view",
      "type": "function"
    },
    {
      "inputs": [
        {
          "internalType": "address",
          "name": "approved",
          "type": "address"
        },
        {
          "internalType": "uint256",
          "name": "id",
          "type": "uint256"
        }
      ],
      "name": "approve",
      "outputs": [],
      "stateMutability": "payable",
      "type": "function"
    },
    {
      "inputs": [
        {
          "internalType": "address",
          "name": "",
          "type": "address"
        }
      ],
      "name": "balanceOf",
      "outputs": [
        {
          "internalType": "uint256",
          "name": "",
          "type": "uint256"
        }
      ],
      "stateMutability": "view",
      "type": "function"
    },
    {
      "inputs": [
        {
          "internalType": "uint256",
          "name": "batchSize",
          "type": "uint256"
        }
      ],
      "name": "batchMint",
      "outputs": [],
      "stateMutability": "payable",
      "type": "function"
    },
    {
      "inputs": [
        {
          "internalType": "bytes32",
          "name": "node",
          "type": "bytes32"
        }
      ],
      "name": "contenthash",
      "outputs": [
        {
          "internalType": "bytes",
          "name": "_hash",
          "type": "bytes"
        }
      ],
      "stateMutability": "view",
      "type": "function"
    },
    {
      "inputs": [],
      "name": "contractURI",
      "outputs": [
        {
          "internalType": "string",
          "name": "",
          "type": "string"
        }
      ],
      "stateMutability": "view",
      "type": "function"
    },
    {
      "inputs": [
        {
          "internalType": "uint256",
          "name": "",
          "type": "uint256"
        }
      ],
      "name": "getApproved",
      "outputs": [
        {
          "internalType": "address",
          "name": "",
          "type": "address"
        }
      ],
      "stateMutability": "view",
      "type": "function"
    },
    {
      "inputs": [
        {
          "internalType": "address",
          "name": "",
          "type": "address"
        },
        {
          "internalType": "address",
          "name": "",
          "type": "address"
        }
      ],
      "name": "isApprovedForAll",
      "outputs": [
        {
          "internalType": "bool",
          "name": "",
          "type": "bool"
        }
      ],
      "stateMutability": "view",
      "type": "function"
    },
    {
      "inputs": [],
      "name": "maxSupply",
      "outputs": [
        {
          "internalType": "uint256",
          "name": "",
          "type": "uint256"
        }
      ],
      "stateMutability": "view",
      "type": "function"
    },
    {
      "inputs": [],
      "name": "metaIPFS",
      "outputs": [
        {
          "internalType": "string",
          "name": "",
          "type": "string"
        }
      ],
      "stateMutability": "view",
      "type": "function"
    },
    {
      "inputs": [],
      "name": "mint",
      "outputs": [],
      "stateMutability": "payable",
      "type": "function"
    },
    {
      "inputs": [],
      "name": "mintPrice",
      "outputs": [
        {
          "internalType": "uint256",
          "name": "",
          "type": "uint256"
        }
      ],
      "stateMutability": "view",
      "type": "function"
    },
    {
      "inputs": [],
      "name": "name",
      "outputs": [
        {
          "internalType": "string",
          "name": "",
          "type": "string"
        }
      ],
      "stateMutability": "view",
      "type": "function"
    },
    {
      "inputs": [
        {
          "internalType": "bytes32",
          "name": "node",
          "type": "bytes32"
        }
      ],
      "name": "name",
      "outputs": [
        {
          "internalType": "string",
          "name": "_name",
          "type": "string"
        }
      ],
      "stateMutability": "view",
      "type": "function"
    },
    {
      "inputs": [],
      "name": "owner",
      "outputs": [
        {
          "internalType": "address",
          "name": "",
          "type": "address"
        }
      ],
      "stateMutability": "view",
      "type": "function"
    },
    {
      "inputs": [
        {
          "internalType": "uint256",
          "name": "id",
          "type": "uint256"
        }
      ],
      "name": "ownerOf",
      "outputs": [
        {
          "internalType": "address",
          "name": "",
          "type": "address"
        }
      ],
      "stateMutability": "view",
      "type": "function"
    },
    {
      "inputs": [
        {
          "internalType": "bytes32",
          "name": "",
          "type": "bytes32"
        }
      ],
      "name": "pubkey",
      "outputs": [
        {
          "internalType": "bytes32",
          "name": "x",
          "type": "bytes32"
        },
        {
          "internalType": "bytes32",
          "name": "y",
          "type": "bytes32"
        }
      ],
      "stateMutability": "view",
      "type": "function"
    },
    {
      "inputs": [],
      "name": "royalty",
      "outputs": [
        {
          "internalType": "uint256",
          "name": "",
          "type": "uint256"
        }
      ],
      "stateMutability": "view",
      "type": "function"
    },
    {
      "inputs": [
        {
          "internalType": "uint256",
          "name": "id",
          "type": "uint256"
        },
        {
          "internalType": "uint256",
          "name": "_salePrice",
          "type": "uint256"
        }
      ],
      "name": "royaltyInfo",
      "outputs": [
        {
          "internalType": "address",
          "name": "",
          "type": "address"
        },
        {
          "internalType": "uint256",
          "name": "",
          "type": "uint256"
        }
      ],
      "stateMutability": "view",
      "type": "function"
    },
    {
      "inputs": [
        {
          "internalType": "address",
          "name": "from",
          "type": "address"
        },
        {
          "internalType": "address",
          "name": "to",
          "type": "address"
        },
        {
          "internalType": "uint256",
          "name": "id",
          "type": "uint256"
        }
      ],
      "name": "safeTransferFrom",
      "outputs": [],
      "stateMutability": "payable",
      "type": "function"
    },
    {
      "inputs": [
        {
          "internalType": "address",
          "name": "from",
          "type": "address"
        },
        {
          "internalType": "address",
          "name": "to",
          "type": "address"
        },
        {
          "internalType": "uint256",
          "name": "id",
          "type": "uint256"
        },
        {
          "internalType": "bytes",
          "name": "data",
          "type": "bytes"
        }
      ],
      "name": "safeTransferFrom",
      "outputs": [],
      "stateMutability": "payable",
      "type": "function"
    },
    {
      "inputs": [
        {
          "internalType": "bytes32",
          "name": "node",
          "type": "bytes32"
        },
        {
          "internalType": "uint256",
          "name": "coinType",
          "type": "uint256"
        },
        {
          "internalType": "bytes",
          "name": "_addr",
          "type": "bytes"
        }
      ],
      "name": "setAddress",
      "outputs": [],
      "stateMutability": "nonpayable",
      "type": "function"
    },
    {
      "inputs": [
        {
          "internalType": "bytes32",
          "name": "node",
          "type": "bytes32"
        },
        {
          "internalType": "address",
          "name": "_addr",
          "type": "address"
        }
      ],
      "name": "setAddress",
      "outputs": [],
      "stateMutability": "nonpayable",
      "type": "function"
    },
    {
      "inputs": [
        {
          "internalType": "address",
          "name": "operator",
          "type": "address"
        },
        {
          "internalType": "bool",
          "name": "approved",
          "type": "bool"
        }
      ],
      "name": "setApprovalForAll",
      "outputs": [],
      "stateMutability": "payable",
      "type": "function"
    },
    {
      "inputs": [
        {
          "internalType": "bytes32",
          "name": "node",
          "type": "bytes32"
        },
        {
          "internalType": "bytes",
          "name": "_hash",
          "type": "bytes"
        }
      ],
      "name": "setContenthash",
      "outputs": [],
      "stateMutability": "nonpayable",
      "type": "function"
    },
    {
      "inputs": [
        {
          "internalType": "string",
          "name": "_contractURI",
          "type": "string"
        }
      ],
      "name": "setContractURI",
      "outputs": [],
      "stateMutability": "nonpayable",
      "type": "function"
    },
    {
      "inputs": [
        {
          "internalType": "bytes",
          "name": "_content",
          "type": "bytes"
        }
      ],
      "name": "setDefaultContenthash",
      "outputs": [],
      "stateMutability": "nonpayable",
      "type": "function"
    },
    {
      "inputs": [
        {
          "internalType": "address",
          "name": "_resolver",
          "type": "address"
        }
      ],
      "name": "setDefaultResolver",
      "outputs": [],
      "stateMutability": "nonpayable",
      "type": "function"
    },
    {
      "inputs": [
        {
          "internalType": "bytes4",
          "name": "sig",
          "type": "bytes4"
        },
        {
          "internalType": "bool",
          "name": "value",
          "type": "bool"
        }
      ],
      "name": "setInterface",
      "outputs": [],
      "stateMutability": "payable",
      "type": "function"
    },
    {
      "inputs": [
        {
          "internalType": "bytes32",
          "name": "node",
          "type": "bytes32"
        },
        {
          "internalType": "string",
          "name": "_name",
          "type": "string"
        }
      ],
      "name": "setName",
      "outputs": [],
      "stateMutability": "nonpayable",
      "type": "function"
    },
    {
      "inputs": [
        {
          "internalType": "bytes32",
          "name": "node",
          "type": "bytes32"
        },
        {
          "internalType": "bytes32",
          "name": "x",
          "type": "bytes32"
        },
        {
          "internalType": "bytes32",
          "name": "y",
          "type": "bytes32"
        }
      ],
      "name": "setPubkey",
      "outputs": [],
      "stateMutability": "nonpayable",
      "type": "function"
    },
    {
      "inputs": [
        {
          "internalType": "uint256",
          "name": "_royalty",
          "type": "uint256"
        }
      ],
      "name": "setRoyalty",
      "outputs": [],
      "stateMutability": "nonpayable",
      "type": "function"
    },
    {
      "inputs": [
        {
          "internalType": "bytes32",
          "name": "node",
          "type": "bytes32"
        },
        {
          "internalType": "string",
          "name": "key",
          "type": "string"
        },
        {
          "internalType": "string",
          "name": "value",
          "type": "string"
        }
      ],
      "name": "setText",
      "outputs": [],
      "stateMutability": "nonpayable",
      "type": "function"
    },
    {
      "inputs": [
        {
          "internalType": "bytes4",
          "name": "",
          "type": "bytes4"
        }
      ],
      "name": "supportsInterface",
      "outputs": [
        {
          "internalType": "bool",
          "name": "",
          "type": "bool"
        }
      ],
      "stateMutability": "view",
      "type": "function"
    },
    {
      "inputs": [],
      "name": "symbol",
      "outputs": [
        {
          "internalType": "string",
          "name": "",
          "type": "string"
        }
      ],
      "stateMutability": "view",
      "type": "function"
    },
    {
      "inputs": [
        {
          "internalType": "bytes32",
          "name": "node",
          "type": "bytes32"
        },
        {
          "internalType": "string",
          "name": "key",
          "type": "string"
        }
      ],
      "name": "text",
      "outputs": [
        {
          "internalType": "string",
          "name": "value",
          "type": "string"
        }
      ],
      "stateMutability": "view",
      "type": "function"
    },
    {
      "inputs": [],
      "name": "toggleActive",
      "outputs": [],
      "stateMutability": "nonpayable",
      "type": "function"
    },
    {
      "inputs": [
        {
          "internalType": "uint256",
          "name": "id",
          "type": "uint256"
        }
      ],
      "name": "tokenURI",
      "outputs": [
        {
          "internalType": "string",
          "name": "",
          "type": "string"
        }
      ],
      "stateMutability": "view",
      "type": "function"
    },
    {
      "inputs": [],
      "name": "totalSupply",
      "outputs": [
        {
          "internalType": "uint256",
          "name": "",
          "type": "uint256"
        }
      ],
      "stateMutability": "view",
      "type": "function"
    },
    {
      "inputs": [
        {
          "internalType": "address",
          "name": "from",
          "type": "address"
        },
        {
          "internalType": "address",
          "name": "to",
          "type": "address"
        },
        {
          "internalType": "uint256",
          "name": "id",
          "type": "uint256"
        }
      ],
      "name": "transferFrom",
      "outputs": [],
      "stateMutability": "payable",
      "type": "function"
    },
    {
      "inputs": [
        {
          "internalType": "address",
          "name": "newDev",
          "type": "address"
        }
      ],
      "name": "transferOwnership",
      "outputs": [],
      "stateMutability": "nonpayable",
      "type": "function"
    },
    {
      "inputs": [],
      "name": "withdrawEther",
      "outputs": [],
      "stateMutability": "payable",
      "type": "function"
    },
    {
      "inputs": [
        {
          "internalType": "address",
          "name": "token",
          "type": "address"
        }
      ],
      "name": "withdrawToken",
      "outputs": [],
      "stateMutability": "payable",
      "type": "function"
    },
    {
      "stateMutability": "payable",
      "type": "receive"
    }
  ],
  "bytecode": {
    "object": "0x6000805460ff60a01b1916600160a01b179055610100604052601560c09081527f426f726564454e535961636874436c75622e657468000000000000000000000060e0526002906200005290826200047d565b5060408051808201909152600681526542454e53594360d01b60208201526003906200007f90826200047d565b50662386f26fc100006006556040518060600160405280603581526020016200474060359139600790620000b490826200047d565b5060056008556040518060600160405280602e815260200162004712602e9139600990620000e390826200047d565b506040518060c00160405280608a815260200162004688608a91396011906200010d90826200047d565b506127106080523480156200012157600080fd5b50600e60208181527fb890939816505e41127216d3d06629e66cc0c53570cf6b36ab15983bf4fae48c805460ff1990811660019081179092557f9fd67b3e6adc3139ba80c59d96dc044fc0e5dad93473e3ce9e256e3ee6648ffe80548216831790557ff981ee43ed7d41e43a04cecda243b9d230f5a2907423bfab8b8774ab9506e03280548216831790557f64261f180b4e30beacb49f9abd317118a567d9e8298c9f003468468a6cb09e1c80548216831790557f3e76f55ce973a2e4a7831d1d76f54e32a00244f900c7824fed4a69163e15e90b80548216831790556378e5bf0360e11b60009081527f86da393c824aaed634b91d764b465391c51589071e7c100d3e03a43ce41fecd8805483168417905582546001600160a01b031990811633178455815481166e0c2e074ec69a0dfb2997ba6c7d2e1e1782556004805490911630179055604080518086018390527f4f5b812789fc606be1b3b16908db13fc7a9adf7ca72641f84d75b47069d3d7f08183015281518082038301815260608201835280519087012060808201527f7a46b638f71fee598932cc3ef366f2f3dcdae81da0064fba529d5ae43b3ac9c560a08083019190915282518083038201815260c09092019092528051908601209052939092527ff78053c79e0b9aa452e27b1a016da828f8da009fc4e41d10c85bd3a969c7facb80548316821790557f2128e120182d3aad40be1b13f6e6837469325eed442c0118fa5598c7f671c92b80548316821790557fee4d32f332f0a2d0ddc34ffb2ec7a1b8568e915f8f5b625da8ece9305abb079a80548316821790557facee4afab9ecaa8ae5295b11b5f85101d139b31d8872b02073faef8923dbb604805483168217905563152a902d60e11b9092527fe13efcc3391fd06a1796af9f3856980176fe91811e54bc42ace51e572d1d17c88054909116909117905562000549565b634e487b7160e01b600052604160045260246000fd5b600181811c908216806200040357607f821691505b6020821081036200042457634e487b7160e01b600052602260045260246000fd5b50919050565b601f8211156200047857600081815260208120601f850160051c81016020861015620004535750805b601f850160051c820191505b8181101562000474578281556001016200045f565b5050505b505050565b81516001600160401b03811115620004995762000499620003d8565b620004b181620004aa8454620003ee565b846200042a565b602080601f831160018114620004e95760008415620004d05750858301515b600019600386901b1c1916600185901b17855562000474565b600085815260208120601f198616915b828110156200051a57888601518255948401946001909101908401620004f9565b5085821015620005395787850151600019600388901b60f8161c191681555b5050505050600190811b01905550565b60805160a0516140e1620005a76000396000818161075601528181610ec001528181610f6c01528181611de701528181611e93015281816124230152612e780152600081816109af01528181610db90152611ca701526140e16000f3fe6080604052600436106103635760003560e01c806370a08231116101c6578063b0671b71116100f7578063c87b56dd11610095578063e8a3d4851161006f578063e8a3d485146109d1578063e985e9c5146109e6578063f1cb7e0614610a21578063f2fde38b14610a4157600080fd5b8063c87b56dd1461095d578063ca446dd91461097d578063d5abeb011461099d57600080fd5b8063bc1c58d1116100d1578063bc1c58d1146108c1578063c0a43a7c146108e1578063c66485b2146108f4578063c86902331461091457600080fd5b8063b0671b711461086e578063b88d4fde1461088e578063bb8762c8146108a157600080fd5b80638da5cb5b1161016457806395d89b411161013e57806395d89b411461080457806398adcbba14610819578063a22cb4651461082e578063a37f9f991461084157600080fd5b80638da5cb5b146107a657806393507f3d146107c4578063938e3d7b146107e457600080fd5b80638315ae65116101a05780638315ae65146107445780638467be0d14610778578063875e18f71461078b578063894760691461079357600080fd5b806370a08231146106ef5780637362377b1461071c578063773722131461072457600080fd5b806329cd62ea116102a057806359d1d43c1161023e5780636817c76c116102185780636817c76c14610677578063691f34311461068d57806369be8bb0146106ad5780636eada5aa146106c257600080fd5b806359d1d43c146106175780635d81d553146106375780636352211e1461065757600080fd5b8063304e6ade1161027a578063304e6ade146105b75780633b3b57de146105d75780634209a2e1146105f757806342842e0e1461051a57600080fd5b806329cd62ea1461054257806329ee566c146105625780632a55205a1461057857600080fd5b8063095ea7b31161030d57806318160ddd116102e757806318160ddd146104d65780631d2e2cc4146104fa57806323b872dd1461051a57806329c68dc11461052d57600080fd5b8063095ea7b31461049957806310f13a8c146104ae5780631249c58b146104ce57600080fd5b806302fb0c5e1161033e57806302fb0c5e1461040f57806306fdde0314610441578063081812fc1461046357600080fd5b8062b7aff71461037257806301e51ae8146103af57806301ffc9a7146103cf57600080fd5b3661036d57600080fd5b600080fd5b34801561037e57600080fd5b50600454610392906001600160a01b031681565b6040516001600160a01b0390911681526020015b60405180910390f35b3480156103bb57600080fd5b50600154610392906001600160a01b031681565b3480156103db57600080fd5b506103ff6103ea36600461337d565b600e6020526000908152604090205460ff1681565b60405190151581526020016103a6565b34801561041b57600080fd5b506000546103ff9074010000000000000000000000000000000000000000900460ff1681565b34801561044d57600080fd5b50610456610a61565b6040516103a691906133ea565b34801561046f57600080fd5b5061039261047e3660046133fd565b600c602052600090815260409020546001600160a01b031681565b6104ac6104a736600461342b565b610af3565b005b3480156104ba57600080fd5b506104ac6104c9366004613499565b610be2565b6104ac610d63565b3480156104e257600080fd5b506104ec60055481565b6040519081526020016103a6565b34801561050657600080fd5b50600054610392906001600160a01b031681565b6104ac610528366004613513565b61104a565b34801561053957600080fd5b506104ac61106a565b34801561054e57600080fd5b506104ac61055d366004613554565b6110f7565b34801561056e57600080fd5b506104ec60085481565b34801561058457600080fd5b50610598610593366004613580565b61124a565b604080516001600160a01b0390931683526020830191909152016103a6565b3480156105c357600080fd5b506104ac6105d2366004613667565b611282565b3480156105e357600080fd5b506103926105f23660046133fd565b6113be565b34801561060357600080fd5b506104ac6106123660046133fd565b611505565b34801561062357600080fd5b506104566106323660046136ae565b61154a565b34801561064357600080fd5b506104ac6106523660046136fa565b6117d1565b34801561066357600080fd5b506103926106723660046133fd565b611821565b34801561068357600080fd5b506104ec60065481565b34801561069957600080fd5b506104566106a83660046133fd565b611883565b3480156106b957600080fd5b506104566119a4565b3480156106ce57600080fd5b506104ec6106dd3660046133fd565b600f6020526000908152604090205481565b3480156106fb57600080fd5b506104ec61070a36600461372f565b600a6020526000908152604090205481565b6104ac611a32565b34801561073057600080fd5b506104ac61073f3660046136ae565b611adb565b34801561075057600080fd5b506104ec7f000000000000000000000000000000000000000000000000000000000000000081565b6104ac6107863660046133fd565b611c47565b6104ac611f78565b6104ac6107a136600461372f565b611fbb565b3480156107b257600080fd5b506001546001600160a01b0316610392565b3480156107d057600080fd5b506104ac6107df36600461374c565b61216c565b3480156107f057600080fd5b506104ac6107ff36600461379c565b6122a8565b34801561081057600080fd5b506104566122f5565b34801561082557600080fd5b50610456612302565b6104ac61083c3660046137ec565b61230f565b34801561084d57600080fd5b506104ec61085c3660046133fd565b60106020526000908152604090205481565b34801561087a57600080fd5b50610456610889366004613825565b612399565b6104ac61089c366004613876565b6123ce565b3480156108ad57600080fd5b506104ec6108bc3660046133fd565b6123e0565b3480156108cd57600080fd5b506104566108dc3660046133fd565b61248e565b6104ac6108ef3660046138e2565b6125c6565b34801561090057600080fd5b506104ac61090f36600461372f565b6126da565b34801561092057600080fd5b5061094861092f3660046133fd565b6014602052600090815260409020805460019091015482565b604080519283526020830191909152016103a6565b34801561096957600080fd5b506104566109783660046133fd565b612754565b34801561098957600080fd5b506104ac610998366004613900565b6127c8565b3480156109a957600080fd5b506104ec7f000000000000000000000000000000000000000000000000000000000000000081565b3480156109dd57600080fd5b5061045661294d565b3480156109f257600080fd5b506103ff610a01366004613925565b600d60209081526000928352604080842090915290825290205460ff1681565b348015610a2d57600080fd5b50610456610a3c366004613580565b61295a565b348015610a4d57600080fd5b506104ac610a5c36600461372f565b612a7e565b606060028054610a7090613953565b80601f0160208091040260200160405190810160405280929190818152602001828054610a9c90613953565b8015610ae95780601f10610abe57610100808354040283529160200191610ae9565b820191906000526020600020905b815481529060010190602001808311610acc57829003601f168201915b5050505050905090565b6000818152600b60205260409020546001600160a01b03163314610b71576000818152600b6020526040908190205490517f431ef6160000000000000000000000000000000000000000000000000000000081523360048201526001600160a01b039091166024820152604481018290526064015b60405180910390fd5b6000818152600c602052604080822080547fffffffffffffffffffffffff0000000000000000000000000000000000000000166001600160a01b0386169081179091559051839233917f8c5be1e5ebec7d5bd14f71427d1e84f3dd0314c0f7b2291e5b200ac8c7c3b9259190a45050565b6000546040517f02571be30000000000000000000000000000000000000000000000000000000081526004810187905286916001600160a01b0316906302571be390602401602060405180830381865afa158015610c44573d6000803e3d6000fd5b505050506040513d601f19601f82011682018060405250810190610c6891906139a0565b6001600160a01b0316336001600160a01b031614610cc85760405162461bcd60e51b815260206004820152601860248201527f5265736f6c7665723a204e4f545f415554484f524953454400000000000000006044820152606401610b68565b8282601560008981526020019081526020016000208787604051610ced9291906139bd565b90815260200160405180910390209182610d08929190613a1b565b508484604051610d199291906139bd565b6040518091039020867f6eac6078c9cee83ab95cf8524ac3a05038fbf02b43e2853ae34aabb45d2820d48585604051610d53929190613adc565b60405180910390a3505050505050565b60005474010000000000000000000000000000000000000000900460ff16610db7576040517fab35696f00000000000000000000000000000000000000000000000000000000815260040160405180910390fd5b7f00000000000000000000000000000000000000000000000000000000000000006005541115610e13576040517f49084b9400000000000000000000000000000000000000000000000000000000815260040160405180910390fd5b600654341015610e5c576006546040517f8ad0844f0000000000000000000000000000000000000000000000000000000081526004810191909152346024820152604401610b68565b6005546000610e6a82612b32565b604051602001610e7a9190613b27565b60408051808303601f1901815290829052805160209091012060008054600480547f5ef2c7f00000000000000000000000000000000000000000000000000000000086527f000000000000000000000000000000000000000000000000000000000000000091860191909152602485018490523360448601526001600160a01b03908116606486015260848501929092529193501690635ef2c7f09060a401600060405180830381600087803b158015610f3357600080fd5b505af1158015610f47573d6000803e3d6000fd5b5050506000838152600f602090815260408083208590555185935060109291610f9d917f000000000000000000000000000000000000000000000000000000000000000091879101918252602082015260400190565b60408051601f19818403018152918152815160209283012083528282019390935290820160009081209390935560058054600190810190915533808552600a83528385208054909201909155858452600b90915281832080547fffffffffffffffffffffffff0000000000000000000000000000000000000000168217905590518492907fddf252ad1be2c89b69c2b068fc378daa952ba7f163c4a11628f55a4df523b3ef908290a45050565b61106583838360405180602001604052806000815250612c6f565b505050565b6001546001600160a01b031633146110aa576001546040516347522c7b60e11b81526001600160a01b039091166004820152336024820152604401610b68565b600080547fffffffffffffffffffffff00ffffffffffffffffffffffffffffffffffffffff8116740100000000000000000000000000000000000000009182900460ff1615909102179055565b6000546040517f02571be30000000000000000000000000000000000000000000000000000000081526004810185905284916001600160a01b0316906302571be390602401602060405180830381865afa158015611159573d6000803e3d6000fd5b505050506040513d601f19601f8201168201806040525081019061117d91906139a0565b6001600160a01b0316336001600160a01b0316146111dd5760405162461bcd60e51b815260206004820152601860248201527f5265736f6c7665723a204e4f545f415554484f524953454400000000000000006044820152606401610b68565b60408051808201825284815260208082018581526000888152601483528490209251835551600190920191909155815185815290810184905285917f1d6f5e03d3f63eb58751986629a5439baee5079ff04f345becb66e23eb154e4691015b60405180910390a250505050565b60015460085460009182916001600160a01b039091169061126c606486613ba1565b6112769190613bb5565b915091505b9250929050565b6000546040517f02571be30000000000000000000000000000000000000000000000000000000081526004810184905283916001600160a01b0316906302571be390602401602060405180830381865afa1580156112e4573d6000803e3d6000fd5b505050506040513d601f19601f8201168201806040525081019061130891906139a0565b6001600160a01b0316336001600160a01b0316146113685760405162461bcd60e51b815260206004820152601860248201527f5265736f6c7665723a204e4f545f415554484f524953454400000000000000006044820152606401610b68565b60008381526012602052604090206113808382613bd4565b50827fe379c1624ed7e714cc0937528a32359d69d5281337765313dba4e081b72d7578836040516113b191906133ea565b60405180910390a2505050565b6000818152601360209081526040808320603c8452909152812080548291906113e690613953565b80601f016020809104026020016040519081016040528092919081815260200182805461141290613953565b801561145f5780601f106114345761010080835404028352916020019161145f565b820191906000526020600020905b81548152906001019060200180831161144257829003601f168201915b5050505050905080516000036114fc576000546040517f02571be3000000000000000000000000000000000000000000000000000000008152600481018590526001600160a01b03909116906302571be390602401602060405180830381865afa1580156114d1573d6000803e3d6000fd5b505050506040513d601f19601f820116820180604052508101906114f591906139a0565b9392505050565b6114f581613c94565b6001546001600160a01b03163314611545576001546040516347522c7b60e11b81526001600160a01b039091166004820152336024820152604401610b68565b600855565b606060156000858152602001908152602001600020838360405161156f9291906139bd565b9081526020016040518091039020805461158890613953565b80601f01602080910402602001604051908101604052809291908181526020018280546115b490613953565b80156116015780601f106115d657610100808354040283529160200191611601565b820191906000526020600020905b8154815290600101906020018083116115e457829003601f168201915b5050505050905080516000036114f5576040518060400160405280600681526020017f617661746172000000000000000000000000000000000000000000000000000081525061165090613c94565b61165a8385613cb8565b036116f65761166846612b32565b60045460405160609190911b7fffffffffffffffffffffffffffffffffffffffff0000000000000000000000001660208201526116b690603401604051602081830303815290604052613118565b6000868152601060205260409020546116ce90612b32565b6040516020016116e093929190613cd6565b60405160208183030381529060405290506114f5565b6000805260156020526040517fa31547ce6245cdb9ecea19cf8c7eb9f5974025bb4075011409251ae855b30aed9061173190859085906139bd565b9081526020016040518091039020805461174a90613953565b80601f016020809104026020016040519081016040528092919081815260200182805461177690613953565b80156117c35780601f10611798576101008083540402835291602001916117c3565b820191906000526020600020905b8154815290600101906020018083116117a657829003601f168201915b505050505090509392505050565b6001546001600160a01b03163314611811576001546040516347522c7b60e11b81526001600160a01b039091166004820152336024820152604401610b68565b601161181d8282613bd4565b5050565b6000816005548110611862576040517fb7c882eb00000000000000000000000000000000000000000000000000000000815260048101829052602401610b68565b6000838152600b60205260409020546001600160a01b031691505b50919050565b6000818152601560205260409081902090517f6e616d6500000000000000000000000000000000000000000000000000000000815260609190600401908152602001604051809103902080546118d890613953565b80601f016020809104026020016040519081016040528092919081815260200182805461190490613953565b80156119515780601f1061192657610100808354040283529160200191611951565b820191906000526020600020905b81548152906001019060200180831161193457829003601f168201915b50505050509050805160000361199f5760008281526010602052604090205461197990612b32565b6040516020016119899190613d96565b6040516020818303038152906040529050919050565b919050565b601180546119b190613953565b80601f01602080910402602001604051908101604052809291908181526020018280546119dd90613953565b8015611a2a5780601f106119ff57610100808354040283529160200191611a2a565b820191906000526020600020905b815481529060010190602001808311611a0d57829003601f168201915b505050505081565b6001546001600160a01b03163314611a72576001546040516347522c7b60e11b81526001600160a01b039091166004820152336024820152604401610b68565b60405133904780156108fc02916000818181858888f19350505050611ad95760405162461bcd60e51b815260206004820152601360248201527f4554485f5452414e534645525f4641494c4544000000000000000000000000006044820152606401610b68565b565b6000546040517f02571be30000000000000000000000000000000000000000000000000000000081526004810185905284916001600160a01b0316906302571be390602401602060405180830381865afa158015611b3d573d6000803e3d6000fd5b505050506040513d601f19601f82011682018060405250810190611b6191906139a0565b6001600160a01b0316336001600160a01b031614611bc15760405162461bcd60e51b815260206004820152601860248201527f5265736f6c7665723a204e4f545f415554484f524953454400000000000000006044820152606401610b68565b6000848152601560205260409081902081517f6e616d6500000000000000000000000000000000000000000000000000000000815260048101919091529051908190036024019020611c14838583613a1b565b50837fb7d29e911041e8d9b843369e890bcb72c9388692ba48b65ac54e7214c4c348f7848460405161123c929190613adc565b60005474010000000000000000000000000000000000000000900460ff16611c9b576040517fab35696f00000000000000000000000000000000000000000000000000000000815260040160405180910390fd5b600c811180611cd657507f000000000000000000000000000000000000000000000000000000000000000081600554611cd49190613dd7565b115b15611d0d576040517f4d6c426100000000000000000000000000000000000000000000000000000000815260040160405180910390fd5b80600654611d1b9190613bb5565b341015611d6c5780600654611d309190613bb5565b6040517f8ad0844f0000000000000000000000000000000000000000000000000000000081526004810191909152346024820152604401610b68565b6005546000611d7b8383613dd7565b905060005b81831015611f5b57611d9183612b32565b604051602001611da19190613b27565b60408051808303601f1901815290829052805160209091012060008054600480547f5ef2c7f00000000000000000000000000000000000000000000000000000000086527f000000000000000000000000000000000000000000000000000000000000000091860191909152602485018490523360448601526001600160a01b03908116606486015260848501929092529193501690635ef2c7f09060a401600060405180830381600087803b158015611e5a57600080fd5b505af1158015611e6e573d6000803e3d6000fd5b5050506000848152600f602090815260408083208590555186935060109291611ec4917f000000000000000000000000000000000000000000000000000000000000000091879101918252602082015260400190565b60408051601f198184030181529181528151602092830120835282820193909352908201600090812093909355858352600b905280822080547fffffffffffffffffffffffff0000000000000000000000000000000000000000163390811790915590518592907fddf252ad1be2c89b69c2b068fc378daa952ba7f163c4a11628f55a4df523b3ef908290a4826001019250611d80565b5060055550336000908152600a6020526040902080549091019055565b6001546001600160a01b03163314611fb8576001546040516347522c7b60e11b81526001600160a01b039091166004820152336024820152604401610b68565b33ff5b6001546001600160a01b03163314611ffb576001546040516347522c7b60e11b81526001600160a01b039091166004820152336024820152604401610b68565b6001546040517f70a0823100000000000000000000000000000000000000000000000000000000815230600482018190526001600160a01b03848116936323b872dd9391169084906370a0823190602401602060405180830381865afa158015612069573d6000803e3d6000fd5b505050506040513d601f19601f8201168201806040525081019061208d9190613dea565b6040517fffffffff0000000000000000000000000000000000000000000000000000000060e086901b1681526001600160a01b03938416600482015292909116602483015260448201526064016020604051808303816000875af11580156120f9573d6000803e3d6000fd5b505050506040513d601f19601f8201168201806040525081019061211d9190613e03565b6121695760405162461bcd60e51b815260206004820152601560248201527f544f4b454e5f5452414e534645525f4641494c454400000000000000000000006044820152606401610b68565b50565b6000546040517f02571be30000000000000000000000000000000000000000000000000000000081526004810185905284916001600160a01b0316906302571be390602401602060405180830381865afa1580156121ce573d6000803e3d6000fd5b505050506040513d601f19601f820116820180604052508101906121f291906139a0565b6001600160a01b0316336001600160a01b0316146122525760405162461bcd60e51b815260206004820152601860248201527f5265736f6c7665723a204e4f545f415554484f524953454400000000000000006044820152606401610b68565b600084815260136020908152604080832086845290915290206122758382613bd4565b50837f65412581168e88a1e60c6459d7f44ae83ad0832e670826c05a4e2476b57af752848460405161123c929190613e20565b6001546001600160a01b031633146122e8576001546040516347522c7b60e11b81526001600160a01b039091166004820152336024820152604401610b68565b6007611065828483613a1b565b600380546119b190613953565b600980546119b190613953565b336000818152600d602090815260408083206001600160a01b0387168085529083529281902080547fffffffffffffffffffffffffffffffffffffffffffffffffffffffffffffff001686151590811790915590519081529192917f17307eab39ab6107e8899845ad3d59bd9653f200f220920489ca2b5937696c31910160405180910390a35050565b60156020908152600092835260409092208151808301840180519281529084019290930191909120915280546119b190613953565b6123da84848484612c6f565b50505050565b6000816005548110612421576040517fb7c882eb00000000000000000000000000000000000000000000000000000000815260048101829052602401610b68565b7f0000000000000000000000000000000000000000000000000000000000000000600f600085815260200190815260200160002054604051602001612470929190918252602082015260400190565b60405160208183030381529060405280519060200120915050919050565b60008181526012602052604090208054606091906124ab90613953565b80601f01602080910402602001604051908101604052809291908181526020018280546124d790613953565b80156125245780601f106124f957610100808354040283529160200191612524565b820191906000526020600020905b81548152906001019060200180831161250757829003601f168201915b50505050509050805160000361199f576011805461254190613953565b80601f016020809104026020016040519081016040528092919081815260200182805461256d90613953565b80156125ba5780601f1061258f576101008083540402835291602001916125ba565b820191906000526020600020905b81548152906001019060200180831161259d57829003601f168201915b50505050509050919050565b6001546001600160a01b03163314612606576001546040516347522c7b60e11b81526001600160a01b039091166004820152336024820152604401610b68565b7fffffffff0000000000000000000000000000000000000000000000000000000080831690036126785760405162461bcd60e51b815260206004820152601a60248201527f494e56414c49445f494e544552464143455f53454c4543544f520000000000006044820152606401610b68565b7fffffffff00000000000000000000000000000000000000000000000000000000919091166000908152600e6020526040902080547fffffffffffffffffffffffffffffffffffffffffffffffffffffffffffffff0016911515919091179055565b6001546001600160a01b0316331461271a576001546040516347522c7b60e11b81526001600160a01b039091166004820152336024820152604401610b68565b600480547fffffffffffffffffffffffff0000000000000000000000000000000000000000166001600160a01b0392909216919091179055565b6060816005548110612795576040517fb7c882eb00000000000000000000000000000000000000000000000000000000815260048101829052602401610b68565b60096127a084612b32565b6040516020016127b1929190613e39565b604051602081830303815290604052915050919050565b6000546040517f02571be30000000000000000000000000000000000000000000000000000000081526004810184905283916001600160a01b0316906302571be390602401602060405180830381865afa15801561282a573d6000803e3d6000fd5b505050506040513d601f19601f8201168201806040525081019061284e91906139a0565b6001600160a01b0316336001600160a01b0316146128ae5760405162461bcd60e51b815260206004820152601860248201527f5265736f6c7665723a204e4f545f415554484f524953454400000000000000006044820152606401610b68565b6040517fffffffffffffffffffffffffffffffffffffffff000000000000000000000000606084901b16602082015260340160408051601f19818403018152918152600085815260136020908152828220603c8352905220906129119082613bd4565b506040516001600160a01b038316815283907fce9745511e6b32283e684acf17f26ee2c5d221bf65c95e61c3d6fcfa446462d0906020016113b1565b600780546119b190613953565b6000828152601360209081526040808320848452909152902080546060919061298290613953565b80601f01602080910402602001604051908101604052809291908181526020018280546129ae90613953565b80156129fb5780601f106129d0576101008083540402835291602001916129fb565b820191906000526020600020905b8154815290600101906020018083116129de57829003601f168201915b5050505050905080516000148015612a13575081603c145b15612a78576000838152601060209081526040808320548352600b82529182902054915160609290921b7fffffffffffffffffffffffffffffffffffffffff000000000000000000000000169082015260340160405160208183030381529060405290505b92915050565b6001546001600160a01b03163314612abe576001546040516347522c7b60e11b81526001600160a01b039091166004820152336024820152604401610b68565b6001546040516001600160a01b038084169216907f8be0079c531659141344cd1fd0a4f28419497f9722a3daafe3b4186f6b6457e090600090a3600180547fffffffffffffffffffffffff0000000000000000000000000000000000000000166001600160a01b0392909216919091179055565b606081600003612b7557505060408051808201909152600181527f3000000000000000000000000000000000000000000000000000000000000000602082015290565b8160005b8115612b9f5780612b8981613f59565b9150612b989050600a83613ba1565b9150612b79565b60008167ffffffffffffffff811115612bba57612bba6135a2565b6040519080825280601f01601f191660200182016040528015612be4576020820181803683370190505b5090505b8415612c6757612bf9600183613f73565b9150612c06600a86613f86565b612c11906030613dd7565b60f81b818381518110612c2657612c26613f9a565b60200101907effffffffffffffffffffffffffffffffffffffffffffffffffffffffffffff1916908160001a905350612c60600a86613ba1565b9450612be8565b949350505050565b60005474010000000000000000000000000000000000000000900460ff16612cc3576040517fab35696f00000000000000000000000000000000000000000000000000000000815260040160405180910390fd5b6001600160a01b038316612d03576040517fd92e233d00000000000000000000000000000000000000000000000000000000815260040160405180910390fd5b6000828152600b60205260409020546001600160a01b03858116911614612d81576000828152600b6020526040908190205490517f7af40ae60000000000000000000000000000000000000000000000000000000081526001600160a01b039182166004820152908516602482015260448101839052606401610b68565b6000828152600b60205260409020546001600160a01b03163314801590612dcc57506001600160a01b0384166000908152600d6020908152604080832033845290915290205460ff16155b8015612def57506000828152600c60205260409020546001600160a01b03163314155b15612e3e576040517f431ef6160000000000000000000000000000000000000000000000000000000081523360048201526001600160a01b038516602482015260448101839052606401610b68565b60008054838252600f6020526040918290205491517f06ab59230000000000000000000000000000000000000000000000000000000081527f0000000000000000000000000000000000000000000000000000000000000000600482015260248101929092526001600160a01b03858116604484015216906306ab5923906064016020604051808303816000875af1158015612ede573d6000803e3d6000fd5b505050506040513d601f19601f82011682018060405250810190612f029190613dea565b506001600160a01b038085166000908152600a60209081526040808320805460001901905592861680835283832080546001019055858352600b825283832080547fffffffffffffffffffffffff00000000000000000000000000000000000000009081168317909155600c90925292909120805490911690553b156130d1576040517f150b7a020000000000000000000000000000000000000000000000000000000081526001600160a01b0384169063150b7a0290612fcd903390889087908790600401613fc9565b6020604051808303816000875af1925050508015613008575060408051601f3d908101601f1916820190925261300591810190614005565b60015b613049576040517f3a9f8cb30000000000000000000000000000000000000000000000000000000081526001600160a01b0384166004820152602401610b68565b7fffffffff0000000000000000000000000000000000000000000000000000000081167f150b7a0200000000000000000000000000000000000000000000000000000000146130cf576040517f3a9f8cb30000000000000000000000000000000000000000000000000000000081526001600160a01b0385166004820152602401610b68565b505b81836001600160a01b0316856001600160a01b03167fddf252ad1be2c89b69c2b068fc378daa952ba7f163c4a11628f55a4df523b3ef60405160405180910390a450505050565b606060008251600261312a9190613bb5565b67ffffffffffffffff811115613142576131426135a2565b6040519080825280601f01601f19166020018201604052801561316c576020820181803683370190505b5060408051808201909152601081527f3031323334353637383961626364656600000000000000000000000000000000602082015290915060005b8451811015613325578160108683815181106131c5576131c5613f9a565b01602001516131d7919060f81c614022565b60ff16815181106131ea576131ea613f9a565b01602001517fff00000000000000000000000000000000000000000000000000000000000000168361321d836002613bb5565b8151811061322d5761322d613f9a565b60200101907effffffffffffffffffffffffffffffffffffffffffffffffffffffffffffff1916908160001a90535081601086838151811061327157613271613f9a565b0160200151613283919060f81c614044565b60ff168151811061329657613296613f9a565b01602001517fff0000000000000000000000000000000000000000000000000000000000000016836132c9836002613bb5565b6132d4906001613dd7565b815181106132e4576132e4613f9a565b60200101907effffffffffffffffffffffffffffffffffffffffffffffffffffffffffffff1916908160001a9053508061331d81613f59565b9150506131a7565b50816040516020016133379190614066565b60405160208183030381529060405292505050919050565b7fffffffff000000000000000000000000000000000000000000000000000000008116811461216957600080fd5b60006020828403121561338f57600080fd5b81356114f58161334f565b60005b838110156133b557818101518382015260200161339d565b50506000910152565b600081518084526133d681602086016020860161339a565b601f01601f19169290920160200192915050565b6020815260006114f560208301846133be565b60006020828403121561340f57600080fd5b5035919050565b6001600160a01b038116811461216957600080fd5b6000806040838503121561343e57600080fd5b823561344981613416565b946020939093013593505050565b60008083601f84011261346957600080fd5b50813567ffffffffffffffff81111561348157600080fd5b60208301915083602082850101111561127b57600080fd5b6000806000806000606086880312156134b157600080fd5b85359450602086013567ffffffffffffffff808211156134d057600080fd5b6134dc89838a01613457565b909650945060408801359150808211156134f557600080fd5b5061350288828901613457565b969995985093965092949392505050565b60008060006060848603121561352857600080fd5b833561353381613416565b9250602084013561354381613416565b929592945050506040919091013590565b60008060006060848603121561356957600080fd5b505081359360208301359350604090920135919050565b6000806040838503121561359357600080fd5b50508035926020909101359150565b7f4e487b7100000000000000000000000000000000000000000000000000000000600052604160045260246000fd5b600067ffffffffffffffff808411156135ec576135ec6135a2565b604051601f8501601f19908116603f01168101908282118183101715613614576136146135a2565b8160405280935085815286868601111561362d57600080fd5b858560208301376000602087830101525050509392505050565b600082601f83011261365857600080fd5b6114f5838335602085016135d1565b6000806040838503121561367a57600080fd5b82359150602083013567ffffffffffffffff81111561369857600080fd5b6136a485828601613647565b9150509250929050565b6000806000604084860312156136c357600080fd5b83359250602084013567ffffffffffffffff8111156136e157600080fd5b6136ed86828701613457565b9497909650939450505050565b60006020828403121561370c57600080fd5b813567ffffffffffffffff81111561372357600080fd5b612c6784828501613647565b60006020828403121561374157600080fd5b81356114f581613416565b60008060006060848603121561376157600080fd5b8335925060208401359150604084013567ffffffffffffffff81111561378657600080fd5b61379286828701613647565b9150509250925092565b600080602083850312156137af57600080fd5b823567ffffffffffffffff8111156137c657600080fd5b6137d285828601613457565b90969095509350505050565b801515811461216957600080fd5b600080604083850312156137ff57600080fd5b823561380a81613416565b9150602083013561381a816137de565b809150509250929050565b6000806040838503121561383857600080fd5b82359150602083013567ffffffffffffffff81111561385657600080fd5b8301601f8101851361386757600080fd5b6136a4858235602084016135d1565b6000806000806080858703121561388c57600080fd5b843561389781613416565b935060208501356138a781613416565b925060408501359150606085013567ffffffffffffffff8111156138ca57600080fd5b6138d687828801613647565b91505092959194509250565b600080604083850312156138f557600080fd5b823561380a8161334f565b6000806040838503121561391357600080fd5b82359150602083013561381a81613416565b6000806040838503121561393857600080fd5b823561394381613416565b9150602083013561381a81613416565b600181811c9082168061396757607f821691505b60208210810361187d577f4e487b7100000000000000000000000000000000000000000000000000000000600052602260045260246000fd5b6000602082840312156139b257600080fd5b81516114f581613416565b8183823760009101908152919050565b601f82111561106557600081815260208120601f850160051c810160208610156139f45750805b601f850160051c820191505b81811015613a1357828155600101613a00565b505050505050565b67ffffffffffffffff831115613a3357613a336135a2565b613a4783613a418354613953565b836139cd565b6000601f841160018114613a7b5760008515613a635750838201355b600019600387901b1c1916600186901b178355613ad5565b600083815260209020601f19861690835b82811015613aac5786850135825560209485019460019092019101613a8c565b5086821015613ac95760001960f88860031b161c19848701351681555b505060018560011b0183555b5050505050565b60208152816020820152818360408301376000818301604090810191909152601f909201601f19160101919050565b60008151613b1d81856020860161339a565b9290920192915050565b60008251613b3981846020870161339a565b9190910192915050565b7f4e487b7100000000000000000000000000000000000000000000000000000000600052601260045260246000fd5b7f4e487b7100000000000000000000000000000000000000000000000000000000600052601160045260246000fd5b600082613bb057613bb0613b43565b500490565b6000816000190483118215151615613bcf57613bcf613b72565b500290565b815167ffffffffffffffff811115613bee57613bee6135a2565b613c0281613bfc8454613953565b846139cd565b602080601f831160018114613c375760008415613c1f5750858301515b600019600386901b1c1916600185901b178555613a13565b600085815260208120601f198616915b82811015613c6657888601518255948401946001909101908401613c47565b5085821015613c845787850151600019600388901b60f8161c191681555b5050505050600190811b01905550565b8051602080830151919081101561187d5760001960209190910360031b1b16919050565b80356020831015612a7857600019602084900360031b1b1692915050565b7f6569703135353a00000000000000000000000000000000000000000000000000815260008451613d0e81600785016020890161339a565b7f2f6572633732313a0000000000000000000000000000000000000000000000006007918401918201528451613d4b81600f84016020890161339a565b7f2f00000000000000000000000000000000000000000000000000000000000000600f92909101918201528351613d8981601084016020880161339a565b0160100195945050505050565b60008251613da881846020870161339a565b7f2e42454e5359432e455448000000000000000000000000000000000000000000920191825250600b01919050565b80820180821115612a7857612a78613b72565b600060208284031215613dfc57600080fd5b5051919050565b600060208284031215613e1557600080fd5b81516114f5816137de565b828152604060208201526000612c6760408301846133be565b7f697066733a2f2f0000000000000000000000000000000000000000000000000081526000600760008554613e6d81613953565b60018281168015613e855760018114613ebc57613eef565b7fffffffffffffffffffffffffffffffffffffffffffffffffffffffffffffff008416868901528583151584028901019450613eef565b8960005260208060002060005b85811015613ee45781548b82018a0152908401908201613ec9565b505050858389010194505b507f2f000000000000000000000000000000000000000000000000000000000000008452613f1f81850189613b0b565b945050505050613f4e817f2e6a736f6e0000000000000000000000000000000000000000000000000000009052565b600501949350505050565b60006000198203613f6c57613f6c613b72565b5060010190565b81810381811115612a7857612a78613b72565b600082613f9557613f95613b43565b500690565b7f4e487b7100000000000000000000000000000000000000000000000000000000600052603260045260246000fd5b60006001600160a01b03808716835280861660208401525083604083015260806060830152613ffb60808301846133be565b9695505050505050565b60006020828403121561401757600080fd5b81516114f58161334f565b600060ff83168061403557614035613b43565b8060ff84160491505092915050565b600060ff83168061405757614057613b43565b8060ff84160691505092915050565b7f307800000000000000000000000000000000000000000000000000000000000081526000825161409e81600285016020870161339a565b919091016002019291505056fea2646970667358221220a6501d92d9b74579ab56ae9666e96600f9994eee7a54966d1b5813fc666e40cd64736f6c63430008100033307865353031303137303030336536623335333137313761363933353735373137353335363436623633366633373338333237613761373533313333373837373664366637613336373936393661363537613761366233333332333637353666333033303339333736333732333837343639373437333330333436353732373937323636333536653333516d596757584b4144755367577a694e676d7059613450416d68464c33573761474c52354331646b52754e47664d697066733a2f2f516d636579786f4e71665076314c4e66596e6d677861735872386d38676843335462597546626271684838706656",
    "linkReferences": {}
  },
  "methodIdentifiers": {
    "DESTROY()": "875e18f7",
    "DefaultContenthash()": "69be8bb0",
    "DefaultResolver()": "00b7aff7",
    "Dev()": "01e51ae8",
    "DomainHash()": "8315ae65",
    "ENS()": "1d2e2cc4",
    "ID2Labelhash(uint256)": "6eada5aa",
    "ID2Namehash(uint256)": "bb8762c8",
    "Namehash2ID(bytes32)": "a37f9f99",
    "_text(bytes32,string)": "b0671b71",
    "active()": "02fb0c5e",
    "addr(bytes32)": "3b3b57de",
    "addr(bytes32,uint256)": "f1cb7e06",
    "approve(address,uint256)": "095ea7b3",
    "balanceOf(address)": "70a08231",
    "batchMint(uint256)": "8467be0d",
    "contenthash(bytes32)": "bc1c58d1",
    "contractURI()": "e8a3d485",
    "getApproved(uint256)": "081812fc",
    "isApprovedForAll(address,address)": "e985e9c5",
    "maxSupply()": "d5abeb01",
    "metaIPFS()": "98adcbba",
    "mint()": "1249c58b",
    "mintPrice()": "6817c76c",
    "name()": "06fdde03",
    "name(bytes32)": "691f3431",
    "owner()": "8da5cb5b",
    "ownerOf(uint256)": "6352211e",
    "pubkey(bytes32)": "c8690233",
    "royalty()": "29ee566c",
    "royaltyInfo(uint256,uint256)": "2a55205a",
    "safeTransferFrom(address,address,uint256)": "42842e0e",
    "safeTransferFrom(address,address,uint256,bytes)": "b88d4fde",
    "setAddress(bytes32,address)": "ca446dd9",
    "setAddress(bytes32,uint256,bytes)": "93507f3d",
    "setApprovalForAll(address,bool)": "a22cb465",
    "setContenthash(bytes32,bytes)": "304e6ade",
    "setContractURI(string)": "938e3d7b",
    "setDefaultContenthash(bytes)": "5d81d553",
    "setDefaultResolver(address)": "c66485b2",
    "setInterface(bytes4,bool)": "c0a43a7c",
    "setName(bytes32,string)": "77372213",
    "setPubkey(bytes32,bytes32,bytes32)": "29cd62ea",
    "setRoyalty(uint256)": "4209a2e1",
    "setText(bytes32,string,string)": "10f13a8c",
    "supportsInterface(bytes4)": "01ffc9a7",
    "symbol()": "95d89b41",
    "text(bytes32,string)": "59d1d43c",
    "toggleActive()": "29c68dc1",
    "tokenURI(uint256)": "c87b56dd",
    "totalSupply()": "18160ddd",
    "transferFrom(address,address,uint256)": "23b872dd",
    "transferOwnership(address)": "f2fde38b",
    "withdrawEther()": "7362377b",
    "withdrawToken(address)": "89476069"
  },
  "id": 7
}