{
  "abi": [
    {
      "inputs": [],
      "stateMutability": "nonpayable",
      "type": "constructor"
    },
    {
      "inputs": [],
      "name": "ContractPaused",
      "type": "error"
    },
    {
      "inputs": [],
      "name": "Disallowed",
      "type": "error"
    },
    {
      "inputs": [
        {
          "internalType": "address",
          "name": "addr",
          "type": "address"
        }
      ],
      "name": "ERC721IncompatibleReceiver",
      "type": "error"
    },
    {
      "inputs": [
        {
          "internalType": "uint256",
          "name": "size",
          "type": "uint256"
        },
        {
          "internalType": "uint256",
          "name": "yourSize",
          "type": "uint256"
        }
      ],
      "name": "InsufficientEtherSent",
      "type": "error"
    },
    {
      "inputs": [
        {
          "internalType": "uint256",
          "name": "id",
          "type": "uint256"
        }
      ],
      "name": "InvalidTokenID",
      "type": "error"
    },
    {
      "inputs": [],
      "name": "MintEnded",
      "type": "error"
    },
    {
      "inputs": [
        {
          "internalType": "address",
          "name": "owner",
          "type": "address"
        },
        {
          "internalType": "address",
          "name": "from",
          "type": "address"
        },
        {
          "internalType": "uint256",
          "name": "id",
          "type": "uint256"
        }
      ],
      "name": "NotSubdomainOwner",
      "type": "error"
    },
    {
      "inputs": [
        {
          "internalType": "address",
          "name": "_dev",
          "type": "address"
        },
        {
          "internalType": "address",
          "name": "_you",
          "type": "address"
        }
      ],
      "name": "OnlyDev",
      "type": "error"
    },
    {
      "inputs": [],
      "name": "OversizedBatch",
      "type": "error"
    },
    {
      "inputs": [
        {
          "internalType": "address",
          "name": "operator",
          "type": "address"
        },
        {
          "internalType": "address",
          "name": "owner",
          "type": "address"
        },
        {
          "internalType": "uint256",
          "name": "id",
          "type": "uint256"
        }
      ],
      "name": "Unauthorized",
      "type": "error"
    },
    {
      "inputs": [],
      "name": "ZeroAddress",
      "type": "error"
    },
    {
      "anonymous": false,
      "inputs": [
        {
          "indexed": true,
          "internalType": "bytes32",
          "name": "node",
          "type": "bytes32"
        },
        {
          "indexed": false,
          "internalType": "address",
          "name": "a",
          "type": "address"
        }
      ],
      "name": "AddrChanged",
      "type": "event"
    },
    {
      "anonymous": false,
      "inputs": [
        {
          "indexed": true,
          "internalType": "bytes32",
          "name": "node",
          "type": "bytes32"
        },
        {
          "indexed": false,
          "internalType": "uint256",
          "name": "coinType",
          "type": "uint256"
        },
        {
          "indexed": false,
          "internalType": "bytes",
          "name": "newAddress",
          "type": "bytes"
        }
      ],
      "name": "AddressChanged",
      "type": "event"
    },
    {
      "anonymous": false,
      "inputs": [
        {
          "indexed": true,
          "internalType": "address",
          "name": "_owner",
          "type": "address"
        },
        {
          "indexed": true,
          "internalType": "address",
          "name": "approved",
          "type": "address"
        },
        {
          "indexed": true,
          "internalType": "uint256",
          "name": "id",
          "type": "uint256"
        }
      ],
      "name": "Approval",
      "type": "event"
    },
    {
      "anonymous": false,
      "inputs": [
        {
          "indexed": true,
          "internalType": "address",
          "name": "_owner",
          "type": "address"
        },
        {
          "indexed": true,
          "internalType": "address",
          "name": "operator",
          "type": "address"
        },
        {
          "indexed": false,
          "internalType": "bool",
          "name": "approved",
          "type": "bool"
        }
      ],
      "name": "ApprovalForAll",
      "type": "event"
    },
    {
      "anonymous": false,
      "inputs": [
        {
          "indexed": true,
          "internalType": "bytes32",
          "name": "node",
          "type": "bytes32"
        },
        {
          "indexed": false,
          "internalType": "bytes",
          "name": "_contenthash",
          "type": "bytes"
        }
      ],
      "name": "ContenthashChanged",
      "type": "event"
    },
    {
      "anonymous": false,
      "inputs": [
        {
          "indexed": true,
          "internalType": "bytes32",
          "name": "node",
          "type": "bytes32"
        },
        {
          "indexed": false,
          "internalType": "string",
          "name": "name",
          "type": "string"
        }
      ],
      "name": "NameChanged",
      "type": "event"
    },
    {
      "anonymous": false,
      "inputs": [
        {
          "indexed": true,
          "internalType": "address",
          "name": "previousOwner",
          "type": "address"
        },
        {
          "indexed": true,
          "internalType": "address",
          "name": "newOwner",
          "type": "address"
        }
      ],
      "name": "OwnershipTransferred",
      "type": "event"
    },
    {
      "anonymous": false,
      "inputs": [
        {
          "indexed": true,
          "internalType": "bytes32",
          "name": "node",
          "type": "bytes32"
        },
        {
          "indexed": false,
          "internalType": "bytes32",
          "name": "x",
          "type": "bytes32"
        },
        {
          "indexed": false,
          "internalType": "bytes32",
          "name": "y",
          "type": "bytes32"
        }
      ],
      "name": "PubkeyChanged",
      "type": "event"
    },
    {
      "anonymous": false,
      "inputs": [
        {
          "indexed": true,
          "internalType": "bytes32",
          "name": "node",
          "type": "bytes32"
        },
        {
          "indexed": true,
          "internalType": "string",
          "name": "key",
          "type": "string"
        },
        {
          "indexed": false,
          "internalType": "string",
          "name": "value",
          "type": "string"
        }
      ],
      "name": "TextChanged",
      "type": "event"
    },
    {
      "anonymous": false,
      "inputs": [
        {
          "indexed": true,
          "internalType": "address",
          "name": "from",
          "type": "address"
        },
        {
          "indexed": true,
          "internalType": "address",
          "name": "to",
          "type": "address"
        },
        {
          "indexed": true,
          "internalType": "uint256",
          "name": "id",
          "type": "uint256"
        }
      ],
      "name": "Transfer",
      "type": "event"
    },
    {
      "stateMutability": "payable",
      "type": "fallback"
    },
    {
      "inputs": [],
      "name": "DESTROY",
      "outputs": [],
      "stateMutability": "payable",
      "type": "function"
    },
    {
      "inputs": [],
      "name": "DefaultContenthash",
      "outputs": [
        {
          "internalType": "bytes",
          "name": "",
          "type": "bytes"
        }
      ],
      "stateMutability": "view",
      "type": "function"
    },
    {
      "inputs": [],
      "name": "DefaultResolver",
      "outputs": [
        {
          "internalType": "address",
          "name": "",
          "type": "address"
        }
      ],
      "stateMutability": "view",
      "type": "function"
    },
    {
      "inputs": [],
      "name": "Dev",
      "outputs": [
        {
          "internalType": "address",
          "name": "",
          "type": "address"
        }
      ],
      "stateMutability": "view",
      "type": "function"
    },
    {
      "inputs": [],
      "name": "DomainHash",
      "outputs": [
        {
          "internalType": "bytes32",
          "name": "",
          "type": "bytes32"
        }
      ],
      "stateMutability": "view",
      "type": "function"
    },
    {
      "inputs": [],
      "name": "ENS",
      "outputs": [
        {
          "internalType": "contract iENS",
          "name": "",
          "type": "address"
        }
      ],
      "stateMutability": "view",
      "type": "function"
    },
    {
      "inputs": [
        {
          "internalType": "uint256",
          "name": "",
          "type": "uint256"
        }
      ],
      "name": "ID2Labelhash",
      "outputs": [
        {
          "internalType": "bytes32",
          "name": "",
          "type": "bytes32"
        }
      ],
      "stateMutability": "view",
      "type": "function"
    },
    {
      "inputs": [
        {
          "internalType": "uint256",
          "name": "id",
          "type": "uint256"
        }
      ],
      "name": "ID2Namehash",
      "outputs": [
        {
          "internalType": "bytes32",
          "name": "",
          "type": "bytes32"
        }
      ],
      "stateMutability": "view",
      "type": "function"
    },
    {
      "inputs": [
        {
          "internalType": "bytes32",
          "name": "",
          "type": "bytes32"
        }
      ],
      "name": "Namehash2ID",
      "outputs": [
        {
          "internalType": "uint256",
          "name": "",
          "type": "uint256"
        }
      ],
      "stateMutability": "view",
      "type": "function"
    },
    {
      "inputs": [
        {
          "internalType": "bytes32",
          "name": "",
          "type": "bytes32"
        },
        {
          "internalType": "string",
          "name": "",
          "type": "string"
        }
      ],
      "name": "_text",
      "outputs": [
        {
          "internalType": "string",
          "name": "",
          "type": "string"
        }
      ],
      "stateMutability": "view",
      "type": "function"
    },
    {
      "inputs": [],
      "name": "active",
      "outputs": [
        {
          "internalType": "bool",
          "name": "",
          "type": "bool"
        }
      ],
      "stateMutability": "view",
      "type": "function"
    },
    {
      "inputs": [
        {
          "internalType": "bytes32",
          "name": "node",
          "type": "bytes32"
        }
      ],
      "name": "addr",
      "outputs": [
        {
          "internalType": "address payable",
          "name": "",
          "type": "address"
        }
      ],
      "stateMutability": "view",
      "type": "function"
    },
    {
      "inputs": [
        {
          "internalType": "bytes32",
          "name": "node",
          "type": "bytes32"
        },
        {
          "internalType": "uint256",
          "name": "coinType",
          "type": "uint256"
        }
      ],
      "name": "addr",
      "outputs": [
        {
          "internalType": "bytes",
          "name": "_addr",
          "type": "bytes"
        }
      ],
      "stateMutability": "view",
      "type": "function"
    },
    {
      "inputs": [
        {
          "internalType": "address",
          "name": "approved",
          "type": "address"
        },
        {
          "internalType": "uint256",
          "name": "id",
          "type": "uint256"
        }
      ],
      "name": "approve",
      "outputs": [],
      "stateMutability": "payable",
      "type": "function"
    },
    {
      "inputs": [
        {
          "internalType": "address",
          "name": "",
          "type": "address"
        }
      ],
      "name": "balanceOf",
      "outputs": [
        {
          "internalType": "uint256",
          "name": "",
          "type": "uint256"
        }
      ],
      "stateMutability": "view",
      "type": "function"
    },
    {
      "inputs": [
        {
          "internalType": "uint256",
          "name": "batchSize",
          "type": "uint256"
        }
      ],
      "name": "batchMint",
      "outputs": [],
      "stateMutability": "payable",
      "type": "function"
    },
    {
      "inputs": [
        {
          "internalType": "bytes32",
          "name": "node",
          "type": "bytes32"
        }
      ],
      "name": "contenthash",
      "outputs": [
        {
          "internalType": "bytes",
          "name": "_hash",
          "type": "bytes"
        }
      ],
      "stateMutability": "view",
      "type": "function"
    },
    {
      "inputs": [],
      "name": "contractURI",
      "outputs": [
        {
          "internalType": "string",
          "name": "",
          "type": "string"
        }
      ],
      "stateMutability": "view",
      "type": "function"
    },
    {
      "inputs": [
        {
          "internalType": "uint256",
          "name": "",
          "type": "uint256"
        }
      ],
      "name": "getApproved",
      "outputs": [
        {
          "internalType": "address",
          "name": "",
          "type": "address"
        }
      ],
      "stateMutability": "view",
      "type": "function"
    },
    {
      "inputs": [
        {
          "internalType": "address",
          "name": "",
          "type": "address"
        },
        {
          "internalType": "address",
          "name": "",
          "type": "address"
        }
      ],
      "name": "isApprovedForAll",
      "outputs": [
        {
          "internalType": "bool",
          "name": "",
          "type": "bool"
        }
      ],
      "stateMutability": "view",
      "type": "function"
    },
    {
      "inputs": [],
      "name": "maxSupply",
      "outputs": [
        {
          "internalType": "uint256",
          "name": "",
          "type": "uint256"
        }
      ],
      "stateMutability": "view",
      "type": "function"
    },
    {
      "inputs": [],
      "name": "metaIPFS",
      "outputs": [
        {
          "internalType": "string",
          "name": "",
          "type": "string"
        }
      ],
      "stateMutability": "view",
      "type": "function"
    },
    {
      "inputs": [],
      "name": "mint",
      "outputs": [],
      "stateMutability": "payable",
      "type": "function"
    },
    {
      "inputs": [],
      "name": "mintPrice",
      "outputs": [
        {
          "internalType": "uint256",
          "name": "",
          "type": "uint256"
        }
      ],
      "stateMutability": "view",
      "type": "function"
    },
    {
      "inputs": [],
      "name": "name",
      "outputs": [
        {
          "internalType": "string",
          "name": "",
          "type": "string"
        }
      ],
      "stateMutability": "view",
      "type": "function"
    },
    {
      "inputs": [
        {
          "internalType": "bytes32",
          "name": "node",
          "type": "bytes32"
        }
      ],
      "name": "name",
      "outputs": [
        {
          "internalType": "string",
          "name": "_name",
          "type": "string"
        }
      ],
      "stateMutability": "view",
      "type": "function"
    },
    {
      "inputs": [],
      "name": "owner",
      "outputs": [
        {
          "internalType": "address",
          "name": "",
          "type": "address"
        }
      ],
      "stateMutability": "view",
      "type": "function"
    },
    {
      "inputs": [
        {
          "internalType": "uint256",
          "name": "id",
          "type": "uint256"
        }
      ],
      "name": "ownerOf",
      "outputs": [
        {
          "internalType": "address",
          "name": "",
          "type": "address"
        }
      ],
      "stateMutability": "view",
      "type": "function"
    },
    {
      "inputs": [
        {
          "internalType": "bytes32",
          "name": "",
          "type": "bytes32"
        }
      ],
      "name": "pubkey",
      "outputs": [
        {
          "internalType": "bytes32",
          "name": "x",
          "type": "bytes32"
        },
        {
          "internalType": "bytes32",
          "name": "y",
          "type": "bytes32"
        }
      ],
      "stateMutability": "view",
      "type": "function"
    },
    {
      "inputs": [],
      "name": "royalty",
      "outputs": [
        {
          "internalType": "uint256",
          "name": "",
          "type": "uint256"
        }
      ],
      "stateMutability": "view",
      "type": "function"
    },
    {
      "inputs": [
        {
          "internalType": "uint256",
          "name": "id",
          "type": "uint256"
        },
        {
          "internalType": "uint256",
          "name": "_salePrice",
          "type": "uint256"
        }
      ],
      "name": "royaltyInfo",
      "outputs": [
        {
          "internalType": "address",
          "name": "",
          "type": "address"
        },
        {
          "internalType": "uint256",
          "name": "",
          "type": "uint256"
        }
      ],
      "stateMutability": "view",
      "type": "function"
    },
    {
      "inputs": [
        {
          "internalType": "address",
          "name": "from",
          "type": "address"
        },
        {
          "internalType": "address",
          "name": "to",
          "type": "address"
        },
        {
          "internalType": "uint256",
          "name": "id",
          "type": "uint256"
        }
      ],
      "name": "safeTransferFrom",
      "outputs": [],
      "stateMutability": "payable",
      "type": "function"
    },
    {
      "inputs": [
        {
          "internalType": "address",
          "name": "from",
          "type": "address"
        },
        {
          "internalType": "address",
          "name": "to",
          "type": "address"
        },
        {
          "internalType": "uint256",
          "name": "id",
          "type": "uint256"
        },
        {
          "internalType": "bytes",
          "name": "data",
          "type": "bytes"
        }
      ],
      "name": "safeTransferFrom",
      "outputs": [],
      "stateMutability": "payable",
      "type": "function"
    },
    {
      "inputs": [
        {
          "internalType": "bytes32",
          "name": "node",
          "type": "bytes32"
        },
        {
          "internalType": "uint256",
          "name": "coinType",
          "type": "uint256"
        },
        {
          "internalType": "bytes",
          "name": "_addr",
          "type": "bytes"
        }
      ],
      "name": "setAddr",
      "outputs": [],
      "stateMutability": "nonpayable",
      "type": "function"
    },
    {
      "inputs": [
        {
          "internalType": "bytes32",
          "name": "node",
          "type": "bytes32"
        },
        {
          "internalType": "address",
          "name": "_addr",
          "type": "address"
        }
      ],
      "name": "setAddr",
      "outputs": [],
      "stateMutability": "nonpayable",
      "type": "function"
    },
    {
      "inputs": [
        {
          "internalType": "address",
          "name": "operator",
          "type": "address"
        },
        {
          "internalType": "bool",
          "name": "approved",
          "type": "bool"
        }
      ],
      "name": "setApprovalForAll",
      "outputs": [],
      "stateMutability": "payable",
      "type": "function"
    },
    {
      "inputs": [
        {
          "internalType": "bytes32",
          "name": "node",
          "type": "bytes32"
        },
        {
          "internalType": "bytes",
          "name": "_hash",
          "type": "bytes"
        }
      ],
      "name": "setContenthash",
      "outputs": [],
      "stateMutability": "nonpayable",
      "type": "function"
    },
    {
      "inputs": [
        {
          "internalType": "string",
          "name": "_contractURI",
          "type": "string"
        }
      ],
      "name": "setContractURI",
      "outputs": [],
      "stateMutability": "nonpayable",
      "type": "function"
    },
    {
      "inputs": [
        {
          "internalType": "bytes",
          "name": "_content",
          "type": "bytes"
        }
      ],
      "name": "setDefaultContenthash",
      "outputs": [],
      "stateMutability": "nonpayable",
      "type": "function"
    },
    {
      "inputs": [
        {
          "internalType": "address",
          "name": "_resolver",
          "type": "address"
        }
      ],
      "name": "setDefaultResolver",
      "outputs": [],
      "stateMutability": "nonpayable",
      "type": "function"
    },
    {
      "inputs": [
        {
          "internalType": "bytes4",
          "name": "sig",
          "type": "bytes4"
        },
        {
          "internalType": "bool",
          "name": "value",
          "type": "bool"
        }
      ],
      "name": "setInterface",
      "outputs": [],
      "stateMutability": "payable",
      "type": "function"
    },
    {
      "inputs": [
        {
          "internalType": "bytes32",
          "name": "node",
          "type": "bytes32"
        },
        {
          "internalType": "string",
          "name": "_name",
          "type": "string"
        }
      ],
      "name": "setName",
      "outputs": [],
      "stateMutability": "nonpayable",
      "type": "function"
    },
    {
      "inputs": [
        {
          "internalType": "bytes32",
          "name": "node",
          "type": "bytes32"
        },
        {
          "internalType": "bytes32",
          "name": "x",
          "type": "bytes32"
        },
        {
          "internalType": "bytes32",
          "name": "y",
          "type": "bytes32"
        }
      ],
      "name": "setPubkey",
      "outputs": [],
      "stateMutability": "nonpayable",
      "type": "function"
    },
    {
      "inputs": [
        {
          "internalType": "uint256",
          "name": "_royalty",
          "type": "uint256"
        }
      ],
      "name": "setRoyalty",
      "outputs": [],
      "stateMutability": "nonpayable",
      "type": "function"
    },
    {
      "inputs": [
        {
          "internalType": "bytes32",
          "name": "node",
          "type": "bytes32"
        },
        {
          "internalType": "string",
          "name": "key",
          "type": "string"
        },
        {
          "internalType": "string",
          "name": "value",
          "type": "string"
        }
      ],
      "name": "setText",
      "outputs": [],
      "stateMutability": "nonpayable",
      "type": "function"
    },
    {
      "inputs": [
        {
          "internalType": "bytes4",
          "name": "",
          "type": "bytes4"
        }
      ],
      "name": "supportsInterface",
      "outputs": [
        {
          "internalType": "bool",
          "name": "",
          "type": "bool"
        }
      ],
      "stateMutability": "view",
      "type": "function"
    },
    {
      "inputs": [],
      "name": "symbol",
      "outputs": [
        {
          "internalType": "string",
          "name": "",
          "type": "string"
        }
      ],
      "stateMutability": "view",
      "type": "function"
    },
    {
      "inputs": [
        {
          "internalType": "bytes32",
          "name": "node",
          "type": "bytes32"
        },
        {
          "internalType": "string",
          "name": "key",
          "type": "string"
        }
      ],
      "name": "text",
      "outputs": [
        {
          "internalType": "string",
          "name": "value",
          "type": "string"
        }
      ],
      "stateMutability": "view",
      "type": "function"
    },
    {
      "inputs": [],
      "name": "toggleActive",
      "outputs": [],
      "stateMutability": "nonpayable",
      "type": "function"
    },
    {
      "inputs": [
        {
          "internalType": "uint256",
          "name": "id",
          "type": "uint256"
        }
      ],
      "name": "tokenURI",
      "outputs": [
        {
          "internalType": "string",
          "name": "",
          "type": "string"
        }
      ],
      "stateMutability": "view",
      "type": "function"
    },
    {
      "inputs": [],
      "name": "totalSupply",
      "outputs": [
        {
          "internalType": "uint256",
          "name": "",
          "type": "uint256"
        }
      ],
      "stateMutability": "view",
      "type": "function"
    },
    {
      "inputs": [
        {
          "internalType": "address",
          "name": "from",
          "type": "address"
        },
        {
          "internalType": "address",
          "name": "to",
          "type": "address"
        },
        {
          "internalType": "uint256",
          "name": "id",
          "type": "uint256"
        }
      ],
      "name": "transferFrom",
      "outputs": [],
      "stateMutability": "payable",
      "type": "function"
    },
    {
      "inputs": [
        {
          "internalType": "address",
          "name": "newDev",
          "type": "address"
        }
      ],
      "name": "transferOwnership",
      "outputs": [],
      "stateMutability": "nonpayable",
      "type": "function"
    },
    {
      "inputs": [],
      "name": "withdrawEther",
      "outputs": [],
      "stateMutability": "payable",
      "type": "function"
    },
    {
      "inputs": [
        {
          "internalType": "address",
          "name": "token",
          "type": "address"
        }
      ],
      "name": "withdrawToken",
      "outputs": [],
      "stateMutability": "payable",
      "type": "function"
    },
    {
      "stateMutability": "payable",
      "type": "receive"
    }
  ],
  "bytecode": {
    "object": "0x6000805460ff60a01b1916600160a01b179055610100604052601560c09081527f426f726564454e535961636874436c75622e657468000000000000000000000060e05260029062000052908262000452565b5060408051808201909152600681526542454e53594360d01b60208201526003906200007f908262000452565b50662386f26fc100006006556040518060600160405280603581526020016200476760359139600790620000b4908262000452565b5060056008556040518060600160405280602e815260200162004739602e9139600990620000e3908262000452565b506064608052348015620000f657600080fd5b50600e60208181527fb890939816505e41127216d3d06629e66cc0c53570cf6b36ab15983bf4fae48c805460ff1990811660019081179092557f9fd67b3e6adc3139ba80c59d96dc044fc0e5dad93473e3ce9e256e3ee6648ffe80548216831790557ff981ee43ed7d41e43a04cecda243b9d230f5a2907423bfab8b8774ab9506e03280548216831790557f64261f180b4e30beacb49f9abd317118a567d9e8298c9f003468468a6cb09e1c80548216831790557f3e76f55ce973a2e4a7831d1d76f54e32a00244f900c7824fed4a69163e15e90b80548216831790556378e5bf0360e11b60009081527f86da393c824aaed634b91d764b465391c51589071e7c100d3e03a43ce41fecd8805483168417905582546001600160a01b031990811633178455815481166e0c2e074ec69a0dfb2997ba6c7d2e1e1782556004805490911630179055604080518086018390527f4f5b812789fc606be1b3b16908db13fc7a9adf7ca72641f84d75b47069d3d7f08183015281518082038301815260608201835280519087012060808201527f7a46b638f71fee598932cc3ef366f2f3dcdae81da0064fba529d5ae43b3ac9c560a08083019190915282518083038201815260c09092019092528051908601209052939092527ff78053c79e0b9aa452e27b1a016da828f8da009fc4e41d10c85bd3a969c7facb80548316821790557f2128e120182d3aad40be1b13f6e6837469325eed442c0118fa5598c7f671c92b80548316821790557fee4d32f332f0a2d0ddc34ffb2ec7a1b8568e915f8f5b625da8ece9305abb079a80548316821790557facee4afab9ecaa8ae5295b11b5f85101d139b31d8872b02073faef8923dbb604805483168217905563152a902d60e11b9092527fe13efcc3391fd06a1796af9f3856980176fe91811e54bc42ace51e572d1d17c8805490911690911790556200051e565b634e487b7160e01b600052604160045260246000fd5b600181811c90821680620003d857607f821691505b602082108103620003f957634e487b7160e01b600052602260045260246000fd5b50919050565b601f8211156200044d57600081815260208120601f850160051c81016020861015620004285750805b601f850160051c820191505b81811015620004495782815560010162000434565b5050505b505050565b81516001600160401b038111156200046e576200046e620003ad565b62000486816200047f8454620003c3565b84620003ff565b602080601f831160018114620004be5760008415620004a55750858301515b600019600386901b1c1916600185901b17855562000449565b600085815260208120601f198616915b82811015620004ef57888601518255948401946001909101908401620004ce565b50858210156200050e5787850151600019600388901b60f8161c191681555b5050505050600190811b01905550565b60805160a0516141b662000583600039600081816107b001528181610f1a01528181610fc601528181611ebc01528181611f68015281816124f80152612f4d0152600081816109e901528181610e1301528181611cf30152611dfa01526141b66000f3fe6080604052600436106103635760003560e01c806370a08231116101c6578063b0671b71116100f7578063c87b56dd11610095578063e8a3d4851161006f578063e8a3d48514610a2b578063e985e9c514610a40578063f1cb7e0614610a7b578063f2fde38b14610a9b5761039a565b8063c87b56dd146109b7578063d5abeb01146109d7578063d5fa2b0014610a0b5761039a565b8063bc1c58d1116100d1578063bc1c58d11461091b578063c0a43a7c1461093b578063c66485b21461094e578063c86902331461096e5761039a565b8063b0671b71146108c8578063b88d4fde146108e8578063bb8762c8146108fb5761039a565b80638b95dd711161016457806395d89b411161013e57806395d89b411461085e57806398adcbba14610873578063a22cb46514610888578063a37f9f991461089b5761039a565b80638b95dd71146108005780638da5cb5b14610820578063938e3d7b1461083e5761039a565b80638315ae65116101a05780638315ae651461079e5780638467be0d146107d2578063875e18f7146107e557806389476069146107ed5761039a565b806370a08231146107495780637362377b14610776578063773722131461077e5761039a565b806329cd62ea116102a057806359d1d43c1161023e5780636817c76c116102185780636817c76c146106d1578063691f3431146106e757806369be8bb0146107075780636eada5aa1461071c5761039a565b806359d1d43c146106715780635d81d553146106915780636352211e146106b15761039a565b8063304e6ade1161027a578063304e6ade146106115780633b3b57de146106315780634209a2e11461065157806342842e0e146105745761039a565b806329cd62ea1461059c57806329ee566c146105bc5780632a55205a146105d25761039a565b8063095ea7b31161030d57806318160ddd116102e757806318160ddd146105305780631d2e2cc41461055457806323b872dd1461057457806329c68dc1146105875761039a565b8063095ea7b3146104f357806310f13a8c146105085780631249c58b146105285761039a565b806302fb0c5e1161033e57806302fb0c5e1461046957806306fdde031461049b578063081812fc146104bd5761039a565b8062b7aff7146103cc57806301e51ae81461040957806301ffc9a7146104295761039a565b3661039a576040517f5a89288700000000000000000000000000000000000000000000000000000000815260040160405180910390fd5b6040517f5a89288700000000000000000000000000000000000000000000000000000000815260040160405180910390fd5b3480156103d857600080fd5b506004546103ec906001600160a01b031681565b6040516001600160a01b0390911681526020015b60405180910390f35b34801561041557600080fd5b506001546103ec906001600160a01b031681565b34801561043557600080fd5b50610459610444366004613452565b600e6020526000908152604090205460ff1681565b6040519015158152602001610400565b34801561047557600080fd5b506000546104599074010000000000000000000000000000000000000000900460ff1681565b3480156104a757600080fd5b506104b0610abb565b60405161040091906134bf565b3480156104c957600080fd5b506103ec6104d83660046134d2565b600c602052600090815260409020546001600160a01b031681565b610506610501366004613500565b610b4d565b005b34801561051457600080fd5b5061050661052336600461356e565b610c3c565b610506610dbd565b34801561053c57600080fd5b5061054660055481565b604051908152602001610400565b34801561056057600080fd5b506000546103ec906001600160a01b031681565b6105066105823660046135e8565b6110a4565b34801561059357600080fd5b506105066110c4565b3480156105a857600080fd5b506105066105b7366004613629565b611151565b3480156105c857600080fd5b5061054660085481565b3480156105de57600080fd5b506105f26105ed366004613655565b6112a4565b604080516001600160a01b039093168352602083019190915201610400565b34801561061d57600080fd5b5061050661062c36600461373c565b6112dc565b34801561063d57600080fd5b506103ec61064c3660046134d2565b611418565b34801561065d57600080fd5b5061050661066c3660046134d2565b61155f565b34801561067d57600080fd5b506104b061068c366004613783565b6115a4565b34801561069d57600080fd5b506105066106ac3660046137cf565b61182b565b3480156106bd57600080fd5b506103ec6106cc3660046134d2565b61187b565b3480156106dd57600080fd5b5061054660065481565b3480156106f357600080fd5b506104b06107023660046134d2565b6118dd565b34801561071357600080fd5b506104b06119fa565b34801561072857600080fd5b506105466107373660046134d2565b600f6020526000908152604090205481565b34801561075557600080fd5b50610546610764366004613804565b600a6020526000908152604090205481565b610506611a88565b34801561078a57600080fd5b50610506610799366004613783565b611b31565b3480156107aa57600080fd5b506105467f000000000000000000000000000000000000000000000000000000000000000081565b6105066107e03660046134d2565b611c9d565b61050661204d565b6105066107fb366004613804565b612090565b34801561080c57600080fd5b5061050661081b366004613821565b612241565b34801561082c57600080fd5b506001546001600160a01b03166103ec565b34801561084a57600080fd5b50610506610859366004613871565b61237d565b34801561086a57600080fd5b506104b06123ca565b34801561087f57600080fd5b506104b06123d7565b6105066108963660046138c1565b6123e4565b3480156108a757600080fd5b506105466108b63660046134d2565b60106020526000908152604090205481565b3480156108d457600080fd5b506104b06108e33660046138fa565b61246e565b6105066108f636600461394b565b6124a3565b34801561090757600080fd5b506105466109163660046134d2565b6124b5565b34801561092757600080fd5b506104b06109363660046134d2565b612563565b6105066109493660046139b7565b61269b565b34801561095a57600080fd5b50610506610969366004613804565b6127af565b34801561097a57600080fd5b506109a26109893660046134d2565b6014602052600090815260409020805460019091015482565b60408051928352602083019190915201610400565b3480156109c357600080fd5b506104b06109d23660046134d2565b612829565b3480156109e357600080fd5b506105467f000000000000000000000000000000000000000000000000000000000000000081565b348015610a1757600080fd5b50610506610a263660046139d5565b61289d565b348015610a3757600080fd5b506104b0612a22565b348015610a4c57600080fd5b50610459610a5b3660046139fa565b600d60209081526000928352604080842090915290825290205460ff1681565b348015610a8757600080fd5b506104b0610a96366004613655565b612a2f565b348015610aa757600080fd5b50610506610ab6366004613804565b612b53565b606060028054610aca90613a28565b80601f0160208091040260200160405190810160405280929190818152602001828054610af690613a28565b8015610b435780601f10610b1857610100808354040283529160200191610b43565b820191906000526020600020905b815481529060010190602001808311610b2657829003601f168201915b5050505050905090565b6000818152600b60205260409020546001600160a01b03163314610bcb576000818152600b6020526040908190205490517f431ef6160000000000000000000000000000000000000000000000000000000081523360048201526001600160a01b039091166024820152604481018290526064015b60405180910390fd5b6000818152600c602052604080822080547fffffffffffffffffffffffff0000000000000000000000000000000000000000166001600160a01b0386169081179091559051839233917f8c5be1e5ebec7d5bd14f71427d1e84f3dd0314c0f7b2291e5b200ac8c7c3b9259190a45050565b6000546040517f02571be30000000000000000000000000000000000000000000000000000000081526004810187905286916001600160a01b0316906302571be390602401602060405180830381865afa158015610c9e573d6000803e3d6000fd5b505050506040513d601f19601f82011682018060405250810190610cc29190613a75565b6001600160a01b0316336001600160a01b031614610d225760405162461bcd60e51b815260206004820152601760248201527f5265736f6c7665723a4e6f745f417574686f72697365640000000000000000006044820152606401610bc2565b8282601560008981526020019081526020016000208787604051610d47929190613a92565b90815260200160405180910390209182610d62929190613af0565b508484604051610d73929190613a92565b6040518091039020867fd8c9334b1a9c2f9da342a0a2b32629c1a229b6445dad78947f674b44444a75508585604051610dad929190613bb1565b60405180910390a3505050505050565b60005474010000000000000000000000000000000000000000900460ff16610e11576040517fab35696f00000000000000000000000000000000000000000000000000000000815260040160405180910390fd5b7f00000000000000000000000000000000000000000000000000000000000000006005541115610e6d576040517f49084b9400000000000000000000000000000000000000000000000000000000815260040160405180910390fd5b600654341015610eb6576006546040517f8ad0844f0000000000000000000000000000000000000000000000000000000081526004810191909152346024820152604401610bc2565b6005546000610ec482612c07565b604051602001610ed49190613bfc565b60408051808303601f1901815290829052805160209091012060008054600480547f5ef2c7f00000000000000000000000000000000000000000000000000000000086527f000000000000000000000000000000000000000000000000000000000000000091860191909152602485018490523360448601526001600160a01b03908116606486015260848501929092529193501690635ef2c7f09060a401600060405180830381600087803b158015610f8d57600080fd5b505af1158015610fa1573d6000803e3d6000fd5b5050506000838152600f602090815260408083208590555185935060109291610ff7917f000000000000000000000000000000000000000000000000000000000000000091879101918252602082015260400190565b60408051601f19818403018152918152815160209283012083528282019390935290820160009081209390935560058054600190810190915533808552600a83528385208054909201909155858452600b90915281832080547fffffffffffffffffffffffff0000000000000000000000000000000000000000168217905590518492907fddf252ad1be2c89b69c2b068fc378daa952ba7f163c4a11628f55a4df523b3ef908290a45050565b6110bf83838360405180602001604052806000815250612d44565b505050565b6001546001600160a01b03163314611104576001546040516347522c7b60e11b81526001600160a01b039091166004820152336024820152604401610bc2565b600080547fffffffffffffffffffffff00ffffffffffffffffffffffffffffffffffffffff8116740100000000000000000000000000000000000000009182900460ff1615909102179055565b6000546040517f02571be30000000000000000000000000000000000000000000000000000000081526004810185905284916001600160a01b0316906302571be390602401602060405180830381865afa1580156111b3573d6000803e3d6000fd5b505050506040513d601f19601f820116820180604052508101906111d79190613a75565b6001600160a01b0316336001600160a01b0316146112375760405162461bcd60e51b815260206004820152601760248201527f5265736f6c7665723a4e6f745f417574686f72697365640000000000000000006044820152606401610bc2565b60408051808201825284815260208082018581526000888152601483528490209251835551600190920191909155815185815290810184905285917f1d6f5e03d3f63eb58751986629a5439baee5079ff04f345becb66e23eb154e4691015b60405180910390a250505050565b60015460085460009182916001600160a01b03909116906112c6606486613c76565b6112d09190613c8a565b915091505b9250929050565b6000546040517f02571be30000000000000000000000000000000000000000000000000000000081526004810184905283916001600160a01b0316906302571be390602401602060405180830381865afa15801561133e573d6000803e3d6000fd5b505050506040513d601f19601f820116820180604052508101906113629190613a75565b6001600160a01b0316336001600160a01b0316146113c25760405162461bcd60e51b815260206004820152601760248201527f5265736f6c7665723a4e6f745f417574686f72697365640000000000000000006044820152606401610bc2565b60008381526012602052604090206113da8382613ca9565b50827fe379c1624ed7e714cc0937528a32359d69d5281337765313dba4e081b72d75788360405161140b91906134bf565b60405180910390a2505050565b6000818152601360209081526040808320603c84529091528120805482919061144090613a28565b80601f016020809104026020016040519081016040528092919081815260200182805461146c90613a28565b80156114b95780601f1061148e576101008083540402835291602001916114b9565b820191906000526020600020905b81548152906001019060200180831161149c57829003601f168201915b505050505090508051600003611556576000546040517f02571be3000000000000000000000000000000000000000000000000000000008152600481018590526001600160a01b03909116906302571be390602401602060405180830381865afa15801561152b573d6000803e3d6000fd5b505050506040513d601f19601f8201168201806040525081019061154f9190613a75565b9392505050565b61154f81613d69565b6001546001600160a01b0316331461159f576001546040516347522c7b60e11b81526001600160a01b039091166004820152336024820152604401610bc2565b600855565b60606015600085815260200190815260200160002083836040516115c9929190613a92565b908152602001604051809103902080546115e290613a28565b80601f016020809104026020016040519081016040528092919081815260200182805461160e90613a28565b801561165b5780601f106116305761010080835404028352916020019161165b565b820191906000526020600020905b81548152906001019060200180831161163e57829003601f168201915b50505050509050805160000361154f576040518060400160405280600681526020017f61766174617200000000000000000000000000000000000000000000000000008152506116aa90613d69565b6116b48385613d8d565b03611750576116c246612c07565b60045460405160609190911b7fffffffffffffffffffffffffffffffffffffffff000000000000000000000000166020820152611710906034016040516020818303038152906040526131ed565b60008681526010602052604090205461172890612c07565b60405160200161173a93929190613dab565b604051602081830303815290604052905061154f565b6000805260156020526040517fa31547ce6245cdb9ecea19cf8c7eb9f5974025bb4075011409251ae855b30aed9061178b9085908590613a92565b908152602001604051809103902080546117a490613a28565b80601f01602080910402602001604051908101604052809291908181526020018280546117d090613a28565b801561181d5780601f106117f25761010080835404028352916020019161181d565b820191906000526020600020905b81548152906001019060200180831161180057829003601f168201915b505050505090509392505050565b6001546001600160a01b0316331461186b576001546040516347522c7b60e11b81526001600160a01b039091166004820152336024820152604401610bc2565b60116118778282613ca9565b5050565b60008160055481106118bc576040517fb7c882eb00000000000000000000000000000000000000000000000000000000815260048101829052602401610bc2565b6000838152600b60205260409020546001600160a01b031691505b50919050565b6000818152601560205260409081902090517f6e616d65000000000000000000000000000000000000000000000000000000008152606091906004019081526020016040518091039020805461193290613a28565b80601f016020809104026020016040519081016040528092919081815260200182805461195e90613a28565b80156119ab5780601f10611980576101008083540402835291602001916119ab565b820191906000526020600020905b81548152906001019060200180831161198e57829003601f168201915b5050505050905080516000036119f5576000828152601060205260409020546119d390612c07565b6040516020016119e39190613e6b565b60405160208183030381529060405290505b919050565b60118054611a0790613a28565b80601f0160208091040260200160405190810160405280929190818152602001828054611a3390613a28565b8015611a805780601f10611a5557610100808354040283529160200191611a80565b820191906000526020600020905b815481529060010190602001808311611a6357829003601f168201915b505050505081565b6001546001600160a01b03163314611ac8576001546040516347522c7b60e11b81526001600160a01b039091166004820152336024820152604401610bc2565b60405133904780156108fc02916000818181858888f19350505050611b2f5760405162461bcd60e51b815260206004820152601360248201527f4554485f5452414e534645525f4641494c4544000000000000000000000000006044820152606401610bc2565b565b6000546040517f02571be30000000000000000000000000000000000000000000000000000000081526004810185905284916001600160a01b0316906302571be390602401602060405180830381865afa158015611b93573d6000803e3d6000fd5b505050506040513d601f19601f82011682018060405250810190611bb79190613a75565b6001600160a01b0316336001600160a01b031614611c175760405162461bcd60e51b815260206004820152601760248201527f5265736f6c7665723a4e6f745f417574686f72697365640000000000000000006044820152606401610bc2565b6000848152601560205260409081902081517f6e616d6500000000000000000000000000000000000000000000000000000000815260048101919091529051908190036024019020611c6a838583613af0565b50837fb7d29e911041e8d9b843369e890bcb72c9388692ba48b65ac54e7214c4c348f78484604051611296929190613bb1565b60005474010000000000000000000000000000000000000000900460ff16611cf1576040517fab35696f00000000000000000000000000000000000000000000000000000000815260040160405180910390fd5b7f00000000000000000000000000000000000000000000000000000000000000006005541115611d4d576040517f49084b9400000000000000000000000000000000000000000000000000000000815260040160405180910390fd5b600c811115611d88576040517f4d6c426100000000000000000000000000000000000000000000000000000000815260040160405180910390fd5b80600654611d969190613c8a565b341015611de75780600654611dab9190613c8a565b6040517f8ad0844f0000000000000000000000000000000000000000000000000000000081526004810191909152346024820152604401610bc2565b6005546000611df68383613eac565b90507f0000000000000000000000000000000000000000000000000000000000000000811115611e52576040517f49084b9400000000000000000000000000000000000000000000000000000000815260040160405180910390fd5b60005b8183101561203057611e6683612c07565b604051602001611e769190613bfc565b60408051808303601f1901815290829052805160209091012060008054600480547f5ef2c7f00000000000000000000000000000000000000000000000000000000086527f000000000000000000000000000000000000000000000000000000000000000091860191909152602485018490523360448601526001600160a01b03908116606486015260848501929092529193501690635ef2c7f09060a401600060405180830381600087803b158015611f2f57600080fd5b505af1158015611f43573d6000803e3d6000fd5b5050506000848152600f602090815260408083208590555186935060109291611f99917f000000000000000000000000000000000000000000000000000000000000000091879101918252602082015260400190565b60408051601f198184030181529181528151602092830120835282820193909352908201600090812093909355858352600b905280822080547fffffffffffffffffffffffff0000000000000000000000000000000000000000163390811790915590518592907fddf252ad1be2c89b69c2b068fc378daa952ba7f163c4a11628f55a4df523b3ef908290a4826001019250611e55565b5060055550336000908152600a6020526040902080549091019055565b6001546001600160a01b0316331461208d576001546040516347522c7b60e11b81526001600160a01b039091166004820152336024820152604401610bc2565b33ff5b6001546001600160a01b031633146120d0576001546040516347522c7b60e11b81526001600160a01b039091166004820152336024820152604401610bc2565b6001546040517f70a0823100000000000000000000000000000000000000000000000000000000815230600482018190526001600160a01b03848116936323b872dd9391169084906370a0823190602401602060405180830381865afa15801561213e573d6000803e3d6000fd5b505050506040513d601f19601f820116820180604052508101906121629190613ebf565b6040517fffffffff0000000000000000000000000000000000000000000000000000000060e086901b1681526001600160a01b03938416600482015292909116602483015260448201526064016020604051808303816000875af11580156121ce573d6000803e3d6000fd5b505050506040513d601f19601f820116820180604052508101906121f29190613ed8565b61223e5760405162461bcd60e51b815260206004820152601560248201527f544f4b454e5f5452414e534645525f4641494c454400000000000000000000006044820152606401610bc2565b50565b6000546040517f02571be30000000000000000000000000000000000000000000000000000000081526004810185905284916001600160a01b0316906302571be390602401602060405180830381865afa1580156122a3573d6000803e3d6000fd5b505050506040513d601f19601f820116820180604052508101906122c79190613a75565b6001600160a01b0316336001600160a01b0316146123275760405162461bcd60e51b815260206004820152601760248201527f5265736f6c7665723a4e6f745f417574686f72697365640000000000000000006044820152606401610bc2565b6000848152601360209081526040808320868452909152902061234a8382613ca9565b50837f65412581168e88a1e60c6459d7f44ae83ad0832e670826c05a4e2476b57af7528484604051611296929190613ef5565b6001546001600160a01b031633146123bd576001546040516347522c7b60e11b81526001600160a01b039091166004820152336024820152604401610bc2565b60076110bf828483613af0565b60038054611a0790613a28565b60098054611a0790613a28565b336000818152600d602090815260408083206001600160a01b0387168085529083529281902080547fffffffffffffffffffffffffffffffffffffffffffffffffffffffffffffff001686151590811790915590519081529192917f17307eab39ab6107e8899845ad3d59bd9653f200f220920489ca2b5937696c31910160405180910390a35050565b6015602090815260009283526040909220815180830184018051928152908401929093019190912091528054611a0790613a28565b6124af84848484612d44565b50505050565b60008160055481106124f6576040517fb7c882eb00000000000000000000000000000000000000000000000000000000815260048101829052602401610bc2565b7f0000000000000000000000000000000000000000000000000000000000000000600f600085815260200190815260200160002054604051602001612545929190918252602082015260400190565b60405160208183030381529060405280519060200120915050919050565b600081815260126020526040902080546060919061258090613a28565b80601f01602080910402602001604051908101604052809291908181526020018280546125ac90613a28565b80156125f95780601f106125ce576101008083540402835291602001916125f9565b820191906000526020600020905b8154815290600101906020018083116125dc57829003601f168201915b5050505050905080516000036119f5576011805461261690613a28565b80601f016020809104026020016040519081016040528092919081815260200182805461264290613a28565b801561268f5780601f106126645761010080835404028352916020019161268f565b820191906000526020600020905b81548152906001019060200180831161267257829003601f168201915b50505050509050919050565b6001546001600160a01b031633146126db576001546040516347522c7b60e11b81526001600160a01b039091166004820152336024820152604401610bc2565b7fffffffff00000000000000000000000000000000000000000000000000000000808316900361274d5760405162461bcd60e51b815260206004820152601a60248201527f494e56414c49445f494e544552464143455f53454c4543544f520000000000006044820152606401610bc2565b7fffffffff00000000000000000000000000000000000000000000000000000000919091166000908152600e6020526040902080547fffffffffffffffffffffffffffffffffffffffffffffffffffffffffffffff0016911515919091179055565b6001546001600160a01b031633146127ef576001546040516347522c7b60e11b81526001600160a01b039091166004820152336024820152604401610bc2565b600480547fffffffffffffffffffffffff0000000000000000000000000000000000000000166001600160a01b0392909216919091179055565b606081600554811061286a576040517fb7c882eb00000000000000000000000000000000000000000000000000000000815260048101829052602401610bc2565b600961287584612c07565b604051602001612886929190613f0e565b604051602081830303815290604052915050919050565b6000546040517f02571be30000000000000000000000000000000000000000000000000000000081526004810184905283916001600160a01b0316906302571be390602401602060405180830381865afa1580156128ff573d6000803e3d6000fd5b505050506040513d601f19601f820116820180604052508101906129239190613a75565b6001600160a01b0316336001600160a01b0316146129835760405162461bcd60e51b815260206004820152601760248201527f5265736f6c7665723a4e6f745f417574686f72697365640000000000000000006044820152606401610bc2565b6040517fffffffffffffffffffffffffffffffffffffffff000000000000000000000000606084901b16602082015260340160408051601f19818403018152918152600085815260136020908152828220603c8352905220906129e69082613ca9565b506040516001600160a01b038316815283907f52d7d861f09ab3d26239d492e8968629f95e9e318cf0b73bfddc441522a15fd29060200161140b565b60078054611a0790613a28565b60008281526013602090815260408083208484529091529020805460609190612a5790613a28565b80601f0160208091040260200160405190810160405280929190818152602001828054612a8390613a28565b8015612ad05780601f10612aa557610100808354040283529160200191612ad0565b820191906000526020600020905b815481529060010190602001808311612ab357829003601f168201915b5050505050905080516000148015612ae8575081603c145b15612b4d576000838152601060209081526040808320548352600b82529182902054915160609290921b7fffffffffffffffffffffffffffffffffffffffff000000000000000000000000169082015260340160405160208183030381529060405290505b92915050565b6001546001600160a01b03163314612b93576001546040516347522c7b60e11b81526001600160a01b039091166004820152336024820152604401610bc2565b6001546040516001600160a01b038084169216907f8be0079c531659141344cd1fd0a4f28419497f9722a3daafe3b4186f6b6457e090600090a3600180547fffffffffffffffffffffffff0000000000000000000000000000000000000000166001600160a01b0392909216919091179055565b606081600003612c4a57505060408051808201909152600181527f3000000000000000000000000000000000000000000000000000000000000000602082015290565b8160005b8115612c745780612c5e8161402e565b9150612c6d9050600a83613c76565b9150612c4e565b60008167ffffffffffffffff811115612c8f57612c8f613677565b6040519080825280601f01601f191660200182016040528015612cb9576020820181803683370190505b5090505b8415612d3c57612cce600183614048565b9150612cdb600a8661405b565b612ce6906030613eac565b60f81b818381518110612cfb57612cfb61406f565b60200101907effffffffffffffffffffffffffffffffffffffffffffffffffffffffffffff1916908160001a905350612d35600a86613c76565b9450612cbd565b949350505050565b60005474010000000000000000000000000000000000000000900460ff16612d98576040517fab35696f00000000000000000000000000000000000000000000000000000000815260040160405180910390fd5b6001600160a01b038316612dd8576040517fd92e233d00000000000000000000000000000000000000000000000000000000815260040160405180910390fd5b6000828152600b60205260409020546001600160a01b03858116911614612e56576000828152600b6020526040908190205490517f7af40ae60000000000000000000000000000000000000000000000000000000081526001600160a01b039182166004820152908516602482015260448101839052606401610bc2565b6000828152600b60205260409020546001600160a01b03163314801590612ea157506001600160a01b0384166000908152600d6020908152604080832033845290915290205460ff16155b8015612ec457506000828152600c60205260409020546001600160a01b03163314155b15612f13576040517f431ef6160000000000000000000000000000000000000000000000000000000081523360048201526001600160a01b038516602482015260448101839052606401610bc2565b60008054838252600f6020526040918290205491517f06ab59230000000000000000000000000000000000000000000000000000000081527f0000000000000000000000000000000000000000000000000000000000000000600482015260248101929092526001600160a01b03858116604484015216906306ab5923906064016020604051808303816000875af1158015612fb3573d6000803e3d6000fd5b505050506040513d601f19601f82011682018060405250810190612fd79190613ebf565b506001600160a01b038085166000908152600a60209081526040808320805460001901905592861680835283832080546001019055858352600b825283832080547fffffffffffffffffffffffff00000000000000000000000000000000000000009081168317909155600c90925292909120805490911690553b156131a6576040517f150b7a020000000000000000000000000000000000000000000000000000000081526001600160a01b0384169063150b7a02906130a290339088908790879060040161409e565b6020604051808303816000875af19250505080156130dd575060408051601f3d908101601f191682019092526130da918101906140da565b60015b61311e576040517f3a9f8cb30000000000000000000000000000000000000000000000000000000081526001600160a01b0384166004820152602401610bc2565b7fffffffff0000000000000000000000000000000000000000000000000000000081167f150b7a0200000000000000000000000000000000000000000000000000000000146131a4576040517f3a9f8cb30000000000000000000000000000000000000000000000000000000081526001600160a01b0385166004820152602401610bc2565b505b81836001600160a01b0316856001600160a01b03167fddf252ad1be2c89b69c2b068fc378daa952ba7f163c4a11628f55a4df523b3ef60405160405180910390a450505050565b60606000825160026131ff9190613c8a565b67ffffffffffffffff81111561321757613217613677565b6040519080825280601f01601f191660200182016040528015613241576020820181803683370190505b5060408051808201909152601081527f3031323334353637383961626364656600000000000000000000000000000000602082015290915060005b84518110156133fa5781601086838151811061329a5761329a61406f565b01602001516132ac919060f81c6140f7565b60ff16815181106132bf576132bf61406f565b01602001517fff0000000000000000000000000000000000000000000000000000000000000016836132f2836002613c8a565b815181106133025761330261406f565b60200101907effffffffffffffffffffffffffffffffffffffffffffffffffffffffffffff1916908160001a9053508160108683815181106133465761334661406f565b0160200151613358919060f81c614119565b60ff168151811061336b5761336b61406f565b01602001517fff00000000000000000000000000000000000000000000000000000000000000168361339e836002613c8a565b6133a9906001613eac565b815181106133b9576133b961406f565b60200101907effffffffffffffffffffffffffffffffffffffffffffffffffffffffffffff1916908160001a905350806133f28161402e565b91505061327c565b508160405160200161340c919061413b565b60405160208183030381529060405292505050919050565b7fffffffff000000000000000000000000000000000000000000000000000000008116811461223e57600080fd5b60006020828403121561346457600080fd5b813561154f81613424565b60005b8381101561348a578181015183820152602001613472565b50506000910152565b600081518084526134ab81602086016020860161346f565b601f01601f19169290920160200192915050565b60208152600061154f6020830184613493565b6000602082840312156134e457600080fd5b5035919050565b6001600160a01b038116811461223e57600080fd5b6000806040838503121561351357600080fd5b823561351e816134eb565b946020939093013593505050565b60008083601f84011261353e57600080fd5b50813567ffffffffffffffff81111561355657600080fd5b6020830191508360208285010111156112d557600080fd5b60008060008060006060868803121561358657600080fd5b85359450602086013567ffffffffffffffff808211156135a557600080fd5b6135b189838a0161352c565b909650945060408801359150808211156135ca57600080fd5b506135d78882890161352c565b969995985093965092949392505050565b6000806000606084860312156135fd57600080fd5b8335613608816134eb565b92506020840135613618816134eb565b929592945050506040919091013590565b60008060006060848603121561363e57600080fd5b505081359360208301359350604090920135919050565b6000806040838503121561366857600080fd5b50508035926020909101359150565b7f4e487b7100000000000000000000000000000000000000000000000000000000600052604160045260246000fd5b600067ffffffffffffffff808411156136c1576136c1613677565b604051601f8501601f19908116603f011681019082821181831017156136e9576136e9613677565b8160405280935085815286868601111561370257600080fd5b858560208301376000602087830101525050509392505050565b600082601f83011261372d57600080fd5b61154f838335602085016136a6565b6000806040838503121561374f57600080fd5b82359150602083013567ffffffffffffffff81111561376d57600080fd5b6137798582860161371c565b9150509250929050565b60008060006040848603121561379857600080fd5b83359250602084013567ffffffffffffffff8111156137b657600080fd5b6137c28682870161352c565b9497909650939450505050565b6000602082840312156137e157600080fd5b813567ffffffffffffffff8111156137f857600080fd5b612d3c8482850161371c565b60006020828403121561381657600080fd5b813561154f816134eb565b60008060006060848603121561383657600080fd5b8335925060208401359150604084013567ffffffffffffffff81111561385b57600080fd5b6138678682870161371c565b9150509250925092565b6000806020838503121561388457600080fd5b823567ffffffffffffffff81111561389b57600080fd5b6138a78582860161352c565b90969095509350505050565b801515811461223e57600080fd5b600080604083850312156138d457600080fd5b82356138df816134eb565b915060208301356138ef816138b3565b809150509250929050565b6000806040838503121561390d57600080fd5b82359150602083013567ffffffffffffffff81111561392b57600080fd5b8301601f8101851361393c57600080fd5b613779858235602084016136a6565b6000806000806080858703121561396157600080fd5b843561396c816134eb565b9350602085013561397c816134eb565b925060408501359150606085013567ffffffffffffffff81111561399f57600080fd5b6139ab8782880161371c565b91505092959194509250565b600080604083850312156139ca57600080fd5b82356138df81613424565b600080604083850312156139e857600080fd5b8235915060208301356138ef816134eb565b60008060408385031215613a0d57600080fd5b8235613a18816134eb565b915060208301356138ef816134eb565b600181811c90821680613a3c57607f821691505b6020821081036118d7577f4e487b7100000000000000000000000000000000000000000000000000000000600052602260045260246000fd5b600060208284031215613a8757600080fd5b815161154f816134eb565b8183823760009101908152919050565b601f8211156110bf57600081815260208120601f850160051c81016020861015613ac95750805b601f850160051c820191505b81811015613ae857828155600101613ad5565b505050505050565b67ffffffffffffffff831115613b0857613b08613677565b613b1c83613b168354613a28565b83613aa2565b6000601f841160018114613b505760008515613b385750838201355b600019600387901b1c1916600186901b178355613baa565b600083815260209020601f19861690835b82811015613b815786850135825560209485019460019092019101613b61565b5086821015613b9e5760001960f88860031b161c19848701351681555b505060018560011b0183555b5050505050565b60208152816020820152818360408301376000818301604090810191909152601f909201601f19160101919050565b60008151613bf281856020860161346f565b9290920192915050565b60008251613c0e81846020870161346f565b9190910192915050565b7f4e487b7100000000000000000000000000000000000000000000000000000000600052601260045260246000fd5b7f4e487b7100000000000000000000000000000000000000000000000000000000600052601160045260246000fd5b600082613c8557613c85613c18565b500490565b6000816000190483118215151615613ca457613ca4613c47565b500290565b815167ffffffffffffffff811115613cc357613cc3613677565b613cd781613cd18454613a28565b84613aa2565b602080601f831160018114613d0c5760008415613cf45750858301515b600019600386901b1c1916600185901b178555613ae8565b600085815260208120601f198616915b82811015613d3b57888601518255948401946001909101908401613d1c565b5085821015613d595787850151600019600388901b60f8161c191681555b5050505050600190811b01905550565b805160208083015191908110156118d75760001960209190910360031b1b16919050565b80356020831015612b4d57600019602084900360031b1b1692915050565b7f6569703135353a00000000000000000000000000000000000000000000000000815260008451613de381600785016020890161346f565b7f2f6572633732313a0000000000000000000000000000000000000000000000006007918401918201528451613e2081600f84016020890161346f565b7f2f00000000000000000000000000000000000000000000000000000000000000600f92909101918201528351613e5e81601084016020880161346f565b0160100195945050505050565b60008251613e7d81846020870161346f565b7f2e42454e5359432e455448000000000000000000000000000000000000000000920191825250600b01919050565b80820180821115612b4d57612b4d613c47565b600060208284031215613ed157600080fd5b5051919050565b600060208284031215613eea57600080fd5b815161154f816138b3565b828152604060208201526000612d3c6040830184613493565b7f697066733a2f2f0000000000000000000000000000000000000000000000000081526000600760008554613f4281613a28565b60018281168015613f5a5760018114613f9157613fc4565b7fffffffffffffffffffffffffffffffffffffffffffffffffffffffffffffff008416868901528583151584028901019450613fc4565b8960005260208060002060005b85811015613fb95781548b82018a0152908401908201613f9e565b505050858389010194505b507f2f000000000000000000000000000000000000000000000000000000000000008452613ff481850189613be0565b945050505050614023817f2e6a736f6e0000000000000000000000000000000000000000000000000000009052565b600501949350505050565b6000600019820361404157614041613c47565b5060010190565b81810381811115612b4d57612b4d613c47565b60008261406a5761406a613c18565b500690565b7f4e487b7100000000000000000000000000000000000000000000000000000000600052603260045260246000fd5b60006001600160a01b038087168352808616602084015250836040830152608060608301526140d06080830184613493565b9695505050505050565b6000602082840312156140ec57600080fd5b815161154f81613424565b600060ff83168061410a5761410a613c18565b8060ff84160491505092915050565b600060ff83168061412c5761412c613c18565b8060ff84160691505092915050565b7f307800000000000000000000000000000000000000000000000000000000000081526000825161417381600285016020870161346f565b919091016002019291505056fea2646970667358221220318207d56bb4d6fe0fae98b32fa5608c08d85417d081e1a251f1c9080cd38e9864736f6c63430008100033516d65657365797666637833557236357937617756527977774176425242445364735832474b67795578676e4a50697066733a2f2f516d5659745074394c4732776a7a41736f734b74356335313832746d717756666333764e4a317468704e514a5239",
    "linkReferences": {}
  },
  "methodIdentifiers": {
    "DESTROY()": "875e18f7",
    "DefaultContenthash()": "69be8bb0",
    "DefaultResolver()": "00b7aff7",
    "Dev()": "01e51ae8",
    "DomainHash()": "8315ae65",
    "ENS()": "1d2e2cc4",
    "ID2Labelhash(uint256)": "6eada5aa",
    "ID2Namehash(uint256)": "bb8762c8",
    "Namehash2ID(bytes32)": "a37f9f99",
    "_text(bytes32,string)": "b0671b71",
    "active()": "02fb0c5e",
    "addr(bytes32)": "3b3b57de",
    "addr(bytes32,uint256)": "f1cb7e06",
    "approve(address,uint256)": "095ea7b3",
    "balanceOf(address)": "70a08231",
    "batchMint(uint256)": "8467be0d",
    "contenthash(bytes32)": "bc1c58d1",
    "contractURI()": "e8a3d485",
    "getApproved(uint256)": "081812fc",
    "isApprovedForAll(address,address)": "e985e9c5",
    "maxSupply()": "d5abeb01",
    "metaIPFS()": "98adcbba",
    "mint()": "1249c58b",
    "mintPrice()": "6817c76c",
    "name()": "06fdde03",
    "name(bytes32)": "691f3431",
    "owner()": "8da5cb5b",
    "ownerOf(uint256)": "6352211e",
    "pubkey(bytes32)": "c8690233",
    "royalty()": "29ee566c",
    "royaltyInfo(uint256,uint256)": "2a55205a",
    "safeTransferFrom(address,address,uint256)": "42842e0e",
    "safeTransferFrom(address,address,uint256,bytes)": "b88d4fde",
    "setAddr(bytes32,address)": "d5fa2b00",
    "setAddr(bytes32,uint256,bytes)": "8b95dd71",
    "setApprovalForAll(address,bool)": "a22cb465",
    "setContenthash(bytes32,bytes)": "304e6ade",
    "setContractURI(string)": "938e3d7b",
    "setDefaultContenthash(bytes)": "5d81d553",
    "setDefaultResolver(address)": "c66485b2",
    "setInterface(bytes4,bool)": "c0a43a7c",
    "setName(bytes32,string)": "77372213",
    "setPubkey(bytes32,bytes32,bytes32)": "29cd62ea",
    "setRoyalty(uint256)": "4209a2e1",
    "setText(bytes32,string,string)": "10f13a8c",
    "supportsInterface(bytes4)": "01ffc9a7",
    "symbol()": "95d89b41",
    "text(bytes32,string)": "59d1d43c",
    "toggleActive()": "29c68dc1",
    "tokenURI(uint256)": "c87b56dd",
    "totalSupply()": "18160ddd",
    "transferFrom(address,address,uint256)": "23b872dd",
    "transferOwnership(address)": "f2fde38b",
    "withdrawEther()": "7362377b",
    "withdrawToken(address)": "89476069"
  },
  "id": 7
}