{
  "abi": [
    {
      "inputs": [],
      "stateMutability": "nonpayable",
      "type": "constructor"
    },
    {
      "inputs": [],
      "name": "ContractPaused",
      "type": "error"
    },
    {
      "inputs": [
        {
          "internalType": "address",
          "name": "addr",
          "type": "address"
        }
      ],
      "name": "ERC721IncompatibleReceiver",
      "type": "error"
    },
    {
      "inputs": [
        {
          "internalType": "uint256",
          "name": "size",
          "type": "uint256"
        },
        {
          "internalType": "uint256",
          "name": "yourSize",
          "type": "uint256"
        }
      ],
      "name": "InsufficientEtherSent",
      "type": "error"
    },
    {
      "inputs": [
        {
          "internalType": "uint256",
          "name": "id",
          "type": "uint256"
        }
      ],
      "name": "InvalidTokenID",
      "type": "error"
    },
    {
      "inputs": [],
      "name": "MintEnded",
      "type": "error"
    },
    {
      "inputs": [
        {
          "internalType": "address",
          "name": "owner",
          "type": "address"
        },
        {
          "internalType": "address",
          "name": "from",
          "type": "address"
        },
        {
          "internalType": "uint256",
          "name": "id",
          "type": "uint256"
        }
      ],
      "name": "NotSubdomainOwner",
      "type": "error"
    },
    {
      "inputs": [
        {
          "internalType": "address",
          "name": "_dev",
          "type": "address"
        },
        {
          "internalType": "address",
          "name": "_you",
          "type": "address"
        }
      ],
      "name": "OnlyDev",
      "type": "error"
    },
    {
      "inputs": [],
      "name": "OversizedBatch",
      "type": "error"
    },
    {
      "inputs": [
        {
          "internalType": "address",
          "name": "operator",
          "type": "address"
        },
        {
          "internalType": "address",
          "name": "owner",
          "type": "address"
        },
        {
          "internalType": "uint256",
          "name": "id",
          "type": "uint256"
        }
      ],
      "name": "Unauthorized",
      "type": "error"
    },
    {
      "inputs": [],
      "name": "ZeroAddress",
      "type": "error"
    },
    {
      "anonymous": false,
      "inputs": [
        {
          "indexed": true,
          "internalType": "bytes32",
          "name": "node",
          "type": "bytes32"
        },
        {
          "indexed": false,
          "internalType": "address",
          "name": "a",
          "type": "address"
        }
      ],
      "name": "AddressChanged",
      "type": "event"
    },
    {
      "anonymous": false,
      "inputs": [
        {
          "indexed": true,
          "internalType": "address",
          "name": "_owner",
          "type": "address"
        },
        {
          "indexed": true,
          "internalType": "address",
          "name": "approved",
          "type": "address"
        },
        {
          "indexed": true,
          "internalType": "uint256",
          "name": "id",
          "type": "uint256"
        }
      ],
      "name": "Approval",
      "type": "event"
    },
    {
      "anonymous": false,
      "inputs": [
        {
          "indexed": true,
          "internalType": "address",
          "name": "_owner",
          "type": "address"
        },
        {
          "indexed": true,
          "internalType": "address",
          "name": "operator",
          "type": "address"
        },
        {
          "indexed": false,
          "internalType": "bool",
          "name": "approved",
          "type": "bool"
        }
      ],
      "name": "ApprovalForAll",
      "type": "event"
    },
    {
      "anonymous": false,
      "inputs": [
        {
          "indexed": true,
          "internalType": "bytes32",
          "name": "node",
          "type": "bytes32"
        },
        {
          "indexed": false,
          "internalType": "uint256",
          "name": "coinType",
          "type": "uint256"
        },
        {
          "indexed": false,
          "internalType": "bytes",
          "name": "newAddress",
          "type": "bytes"
        }
      ],
      "name": "CoinAddressChanged",
      "type": "event"
    },
    {
      "anonymous": false,
      "inputs": [
        {
          "indexed": true,
          "internalType": "bytes32",
          "name": "node",
          "type": "bytes32"
        },
        {
          "indexed": false,
          "internalType": "bytes",
          "name": "_contenthash",
          "type": "bytes"
        }
      ],
      "name": "ContenthashChanged",
      "type": "event"
    },
    {
      "anonymous": false,
      "inputs": [
        {
          "indexed": true,
          "internalType": "bytes32",
          "name": "node",
          "type": "bytes32"
        },
        {
          "indexed": false,
          "internalType": "string",
          "name": "name",
          "type": "string"
        }
      ],
      "name": "NameChanged",
      "type": "event"
    },
    {
      "anonymous": false,
      "inputs": [
        {
          "indexed": true,
          "internalType": "address",
          "name": "previousOwner",
          "type": "address"
        },
        {
          "indexed": true,
          "internalType": "address",
          "name": "newOwner",
          "type": "address"
        }
      ],
      "name": "OwnershipTransferred",
      "type": "event"
    },
    {
      "anonymous": false,
      "inputs": [
        {
          "indexed": true,
          "internalType": "bytes32",
          "name": "node",
          "type": "bytes32"
        },
        {
          "indexed": false,
          "internalType": "bytes32",
          "name": "x",
          "type": "bytes32"
        },
        {
          "indexed": false,
          "internalType": "bytes32",
          "name": "y",
          "type": "bytes32"
        }
      ],
      "name": "PubkeyChanged",
      "type": "event"
    },
    {
      "anonymous": false,
      "inputs": [
        {
          "indexed": true,
          "internalType": "bytes32",
          "name": "node",
          "type": "bytes32"
        },
        {
          "indexed": true,
          "internalType": "string",
          "name": "key",
          "type": "string"
        },
        {
          "indexed": false,
          "internalType": "string",
          "name": "value",
          "type": "string"
        }
      ],
      "name": "TextRecordChanged",
      "type": "event"
    },
    {
      "anonymous": false,
      "inputs": [
        {
          "indexed": true,
          "internalType": "address",
          "name": "from",
          "type": "address"
        },
        {
          "indexed": true,
          "internalType": "address",
          "name": "to",
          "type": "address"
        },
        {
          "indexed": true,
          "internalType": "uint256",
          "name": "id",
          "type": "uint256"
        }
      ],
      "name": "Transfer",
      "type": "event"
    },
    {
      "stateMutability": "payable",
      "type": "fallback"
    },
    {
      "inputs": [],
      "name": "DESTROY",
      "outputs": [],
      "stateMutability": "payable",
      "type": "function"
    },
    {
      "inputs": [],
      "name": "DefaultContenthash",
      "outputs": [
        {
          "internalType": "bytes",
          "name": "",
          "type": "bytes"
        }
      ],
      "stateMutability": "view",
      "type": "function"
    },
    {
      "inputs": [],
      "name": "DefaultResolver",
      "outputs": [
        {
          "internalType": "address",
          "name": "",
          "type": "address"
        }
      ],
      "stateMutability": "view",
      "type": "function"
    },
    {
      "inputs": [],
      "name": "Dev",
      "outputs": [
        {
          "internalType": "address",
          "name": "",
          "type": "address"
        }
      ],
      "stateMutability": "view",
      "type": "function"
    },
    {
      "inputs": [],
      "name": "DomainHash",
      "outputs": [
        {
          "internalType": "bytes32",
          "name": "",
          "type": "bytes32"
        }
      ],
      "stateMutability": "view",
      "type": "function"
    },
    {
      "inputs": [],
      "name": "ENS",
      "outputs": [
        {
          "internalType": "contract iENS",
          "name": "",
          "type": "address"
        }
      ],
      "stateMutability": "view",
      "type": "function"
    },
    {
      "inputs": [
        {
          "internalType": "uint256",
          "name": "",
          "type": "uint256"
        }
      ],
      "name": "ID2Labelhash",
      "outputs": [
        {
          "internalType": "bytes32",
          "name": "",
          "type": "bytes32"
        }
      ],
      "stateMutability": "view",
      "type": "function"
    },
    {
      "inputs": [
        {
          "internalType": "uint256",
          "name": "id",
          "type": "uint256"
        }
      ],
      "name": "ID2Namehash",
      "outputs": [
        {
          "internalType": "bytes32",
          "name": "",
          "type": "bytes32"
        }
      ],
      "stateMutability": "view",
      "type": "function"
    },
    {
      "inputs": [
        {
          "internalType": "bytes32",
          "name": "",
          "type": "bytes32"
        }
      ],
      "name": "Namehash2ID",
      "outputs": [
        {
          "internalType": "uint256",
          "name": "",
          "type": "uint256"
        }
      ],
      "stateMutability": "view",
      "type": "function"
    },
    {
      "inputs": [
        {
          "internalType": "bytes32",
          "name": "",
          "type": "bytes32"
        },
        {
          "internalType": "string",
          "name": "",
          "type": "string"
        }
      ],
      "name": "_text",
      "outputs": [
        {
          "internalType": "string",
          "name": "",
          "type": "string"
        }
      ],
      "stateMutability": "view",
      "type": "function"
    },
    {
      "inputs": [],
      "name": "active",
      "outputs": [
        {
          "internalType": "bool",
          "name": "",
          "type": "bool"
        }
      ],
      "stateMutability": "view",
      "type": "function"
    },
    {
      "inputs": [
        {
          "internalType": "bytes32",
          "name": "node",
          "type": "bytes32"
        }
      ],
      "name": "addr",
      "outputs": [
        {
          "internalType": "address payable",
          "name": "",
          "type": "address"
        }
      ],
      "stateMutability": "view",
      "type": "function"
    },
    {
      "inputs": [
        {
          "internalType": "address",
          "name": "approved",
          "type": "address"
        },
        {
          "internalType": "uint256",
          "name": "id",
          "type": "uint256"
        }
      ],
      "name": "approve",
      "outputs": [],
      "stateMutability": "payable",
      "type": "function"
    },
    {
      "inputs": [
        {
          "internalType": "address",
          "name": "",
          "type": "address"
        }
      ],
      "name": "balanceOf",
      "outputs": [
        {
          "internalType": "uint256",
          "name": "",
          "type": "uint256"
        }
      ],
      "stateMutability": "view",
      "type": "function"
    },
    {
      "inputs": [
        {
          "internalType": "uint256",
          "name": "batchSize",
          "type": "uint256"
        }
      ],
      "name": "batchMint",
      "outputs": [],
      "stateMutability": "payable",
      "type": "function"
    },
    {
      "inputs": [
        {
          "internalType": "bytes32",
          "name": "node",
          "type": "bytes32"
        }
      ],
      "name": "contenthash",
      "outputs": [
        {
          "internalType": "bytes",
          "name": "_hash",
          "type": "bytes"
        }
      ],
      "stateMutability": "view",
      "type": "function"
    },
    {
      "inputs": [],
      "name": "contractURI",
      "outputs": [
        {
          "internalType": "string",
          "name": "",
          "type": "string"
        }
      ],
      "stateMutability": "view",
      "type": "function"
    },
    {
      "inputs": [
        {
          "internalType": "uint256",
          "name": "",
          "type": "uint256"
        }
      ],
      "name": "getApproved",
      "outputs": [
        {
          "internalType": "address",
          "name": "",
          "type": "address"
        }
      ],
      "stateMutability": "view",
      "type": "function"
    },
    {
      "inputs": [
        {
          "internalType": "address",
          "name": "",
          "type": "address"
        },
        {
          "internalType": "address",
          "name": "",
          "type": "address"
        }
      ],
      "name": "isApprovedForAll",
      "outputs": [
        {
          "internalType": "bool",
          "name": "",
          "type": "bool"
        }
      ],
      "stateMutability": "view",
      "type": "function"
    },
    {
      "inputs": [],
      "name": "maxSupply",
      "outputs": [
        {
          "internalType": "uint256",
          "name": "",
          "type": "uint256"
        }
      ],
      "stateMutability": "view",
      "type": "function"
    },
    {
      "inputs": [],
      "name": "metaIPFS",
      "outputs": [
        {
          "internalType": "string",
          "name": "",
          "type": "string"
        }
      ],
      "stateMutability": "view",
      "type": "function"
    },
    {
      "inputs": [],
      "name": "mint",
      "outputs": [],
      "stateMutability": "payable",
      "type": "function"
    },
    {
      "inputs": [],
      "name": "mintPrice",
      "outputs": [
        {
          "internalType": "uint256",
          "name": "",
          "type": "uint256"
        }
      ],
      "stateMutability": "view",
      "type": "function"
    },
    {
      "inputs": [],
      "name": "name",
      "outputs": [
        {
          "internalType": "string",
          "name": "",
          "type": "string"
        }
      ],
      "stateMutability": "view",
      "type": "function"
    },
    {
      "inputs": [
        {
          "internalType": "bytes32",
          "name": "node",
          "type": "bytes32"
        }
      ],
      "name": "name",
      "outputs": [
        {
          "internalType": "string",
          "name": "_name",
          "type": "string"
        }
      ],
      "stateMutability": "view",
      "type": "function"
    },
    {
      "inputs": [],
      "name": "owner",
      "outputs": [
        {
          "internalType": "address",
          "name": "",
          "type": "address"
        }
      ],
      "stateMutability": "view",
      "type": "function"
    },
    {
      "inputs": [
        {
          "internalType": "uint256",
          "name": "id",
          "type": "uint256"
        }
      ],
      "name": "ownerOf",
      "outputs": [
        {
          "internalType": "address",
          "name": "",
          "type": "address"
        }
      ],
      "stateMutability": "view",
      "type": "function"
    },
    {
      "inputs": [
        {
          "internalType": "bytes32",
          "name": "",
          "type": "bytes32"
        }
      ],
      "name": "pubkey",
      "outputs": [
        {
          "internalType": "bytes32",
          "name": "x",
          "type": "bytes32"
        },
        {
          "internalType": "bytes32",
          "name": "y",
          "type": "bytes32"
        }
      ],
      "stateMutability": "view",
      "type": "function"
    },
    {
      "inputs": [],
      "name": "royalty",
      "outputs": [
        {
          "internalType": "uint256",
          "name": "",
          "type": "uint256"
        }
      ],
      "stateMutability": "view",
      "type": "function"
    },
    {
      "inputs": [
        {
          "internalType": "uint256",
          "name": "id",
          "type": "uint256"
        },
        {
          "internalType": "uint256",
          "name": "_salePrice",
          "type": "uint256"
        }
      ],
      "name": "royaltyInfo",
      "outputs": [
        {
          "internalType": "address",
          "name": "",
          "type": "address"
        },
        {
          "internalType": "uint256",
          "name": "",
          "type": "uint256"
        }
      ],
      "stateMutability": "view",
      "type": "function"
    },
    {
      "inputs": [
        {
          "internalType": "address",
          "name": "from",
          "type": "address"
        },
        {
          "internalType": "address",
          "name": "to",
          "type": "address"
        },
        {
          "internalType": "uint256",
          "name": "id",
          "type": "uint256"
        }
      ],
      "name": "safeTransferFrom",
      "outputs": [],
      "stateMutability": "payable",
      "type": "function"
    },
    {
      "inputs": [
        {
          "internalType": "address",
          "name": "from",
          "type": "address"
        },
        {
          "internalType": "address",
          "name": "to",
          "type": "address"
        },
        {
          "internalType": "uint256",
          "name": "id",
          "type": "uint256"
        },
        {
          "internalType": "bytes",
          "name": "data",
          "type": "bytes"
        }
      ],
      "name": "safeTransferFrom",
      "outputs": [],
      "stateMutability": "payable",
      "type": "function"
    },
    {
      "inputs": [
        {
          "internalType": "bytes32",
          "name": "node",
          "type": "bytes32"
        },
        {
          "internalType": "address",
          "name": "_addr",
          "type": "address"
        }
      ],
      "name": "setAddress",
      "outputs": [],
      "stateMutability": "nonpayable",
      "type": "function"
    },
    {
      "inputs": [
        {
          "internalType": "address",
          "name": "operator",
          "type": "address"
        },
        {
          "internalType": "bool",
          "name": "approved",
          "type": "bool"
        }
      ],
      "name": "setApprovalForAll",
      "outputs": [],
      "stateMutability": "payable",
      "type": "function"
    },
    {
      "inputs": [
        {
          "internalType": "bytes32",
          "name": "node",
          "type": "bytes32"
        },
        {
          "internalType": "uint256",
          "name": "coinType",
          "type": "uint256"
        },
        {
          "internalType": "bytes",
          "name": "_addr",
          "type": "bytes"
        }
      ],
      "name": "setCoinAddress",
      "outputs": [],
      "stateMutability": "nonpayable",
      "type": "function"
    },
    {
      "inputs": [
        {
          "internalType": "bytes32",
          "name": "node",
          "type": "bytes32"
        },
        {
          "internalType": "bytes",
          "name": "_hash",
          "type": "bytes"
        }
      ],
      "name": "setContenthash",
      "outputs": [],
      "stateMutability": "nonpayable",
      "type": "function"
    },
    {
      "inputs": [
        {
          "internalType": "string",
          "name": "_contractURI",
          "type": "string"
        }
      ],
      "name": "setContractURI",
      "outputs": [],
      "stateMutability": "nonpayable",
      "type": "function"
    },
    {
      "inputs": [
        {
          "internalType": "bytes",
          "name": "_content",
          "type": "bytes"
        }
      ],
      "name": "setDefaultContenthash",
      "outputs": [],
      "stateMutability": "nonpayable",
      "type": "function"
    },
    {
      "inputs": [
        {
          "internalType": "address",
          "name": "_resolver",
          "type": "address"
        }
      ],
      "name": "setDefaultResolver",
      "outputs": [],
      "stateMutability": "nonpayable",
      "type": "function"
    },
    {
      "inputs": [
        {
          "internalType": "bytes4",
          "name": "sig",
          "type": "bytes4"
        },
        {
          "internalType": "bool",
          "name": "value",
          "type": "bool"
        }
      ],
      "name": "setInterface",
      "outputs": [],
      "stateMutability": "payable",
      "type": "function"
    },
    {
      "inputs": [
        {
          "internalType": "bytes32",
          "name": "node",
          "type": "bytes32"
        },
        {
          "internalType": "string",
          "name": "_name",
          "type": "string"
        }
      ],
      "name": "setName",
      "outputs": [],
      "stateMutability": "nonpayable",
      "type": "function"
    },
    {
      "inputs": [
        {
          "internalType": "bytes32",
          "name": "node",
          "type": "bytes32"
        },
        {
          "internalType": "bytes32",
          "name": "x",
          "type": "bytes32"
        },
        {
          "internalType": "bytes32",
          "name": "y",
          "type": "bytes32"
        }
      ],
      "name": "setPubkey",
      "outputs": [],
      "stateMutability": "nonpayable",
      "type": "function"
    },
    {
      "inputs": [
        {
          "internalType": "uint256",
          "name": "_royalty",
          "type": "uint256"
        }
      ],
      "name": "setRoyalty",
      "outputs": [],
      "stateMutability": "nonpayable",
      "type": "function"
    },
    {
      "inputs": [
        {
          "internalType": "bytes32",
          "name": "node",
          "type": "bytes32"
        },
        {
          "internalType": "string",
          "name": "key",
          "type": "string"
        },
        {
          "internalType": "string",
          "name": "value",
          "type": "string"
        }
      ],
      "name": "setText",
      "outputs": [],
      "stateMutability": "nonpayable",
      "type": "function"
    },
    {
      "inputs": [
        {
          "internalType": "bytes4",
          "name": "",
          "type": "bytes4"
        }
      ],
      "name": "supportsInterface",
      "outputs": [
        {
          "internalType": "bool",
          "name": "",
          "type": "bool"
        }
      ],
      "stateMutability": "view",
      "type": "function"
    },
    {
      "inputs": [],
      "name": "symbol",
      "outputs": [
        {
          "internalType": "string",
          "name": "",
          "type": "string"
        }
      ],
      "stateMutability": "view",
      "type": "function"
    },
    {
      "inputs": [
        {
          "internalType": "bytes32",
          "name": "node",
          "type": "bytes32"
        },
        {
          "internalType": "string",
          "name": "key",
          "type": "string"
        }
      ],
      "name": "text",
      "outputs": [
        {
          "internalType": "string",
          "name": "value",
          "type": "string"
        }
      ],
      "stateMutability": "view",
      "type": "function"
    },
    {
      "inputs": [],
      "name": "toggleActive",
      "outputs": [],
      "stateMutability": "nonpayable",
      "type": "function"
    },
    {
      "inputs": [
        {
          "internalType": "uint256",
          "name": "id",
          "type": "uint256"
        }
      ],
      "name": "tokenURI",
      "outputs": [
        {
          "internalType": "string",
          "name": "",
          "type": "string"
        }
      ],
      "stateMutability": "view",
      "type": "function"
    },
    {
      "inputs": [],
      "name": "totalSupply",
      "outputs": [
        {
          "internalType": "uint256",
          "name": "",
          "type": "uint256"
        }
      ],
      "stateMutability": "view",
      "type": "function"
    },
    {
      "inputs": [
        {
          "internalType": "address",
          "name": "from",
          "type": "address"
        },
        {
          "internalType": "address",
          "name": "to",
          "type": "address"
        },
        {
          "internalType": "uint256",
          "name": "id",
          "type": "uint256"
        }
      ],
      "name": "transferFrom",
      "outputs": [],
      "stateMutability": "payable",
      "type": "function"
    },
    {
      "inputs": [
        {
          "internalType": "address",
          "name": "newDev",
          "type": "address"
        }
      ],
      "name": "transferOwnership",
      "outputs": [],
      "stateMutability": "nonpayable",
      "type": "function"
    },
    {
      "inputs": [],
      "name": "withdrawEther",
      "outputs": [],
      "stateMutability": "payable",
      "type": "function"
    },
    {
      "inputs": [
        {
          "internalType": "address",
          "name": "token",
          "type": "address"
        }
      ],
      "name": "withdrawToken",
      "outputs": [],
      "stateMutability": "payable",
      "type": "function"
    },
    {
      "stateMutability": "payable",
      "type": "receive"
    }
  ],
  "bytecode": {
    "object": "0x6000805460ff60a01b1916600160a01b179055610100604052601560c09081527f426f726564454e535961636874436c75622e657468000000000000000000000060e05260029062000052908262000452565b5060408051808201909152600681526542454e53594360d01b60208201526003906200007f908262000452565b50662386f26fc10000600655604051806060016040528060358152602001620045bf60359139600790620000b4908262000452565b5060056008556040518060600160405280602e815260200162004591602e9139600990620000e3908262000452565b506064608052348015620000f657600080fd5b50600e60208181527fb890939816505e41127216d3d06629e66cc0c53570cf6b36ab15983bf4fae48c805460ff1990811660019081179092557f9fd67b3e6adc3139ba80c59d96dc044fc0e5dad93473e3ce9e256e3ee6648ffe80548216831790557ff981ee43ed7d41e43a04cecda243b9d230f5a2907423bfab8b8774ab9506e03280548216831790557f64261f180b4e30beacb49f9abd317118a567d9e8298c9f003468468a6cb09e1c80548216831790557f3e76f55ce973a2e4a7831d1d76f54e32a00244f900c7824fed4a69163e15e90b80548216831790556378e5bf0360e11b60009081527f86da393c824aaed634b91d764b465391c51589071e7c100d3e03a43ce41fecd8805483168417905582546001600160a01b031990811633178455815481166e0c2e074ec69a0dfb2997ba6c7d2e1e1782556004805490911630179055604080518086018390527f4f5b812789fc606be1b3b16908db13fc7a9adf7ca72641f84d75b47069d3d7f08183015281518082038301815260608201835280519087012060808201527f7a46b638f71fee598932cc3ef366f2f3dcdae81da0064fba529d5ae43b3ac9c560a08083019190915282518083038201815260c09092019092528051908601209052939092527ff78053c79e0b9aa452e27b1a016da828f8da009fc4e41d10c85bd3a969c7facb80548316821790557f2128e120182d3aad40be1b13f6e6837469325eed442c0118fa5598c7f671c92b80548316821790557fee4d32f332f0a2d0ddc34ffb2ec7a1b8568e915f8f5b625da8ece9305abb079a80548316821790557facee4afab9ecaa8ae5295b11b5f85101d139b31d8872b02073faef8923dbb604805483168217905563152a902d60e11b9092527fe13efcc3391fd06a1796af9f3856980176fe91811e54bc42ace51e572d1d17c8805490911690911790556200051e565b634e487b7160e01b600052604160045260246000fd5b600181811c90821680620003d857607f821691505b602082108103620003f957634e487b7160e01b600052602260045260246000fd5b50919050565b601f8211156200044d57600081815260208120601f850160051c81016020861015620004285750805b601f850160051c820191505b81811015620004495782815560010162000434565b5050505b505050565b81516001600160401b038111156200046e576200046e620003ad565b62000486816200047f8454620003c3565b84620003ff565b602080601f831160018114620004be5760008415620004a55750858301515b600019600386901b1c1916600185901b17855562000449565b600085815260208120601f198616915b82811015620004ef57888601518255948401946001909101908401620004ce565b50858210156200050e5787850151600019600388901b60f8161c191681555b5050505050600190811b01905550565b60805160a05161400e620005836000396000818161076b01528181610e9501528181610f4101528181611f730152818161201f015281816124730152612da40152600081816109a401528181610d8e01528181611daa0152611eb1015261400e6000f3fe6080604052600436106103585760003560e01c80636eada5aa116101bb578063a37f9f99116100f7578063c869023311610095578063d5abeb011161006f578063d5abeb0114610992578063e8a3d485146109c6578063e985e9c5146109db578063f2fde38b14610a1657600080fd5b8063c869023314610909578063c87b56dd14610952578063ca446dd91461097257600080fd5b8063bb8762c8116100d1578063bb8762c814610896578063bc1c58d1146108b6578063c0a43a7c146108d6578063c66485b2146108e957600080fd5b8063a37f9f9914610836578063b0671b7114610863578063b88d4fde1461088357600080fd5b8063875e18f711610164578063938e3d7b1161013e578063938e3d7b146107d957806395d89b41146107f957806398adcbba1461080e578063a22cb4651461082357600080fd5b8063875e18f7146107a057806389476069146107a85780638da5cb5b146107bb57600080fd5b8063773722131161019557806377372213146107395780638315ae65146107595780638467be0d1461078d57600080fd5b80636eada5aa146106d757806370a08231146107045780637362377b1461073157600080fd5b806329cd62ea1161029557806359d1d43c116102335780636817c76c1161020d5780636817c76c1461066c578063691f34311461068257806369be8bb0146106a25780636abbc21f146106b757600080fd5b806359d1d43c1461060c5780635d81d5531461062c5780636352211e1461064c57600080fd5b8063304e6ade1161026f578063304e6ade146105ac5780633b3b57de146105cc5780634209a2e1146105ec57806342842e0e1461050f57600080fd5b806329cd62ea1461053757806329ee566c146105575780632a55205a1461056d57600080fd5b8063095ea7b31161030257806318160ddd116102dc57806318160ddd146104cb5780631d2e2cc4146104ef57806323b872dd1461050f57806329c68dc11461052257600080fd5b8063095ea7b31461048e57806310f13a8c146104a35780631249c58b146104c357600080fd5b806302fb0c5e1161033357806302fb0c5e1461040457806306fdde0314610436578063081812fc1461045857600080fd5b8062b7aff71461036757806301e51ae8146103a457806301ffc9a7146103c457600080fd5b3661036257600080fd5b600080fd5b34801561037357600080fd5b50600454610387906001600160a01b031681565b6040516001600160a01b0390911681526020015b60405180910390f35b3480156103b057600080fd5b50600154610387906001600160a01b031681565b3480156103d057600080fd5b506103f46103df3660046132a9565b600e6020526000908152604090205460ff1681565b604051901515815260200161039b565b34801561041057600080fd5b506000546103f49074010000000000000000000000000000000000000000900460ff1681565b34801561044257600080fd5b5061044b610a36565b60405161039b9190613316565b34801561046457600080fd5b50610387610473366004613329565b600c602052600090815260409020546001600160a01b031681565b6104a161049c366004613357565b610ac8565b005b3480156104af57600080fd5b506104a16104be3660046133c5565b610bb7565b6104a1610d38565b3480156104d757600080fd5b506104e160055481565b60405190815260200161039b565b3480156104fb57600080fd5b50600054610387906001600160a01b031681565b6104a161051d36600461343f565b61101f565b34801561052e57600080fd5b506104a161103f565b34801561054357600080fd5b506104a1610552366004613480565b6110cc565b34801561056357600080fd5b506104e160085481565b34801561057957600080fd5b5061058d6105883660046134ac565b61121f565b604080516001600160a01b03909316835260208301919091520161039b565b3480156105b857600080fd5b506104a16105c7366004613593565b611257565b3480156105d857600080fd5b506103876105e7366004613329565b611393565b3480156105f857600080fd5b506104a1610607366004613329565b6114da565b34801561061857600080fd5b5061044b6106273660046135da565b61151f565b34801561063857600080fd5b506104a1610647366004613626565b6117a6565b34801561065857600080fd5b50610387610667366004613329565b6117f6565b34801561067857600080fd5b506104e160065481565b34801561068e57600080fd5b5061044b61069d366004613329565b611858565b3480156106ae57600080fd5b5061044b611975565b3480156106c357600080fd5b506104a16106d236600461365b565b611a03565b3480156106e357600080fd5b506104e16106f2366004613329565b600f6020526000908152604090205481565b34801561071057600080fd5b506104e161071f3660046136ab565b600a6020526000908152604090205481565b6104a1611b3f565b34801561074557600080fd5b506104a16107543660046135da565b611be8565b34801561076557600080fd5b506104e17f000000000000000000000000000000000000000000000000000000000000000081565b6104a161079b366004613329565b611d54565b6104a1612104565b6104a16107b63660046136ab565b612147565b3480156107c757600080fd5b506001546001600160a01b0316610387565b3480156107e557600080fd5b506104a16107f43660046136c8565b6122f8565b34801561080557600080fd5b5061044b612345565b34801561081a57600080fd5b5061044b612352565b6104a1610831366004613718565b61235f565b34801561084257600080fd5b506104e1610851366004613329565b60106020526000908152604090205481565b34801561086f57600080fd5b5061044b61087e366004613751565b6123e9565b6104a16108913660046137a2565b61241e565b3480156108a257600080fd5b506104e16108b1366004613329565b612430565b3480156108c257600080fd5b5061044b6108d1366004613329565b6124de565b6104a16108e436600461380e565b612616565b3480156108f557600080fd5b506104a16109043660046136ab565b61272a565b34801561091557600080fd5b5061093d610924366004613329565b6014602052600090815260409020805460019091015482565b6040805192835260208301919091520161039b565b34801561095e57600080fd5b5061044b61096d366004613329565b6127a4565b34801561097e57600080fd5b506104a161098d36600461382c565b612818565b34801561099e57600080fd5b506104e17f000000000000000000000000000000000000000000000000000000000000000081565b3480156109d257600080fd5b5061044b61299d565b3480156109e757600080fd5b506103f46109f6366004613851565b600d60209081526000928352604080842090915290825290205460ff1681565b348015610a2257600080fd5b506104a1610a313660046136ab565b6129aa565b606060028054610a459061387f565b80601f0160208091040260200160405190810160405280929190818152602001828054610a719061387f565b8015610abe5780601f10610a9357610100808354040283529160200191610abe565b820191906000526020600020905b815481529060010190602001808311610aa157829003601f168201915b5050505050905090565b6000818152600b60205260409020546001600160a01b03163314610b46576000818152600b6020526040908190205490517f431ef6160000000000000000000000000000000000000000000000000000000081523360048201526001600160a01b039091166024820152604481018290526064015b60405180910390fd5b6000818152600c602052604080822080547fffffffffffffffffffffffff0000000000000000000000000000000000000000166001600160a01b0386169081179091559051839233917f8c5be1e5ebec7d5bd14f71427d1e84f3dd0314c0f7b2291e5b200ac8c7c3b9259190a45050565b6000546040517f02571be30000000000000000000000000000000000000000000000000000000081526004810187905286916001600160a01b0316906302571be390602401602060405180830381865afa158015610c19573d6000803e3d6000fd5b505050506040513d601f19601f82011682018060405250810190610c3d91906138cc565b6001600160a01b0316336001600160a01b031614610c9d5760405162461bcd60e51b815260206004820152601860248201527f5265736f6c7665723a204e4f545f415554484f524953454400000000000000006044820152606401610b3d565b8282601560008981526020019081526020016000208787604051610cc29291906138e9565b90815260200160405180910390209182610cdd929190613947565b508484604051610cee9291906138e9565b6040518091039020867f6eac6078c9cee83ab95cf8524ac3a05038fbf02b43e2853ae34aabb45d2820d48585604051610d28929190613a08565b60405180910390a3505050505050565b60005474010000000000000000000000000000000000000000900460ff16610d8c576040517fab35696f00000000000000000000000000000000000000000000000000000000815260040160405180910390fd5b7f00000000000000000000000000000000000000000000000000000000000000006005541115610de8576040517f49084b9400000000000000000000000000000000000000000000000000000000815260040160405180910390fd5b600654341015610e31576006546040517f8ad0844f0000000000000000000000000000000000000000000000000000000081526004810191909152346024820152604401610b3d565b6005546000610e3f82612a5e565b604051602001610e4f9190613a53565b60408051808303601f1901815290829052805160209091012060008054600480547f5ef2c7f00000000000000000000000000000000000000000000000000000000086527f000000000000000000000000000000000000000000000000000000000000000091860191909152602485018490523360448601526001600160a01b03908116606486015260848501929092529193501690635ef2c7f09060a401600060405180830381600087803b158015610f0857600080fd5b505af1158015610f1c573d6000803e3d6000fd5b5050506000838152600f602090815260408083208590555185935060109291610f72917f000000000000000000000000000000000000000000000000000000000000000091879101918252602082015260400190565b60408051601f19818403018152918152815160209283012083528282019390935290820160009081209390935560058054600190810190915533808552600a83528385208054909201909155858452600b90915281832080547fffffffffffffffffffffffff0000000000000000000000000000000000000000168217905590518492907fddf252ad1be2c89b69c2b068fc378daa952ba7f163c4a11628f55a4df523b3ef908290a45050565b61103a83838360405180602001604052806000815250612b9b565b505050565b6001546001600160a01b0316331461107f576001546040516347522c7b60e11b81526001600160a01b039091166004820152336024820152604401610b3d565b600080547fffffffffffffffffffffff00ffffffffffffffffffffffffffffffffffffffff8116740100000000000000000000000000000000000000009182900460ff1615909102179055565b6000546040517f02571be30000000000000000000000000000000000000000000000000000000081526004810185905284916001600160a01b0316906302571be390602401602060405180830381865afa15801561112e573d6000803e3d6000fd5b505050506040513d601f19601f8201168201806040525081019061115291906138cc565b6001600160a01b0316336001600160a01b0316146111b25760405162461bcd60e51b815260206004820152601860248201527f5265736f6c7665723a204e4f545f415554484f524953454400000000000000006044820152606401610b3d565b60408051808201825284815260208082018581526000888152601483528490209251835551600190920191909155815185815290810184905285917f1d6f5e03d3f63eb58751986629a5439baee5079ff04f345becb66e23eb154e4691015b60405180910390a250505050565b60015460085460009182916001600160a01b0390911690611241606486613acd565b61124b9190613ae1565b915091505b9250929050565b6000546040517f02571be30000000000000000000000000000000000000000000000000000000081526004810184905283916001600160a01b0316906302571be390602401602060405180830381865afa1580156112b9573d6000803e3d6000fd5b505050506040513d601f19601f820116820180604052508101906112dd91906138cc565b6001600160a01b0316336001600160a01b03161461133d5760405162461bcd60e51b815260206004820152601860248201527f5265736f6c7665723a204e4f545f415554484f524953454400000000000000006044820152606401610b3d565b60008381526012602052604090206113558382613b00565b50827fe379c1624ed7e714cc0937528a32359d69d5281337765313dba4e081b72d7578836040516113869190613316565b60405180910390a2505050565b6000818152601360209081526040808320603c8452909152812080548291906113bb9061387f565b80601f01602080910402602001604051908101604052809291908181526020018280546113e79061387f565b80156114345780601f1061140957610100808354040283529160200191611434565b820191906000526020600020905b81548152906001019060200180831161141757829003601f168201915b5050505050905080516000036114d1576000546040517f02571be3000000000000000000000000000000000000000000000000000000008152600481018590526001600160a01b03909116906302571be390602401602060405180830381865afa1580156114a6573d6000803e3d6000fd5b505050506040513d601f19601f820116820180604052508101906114ca91906138cc565b9392505050565b6114ca81613bc0565b6001546001600160a01b0316331461151a576001546040516347522c7b60e11b81526001600160a01b039091166004820152336024820152604401610b3d565b600855565b60606015600085815260200190815260200160002083836040516115449291906138e9565b9081526020016040518091039020805461155d9061387f565b80601f01602080910402602001604051908101604052809291908181526020018280546115899061387f565b80156115d65780601f106115ab576101008083540402835291602001916115d6565b820191906000526020600020905b8154815290600101906020018083116115b957829003601f168201915b5050505050905080516000036114ca576040518060400160405280600681526020017f617661746172000000000000000000000000000000000000000000000000000081525061162590613bc0565b61162f8385613be4565b036116cb5761163d46612a5e565b60045460405160609190911b7fffffffffffffffffffffffffffffffffffffffff00000000000000000000000016602082015261168b90603401604051602081830303815290604052613044565b6000868152601060205260409020546116a390612a5e565b6040516020016116b593929190613c03565b60405160208183030381529060405290506114ca565b6000805260156020526040517fa31547ce6245cdb9ecea19cf8c7eb9f5974025bb4075011409251ae855b30aed9061170690859085906138e9565b9081526020016040518091039020805461171f9061387f565b80601f016020809104026020016040519081016040528092919081815260200182805461174b9061387f565b80156117985780601f1061176d57610100808354040283529160200191611798565b820191906000526020600020905b81548152906001019060200180831161177b57829003601f168201915b505050505090509392505050565b6001546001600160a01b031633146117e6576001546040516347522c7b60e11b81526001600160a01b039091166004820152336024820152604401610b3d565b60116117f28282613b00565b5050565b6000816005548110611837576040517fb7c882eb00000000000000000000000000000000000000000000000000000000815260048101829052602401610b3d565b6000838152600b60205260409020546001600160a01b031691505b50919050565b6000818152601560205260409081902090517f6e616d6500000000000000000000000000000000000000000000000000000000815260609190600401908152602001604051809103902080546118ad9061387f565b80601f01602080910402602001604051908101604052809291908181526020018280546118d99061387f565b80156119265780601f106118fb57610100808354040283529160200191611926565b820191906000526020600020905b81548152906001019060200180831161190957829003601f168201915b5050505050905080516000036119705760008281526010602052604090205461194e90612a5e565b60405160200161195e9190613cc3565b60405160208183030381529060405290505b919050565b601180546119829061387f565b80601f01602080910402602001604051908101604052809291908181526020018280546119ae9061387f565b80156119fb5780601f106119d0576101008083540402835291602001916119fb565b820191906000526020600020905b8154815290600101906020018083116119de57829003601f168201915b505050505081565b6000546040517f02571be30000000000000000000000000000000000000000000000000000000081526004810185905284916001600160a01b0316906302571be390602401602060405180830381865afa158015611a65573d6000803e3d6000fd5b505050506040513d601f19601f82011682018060405250810190611a8991906138cc565b6001600160a01b0316336001600160a01b031614611ae95760405162461bcd60e51b815260206004820152601860248201527f5265736f6c7665723a204e4f545f415554484f524953454400000000000000006044820152606401610b3d565b60008481526013602090815260408083208684529091529020611b0c8382613b00565b50837f265e0af0f280dd65b8e72d0429a0a6c3ad9abcc8f4bf51d08b7ca60396237db88484604051611211929190613d04565b6001546001600160a01b03163314611b7f576001546040516347522c7b60e11b81526001600160a01b039091166004820152336024820152604401610b3d565b60405133904780156108fc02916000818181858888f19350505050611be65760405162461bcd60e51b815260206004820152601360248201527f4554485f5452414e534645525f4641494c4544000000000000000000000000006044820152606401610b3d565b565b6000546040517f02571be30000000000000000000000000000000000000000000000000000000081526004810185905284916001600160a01b0316906302571be390602401602060405180830381865afa158015611c4a573d6000803e3d6000fd5b505050506040513d601f19601f82011682018060405250810190611c6e91906138cc565b6001600160a01b0316336001600160a01b031614611cce5760405162461bcd60e51b815260206004820152601860248201527f5265736f6c7665723a204e4f545f415554484f524953454400000000000000006044820152606401610b3d565b6000848152601560205260409081902081517f6e616d6500000000000000000000000000000000000000000000000000000000815260048101919091529051908190036024019020611d21838583613947565b50837fb7d29e911041e8d9b843369e890bcb72c9388692ba48b65ac54e7214c4c348f78484604051611211929190613a08565b60005474010000000000000000000000000000000000000000900460ff16611da8576040517fab35696f00000000000000000000000000000000000000000000000000000000815260040160405180910390fd5b7f00000000000000000000000000000000000000000000000000000000000000006005541115611e04576040517f49084b9400000000000000000000000000000000000000000000000000000000815260040160405180910390fd5b600c811115611e3f576040517f4d6c426100000000000000000000000000000000000000000000000000000000815260040160405180910390fd5b80600654611e4d9190613ae1565b341015611e9e5780600654611e629190613ae1565b6040517f8ad0844f0000000000000000000000000000000000000000000000000000000081526004810191909152346024820152604401610b3d565b6005546000611ead8383613d1d565b90507f0000000000000000000000000000000000000000000000000000000000000000811115611f09576040517f49084b9400000000000000000000000000000000000000000000000000000000815260040160405180910390fd5b60005b818310156120e757611f1d83612a5e565b604051602001611f2d9190613a53565b60408051808303601f1901815290829052805160209091012060008054600480547f5ef2c7f00000000000000000000000000000000000000000000000000000000086527f000000000000000000000000000000000000000000000000000000000000000091860191909152602485018490523360448601526001600160a01b03908116606486015260848501929092529193501690635ef2c7f09060a401600060405180830381600087803b158015611fe657600080fd5b505af1158015611ffa573d6000803e3d6000fd5b5050506000848152600f602090815260408083208590555186935060109291612050917f000000000000000000000000000000000000000000000000000000000000000091879101918252602082015260400190565b60408051601f198184030181529181528151602092830120835282820193909352908201600090812093909355858352600b905280822080547fffffffffffffffffffffffff0000000000000000000000000000000000000000163390811790915590518592907fddf252ad1be2c89b69c2b068fc378daa952ba7f163c4a11628f55a4df523b3ef908290a4826001019250611f0c565b5060055550336000908152600a6020526040902080549091019055565b6001546001600160a01b03163314612144576001546040516347522c7b60e11b81526001600160a01b039091166004820152336024820152604401610b3d565b33ff5b6001546001600160a01b03163314612187576001546040516347522c7b60e11b81526001600160a01b039091166004820152336024820152604401610b3d565b6001546040517f70a0823100000000000000000000000000000000000000000000000000000000815230600482018190526001600160a01b03848116936323b872dd9391169084906370a0823190602401602060405180830381865afa1580156121f5573d6000803e3d6000fd5b505050506040513d601f19601f820116820180604052508101906122199190613d30565b6040517fffffffff0000000000000000000000000000000000000000000000000000000060e086901b1681526001600160a01b03938416600482015292909116602483015260448201526064016020604051808303816000875af1158015612285573d6000803e3d6000fd5b505050506040513d601f19601f820116820180604052508101906122a99190613d49565b6122f55760405162461bcd60e51b815260206004820152601560248201527f544f4b454e5f5452414e534645525f4641494c454400000000000000000000006044820152606401610b3d565b50565b6001546001600160a01b03163314612338576001546040516347522c7b60e11b81526001600160a01b039091166004820152336024820152604401610b3d565b600761103a828483613947565b600380546119829061387f565b600980546119829061387f565b336000818152600d602090815260408083206001600160a01b0387168085529083529281902080547fffffffffffffffffffffffffffffffffffffffffffffffffffffffffffffff001686151590811790915590519081529192917f17307eab39ab6107e8899845ad3d59bd9653f200f220920489ca2b5937696c31910160405180910390a35050565b60156020908152600092835260409092208151808301840180519281529084019290930191909120915280546119829061387f565b61242a84848484612b9b565b50505050565b6000816005548110612471576040517fb7c882eb00000000000000000000000000000000000000000000000000000000815260048101829052602401610b3d565b7f0000000000000000000000000000000000000000000000000000000000000000600f6000858152602001908152602001600020546040516020016124c0929190918252602082015260400190565b60405160208183030381529060405280519060200120915050919050565b60008181526012602052604090208054606091906124fb9061387f565b80601f01602080910402602001604051908101604052809291908181526020018280546125279061387f565b80156125745780601f1061254957610100808354040283529160200191612574565b820191906000526020600020905b81548152906001019060200180831161255757829003601f168201915b50505050509050805160000361197057601180546125919061387f565b80601f01602080910402602001604051908101604052809291908181526020018280546125bd9061387f565b801561260a5780601f106125df5761010080835404028352916020019161260a565b820191906000526020600020905b8154815290600101906020018083116125ed57829003601f168201915b50505050509050919050565b6001546001600160a01b03163314612656576001546040516347522c7b60e11b81526001600160a01b039091166004820152336024820152604401610b3d565b7fffffffff0000000000000000000000000000000000000000000000000000000080831690036126c85760405162461bcd60e51b815260206004820152601a60248201527f494e56414c49445f494e544552464143455f53454c4543544f520000000000006044820152606401610b3d565b7fffffffff00000000000000000000000000000000000000000000000000000000919091166000908152600e6020526040902080547fffffffffffffffffffffffffffffffffffffffffffffffffffffffffffffff0016911515919091179055565b6001546001600160a01b0316331461276a576001546040516347522c7b60e11b81526001600160a01b039091166004820152336024820152604401610b3d565b600480547fffffffffffffffffffffffff0000000000000000000000000000000000000000166001600160a01b0392909216919091179055565b60608160055481106127e5576040517fb7c882eb00000000000000000000000000000000000000000000000000000000815260048101829052602401610b3d565b60096127f084612a5e565b604051602001612801929190613d66565b604051602081830303815290604052915050919050565b6000546040517f02571be30000000000000000000000000000000000000000000000000000000081526004810184905283916001600160a01b0316906302571be390602401602060405180830381865afa15801561287a573d6000803e3d6000fd5b505050506040513d601f19601f8201168201806040525081019061289e91906138cc565b6001600160a01b0316336001600160a01b0316146128fe5760405162461bcd60e51b815260206004820152601860248201527f5265736f6c7665723a204e4f545f415554484f524953454400000000000000006044820152606401610b3d565b6040517fffffffffffffffffffffffffffffffffffffffff000000000000000000000000606084901b16602082015260340160408051601f19818403018152918152600085815260136020908152828220603c8352905220906129619082613b00565b506040516001600160a01b038316815283907fce9745511e6b32283e684acf17f26ee2c5d221bf65c95e61c3d6fcfa446462d090602001611386565b600780546119829061387f565b6001546001600160a01b031633146129ea576001546040516347522c7b60e11b81526001600160a01b039091166004820152336024820152604401610b3d565b6001546040516001600160a01b038084169216907f8be0079c531659141344cd1fd0a4f28419497f9722a3daafe3b4186f6b6457e090600090a3600180547fffffffffffffffffffffffff0000000000000000000000000000000000000000166001600160a01b0392909216919091179055565b606081600003612aa157505060408051808201909152600181527f3000000000000000000000000000000000000000000000000000000000000000602082015290565b8160005b8115612acb5780612ab581613e86565b9150612ac49050600a83613acd565b9150612aa5565b60008167ffffffffffffffff811115612ae657612ae66134ce565b6040519080825280601f01601f191660200182016040528015612b10576020820181803683370190505b5090505b8415612b9357612b25600183613ea0565b9150612b32600a86613eb3565b612b3d906030613d1d565b60f81b818381518110612b5257612b52613ec7565b60200101907effffffffffffffffffffffffffffffffffffffffffffffffffffffffffffff1916908160001a905350612b8c600a86613acd565b9450612b14565b949350505050565b60005474010000000000000000000000000000000000000000900460ff16612bef576040517fab35696f00000000000000000000000000000000000000000000000000000000815260040160405180910390fd5b6001600160a01b038316612c2f576040517fd92e233d00000000000000000000000000000000000000000000000000000000815260040160405180910390fd5b6000828152600b60205260409020546001600160a01b03858116911614612cad576000828152600b6020526040908190205490517f7af40ae60000000000000000000000000000000000000000000000000000000081526001600160a01b039182166004820152908516602482015260448101839052606401610b3d565b6000828152600b60205260409020546001600160a01b03163314801590612cf857506001600160a01b0384166000908152600d6020908152604080832033845290915290205460ff16155b8015612d1b57506000828152600c60205260409020546001600160a01b03163314155b15612d6a576040517f431ef6160000000000000000000000000000000000000000000000000000000081523360048201526001600160a01b038516602482015260448101839052606401610b3d565b60008054838252600f6020526040918290205491517f06ab59230000000000000000000000000000000000000000000000000000000081527f0000000000000000000000000000000000000000000000000000000000000000600482015260248101929092526001600160a01b03858116604484015216906306ab5923906064016020604051808303816000875af1158015612e0a573d6000803e3d6000fd5b505050506040513d601f19601f82011682018060405250810190612e2e9190613d30565b506001600160a01b038085166000908152600a60209081526040808320805460001901905592861680835283832080546001019055858352600b825283832080547fffffffffffffffffffffffff00000000000000000000000000000000000000009081168317909155600c90925292909120805490911690553b15612ffd576040517f150b7a020000000000000000000000000000000000000000000000000000000081526001600160a01b0384169063150b7a0290612ef9903390889087908790600401613ef6565b6020604051808303816000875af1925050508015612f34575060408051601f3d908101601f19168201909252612f3191810190613f32565b60015b612f75576040517f3a9f8cb30000000000000000000000000000000000000000000000000000000081526001600160a01b0384166004820152602401610b3d565b7fffffffff0000000000000000000000000000000000000000000000000000000081167f150b7a020000000000000000000000000000000000000000000000000000000014612ffb576040517f3a9f8cb30000000000000000000000000000000000000000000000000000000081526001600160a01b0385166004820152602401610b3d565b505b81836001600160a01b0316856001600160a01b03167fddf252ad1be2c89b69c2b068fc378daa952ba7f163c4a11628f55a4df523b3ef60405160405180910390a450505050565b60606000825160026130569190613ae1565b67ffffffffffffffff81111561306e5761306e6134ce565b6040519080825280601f01601f191660200182016040528015613098576020820181803683370190505b5060408051808201909152601081527f3031323334353637383961626364656600000000000000000000000000000000602082015290915060005b8451811015613251578160108683815181106130f1576130f1613ec7565b0160200151613103919060f81c613f4f565b60ff168151811061311657613116613ec7565b01602001517fff000000000000000000000000000000000000000000000000000000000000001683613149836002613ae1565b8151811061315957613159613ec7565b60200101907effffffffffffffffffffffffffffffffffffffffffffffffffffffffffffff1916908160001a90535081601086838151811061319d5761319d613ec7565b01602001516131af919060f81c613f71565b60ff16815181106131c2576131c2613ec7565b01602001517fff0000000000000000000000000000000000000000000000000000000000000016836131f5836002613ae1565b613200906001613d1d565b8151811061321057613210613ec7565b60200101907effffffffffffffffffffffffffffffffffffffffffffffffffffffffffffff1916908160001a9053508061324981613e86565b9150506130d3565b50816040516020016132639190613f93565b60405160208183030381529060405292505050919050565b7fffffffff00000000000000000000000000000000000000000000000000000000811681146122f557600080fd5b6000602082840312156132bb57600080fd5b81356114ca8161327b565b60005b838110156132e15781810151838201526020016132c9565b50506000910152565b600081518084526133028160208601602086016132c6565b601f01601f19169290920160200192915050565b6020815260006114ca60208301846132ea565b60006020828403121561333b57600080fd5b5035919050565b6001600160a01b03811681146122f557600080fd5b6000806040838503121561336a57600080fd5b823561337581613342565b946020939093013593505050565b60008083601f84011261339557600080fd5b50813567ffffffffffffffff8111156133ad57600080fd5b60208301915083602082850101111561125057600080fd5b6000806000806000606086880312156133dd57600080fd5b85359450602086013567ffffffffffffffff808211156133fc57600080fd5b61340889838a01613383565b9096509450604088013591508082111561342157600080fd5b5061342e88828901613383565b969995985093965092949392505050565b60008060006060848603121561345457600080fd5b833561345f81613342565b9250602084013561346f81613342565b929592945050506040919091013590565b60008060006060848603121561349557600080fd5b505081359360208301359350604090920135919050565b600080604083850312156134bf57600080fd5b50508035926020909101359150565b7f4e487b7100000000000000000000000000000000000000000000000000000000600052604160045260246000fd5b600067ffffffffffffffff80841115613518576135186134ce565b604051601f8501601f19908116603f01168101908282118183101715613540576135406134ce565b8160405280935085815286868601111561355957600080fd5b858560208301376000602087830101525050509392505050565b600082601f83011261358457600080fd5b6114ca838335602085016134fd565b600080604083850312156135a657600080fd5b82359150602083013567ffffffffffffffff8111156135c457600080fd5b6135d085828601613573565b9150509250929050565b6000806000604084860312156135ef57600080fd5b83359250602084013567ffffffffffffffff81111561360d57600080fd5b61361986828701613383565b9497909650939450505050565b60006020828403121561363857600080fd5b813567ffffffffffffffff81111561364f57600080fd5b612b9384828501613573565b60008060006060848603121561367057600080fd5b8335925060208401359150604084013567ffffffffffffffff81111561369557600080fd5b6136a186828701613573565b9150509250925092565b6000602082840312156136bd57600080fd5b81356114ca81613342565b600080602083850312156136db57600080fd5b823567ffffffffffffffff8111156136f257600080fd5b6136fe85828601613383565b90969095509350505050565b80151581146122f557600080fd5b6000806040838503121561372b57600080fd5b823561373681613342565b915060208301356137468161370a565b809150509250929050565b6000806040838503121561376457600080fd5b82359150602083013567ffffffffffffffff81111561378257600080fd5b8301601f8101851361379357600080fd5b6135d0858235602084016134fd565b600080600080608085870312156137b857600080fd5b84356137c381613342565b935060208501356137d381613342565b925060408501359150606085013567ffffffffffffffff8111156137f657600080fd5b61380287828801613573565b91505092959194509250565b6000806040838503121561382157600080fd5b82356137368161327b565b6000806040838503121561383f57600080fd5b82359150602083013561374681613342565b6000806040838503121561386457600080fd5b823561386f81613342565b9150602083013561374681613342565b600181811c9082168061389357607f821691505b602082108103611852577f4e487b7100000000000000000000000000000000000000000000000000000000600052602260045260246000fd5b6000602082840312156138de57600080fd5b81516114ca81613342565b8183823760009101908152919050565b601f82111561103a57600081815260208120601f850160051c810160208610156139205750805b601f850160051c820191505b8181101561393f5782815560010161392c565b505050505050565b67ffffffffffffffff83111561395f5761395f6134ce565b6139738361396d835461387f565b836138f9565b6000601f8411600181146139a7576000851561398f5750838201355b600019600387901b1c1916600186901b178355613a01565b600083815260209020601f19861690835b828110156139d857868501358255602094850194600190920191016139b8565b50868210156139f55760001960f88860031b161c19848701351681555b505060018560011b0183555b5050505050565b60208152816020820152818360408301376000818301604090810191909152601f909201601f19160101919050565b60008151613a498185602086016132c6565b9290920192915050565b60008251613a658184602087016132c6565b9190910192915050565b7f4e487b7100000000000000000000000000000000000000000000000000000000600052601260045260246000fd5b7f4e487b7100000000000000000000000000000000000000000000000000000000600052601160045260246000fd5b600082613adc57613adc613a6f565b500490565b6000816000190483118215151615613afb57613afb613a9e565b500290565b815167ffffffffffffffff811115613b1a57613b1a6134ce565b613b2e81613b28845461387f565b846138f9565b602080601f831160018114613b635760008415613b4b5750858301515b600019600386901b1c1916600185901b17855561393f565b600085815260208120601f198616915b82811015613b9257888601518255948401946001909101908401613b73565b5085821015613bb05787850151600019600388901b60f8161c191681555b5050505050600190811b01905550565b805160208083015191908110156118525760001960209190910360031b1b16919050565b80356020831015613bfd57600019602084900360031b1b165b92915050565b7f6569703135353a00000000000000000000000000000000000000000000000000815260008451613c3b8160078501602089016132c6565b7f2f6572633732313a0000000000000000000000000000000000000000000000006007918401918201528451613c7881600f8401602089016132c6565b7f2f00000000000000000000000000000000000000000000000000000000000000600f92909101918201528351613cb68160108401602088016132c6565b0160100195945050505050565b60008251613cd58184602087016132c6565b7f2e42454e5359432e455448000000000000000000000000000000000000000000920191825250600b01919050565b828152604060208201526000612b9360408301846132ea565b80820180821115613bfd57613bfd613a9e565b600060208284031215613d4257600080fd5b5051919050565b600060208284031215613d5b57600080fd5b81516114ca8161370a565b7f697066733a2f2f0000000000000000000000000000000000000000000000000081526000600760008554613d9a8161387f565b60018281168015613db25760018114613de957613e1c565b7fffffffffffffffffffffffffffffffffffffffffffffffffffffffffffffff008416868901528583151584028901019450613e1c565b8960005260208060002060005b85811015613e115781548b82018a0152908401908201613df6565b505050858389010194505b507f2f000000000000000000000000000000000000000000000000000000000000008452613e4c81850189613a37565b945050505050613e7b817f2e6a736f6e0000000000000000000000000000000000000000000000000000009052565b600501949350505050565b60006000198203613e9957613e99613a9e565b5060010190565b81810381811115613bfd57613bfd613a9e565b600082613ec257613ec2613a6f565b500690565b7f4e487b7100000000000000000000000000000000000000000000000000000000600052603260045260246000fd5b60006001600160a01b03808716835280861660208401525083604083015260806060830152613f2860808301846132ea565b9695505050505050565b600060208284031215613f4457600080fd5b81516114ca8161327b565b600060ff831680613f6257613f62613a6f565b8060ff84160491505092915050565b600060ff831680613f8457613f84613a6f565b8060ff84160691505092915050565b7f3078000000000000000000000000000000000000000000000000000000000000815260008251613fcb8160028501602087016132c6565b919091016002019291505056fea264697066735822122084e8a317d7f6788e2b05a8b1ef4cec9242c5bbb8434b2520cf41829b9d49e52d64736f6c63430008100033516d65657365797666637833557236357937617756527977774176425242445364735832474b67795578676e4a50697066733a2f2f516d5659745074394c4732776a7a41736f734b74356335313832746d717756666333764e4a317468704e514a5239",
    "linkReferences": {}
  },
  "methodIdentifiers": {
    "DESTROY()": "875e18f7",
    "DefaultContenthash()": "69be8bb0",
    "DefaultResolver()": "00b7aff7",
    "Dev()": "01e51ae8",
    "DomainHash()": "8315ae65",
    "ENS()": "1d2e2cc4",
    "ID2Labelhash(uint256)": "6eada5aa",
    "ID2Namehash(uint256)": "bb8762c8",
    "Namehash2ID(bytes32)": "a37f9f99",
    "_text(bytes32,string)": "b0671b71",
    "active()": "02fb0c5e",
    "addr(bytes32)": "3b3b57de",
    "approve(address,uint256)": "095ea7b3",
    "balanceOf(address)": "70a08231",
    "batchMint(uint256)": "8467be0d",
    "contenthash(bytes32)": "bc1c58d1",
    "contractURI()": "e8a3d485",
    "getApproved(uint256)": "081812fc",
    "isApprovedForAll(address,address)": "e985e9c5",
    "maxSupply()": "d5abeb01",
    "metaIPFS()": "98adcbba",
    "mint()": "1249c58b",
    "mintPrice()": "6817c76c",
    "name()": "06fdde03",
    "name(bytes32)": "691f3431",
    "owner()": "8da5cb5b",
    "ownerOf(uint256)": "6352211e",
    "pubkey(bytes32)": "c8690233",
    "royalty()": "29ee566c",
    "royaltyInfo(uint256,uint256)": "2a55205a",
    "safeTransferFrom(address,address,uint256)": "42842e0e",
    "safeTransferFrom(address,address,uint256,bytes)": "b88d4fde",
    "setAddress(bytes32,address)": "ca446dd9",
    "setApprovalForAll(address,bool)": "a22cb465",
    "setCoinAddress(bytes32,uint256,bytes)": "6abbc21f",
    "setContenthash(bytes32,bytes)": "304e6ade",
    "setContractURI(string)": "938e3d7b",
    "setDefaultContenthash(bytes)": "5d81d553",
    "setDefaultResolver(address)": "c66485b2",
    "setInterface(bytes4,bool)": "c0a43a7c",
    "setName(bytes32,string)": "77372213",
    "setPubkey(bytes32,bytes32,bytes32)": "29cd62ea",
    "setRoyalty(uint256)": "4209a2e1",
    "setText(bytes32,string,string)": "10f13a8c",
    "supportsInterface(bytes4)": "01ffc9a7",
    "symbol()": "95d89b41",
    "text(bytes32,string)": "59d1d43c",
    "toggleActive()": "29c68dc1",
    "tokenURI(uint256)": "c87b56dd",
    "totalSupply()": "18160ddd",
    "transferFrom(address,address,uint256)": "23b872dd",
    "transferOwnership(address)": "f2fde38b",
    "withdrawEther()": "7362377b",
    "withdrawToken(address)": "89476069"
  },
  "id": 7
}