{
  "abi": [
    {
      "inputs": [
        {
          "internalType": "uint256",
          "name": "_maxSupply",
          "type": "uint256"
        }
      ],
      "stateMutability": "nonpayable",
      "type": "constructor"
    },
    {
      "inputs": [],
      "name": "ContractPaused",
      "type": "error"
    },
    {
      "inputs": [
        {
          "internalType": "address",
          "name": "addr",
          "type": "address"
        }
      ],
      "name": "ERC721IncompatibleReceiver",
      "type": "error"
    },
    {
      "inputs": [
        {
          "internalType": "uint256",
          "name": "id",
          "type": "uint256"
        }
      ],
      "name": "InvalidTokenID",
      "type": "error"
    },
    {
      "inputs": [],
      "name": "NotAllowed",
      "type": "error"
    },
    {
      "inputs": [
        {
          "internalType": "address",
          "name": "operator",
          "type": "address"
        },
        {
          "internalType": "address",
          "name": "owner",
          "type": "address"
        },
        {
          "internalType": "uint256",
          "name": "id",
          "type": "uint256"
        }
      ],
      "name": "NotAuthorized",
      "type": "error"
    },
    {
      "inputs": [
        {
          "internalType": "uint256",
          "name": "size",
          "type": "uint256"
        },
        {
          "internalType": "uint256",
          "name": "yourSize",
          "type": "uint256"
        }
      ],
      "name": "NotEnough",
      "type": "error"
    },
    {
      "inputs": [
        {
          "internalType": "address",
          "name": "owner",
          "type": "address"
        },
        {
          "internalType": "address",
          "name": "from",
          "type": "address"
        },
        {
          "internalType": "uint256",
          "name": "id",
          "type": "uint256"
        }
      ],
      "name": "NotOwner",
      "type": "error"
    },
    {
      "inputs": [],
      "name": "NotSubdomainOwner",
      "type": "error"
    },
    {
      "inputs": [
        {
          "internalType": "address",
          "name": "_dev",
          "type": "address"
        },
        {
          "internalType": "address",
          "name": "_you",
          "type": "address"
        }
      ],
      "name": "OnlyDev",
      "type": "error"
    },
    {
      "inputs": [],
      "name": "TheEndOfMint",
      "type": "error"
    },
    {
      "inputs": [],
      "name": "TransferToSelf",
      "type": "error"
    },
    {
      "inputs": [],
      "name": "ZeroAddress",
      "type": "error"
    },
    {
      "anonymous": false,
      "inputs": [
        {
          "indexed": true,
          "internalType": "bytes32",
          "name": "node",
          "type": "bytes32"
        },
        {
          "indexed": false,
          "internalType": "address",
          "name": "a",
          "type": "address"
        }
      ],
      "name": "AddrChanged",
      "type": "event"
    },
    {
      "anonymous": false,
      "inputs": [
        {
          "indexed": true,
          "internalType": "bytes32",
          "name": "node",
          "type": "bytes32"
        },
        {
          "indexed": false,
          "internalType": "uint256",
          "name": "coinType",
          "type": "uint256"
        },
        {
          "indexed": false,
          "internalType": "bytes",
          "name": "newAddress",
          "type": "bytes"
        }
      ],
      "name": "AddressChanged",
      "type": "event"
    },
    {
      "anonymous": false,
      "inputs": [
        {
          "indexed": true,
          "internalType": "address",
          "name": "_owner",
          "type": "address"
        },
        {
          "indexed": true,
          "internalType": "address",
          "name": "approved",
          "type": "address"
        },
        {
          "indexed": true,
          "internalType": "uint256",
          "name": "id",
          "type": "uint256"
        }
      ],
      "name": "Approval",
      "type": "event"
    },
    {
      "anonymous": false,
      "inputs": [
        {
          "indexed": true,
          "internalType": "address",
          "name": "_owner",
          "type": "address"
        },
        {
          "indexed": true,
          "internalType": "address",
          "name": "operator",
          "type": "address"
        },
        {
          "indexed": false,
          "internalType": "bool",
          "name": "approved",
          "type": "bool"
        }
      ],
      "name": "ApprovalForAll",
      "type": "event"
    },
    {
      "anonymous": false,
      "inputs": [
        {
          "indexed": true,
          "internalType": "bytes32",
          "name": "node",
          "type": "bytes32"
        },
        {
          "indexed": false,
          "internalType": "bytes",
          "name": "_contenthash",
          "type": "bytes"
        }
      ],
      "name": "ContenthashChanged",
      "type": "event"
    },
    {
      "anonymous": false,
      "inputs": [
        {
          "indexed": true,
          "internalType": "bytes32",
          "name": "node",
          "type": "bytes32"
        },
        {
          "indexed": false,
          "internalType": "string",
          "name": "name",
          "type": "string"
        }
      ],
      "name": "NameChanged",
      "type": "event"
    },
    {
      "anonymous": false,
      "inputs": [
        {
          "indexed": true,
          "internalType": "address",
          "name": "previousOwner",
          "type": "address"
        },
        {
          "indexed": true,
          "internalType": "address",
          "name": "newOwner",
          "type": "address"
        }
      ],
      "name": "OwnershipTransferred",
      "type": "event"
    },
    {
      "anonymous": false,
      "inputs": [
        {
          "indexed": true,
          "internalType": "bytes32",
          "name": "node",
          "type": "bytes32"
        },
        {
          "indexed": false,
          "internalType": "bytes32",
          "name": "x",
          "type": "bytes32"
        },
        {
          "indexed": false,
          "internalType": "bytes32",
          "name": "y",
          "type": "bytes32"
        }
      ],
      "name": "PubkeyChanged",
      "type": "event"
    },
    {
      "anonymous": false,
      "inputs": [
        {
          "indexed": true,
          "internalType": "bytes32",
          "name": "node",
          "type": "bytes32"
        },
        {
          "indexed": true,
          "internalType": "string",
          "name": "key",
          "type": "string"
        },
        {
          "indexed": false,
          "internalType": "string",
          "name": "value",
          "type": "string"
        }
      ],
      "name": "TextChanged",
      "type": "event"
    },
    {
      "anonymous": false,
      "inputs": [
        {
          "indexed": true,
          "internalType": "address",
          "name": "from",
          "type": "address"
        },
        {
          "indexed": true,
          "internalType": "address",
          "name": "to",
          "type": "address"
        },
        {
          "indexed": true,
          "internalType": "uint256",
          "name": "id",
          "type": "uint256"
        }
      ],
      "name": "Transfer",
      "type": "event"
    },
    {
      "stateMutability": "payable",
      "type": "fallback"
    },
    {
      "inputs": [],
      "name": "DESTROY",
      "outputs": [],
      "stateMutability": "payable",
      "type": "function"
    },
    {
      "inputs": [],
      "name": "DefaultContenthash",
      "outputs": [
        {
          "internalType": "bytes",
          "name": "",
          "type": "bytes"
        }
      ],
      "stateMutability": "view",
      "type": "function"
    },
    {
      "inputs": [],
      "name": "DefaultResolver",
      "outputs": [
        {
          "internalType": "address",
          "name": "",
          "type": "address"
        }
      ],
      "stateMutability": "view",
      "type": "function"
    },
    {
      "inputs": [],
      "name": "Dev",
      "outputs": [
        {
          "internalType": "address",
          "name": "",
          "type": "address"
        }
      ],
      "stateMutability": "view",
      "type": "function"
    },
    {
      "inputs": [],
      "name": "DomainHash",
      "outputs": [
        {
          "internalType": "bytes32",
          "name": "",
          "type": "bytes32"
        }
      ],
      "stateMutability": "view",
      "type": "function"
    },
    {
      "inputs": [],
      "name": "ENS",
      "outputs": [
        {
          "internalType": "contract iENS",
          "name": "",
          "type": "address"
        }
      ],
      "stateMutability": "view",
      "type": "function"
    },
    {
      "inputs": [
        {
          "internalType": "uint256",
          "name": "",
          "type": "uint256"
        }
      ],
      "name": "ID2Labelhash",
      "outputs": [
        {
          "internalType": "bytes32",
          "name": "",
          "type": "bytes32"
        }
      ],
      "stateMutability": "view",
      "type": "function"
    },
    {
      "inputs": [
        {
          "internalType": "uint256",
          "name": "id",
          "type": "uint256"
        }
      ],
      "name": "ID2Namehash",
      "outputs": [
        {
          "internalType": "bytes32",
          "name": "",
          "type": "bytes32"
        }
      ],
      "stateMutability": "view",
      "type": "function"
    },
    {
      "inputs": [],
      "name": "NFTData",
      "outputs": [
        {
          "internalType": "string",
          "name": "",
          "type": "string"
        }
      ],
      "stateMutability": "view",
      "type": "function"
    },
    {
      "inputs": [
        {
          "internalType": "bytes32",
          "name": "",
          "type": "bytes32"
        }
      ],
      "name": "Namehash2ID",
      "outputs": [
        {
          "internalType": "uint256",
          "name": "",
          "type": "uint256"
        }
      ],
      "stateMutability": "view",
      "type": "function"
    },
    {
      "inputs": [
        {
          "internalType": "bytes32",
          "name": "",
          "type": "bytes32"
        },
        {
          "internalType": "string",
          "name": "",
          "type": "string"
        }
      ],
      "name": "_text",
      "outputs": [
        {
          "internalType": "string",
          "name": "",
          "type": "string"
        }
      ],
      "stateMutability": "view",
      "type": "function"
    },
    {
      "inputs": [],
      "name": "active",
      "outputs": [
        {
          "internalType": "bool",
          "name": "",
          "type": "bool"
        }
      ],
      "stateMutability": "view",
      "type": "function"
    },
    {
      "inputs": [
        {
          "internalType": "bytes32",
          "name": "node",
          "type": "bytes32"
        }
      ],
      "name": "addr",
      "outputs": [
        {
          "internalType": "address payable",
          "name": "",
          "type": "address"
        }
      ],
      "stateMutability": "view",
      "type": "function"
    },
    {
      "inputs": [
        {
          "internalType": "bytes32",
          "name": "node",
          "type": "bytes32"
        },
        {
          "internalType": "uint256",
          "name": "coinType",
          "type": "uint256"
        }
      ],
      "name": "addr",
      "outputs": [
        {
          "internalType": "bytes",
          "name": "_addr",
          "type": "bytes"
        }
      ],
      "stateMutability": "view",
      "type": "function"
    },
    {
      "inputs": [
        {
          "internalType": "address",
          "name": "approved",
          "type": "address"
        },
        {
          "internalType": "uint256",
          "name": "id",
          "type": "uint256"
        }
      ],
      "name": "approve",
      "outputs": [],
      "stateMutability": "payable",
      "type": "function"
    },
    {
      "inputs": [
        {
          "internalType": "address",
          "name": "",
          "type": "address"
        }
      ],
      "name": "balanceOf",
      "outputs": [
        {
          "internalType": "uint256",
          "name": "",
          "type": "uint256"
        }
      ],
      "stateMutability": "view",
      "type": "function"
    },
    {
      "inputs": [
        {
          "internalType": "uint256",
          "name": "num",
          "type": "uint256"
        }
      ],
      "name": "batchMint",
      "outputs": [],
      "stateMutability": "payable",
      "type": "function"
    },
    {
      "inputs": [
        {
          "internalType": "bytes32",
          "name": "node",
          "type": "bytes32"
        }
      ],
      "name": "contenthash",
      "outputs": [
        {
          "internalType": "bytes",
          "name": "_hash",
          "type": "bytes"
        }
      ],
      "stateMutability": "view",
      "type": "function"
    },
    {
      "inputs": [],
      "name": "contractURI",
      "outputs": [
        {
          "internalType": "string",
          "name": "",
          "type": "string"
        }
      ],
      "stateMutability": "view",
      "type": "function"
    },
    {
      "inputs": [
        {
          "internalType": "uint256",
          "name": "",
          "type": "uint256"
        }
      ],
      "name": "getApproved",
      "outputs": [
        {
          "internalType": "address",
          "name": "",
          "type": "address"
        }
      ],
      "stateMutability": "view",
      "type": "function"
    },
    {
      "inputs": [
        {
          "internalType": "address",
          "name": "",
          "type": "address"
        },
        {
          "internalType": "address",
          "name": "",
          "type": "address"
        }
      ],
      "name": "isApprovedForAll",
      "outputs": [
        {
          "internalType": "bool",
          "name": "",
          "type": "bool"
        }
      ],
      "stateMutability": "view",
      "type": "function"
    },
    {
      "inputs": [],
      "name": "maxSupply",
      "outputs": [
        {
          "internalType": "uint256",
          "name": "",
          "type": "uint256"
        }
      ],
      "stateMutability": "view",
      "type": "function"
    },
    {
      "inputs": [],
      "name": "mint",
      "outputs": [],
      "stateMutability": "payable",
      "type": "function"
    },
    {
      "inputs": [],
      "name": "mintingPrice",
      "outputs": [
        {
          "internalType": "uint256",
          "name": "",
          "type": "uint256"
        }
      ],
      "stateMutability": "view",
      "type": "function"
    },
    {
      "inputs": [],
      "name": "name",
      "outputs": [
        {
          "internalType": "string",
          "name": "",
          "type": "string"
        }
      ],
      "stateMutability": "view",
      "type": "function"
    },
    {
      "inputs": [
        {
          "internalType": "bytes32",
          "name": "node",
          "type": "bytes32"
        }
      ],
      "name": "name",
      "outputs": [
        {
          "internalType": "string",
          "name": "_name",
          "type": "string"
        }
      ],
      "stateMutability": "view",
      "type": "function"
    },
    {
      "inputs": [],
      "name": "owner",
      "outputs": [
        {
          "internalType": "address",
          "name": "",
          "type": "address"
        }
      ],
      "stateMutability": "view",
      "type": "function"
    },
    {
      "inputs": [
        {
          "internalType": "uint256",
          "name": "id",
          "type": "uint256"
        }
      ],
      "name": "ownerOf",
      "outputs": [
        {
          "internalType": "address",
          "name": "",
          "type": "address"
        }
      ],
      "stateMutability": "view",
      "type": "function"
    },
    {
      "inputs": [
        {
          "internalType": "bytes32",
          "name": "",
          "type": "bytes32"
        }
      ],
      "name": "pubkey",
      "outputs": [
        {
          "internalType": "bytes32",
          "name": "x",
          "type": "bytes32"
        },
        {
          "internalType": "bytes32",
          "name": "y",
          "type": "bytes32"
        }
      ],
      "stateMutability": "view",
      "type": "function"
    },
    {
      "inputs": [],
      "name": "royalty",
      "outputs": [
        {
          "internalType": "uint256",
          "name": "",
          "type": "uint256"
        }
      ],
      "stateMutability": "view",
      "type": "function"
    },
    {
      "inputs": [
        {
          "internalType": "uint256",
          "name": "id",
          "type": "uint256"
        },
        {
          "internalType": "uint256",
          "name": "_salePrice",
          "type": "uint256"
        }
      ],
      "name": "royaltyInfo",
      "outputs": [
        {
          "internalType": "address",
          "name": "",
          "type": "address"
        },
        {
          "internalType": "uint256",
          "name": "",
          "type": "uint256"
        }
      ],
      "stateMutability": "view",
      "type": "function"
    },
    {
      "inputs": [
        {
          "internalType": "address",
          "name": "from",
          "type": "address"
        },
        {
          "internalType": "address",
          "name": "to",
          "type": "address"
        },
        {
          "internalType": "uint256",
          "name": "id",
          "type": "uint256"
        }
      ],
      "name": "safeTransferFrom",
      "outputs": [],
      "stateMutability": "payable",
      "type": "function"
    },
    {
      "inputs": [
        {
          "internalType": "address",
          "name": "from",
          "type": "address"
        },
        {
          "internalType": "address",
          "name": "to",
          "type": "address"
        },
        {
          "internalType": "uint256",
          "name": "id",
          "type": "uint256"
        },
        {
          "internalType": "bytes",
          "name": "data",
          "type": "bytes"
        }
      ],
      "name": "safeTransferFrom",
      "outputs": [],
      "stateMutability": "payable",
      "type": "function"
    },
    {
      "inputs": [
        {
          "internalType": "bytes32",
          "name": "node",
          "type": "bytes32"
        },
        {
          "internalType": "uint256",
          "name": "coinType",
          "type": "uint256"
        },
        {
          "internalType": "bytes",
          "name": "_addr",
          "type": "bytes"
        }
      ],
      "name": "setAddr",
      "outputs": [],
      "stateMutability": "nonpayable",
      "type": "function"
    },
    {
      "inputs": [
        {
          "internalType": "bytes32",
          "name": "node",
          "type": "bytes32"
        },
        {
          "internalType": "address",
          "name": "_addr",
          "type": "address"
        }
      ],
      "name": "setAddr",
      "outputs": [],
      "stateMutability": "nonpayable",
      "type": "function"
    },
    {
      "inputs": [
        {
          "internalType": "address",
          "name": "operator",
          "type": "address"
        },
        {
          "internalType": "bool",
          "name": "approved",
          "type": "bool"
        }
      ],
      "name": "setApprovalForAll",
      "outputs": [],
      "stateMutability": "payable",
      "type": "function"
    },
    {
      "inputs": [
        {
          "internalType": "bytes32",
          "name": "node",
          "type": "bytes32"
        },
        {
          "internalType": "bytes",
          "name": "_hash",
          "type": "bytes"
        }
      ],
      "name": "setContenthash",
      "outputs": [],
      "stateMutability": "nonpayable",
      "type": "function"
    },
    {
      "inputs": [
        {
          "internalType": "string",
          "name": "_contractURI",
          "type": "string"
        }
      ],
      "name": "setContractURI",
      "outputs": [],
      "stateMutability": "nonpayable",
      "type": "function"
    },
    {
      "inputs": [
        {
          "internalType": "bytes",
          "name": "_content",
          "type": "bytes"
        }
      ],
      "name": "setDefaultContenthash",
      "outputs": [],
      "stateMutability": "nonpayable",
      "type": "function"
    },
    {
      "inputs": [
        {
          "internalType": "address",
          "name": "_resolver",
          "type": "address"
        }
      ],
      "name": "setDefaultResolver",
      "outputs": [],
      "stateMutability": "nonpayable",
      "type": "function"
    },
    {
      "inputs": [
        {
          "internalType": "bytes4",
          "name": "sig",
          "type": "bytes4"
        },
        {
          "internalType": "bool",
          "name": "value",
          "type": "bool"
        }
      ],
      "name": "setInterface",
      "outputs": [],
      "stateMutability": "payable",
      "type": "function"
    },
    {
      "inputs": [
        {
          "internalType": "bytes32",
          "name": "node",
          "type": "bytes32"
        },
        {
          "internalType": "string",
          "name": "_name",
          "type": "string"
        }
      ],
      "name": "setName",
      "outputs": [],
      "stateMutability": "nonpayable",
      "type": "function"
    },
    {
      "inputs": [
        {
          "internalType": "bytes32",
          "name": "node",
          "type": "bytes32"
        },
        {
          "internalType": "bytes32",
          "name": "x",
          "type": "bytes32"
        },
        {
          "internalType": "bytes32",
          "name": "y",
          "type": "bytes32"
        }
      ],
      "name": "setPubkey",
      "outputs": [],
      "stateMutability": "nonpayable",
      "type": "function"
    },
    {
      "inputs": [
        {
          "internalType": "uint256",
          "name": "_royalty",
          "type": "uint256"
        }
      ],
      "name": "setRoyalty",
      "outputs": [],
      "stateMutability": "nonpayable",
      "type": "function"
    },
    {
      "inputs": [
        {
          "internalType": "bytes32",
          "name": "node",
          "type": "bytes32"
        },
        {
          "internalType": "string",
          "name": "key",
          "type": "string"
        },
        {
          "internalType": "string",
          "name": "value",
          "type": "string"
        }
      ],
      "name": "setText",
      "outputs": [],
      "stateMutability": "nonpayable",
      "type": "function"
    },
    {
      "inputs": [
        {
          "internalType": "bytes4",
          "name": "",
          "type": "bytes4"
        }
      ],
      "name": "supportsInterface",
      "outputs": [
        {
          "internalType": "bool",
          "name": "",
          "type": "bool"
        }
      ],
      "stateMutability": "view",
      "type": "function"
    },
    {
      "inputs": [],
      "name": "symbol",
      "outputs": [
        {
          "internalType": "string",
          "name": "",
          "type": "string"
        }
      ],
      "stateMutability": "view",
      "type": "function"
    },
    {
      "inputs": [
        {
          "internalType": "bytes32",
          "name": "node",
          "type": "bytes32"
        },
        {
          "internalType": "string",
          "name": "key",
          "type": "string"
        }
      ],
      "name": "text",
      "outputs": [
        {
          "internalType": "string",
          "name": "value",
          "type": "string"
        }
      ],
      "stateMutability": "view",
      "type": "function"
    },
    {
      "inputs": [],
      "name": "toggleActive",
      "outputs": [],
      "stateMutability": "nonpayable",
      "type": "function"
    },
    {
      "inputs": [
        {
          "internalType": "uint256",
          "name": "id",
          "type": "uint256"
        }
      ],
      "name": "tokenURI",
      "outputs": [
        {
          "internalType": "string",
          "name": "",
          "type": "string"
        }
      ],
      "stateMutability": "view",
      "type": "function"
    },
    {
      "inputs": [],
      "name": "totalSupply",
      "outputs": [
        {
          "internalType": "uint256",
          "name": "",
          "type": "uint256"
        }
      ],
      "stateMutability": "view",
      "type": "function"
    },
    {
      "inputs": [
        {
          "internalType": "address",
          "name": "from",
          "type": "address"
        },
        {
          "internalType": "address",
          "name": "to",
          "type": "address"
        },
        {
          "internalType": "uint256",
          "name": "id",
          "type": "uint256"
        }
      ],
      "name": "transferFrom",
      "outputs": [],
      "stateMutability": "payable",
      "type": "function"
    },
    {
      "inputs": [
        {
          "internalType": "address",
          "name": "newDev",
          "type": "address"
        }
      ],
      "name": "transferOwnership",
      "outputs": [],
      "stateMutability": "nonpayable",
      "type": "function"
    },
    {
      "inputs": [],
      "name": "withdrawETH",
      "outputs": [],
      "stateMutability": "payable",
      "type": "function"
    },
    {
      "inputs": [
        {
          "internalType": "address",
          "name": "token",
          "type": "address"
        }
      ],
      "name": "withdrawToken",
      "outputs": [],
      "stateMutability": "payable",
      "type": "function"
    },
    {
      "stateMutability": "payable",
      "type": "receive"
    }
  ],
  "bytecode": {
    "object": "0x6000805460ff60a01b1916600160a01b179055610100604052601560c09081527f426f726564454e535961636874436c75622e657468000000000000000000000060e0526002906200005290826200047a565b5060408051808201909152600681526542454e53594360d01b60208201526003906200007f90826200047a565b50604051806060016040528060358152602001620046ee60359139600790620000a990826200047a565b5060036008556040518060600160405280602e815260200162004723602e9139600990620000d890826200047a565b50348015620000e657600080fd5b506040516200475138038062004751833981016040819052620001099162000546565b600e60208181527fb890939816505e41127216d3d06629e66cc0c53570cf6b36ab15983bf4fae48c805460ff1990811660019081179092557f9fd67b3e6adc3139ba80c59d96dc044fc0e5dad93473e3ce9e256e3ee6648ffe80548216831790557ff981ee43ed7d41e43a04cecda243b9d230f5a2907423bfab8b8774ab9506e03280548216831790557f64261f180b4e30beacb49f9abd317118a567d9e8298c9f003468468a6cb09e1c80548216831790557f3e76f55ce973a2e4a7831d1d76f54e32a00244f900c7824fed4a69163e15e90b80548216831790556378e5bf0360e11b60009081527f86da393c824aaed634b91d764b465391c51589071e7c100d3e03a43ce41fecd8805483168417905582546001600160a01b031990811633178455815481166e0c2e074ec69a0dfb2997ba6c7d2e1e17825560048054909116301790556080958652662386f26fc10000600655604080518086018390527f4f5b812789fc606be1b3b16908db13fc7a9adf7ca72641f84d75b47069d3d7f081830152815180820383018152606082018352805190870120978101979097527f7a46b638f71fee598932cc3ef366f2f3dcdae81da0064fba529d5ae43b3ac9c560a08089019190915281518089038201815260c0909801909152865196850196909620909552929091527ff78053c79e0b9aa452e27b1a016da828f8da009fc4e41d10c85bd3a969c7facb80548316821790557f2128e120182d3aad40be1b13f6e6837469325eed442c0118fa5598c7f671c92b80548316821790557fee4d32f332f0a2d0ddc34ffb2ec7a1b8568e915f8f5b625da8ece9305abb079a80548316821790557facee4afab9ecaa8ae5295b11b5f85101d139b31d8872b02073faef8923dbb604805483168217905563152a902d60e11b9092527fe13efcc3391fd06a1796af9f3856980176fe91811e54bc42ace51e572d1d17c88054909116909117905562000560565b634e487b7160e01b600052604160045260246000fd5b600181811c908216806200040057607f821691505b6020821081036200042157634e487b7160e01b600052602260045260246000fd5b50919050565b601f8211156200047557600081815260208120601f850160051c81016020861015620004505750805b601f850160051c820191505b8181101562000471578281556001016200045c565b5050505b505050565b81516001600160401b03811115620004965762000496620003d5565b620004ae81620004a78454620003eb565b8462000427565b602080601f831160018114620004e65760008415620004cd5750858301515b600019600386901b1c1916600185901b17855562000471565b600085815260208120601f198616915b828110156200051757888601518255948401946001909101908401620004f6565b5085821015620005365787850151600019600388901b60f8161c191681555b5050505050600190811b01905550565b6000602082840312156200055957600080fd5b5051919050565b60805160a051614130620005be600039600081816107bd01528181610f1a01528181610fc601528181611d8901528181611e35015281816123b80152612eb60152600081816109e101528181610e130152611cc701526141306000f3fe6080604052600436106103635760003560e01c80636eada5aa116101c6578063b88d4fde116100f7578063d5abeb0111610095578063e8a3d4851161006f578063e8a3d48514610a2b578063e985e9c514610a40578063f1cb7e0614610a7b578063f2fde38b14610a9b5761039a565b8063d5abeb01146109cf578063d5fa2b0014610a03578063e086e5ec14610a235761039a565b8063c0a43a7c116100d1578063c0a43a7c14610933578063c66485b214610946578063c869023314610966578063c87b56dd146109af5761039a565b8063b88d4fde146108e0578063bb8762c8146108f3578063bc1c58d1146109135761039a565b80638b95dd711161016457806395d89b411161013e57806395d89b411461086b578063a22cb46514610880578063a37f9f9914610893578063b0671b71146108c05761039a565b80638b95dd711461080d5780638da5cb5b1461082d578063938e3d7b1461084b5761039a565b80638315ae65116101a05780638315ae65146107ab5780638467be0d146107df578063875e18f7146107f257806389476069146107fa5761039a565b80636eada5aa1461073157806370a082311461075e578063773722131461078b5761039a565b806329cd62ea116102a057806342842e0e1161023e5780635dc6ddce116102185780635dc6ddce146106c75780636352211e146106dc578063691f3431146106fc57806369be8bb01461071c5761039a565b806342842e0e1461057457806359d1d43c146106875780635d81d553146106a75761039a565b8063304e6ade1161027a578063304e6ade1461061157806335db70b5146106315780633b3b57de146106475780634209a2e1146106675761039a565b806329cd62ea1461059c57806329ee566c146105bc5780632a55205a146105d25761039a565b8063095ea7b31161030d57806318160ddd116102e757806318160ddd146105305780631d2e2cc41461055457806323b872dd1461057457806329c68dc1146105875761039a565b8063095ea7b3146104f357806310f13a8c146105085780631249c58b146105285761039a565b806302fb0c5e1161033e57806302fb0c5e1461046957806306fdde031461049b578063081812fc146104bd5761039a565b8062b7aff7146103cc57806301e51ae81461040957806301ffc9a7146104295761039a565b3661039a576040517f3d693ada00000000000000000000000000000000000000000000000000000000815260040160405180910390fd5b6040517f3d693ada00000000000000000000000000000000000000000000000000000000815260040160405180910390fd5b3480156103d857600080fd5b506004546103ec906001600160a01b031681565b6040516001600160a01b0390911681526020015b60405180910390f35b34801561041557600080fd5b506001546103ec906001600160a01b031681565b34801561043557600080fd5b506104596104443660046133bb565b600e6020526000908152604090205460ff1681565b6040519015158152602001610400565b34801561047557600080fd5b506000546104599074010000000000000000000000000000000000000000900460ff1681565b3480156104a757600080fd5b506104b0610abb565b6040516104009190613430565b3480156104c957600080fd5b506103ec6104d8366004613443565b600c602052600090815260409020546001600160a01b031681565b610506610501366004613471565b610b4d565b005b34801561051457600080fd5b506105066105233660046134df565b610c3c565b610506610dbd565b34801561053c57600080fd5b5061054660055481565b604051908152602001610400565b34801561056057600080fd5b506000546103ec906001600160a01b031681565b610506610582366004613559565b6110a4565b34801561059357600080fd5b506105066110c4565b3480156105a857600080fd5b506105066105b736600461359a565b611151565b3480156105c857600080fd5b5061054660085481565b3480156105de57600080fd5b506105f26105ed3660046135c6565b6112a4565b604080516001600160a01b039093168352602083019190915201610400565b34801561061d57600080fd5b5061050661062c3660046136ad565b6112dc565b34801561063d57600080fd5b5061054660065481565b34801561065357600080fd5b506103ec610662366004613443565b611418565b34801561067357600080fd5b50610506610682366004613443565b61155f565b34801561069357600080fd5b506104b06106a23660046136f4565b6115a4565b3480156106b357600080fd5b506105066106c2366004613740565b61182b565b3480156106d357600080fd5b506104b061187b565b3480156106e857600080fd5b506103ec6106f7366004613443565b611909565b34801561070857600080fd5b506104b0610717366004613443565b61196b565b34801561072857600080fd5b506104b0611a88565b34801561073d57600080fd5b5061054661074c366004613443565b600f6020526000908152604090205481565b34801561076a57600080fd5b50610546610779366004613775565b600a6020526000908152604090205481565b34801561079757600080fd5b506105066107a63660046136f4565b611a95565b3480156107b757600080fd5b506105467f000000000000000000000000000000000000000000000000000000000000000081565b6105066107ed366004613443565b611c01565b610506611f1a565b610506610808366004613775565b611f5d565b34801561081957600080fd5b50610506610828366004613792565b61210e565b34801561083957600080fd5b506001546001600160a01b03166103ec565b34801561085757600080fd5b506105066108663660046137e2565b61224a565b34801561087757600080fd5b506104b0612297565b61050661088e366004613832565b6122a4565b34801561089f57600080fd5b506105466108ae366004613443565b60106020526000908152604090205481565b3480156108cc57600080fd5b506104b06108db36600461386b565b61232e565b6105066108ee3660046138bc565b612363565b3480156108ff57600080fd5b5061054661090e366004613443565b612375565b34801561091f57600080fd5b506104b061092e366004613443565b612423565b610506610941366004613928565b61255b565b34801561095257600080fd5b50610506610961366004613775565b61266f565b34801561097257600080fd5b5061099a610981366004613443565b6014602052600090815260409020805460019091015482565b60408051928352602083019190915201610400565b3480156109bb57600080fd5b506104b06109ca366004613443565b6126e9565b3480156109db57600080fd5b506105467f000000000000000000000000000000000000000000000000000000000000000081565b348015610a0f57600080fd5b50610506610a1e366004613946565b61275d565b6105066128e2565b348015610a3757600080fd5b506104b061298b565b348015610a4c57600080fd5b50610459610a5b36600461396b565b600d60209081526000928352604080842090915290825290205460ff1681565b348015610a8757600080fd5b506104b0610a963660046135c6565b612998565b348015610aa757600080fd5b50610506610ab6366004613775565b612abc565b606060028054610aca90613999565b80601f0160208091040260200160405190810160405280929190818152602001828054610af690613999565b8015610b435780601f10610b1857610100808354040283529160200191610b43565b820191906000526020600020905b815481529060010190602001808311610b2657829003601f168201915b5050505050905090565b6000818152600b60205260409020546001600160a01b03163314610bcb576000818152600b6020526040908190205490517f575935b80000000000000000000000000000000000000000000000000000000081523360048201526001600160a01b039091166024820152604481018290526064015b60405180910390fd5b6000818152600c602052604080822080547fffffffffffffffffffffffff0000000000000000000000000000000000000000166001600160a01b0386169081179091559051839233917f8c5be1e5ebec7d5bd14f71427d1e84f3dd0314c0f7b2291e5b200ac8c7c3b9259190a45050565b6000546040517f02571be30000000000000000000000000000000000000000000000000000000081526004810187905286916001600160a01b0316906302571be390602401602060405180830381865afa158015610c9e573d6000803e3d6000fd5b505050506040513d601f19601f82011682018060405250810190610cc291906139e6565b6001600160a01b0316336001600160a01b031614610d225760405162461bcd60e51b815260206004820152601760248201527f5265736f6c7665723a4e6f745f417574686f72697365640000000000000000006044820152606401610bc2565b8282601560008981526020019081526020016000208787604051610d47929190613a03565b90815260200160405180910390209182610d62929190613a61565b508484604051610d73929190613a03565b6040518091039020867fd8c9334b1a9c2f9da342a0a2b32629c1a229b6445dad78947f674b44444a75508585604051610dad929190613b22565b60405180910390a3505050505050565b60005474010000000000000000000000000000000000000000900460ff16610e11576040517fab35696f00000000000000000000000000000000000000000000000000000000815260040160405180910390fd5b7f00000000000000000000000000000000000000000000000000000000000000006005541115610e6d576040517f266138f200000000000000000000000000000000000000000000000000000000815260040160405180910390fd5b600654341015610eb6576006546040517f8b29af590000000000000000000000000000000000000000000000000000000081526004810191909152346024820152604401610bc2565b6005546000610ec482612b70565b604051602001610ed49190613b6d565b60408051808303601f1901815290829052805160209091012060008054600480547f5ef2c7f00000000000000000000000000000000000000000000000000000000086527f000000000000000000000000000000000000000000000000000000000000000091860191909152602485018490523360448601526001600160a01b03908116606486015260848501929092529193501690635ef2c7f09060a401600060405180830381600087803b158015610f8d57600080fd5b505af1158015610fa1573d6000803e3d6000fd5b5050506000838152600f602090815260408083208590555185935060109291610ff7917f000000000000000000000000000000000000000000000000000000000000000091879101918252602082015260400190565b60408051601f19818403018152918152815160209283012083528282019390935290820160009081209390935560058054600190810190915533808552600a83528385208054909201909155858452600b90915281832080547fffffffffffffffffffffffff0000000000000000000000000000000000000000168217905590518492907fddf252ad1be2c89b69c2b068fc378daa952ba7f163c4a11628f55a4df523b3ef908290a45050565b6110bf83838360405180602001604052806000815250612cad565b505050565b6001546001600160a01b03163314611104576001546040516347522c7b60e11b81526001600160a01b039091166004820152336024820152604401610bc2565b600080547fffffffffffffffffffffff00ffffffffffffffffffffffffffffffffffffffff8116740100000000000000000000000000000000000000009182900460ff1615909102179055565b6000546040517f02571be30000000000000000000000000000000000000000000000000000000081526004810185905284916001600160a01b0316906302571be390602401602060405180830381865afa1580156111b3573d6000803e3d6000fd5b505050506040513d601f19601f820116820180604052508101906111d791906139e6565b6001600160a01b0316336001600160a01b0316146112375760405162461bcd60e51b815260206004820152601760248201527f5265736f6c7665723a4e6f745f417574686f72697365640000000000000000006044820152606401610bc2565b60408051808201825284815260208082018581526000888152601483528490209251835551600190920191909155815185815290810184905285917f1d6f5e03d3f63eb58751986629a5439baee5079ff04f345becb66e23eb154e4691015b60405180910390a250505050565b60015460085460009182916001600160a01b03909116906112c6606486613be7565b6112d09190613bfb565b915091505b9250929050565b6000546040517f02571be30000000000000000000000000000000000000000000000000000000081526004810184905283916001600160a01b0316906302571be390602401602060405180830381865afa15801561133e573d6000803e3d6000fd5b505050506040513d601f19601f8201168201806040525081019061136291906139e6565b6001600160a01b0316336001600160a01b0316146113c25760405162461bcd60e51b815260206004820152601760248201527f5265736f6c7665723a4e6f745f417574686f72697365640000000000000000006044820152606401610bc2565b60008381526012602052604090206113da8382613c1a565b50827fe379c1624ed7e714cc0937528a32359d69d5281337765313dba4e081b72d75788360405161140b9190613430565b60405180910390a2505050565b6000818152601360209081526040808320603c84529091528120805482919061144090613999565b80601f016020809104026020016040519081016040528092919081815260200182805461146c90613999565b80156114b95780601f1061148e576101008083540402835291602001916114b9565b820191906000526020600020905b81548152906001019060200180831161149c57829003601f168201915b505050505090508051600003611556576000546040517f02571be3000000000000000000000000000000000000000000000000000000008152600481018590526001600160a01b03909116906302571be390602401602060405180830381865afa15801561152b573d6000803e3d6000fd5b505050506040513d601f19601f8201168201806040525081019061154f91906139e6565b9392505050565b61154f81613cda565b6001546001600160a01b0316331461159f576001546040516347522c7b60e11b81526001600160a01b039091166004820152336024820152604401610bc2565b600855565b60606015600085815260200190815260200160002083836040516115c9929190613a03565b908152602001604051809103902080546115e290613999565b80601f016020809104026020016040519081016040528092919081815260200182805461160e90613999565b801561165b5780601f106116305761010080835404028352916020019161165b565b820191906000526020600020905b81548152906001019060200180831161163e57829003601f168201915b50505050509050805160000361154f576040518060400160405280600681526020017f61766174617200000000000000000000000000000000000000000000000000008152506116aa90613cda565b6116b48385613cfe565b03611750576116c246612b70565b60045460405160609190911b7fffffffffffffffffffffffffffffffffffffffff00000000000000000000000016602082015261171090603401604051602081830303815290604052613156565b60008681526010602052604090205461172890612b70565b60405160200161173a93929190613d1c565b604051602081830303815290604052905061154f565b6000805260156020526040517fa31547ce6245cdb9ecea19cf8c7eb9f5974025bb4075011409251ae855b30aed9061178b9085908590613a03565b908152602001604051809103902080546117a490613999565b80601f01602080910402602001604051908101604052809291908181526020018280546117d090613999565b801561181d5780601f106117f25761010080835404028352916020019161181d565b820191906000526020600020905b81548152906001019060200180831161180057829003601f168201915b505050505090509392505050565b6001546001600160a01b0316331461186b576001546040516347522c7b60e11b81526001600160a01b039091166004820152336024820152604401610bc2565b60116118778282613c1a565b5050565b6009805461188890613999565b80601f01602080910402602001604051908101604052809291908181526020018280546118b490613999565b80156119015780601f106118d657610100808354040283529160200191611901565b820191906000526020600020905b8154815290600101906020018083116118e457829003601f168201915b505050505081565b600081600554811061194a576040517fb7c882eb00000000000000000000000000000000000000000000000000000000815260048101829052602401610bc2565b6000838152600b60205260409020546001600160a01b031691505b50919050565b6000818152601560205260409081902090517f6e616d6500000000000000000000000000000000000000000000000000000000815260609190600401908152602001604051809103902080546119c090613999565b80601f01602080910402602001604051908101604052809291908181526020018280546119ec90613999565b8015611a395780601f10611a0e57610100808354040283529160200191611a39565b820191906000526020600020905b815481529060010190602001808311611a1c57829003601f168201915b505050505090508051600003611a8357600082815260106020526040902054611a6190612b70565b604051602001611a719190613ddc565b60405160208183030381529060405290505b919050565b6011805461188890613999565b6000546040517f02571be30000000000000000000000000000000000000000000000000000000081526004810185905284916001600160a01b0316906302571be390602401602060405180830381865afa158015611af7573d6000803e3d6000fd5b505050506040513d601f19601f82011682018060405250810190611b1b91906139e6565b6001600160a01b0316336001600160a01b031614611b7b5760405162461bcd60e51b815260206004820152601760248201527f5265736f6c7665723a4e6f745f417574686f72697365640000000000000000006044820152606401610bc2565b6000848152601560205260409081902081517f6e616d6500000000000000000000000000000000000000000000000000000000815260048101919091529051908190036024019020611bce838583613a61565b50837fb7d29e911041e8d9b843369e890bcb72c9388692ba48b65ac54e7214c4c348f78484604051611296929190613b22565b60005474010000000000000000000000000000000000000000900460ff16611c55576040517fab35696f00000000000000000000000000000000000000000000000000000000815260040160405180910390fd5b80600654611c639190613bfb565b341015611cb45780600654611c789190613bfb565b6040517f8b29af590000000000000000000000000000000000000000000000000000000081526004810191909152346024820152604401610bc2565b6005546000611cc38383613e1d565b90507f0000000000000000000000000000000000000000000000000000000000000000811115611d1f576040517f266138f200000000000000000000000000000000000000000000000000000000815260040160405180910390fd5b60005b81831015611efd57611d3383612b70565b604051602001611d439190613b6d565b60408051808303601f1901815290829052805160209091012060008054600480547f5ef2c7f00000000000000000000000000000000000000000000000000000000086527f000000000000000000000000000000000000000000000000000000000000000091860191909152602485018490523360448601526001600160a01b03908116606486015260848501929092529193501690635ef2c7f09060a401600060405180830381600087803b158015611dfc57600080fd5b505af1158015611e10573d6000803e3d6000fd5b5050506000848152600f602090815260408083208590555186935060109291611e66917f000000000000000000000000000000000000000000000000000000000000000091879101918252602082015260400190565b60408051601f198184030181529181528151602092830120835282820193909352908201600090812093909355858352600b905280822080547fffffffffffffffffffffffff0000000000000000000000000000000000000000163390811790915590518592907fddf252ad1be2c89b69c2b068fc378daa952ba7f163c4a11628f55a4df523b3ef908290a4826001019250611d22565b5060055550336000908152600a6020526040902080549091019055565b6001546001600160a01b03163314611f5a576001546040516347522c7b60e11b81526001600160a01b039091166004820152336024820152604401610bc2565b33ff5b6001546001600160a01b03163314611f9d576001546040516347522c7b60e11b81526001600160a01b039091166004820152336024820152604401610bc2565b6001546040517f70a0823100000000000000000000000000000000000000000000000000000000815230600482018190526001600160a01b03848116936323b872dd9391169084906370a0823190602401602060405180830381865afa15801561200b573d6000803e3d6000fd5b505050506040513d601f19601f8201168201806040525081019061202f9190613e35565b6040517fffffffff0000000000000000000000000000000000000000000000000000000060e086901b1681526001600160a01b03938416600482015292909116602483015260448201526064016020604051808303816000875af115801561209b573d6000803e3d6000fd5b505050506040513d601f19601f820116820180604052508101906120bf9190613e4e565b61210b5760405162461bcd60e51b815260206004820152601560248201527f544f4b454e5f5452414e534645525f4641494c454400000000000000000000006044820152606401610bc2565b50565b6000546040517f02571be30000000000000000000000000000000000000000000000000000000081526004810185905284916001600160a01b0316906302571be390602401602060405180830381865afa158015612170573d6000803e3d6000fd5b505050506040513d601f19601f8201168201806040525081019061219491906139e6565b6001600160a01b0316336001600160a01b0316146121f45760405162461bcd60e51b815260206004820152601760248201527f5265736f6c7665723a4e6f745f417574686f72697365640000000000000000006044820152606401610bc2565b600084815260136020908152604080832086845290915290206122178382613c1a565b50837f65412581168e88a1e60c6459d7f44ae83ad0832e670826c05a4e2476b57af7528484604051611296929190613e6b565b6001546001600160a01b0316331461228a576001546040516347522c7b60e11b81526001600160a01b039091166004820152336024820152604401610bc2565b60076110bf828483613a61565b6003805461188890613999565b336000818152600d602090815260408083206001600160a01b0387168085529083529281902080547fffffffffffffffffffffffffffffffffffffffffffffffffffffffffffffff001686151590811790915590519081529192917f17307eab39ab6107e8899845ad3d59bd9653f200f220920489ca2b5937696c31910160405180910390a35050565b601560209081526000928352604090922081518083018401805192815290840192909301919091209152805461188890613999565b61236f84848484612cad565b50505050565b60008160055481106123b6576040517fb7c882eb00000000000000000000000000000000000000000000000000000000815260048101829052602401610bc2565b7f0000000000000000000000000000000000000000000000000000000000000000600f600085815260200190815260200160002054604051602001612405929190918252602082015260400190565b60405160208183030381529060405280519060200120915050919050565b600081815260126020526040902080546060919061244090613999565b80601f016020809104026020016040519081016040528092919081815260200182805461246c90613999565b80156124b95780601f1061248e576101008083540402835291602001916124b9565b820191906000526020600020905b81548152906001019060200180831161249c57829003601f168201915b505050505090508051600003611a8357601180546124d690613999565b80601f016020809104026020016040519081016040528092919081815260200182805461250290613999565b801561254f5780601f106125245761010080835404028352916020019161254f565b820191906000526020600020905b81548152906001019060200180831161253257829003601f168201915b50505050509050919050565b6001546001600160a01b0316331461259b576001546040516347522c7b60e11b81526001600160a01b039091166004820152336024820152604401610bc2565b7fffffffff00000000000000000000000000000000000000000000000000000000808316900361260d5760405162461bcd60e51b815260206004820152601a60248201527f494e56414c49445f494e544552464143455f53454c4543544f520000000000006044820152606401610bc2565b7fffffffff00000000000000000000000000000000000000000000000000000000919091166000908152600e6020526040902080547fffffffffffffffffffffffffffffffffffffffffffffffffffffffffffffff0016911515919091179055565b6001546001600160a01b031633146126af576001546040516347522c7b60e11b81526001600160a01b039091166004820152336024820152604401610bc2565b600480547fffffffffffffffffffffffff0000000000000000000000000000000000000000166001600160a01b0392909216919091179055565b606081600554811061272a576040517fb7c882eb00000000000000000000000000000000000000000000000000000000815260048101829052602401610bc2565b600961273584612b70565b604051602001612746929190613e84565b604051602081830303815290604052915050919050565b6000546040517f02571be30000000000000000000000000000000000000000000000000000000081526004810184905283916001600160a01b0316906302571be390602401602060405180830381865afa1580156127bf573d6000803e3d6000fd5b505050506040513d601f19601f820116820180604052508101906127e391906139e6565b6001600160a01b0316336001600160a01b0316146128435760405162461bcd60e51b815260206004820152601760248201527f5265736f6c7665723a4e6f745f417574686f72697365640000000000000000006044820152606401610bc2565b6040517fffffffffffffffffffffffffffffffffffffffff000000000000000000000000606084901b16602082015260340160408051601f19818403018152918152600085815260136020908152828220603c8352905220906128a69082613c1a565b506040516001600160a01b038316815283907f52d7d861f09ab3d26239d492e8968629f95e9e318cf0b73bfddc441522a15fd29060200161140b565b6001546001600160a01b03163314612922576001546040516347522c7b60e11b81526001600160a01b039091166004820152336024820152604401610bc2565b60405133904780156108fc02916000818181858888f193505050506129895760405162461bcd60e51b815260206004820152601360248201527f4554485f5452414e534645525f4641494c4544000000000000000000000000006044820152606401610bc2565b565b6007805461188890613999565b600082815260136020908152604080832084845290915290208054606091906129c090613999565b80601f01602080910402602001604051908101604052809291908181526020018280546129ec90613999565b8015612a395780601f10612a0e57610100808354040283529160200191612a39565b820191906000526020600020905b815481529060010190602001808311612a1c57829003601f168201915b5050505050905080516000148015612a51575081603c145b15612ab6576000838152601060209081526040808320548352600b82529182902054915160609290921b7fffffffffffffffffffffffffffffffffffffffff000000000000000000000000169082015260340160405160208183030381529060405290505b92915050565b6001546001600160a01b03163314612afc576001546040516347522c7b60e11b81526001600160a01b039091166004820152336024820152604401610bc2565b6001546040516001600160a01b038084169216907f8be0079c531659141344cd1fd0a4f28419497f9722a3daafe3b4186f6b6457e090600090a3600180547fffffffffffffffffffffffff0000000000000000000000000000000000000000166001600160a01b0392909216919091179055565b606081600003612bb357505060408051808201909152600181527f3000000000000000000000000000000000000000000000000000000000000000602082015290565b8160005b8115612bdd5780612bc781613fa4565b9150612bd69050600a83613be7565b9150612bb7565b60008167ffffffffffffffff811115612bf857612bf86135e8565b6040519080825280601f01601f191660200182016040528015612c22576020820181803683370190505b5090505b8415612ca557612c37600183613fbe565b9150612c44600a86613fd5565b612c4f906030613e1d565b60f81b818381518110612c6457612c64613fe9565b60200101907effffffffffffffffffffffffffffffffffffffffffffffffffffffffffffff1916908160001a905350612c9e600a86613be7565b9450612c26565b949350505050565b60005474010000000000000000000000000000000000000000900460ff16612d01576040517fab35696f00000000000000000000000000000000000000000000000000000000815260040160405180910390fd5b6001600160a01b038316612d41576040517fd92e233d00000000000000000000000000000000000000000000000000000000815260040160405180910390fd5b6000828152600b60205260409020546001600160a01b03858116911614612dbf576000828152600b6020526040908190205490517f61d5c4fe0000000000000000000000000000000000000000000000000000000081526001600160a01b039182166004820152908516602482015260448101839052606401610bc2565b6000828152600b60205260409020546001600160a01b03163314801590612e0a57506001600160a01b0384166000908152600d6020908152604080832033845290915290205460ff16155b8015612e2d57506000828152600c60205260409020546001600160a01b03163314155b15612e7c576040517f575935b80000000000000000000000000000000000000000000000000000000081523360048201526001600160a01b038516602482015260448101839052606401610bc2565b60008054838252600f6020526040918290205491517f06ab59230000000000000000000000000000000000000000000000000000000081527f0000000000000000000000000000000000000000000000000000000000000000600482015260248101929092526001600160a01b03858116604484015216906306ab5923906064016020604051808303816000875af1158015612f1c573d6000803e3d6000fd5b505050506040513d601f19601f82011682018060405250810190612f409190613e35565b506001600160a01b038085166000908152600a60209081526040808320805460001901905592861680835283832080546001019055858352600b825283832080547fffffffffffffffffffffffff00000000000000000000000000000000000000009081168317909155600c90925292909120805490911690553b1561310f576040517f150b7a020000000000000000000000000000000000000000000000000000000081526001600160a01b0384169063150b7a029061300b903390889087908790600401614018565b6020604051808303816000875af1925050508015613046575060408051601f3d908101601f1916820190925261304391810190614054565b60015b613087576040517f3a9f8cb30000000000000000000000000000000000000000000000000000000081526001600160a01b0384166004820152602401610bc2565b7fffffffff0000000000000000000000000000000000000000000000000000000081167f150b7a02000000000000000000000000000000000000000000000000000000001461310d576040517f3a9f8cb30000000000000000000000000000000000000000000000000000000081526001600160a01b0385166004820152602401610bc2565b505b81836001600160a01b0316856001600160a01b03167fddf252ad1be2c89b69c2b068fc378daa952ba7f163c4a11628f55a4df523b3ef60405160405180910390a450505050565b60606000825160026131689190613bfb565b67ffffffffffffffff811115613180576131806135e8565b6040519080825280601f01601f1916602001820160405280156131aa576020820181803683370190505b5060408051808201909152601081527f3031323334353637383961626364656600000000000000000000000000000000602082015290915060005b84518110156133635781601086838151811061320357613203613fe9565b0160200151613215919060f81c614071565b60ff168151811061322857613228613fe9565b01602001517fff00000000000000000000000000000000000000000000000000000000000000168361325b836002613bfb565b8151811061326b5761326b613fe9565b60200101907effffffffffffffffffffffffffffffffffffffffffffffffffffffffffffff1916908160001a9053508160108683815181106132af576132af613fe9565b01602001516132c1919060f81c614093565b60ff16815181106132d4576132d4613fe9565b01602001517fff000000000000000000000000000000000000000000000000000000000000001683613307836002613bfb565b613312906001613e1d565b8151811061332257613322613fe9565b60200101907effffffffffffffffffffffffffffffffffffffffffffffffffffffffffffff1916908160001a9053508061335b81613fa4565b9150506131e5565b508160405160200161337591906140b5565b60405160208183030381529060405292505050919050565b7fffffffff000000000000000000000000000000000000000000000000000000008116811461210b57600080fd5b6000602082840312156133cd57600080fd5b813561154f8161338d565b60005b838110156133f35781810151838201526020016133db565b8381111561236f5750506000910152565b6000815180845261341c8160208601602086016133d8565b601f01601f19169290920160200192915050565b60208152600061154f6020830184613404565b60006020828403121561345557600080fd5b5035919050565b6001600160a01b038116811461210b57600080fd5b6000806040838503121561348457600080fd5b823561348f8161345c565b946020939093013593505050565b60008083601f8401126134af57600080fd5b50813567ffffffffffffffff8111156134c757600080fd5b6020830191508360208285010111156112d557600080fd5b6000806000806000606086880312156134f757600080fd5b85359450602086013567ffffffffffffffff8082111561351657600080fd5b61352289838a0161349d565b9096509450604088013591508082111561353b57600080fd5b506135488882890161349d565b969995985093965092949392505050565b60008060006060848603121561356e57600080fd5b83356135798161345c565b925060208401356135898161345c565b929592945050506040919091013590565b6000806000606084860312156135af57600080fd5b505081359360208301359350604090920135919050565b600080604083850312156135d957600080fd5b50508035926020909101359150565b7f4e487b7100000000000000000000000000000000000000000000000000000000600052604160045260246000fd5b600067ffffffffffffffff80841115613632576136326135e8565b604051601f8501601f19908116603f0116810190828211818310171561365a5761365a6135e8565b8160405280935085815286868601111561367357600080fd5b858560208301376000602087830101525050509392505050565b600082601f83011261369e57600080fd5b61154f83833560208501613617565b600080604083850312156136c057600080fd5b82359150602083013567ffffffffffffffff8111156136de57600080fd5b6136ea8582860161368d565b9150509250929050565b60008060006040848603121561370957600080fd5b83359250602084013567ffffffffffffffff81111561372757600080fd5b6137338682870161349d565b9497909650939450505050565b60006020828403121561375257600080fd5b813567ffffffffffffffff81111561376957600080fd5b612ca58482850161368d565b60006020828403121561378757600080fd5b813561154f8161345c565b6000806000606084860312156137a757600080fd5b8335925060208401359150604084013567ffffffffffffffff8111156137cc57600080fd5b6137d88682870161368d565b9150509250925092565b600080602083850312156137f557600080fd5b823567ffffffffffffffff81111561380c57600080fd5b6138188582860161349d565b90969095509350505050565b801515811461210b57600080fd5b6000806040838503121561384557600080fd5b82356138508161345c565b9150602083013561386081613824565b809150509250929050565b6000806040838503121561387e57600080fd5b82359150602083013567ffffffffffffffff81111561389c57600080fd5b8301601f810185136138ad57600080fd5b6136ea85823560208401613617565b600080600080608085870312156138d257600080fd5b84356138dd8161345c565b935060208501356138ed8161345c565b925060408501359150606085013567ffffffffffffffff81111561391057600080fd5b61391c8782880161368d565b91505092959194509250565b6000806040838503121561393b57600080fd5b82356138508161338d565b6000806040838503121561395957600080fd5b8235915060208301356138608161345c565b6000806040838503121561397e57600080fd5b82356139898161345c565b915060208301356138608161345c565b600181811c908216806139ad57607f821691505b602082108103611965577f4e487b7100000000000000000000000000000000000000000000000000000000600052602260045260246000fd5b6000602082840312156139f857600080fd5b815161154f8161345c565b8183823760009101908152919050565b601f8211156110bf57600081815260208120601f850160051c81016020861015613a3a5750805b601f850160051c820191505b81811015613a5957828155600101613a46565b505050505050565b67ffffffffffffffff831115613a7957613a796135e8565b613a8d83613a878354613999565b83613a13565b6000601f841160018114613ac15760008515613aa95750838201355b600019600387901b1c1916600186901b178355613b1b565b600083815260209020601f19861690835b82811015613af25786850135825560209485019460019092019101613ad2565b5086821015613b0f5760001960f88860031b161c19848701351681555b505060018560011b0183555b5050505050565b60208152816020820152818360408301376000818301604090810191909152601f909201601f19160101919050565b60008151613b638185602086016133d8565b9290920192915050565b60008251613b7f8184602087016133d8565b9190910192915050565b7f4e487b7100000000000000000000000000000000000000000000000000000000600052601260045260246000fd5b7f4e487b7100000000000000000000000000000000000000000000000000000000600052601160045260246000fd5b600082613bf657613bf6613b89565b500490565b6000816000190483118215151615613c1557613c15613bb8565b500290565b815167ffffffffffffffff811115613c3457613c346135e8565b613c4881613c428454613999565b84613a13565b602080601f831160018114613c7d5760008415613c655750858301515b600019600386901b1c1916600185901b178555613a59565b600085815260208120601f198616915b82811015613cac57888601518255948401946001909101908401613c8d565b5085821015613cca5787850151600019600388901b60f8161c191681555b5050505050600190811b01905550565b805160208083015191908110156119655760001960209190910360031b1b16919050565b80356020831015612ab657600019602084900360031b1b1692915050565b7f6569703135353a00000000000000000000000000000000000000000000000000815260008451613d548160078501602089016133d8565b7f2f6572633732313a0000000000000000000000000000000000000000000000006007918401918201528451613d9181600f8401602089016133d8565b7f2f00000000000000000000000000000000000000000000000000000000000000600f92909101918201528351613dcf8160108401602088016133d8565b0160100195945050505050565b60008251613dee8184602087016133d8565b7f2e42454e5359432e455448000000000000000000000000000000000000000000920191825250600b01919050565b60008219821115613e3057613e30613bb8565b500190565b600060208284031215613e4757600080fd5b5051919050565b600060208284031215613e6057600080fd5b815161154f81613824565b828152604060208201526000612ca56040830184613404565b7f697066733a2f2f0000000000000000000000000000000000000000000000000081526000600760008554613eb881613999565b60018281168015613ed05760018114613f0757613f3a565b7fffffffffffffffffffffffffffffffffffffffffffffffffffffffffffffff008416868901528583151584028901019450613f3a565b8960005260208060002060005b85811015613f2f5781548b82018a0152908401908201613f14565b505050858389010194505b507f2f000000000000000000000000000000000000000000000000000000000000008452613f6a81850189613b51565b945050505050613f99817f2e6a736f6e0000000000000000000000000000000000000000000000000000009052565b600501949350505050565b60006000198203613fb757613fb7613bb8565b5060010190565b600082821015613fd057613fd0613bb8565b500390565b600082613fe457613fe4613b89565b500690565b7f4e487b7100000000000000000000000000000000000000000000000000000000600052603260045260246000fd5b60006001600160a01b0380871683528086166020840152508360408301526080606083015261404a6080830184613404565b9695505050505050565b60006020828403121561406657600080fd5b815161154f8161338d565b600060ff83168061408457614084613b89565b8060ff84160491505092915050565b600060ff8316806140a6576140a6613b89565b8060ff84160691505092915050565b7f30780000000000000000000000000000000000000000000000000000000000008152600082516140ed8160028501602087016133d8565b919091016002019291505056fea2646970667358221220f03f0b5b8c82877de31bd81bc53c30791365693f21cf91d05a92ec657f2abc8164736f6c634300080f0033697066733a2f2f516d5659745074394c4732776a7a41736f734b74356335313832746d717756666333764e4a317468704e514a5239516d55564741397367324a527352313834516a364556436e5a5445676139744453645a355a517931645a6d6b4173",
    "linkReferences": {}
  },
  "methodIdentifiers": {
    "DESTROY()": "875e18f7",
    "DefaultContenthash()": "69be8bb0",
    "DefaultResolver()": "00b7aff7",
    "Dev()": "01e51ae8",
    "DomainHash()": "8315ae65",
    "ENS()": "1d2e2cc4",
    "ID2Labelhash(uint256)": "6eada5aa",
    "ID2Namehash(uint256)": "bb8762c8",
    "NFTData()": "5dc6ddce",
    "Namehash2ID(bytes32)": "a37f9f99",
    "_text(bytes32,string)": "b0671b71",
    "active()": "02fb0c5e",
    "addr(bytes32)": "3b3b57de",
    "addr(bytes32,uint256)": "f1cb7e06",
    "approve(address,uint256)": "095ea7b3",
    "balanceOf(address)": "70a08231",
    "batchMint(uint256)": "8467be0d",
    "contenthash(bytes32)": "bc1c58d1",
    "contractURI()": "e8a3d485",
    "getApproved(uint256)": "081812fc",
    "isApprovedForAll(address,address)": "e985e9c5",
    "maxSupply()": "d5abeb01",
    "mint()": "1249c58b",
    "mintingPrice()": "35db70b5",
    "name()": "06fdde03",
    "name(bytes32)": "691f3431",
    "owner()": "8da5cb5b",
    "ownerOf(uint256)": "6352211e",
    "pubkey(bytes32)": "c8690233",
    "royalty()": "29ee566c",
    "royaltyInfo(uint256,uint256)": "2a55205a",
    "safeTransferFrom(address,address,uint256)": "42842e0e",
    "safeTransferFrom(address,address,uint256,bytes)": "b88d4fde",
    "setAddr(bytes32,address)": "d5fa2b00",
    "setAddr(bytes32,uint256,bytes)": "8b95dd71",
    "setApprovalForAll(address,bool)": "a22cb465",
    "setContenthash(bytes32,bytes)": "304e6ade",
    "setContractURI(string)": "938e3d7b",
    "setDefaultContenthash(bytes)": "5d81d553",
    "setDefaultResolver(address)": "c66485b2",
    "setInterface(bytes4,bool)": "c0a43a7c",
    "setName(bytes32,string)": "77372213",
    "setPubkey(bytes32,bytes32,bytes32)": "29cd62ea",
    "setRoyalty(uint256)": "4209a2e1",
    "setText(bytes32,string,string)": "10f13a8c",
    "supportsInterface(bytes4)": "01ffc9a7",
    "symbol()": "95d89b41",
    "text(bytes32,string)": "59d1d43c",
    "toggleActive()": "29c68dc1",
    "tokenURI(uint256)": "c87b56dd",
    "totalSupply()": "18160ddd",
    "transferFrom(address,address,uint256)": "23b872dd",
    "transferOwnership(address)": "f2fde38b",
    "withdrawETH()": "e086e5ec",
    "withdrawToken(address)": "89476069"
  },
  "id": 7
}