{
  "abi": [
    {
      "inputs": [
        {
          "internalType": "address",
          "name": "_resolver",
          "type": "address"
        },
        {
          "internalType": "uint256",
          "name": "_maxSupply",
          "type": "uint256"
        }
      ],
      "stateMutability": "nonpayable",
      "type": "constructor"
    },
    {
      "inputs": [
        {
          "internalType": "address",
          "name": "addr",
          "type": "address"
        }
      ],
      "name": "ERC721IncompatibleReceiver",
      "type": "error"
    },
    {
      "inputs": [
        {
          "internalType": "uint256",
          "name": "size",
          "type": "uint256"
        },
        {
          "internalType": "uint256",
          "name": "yourSize",
          "type": "uint256"
        }
      ],
      "name": "InsufficientEtherSent",
      "type": "error"
    },
    {
      "inputs": [
        {
          "internalType": "uint256",
          "name": "id",
          "type": "uint256"
        }
      ],
      "name": "InvalidTokenID",
      "type": "error"
    },
    {
      "inputs": [],
      "name": "MintEnded",
      "type": "error"
    },
    {
      "inputs": [],
      "name": "MintingPaused",
      "type": "error"
    },
    {
      "inputs": [
        {
          "internalType": "address",
          "name": "owner",
          "type": "address"
        },
        {
          "internalType": "address",
          "name": "from",
          "type": "address"
        },
        {
          "internalType": "uint256",
          "name": "id",
          "type": "uint256"
        }
      ],
      "name": "NotSubdomainOwner",
      "type": "error"
    },
    {
      "inputs": [
        {
          "internalType": "address",
          "name": "_dev",
          "type": "address"
        },
        {
          "internalType": "address",
          "name": "_you",
          "type": "address"
        }
      ],
      "name": "OnlyDev",
      "type": "error"
    },
    {
      "inputs": [],
      "name": "OversizedBatch",
      "type": "error"
    },
    {
      "inputs": [
        {
          "internalType": "address",
          "name": "operator",
          "type": "address"
        },
        {
          "internalType": "address",
          "name": "owner",
          "type": "address"
        },
        {
          "internalType": "uint256",
          "name": "id",
          "type": "uint256"
        }
      ],
      "name": "Unauthorized",
      "type": "error"
    },
    {
      "inputs": [],
      "name": "ZeroAddress",
      "type": "error"
    },
    {
      "anonymous": false,
      "inputs": [
        {
          "indexed": true,
          "internalType": "address",
          "name": "_owner",
          "type": "address"
        },
        {
          "indexed": true,
          "internalType": "address",
          "name": "approved",
          "type": "address"
        },
        {
          "indexed": true,
          "internalType": "uint256",
          "name": "id",
          "type": "uint256"
        }
      ],
      "name": "Approval",
      "type": "event"
    },
    {
      "anonymous": false,
      "inputs": [
        {
          "indexed": true,
          "internalType": "address",
          "name": "_owner",
          "type": "address"
        },
        {
          "indexed": true,
          "internalType": "address",
          "name": "operator",
          "type": "address"
        },
        {
          "indexed": false,
          "internalType": "bool",
          "name": "approved",
          "type": "bool"
        }
      ],
      "name": "ApprovalForAll",
      "type": "event"
    },
    {
      "anonymous": false,
      "inputs": [
        {
          "indexed": true,
          "internalType": "address",
          "name": "previousOwner",
          "type": "address"
        },
        {
          "indexed": true,
          "internalType": "address",
          "name": "newOwner",
          "type": "address"
        }
      ],
      "name": "OwnershipTransferred",
      "type": "event"
    },
    {
      "anonymous": false,
      "inputs": [
        {
          "indexed": true,
          "internalType": "address",
          "name": "from",
          "type": "address"
        },
        {
          "indexed": true,
          "internalType": "address",
          "name": "to",
          "type": "address"
        },
        {
          "indexed": true,
          "internalType": "uint256",
          "name": "id",
          "type": "uint256"
        }
      ],
      "name": "Transfer",
      "type": "event"
    },
    {
      "stateMutability": "payable",
      "type": "fallback"
    },
    {
      "inputs": [],
      "name": "DESTROY",
      "outputs": [],
      "stateMutability": "payable",
      "type": "function"
    },
    {
      "inputs": [],
      "name": "DefaultResolver",
      "outputs": [
        {
          "internalType": "address",
          "name": "",
          "type": "address"
        }
      ],
      "stateMutability": "view",
      "type": "function"
    },
    {
      "inputs": [],
      "name": "Dev",
      "outputs": [
        {
          "internalType": "address",
          "name": "",
          "type": "address"
        }
      ],
      "stateMutability": "view",
      "type": "function"
    },
    {
      "inputs": [],
      "name": "DomainHash",
      "outputs": [
        {
          "internalType": "bytes32",
          "name": "",
          "type": "bytes32"
        }
      ],
      "stateMutability": "view",
      "type": "function"
    },
    {
      "inputs": [],
      "name": "ENS",
      "outputs": [
        {
          "internalType": "contract iENS",
          "name": "",
          "type": "address"
        }
      ],
      "stateMutability": "view",
      "type": "function"
    },
    {
      "inputs": [
        {
          "internalType": "uint256",
          "name": "",
          "type": "uint256"
        }
      ],
      "name": "ID2Labelhash",
      "outputs": [
        {
          "internalType": "bytes32",
          "name": "",
          "type": "bytes32"
        }
      ],
      "stateMutability": "view",
      "type": "function"
    },
    {
      "inputs": [
        {
          "internalType": "uint256",
          "name": "id",
          "type": "uint256"
        }
      ],
      "name": "ID2Namehash",
      "outputs": [
        {
          "internalType": "bytes32",
          "name": "",
          "type": "bytes32"
        }
      ],
      "stateMutability": "view",
      "type": "function"
    },
    {
      "inputs": [
        {
          "internalType": "bytes32",
          "name": "",
          "type": "bytes32"
        }
      ],
      "name": "Namehash2ID",
      "outputs": [
        {
          "internalType": "uint256",
          "name": "",
          "type": "uint256"
        }
      ],
      "stateMutability": "view",
      "type": "function"
    },
    {
      "inputs": [],
      "name": "active",
      "outputs": [
        {
          "internalType": "bool",
          "name": "",
          "type": "bool"
        }
      ],
      "stateMutability": "view",
      "type": "function"
    },
    {
      "inputs": [
        {
          "internalType": "address",
          "name": "approved",
          "type": "address"
        },
        {
          "internalType": "uint256",
          "name": "id",
          "type": "uint256"
        }
      ],
      "name": "approve",
      "outputs": [],
      "stateMutability": "payable",
      "type": "function"
    },
    {
      "inputs": [
        {
          "internalType": "address",
          "name": "",
          "type": "address"
        }
      ],
      "name": "balanceOf",
      "outputs": [
        {
          "internalType": "uint256",
          "name": "",
          "type": "uint256"
        }
      ],
      "stateMutability": "view",
      "type": "function"
    },
    {
      "inputs": [
        {
          "internalType": "uint256",
          "name": "batchSize",
          "type": "uint256"
        }
      ],
      "name": "batchMint",
      "outputs": [],
      "stateMutability": "payable",
      "type": "function"
    },
    {
      "inputs": [],
      "name": "contractURI",
      "outputs": [
        {
          "internalType": "string",
          "name": "",
          "type": "string"
        }
      ],
      "stateMutability": "view",
      "type": "function"
    },
    {
      "inputs": [
        {
          "internalType": "uint256",
          "name": "",
          "type": "uint256"
        }
      ],
      "name": "getApproved",
      "outputs": [
        {
          "internalType": "address",
          "name": "",
          "type": "address"
        }
      ],
      "stateMutability": "view",
      "type": "function"
    },
    {
      "inputs": [
        {
          "internalType": "address",
          "name": "",
          "type": "address"
        },
        {
          "internalType": "address",
          "name": "",
          "type": "address"
        }
      ],
      "name": "isApprovedForAll",
      "outputs": [
        {
          "internalType": "bool",
          "name": "",
          "type": "bool"
        }
      ],
      "stateMutability": "view",
      "type": "function"
    },
    {
      "inputs": [],
      "name": "maxSupply",
      "outputs": [
        {
          "internalType": "uint256",
          "name": "",
          "type": "uint256"
        }
      ],
      "stateMutability": "view",
      "type": "function"
    },
    {
      "inputs": [],
      "name": "metaIPFS",
      "outputs": [
        {
          "internalType": "string",
          "name": "",
          "type": "string"
        }
      ],
      "stateMutability": "view",
      "type": "function"
    },
    {
      "inputs": [],
      "name": "mint",
      "outputs": [],
      "stateMutability": "payable",
      "type": "function"
    },
    {
      "inputs": [],
      "name": "mintPrice",
      "outputs": [
        {
          "internalType": "uint256",
          "name": "",
          "type": "uint256"
        }
      ],
      "stateMutability": "view",
      "type": "function"
    },
    {
      "inputs": [],
      "name": "name",
      "outputs": [
        {
          "internalType": "string",
          "name": "",
          "type": "string"
        }
      ],
      "stateMutability": "view",
      "type": "function"
    },
    {
      "inputs": [],
      "name": "owner",
      "outputs": [
        {
          "internalType": "address",
          "name": "",
          "type": "address"
        }
      ],
      "stateMutability": "view",
      "type": "function"
    },
    {
      "inputs": [
        {
          "internalType": "uint256",
          "name": "id",
          "type": "uint256"
        }
      ],
      "name": "ownerOf",
      "outputs": [
        {
          "internalType": "address",
          "name": "",
          "type": "address"
        }
      ],
      "stateMutability": "view",
      "type": "function"
    },
    {
      "inputs": [],
      "name": "royalty",
      "outputs": [
        {
          "internalType": "uint256",
          "name": "",
          "type": "uint256"
        }
      ],
      "stateMutability": "view",
      "type": "function"
    },
    {
      "inputs": [
        {
          "internalType": "uint256",
          "name": "id",
          "type": "uint256"
        },
        {
          "internalType": "uint256",
          "name": "_salePrice",
          "type": "uint256"
        }
      ],
      "name": "royaltyInfo",
      "outputs": [
        {
          "internalType": "address",
          "name": "",
          "type": "address"
        },
        {
          "internalType": "uint256",
          "name": "",
          "type": "uint256"
        }
      ],
      "stateMutability": "view",
      "type": "function"
    },
    {
      "inputs": [
        {
          "internalType": "address",
          "name": "from",
          "type": "address"
        },
        {
          "internalType": "address",
          "name": "to",
          "type": "address"
        },
        {
          "internalType": "uint256",
          "name": "id",
          "type": "uint256"
        }
      ],
      "name": "safeTransferFrom",
      "outputs": [],
      "stateMutability": "payable",
      "type": "function"
    },
    {
      "inputs": [
        {
          "internalType": "address",
          "name": "from",
          "type": "address"
        },
        {
          "internalType": "address",
          "name": "to",
          "type": "address"
        },
        {
          "internalType": "uint256",
          "name": "id",
          "type": "uint256"
        },
        {
          "internalType": "bytes",
          "name": "data",
          "type": "bytes"
        }
      ],
      "name": "safeTransferFrom",
      "outputs": [],
      "stateMutability": "payable",
      "type": "function"
    },
    {
      "inputs": [
        {
          "internalType": "address",
          "name": "operator",
          "type": "address"
        },
        {
          "internalType": "bool",
          "name": "approved",
          "type": "bool"
        }
      ],
      "name": "setApprovalForAll",
      "outputs": [],
      "stateMutability": "payable",
      "type": "function"
    },
    {
      "inputs": [
        {
          "internalType": "string",
          "name": "_contractURI",
          "type": "string"
        }
      ],
      "name": "setContractURI",
      "outputs": [],
      "stateMutability": "nonpayable",
      "type": "function"
    },
    {
      "inputs": [
        {
          "internalType": "address",
          "name": "_resolver",
          "type": "address"
        }
      ],
      "name": "setDefaultResolver",
      "outputs": [],
      "stateMutability": "nonpayable",
      "type": "function"
    },
    {
      "inputs": [
        {
          "internalType": "bytes4",
          "name": "sig",
          "type": "bytes4"
        },
        {
          "internalType": "bool",
          "name": "value",
          "type": "bool"
        }
      ],
      "name": "setInterface",
      "outputs": [],
      "stateMutability": "payable",
      "type": "function"
    },
    {
      "inputs": [
        {
          "internalType": "uint256",
          "name": "_royalty",
          "type": "uint256"
        }
      ],
      "name": "setRoyalty",
      "outputs": [],
      "stateMutability": "nonpayable",
      "type": "function"
    },
    {
      "inputs": [
        {
          "internalType": "bytes4",
          "name": "",
          "type": "bytes4"
        }
      ],
      "name": "supportsInterface",
      "outputs": [
        {
          "internalType": "bool",
          "name": "",
          "type": "bool"
        }
      ],
      "stateMutability": "view",
      "type": "function"
    },
    {
      "inputs": [],
      "name": "symbol",
      "outputs": [
        {
          "internalType": "string",
          "name": "",
          "type": "string"
        }
      ],
      "stateMutability": "view",
      "type": "function"
    },
    {
      "inputs": [],
      "name": "toggleActive",
      "outputs": [],
      "stateMutability": "nonpayable",
      "type": "function"
    },
    {
      "inputs": [
        {
          "internalType": "uint256",
          "name": "id",
          "type": "uint256"
        }
      ],
      "name": "tokenURI",
      "outputs": [
        {
          "internalType": "string",
          "name": "",
          "type": "string"
        }
      ],
      "stateMutability": "view",
      "type": "function"
    },
    {
      "inputs": [],
      "name": "totalSupply",
      "outputs": [
        {
          "internalType": "uint256",
          "name": "",
          "type": "uint256"
        }
      ],
      "stateMutability": "view",
      "type": "function"
    },
    {
      "inputs": [
        {
          "internalType": "address",
          "name": "from",
          "type": "address"
        },
        {
          "internalType": "address",
          "name": "to",
          "type": "address"
        },
        {
          "internalType": "uint256",
          "name": "id",
          "type": "uint256"
        }
      ],
      "name": "transferFrom",
      "outputs": [],
      "stateMutability": "payable",
      "type": "function"
    },
    {
      "inputs": [
        {
          "internalType": "address",
          "name": "newDev",
          "type": "address"
        }
      ],
      "name": "transferOwnership",
      "outputs": [],
      "stateMutability": "nonpayable",
      "type": "function"
    },
    {
      "inputs": [],
      "name": "withdrawEther",
      "outputs": [],
      "stateMutability": "payable",
      "type": "function"
    },
    {
      "inputs": [
        {
          "internalType": "address",
          "name": "token",
          "type": "address"
        }
      ],
      "name": "withdrawToken",
      "outputs": [],
      "stateMutability": "payable",
      "type": "function"
    },
    {
      "stateMutability": "payable",
      "type": "receive"
    }
  ],
  "bytecode": {
    "object": "0x6000805460ff60a01b1916600160a01b179055610100604052601560c09081527f426f726564454e535961636874436c75622e657468000000000000000000000060e05260029062000052908262000382565b5060408051808201909152600681526542454e53594360d01b60208201526003906200007f908262000382565b50662386f26fc10000600655604051806060016040528060358152602001620024cc60359139600790620000b4908262000382565b5060056008556040518060600160405280602e81526020016200249e602e9139600990620000e3908262000382565b50348015620000f157600080fd5b50604051620025013803806200250183398101604081905262000114916200044e565b60018054336001600160a01b031991821617909155600080546e0c2e074ec69a0dfb2997ba6c7d2e1e908316178155600480549092166001600160a01b038516179091556040805160208101929092527f4f5b812789fc606be1b3b16908db13fc7a9adf7ca72641f84d75b47069d3d7f09082015260600160408051601f198184030181528282528051602091820120908301527f7a46b638f71fee598932cc3ef366f2f3dcdae81da0064fba529d5ae43b3ac9c59082015260600160408051808303601f19018152919052805160209182012060a052608091909152600e9052507ff78053c79e0b9aa452e27b1a016da828f8da009fc4e41d10c85bd3a969c7facb8054600160ff1991821681179092557f2128e120182d3aad40be1b13f6e6837469325eed442c0118fa5598c7f671c92b80548216831790557fee4d32f332f0a2d0ddc34ffb2ec7a1b8568e915f8f5b625da8ece9305abb079a80548216831790557facee4afab9ecaa8ae5295b11b5f85101d139b31d8872b02073faef8923dbb604805482168317905563152a902d60e11b6000527fe13efcc3391fd06a1796af9f3856980176fe91811e54bc42ace51e572d1d17c8805490911690911790556200048a565b634e487b7160e01b600052604160045260246000fd5b600181811c908216806200030857607f821691505b6020821081036200032957634e487b7160e01b600052602260045260246000fd5b50919050565b601f8211156200037d57600081815260208120601f850160051c81016020861015620003585750805b601f850160051c820191505b81811015620003795782815560010162000364565b5050505b505050565b81516001600160401b038111156200039e576200039e620002dd565b620003b681620003af8454620002f3565b846200032f565b602080601f831160018114620003ee5760008415620003d55750858301515b600019600386901b1c1916600185901b17855562000379565b600085815260208120601f198616915b828110156200041f57888601518255948401946001909101908401620003fe565b50858210156200043e5787850151600019600388901b60f8161c191681555b5050505050600190811b01905550565b600080604083850312156200046257600080fd5b82516001600160a01b03811681146200047a57600080fd5b6020939093015192949293505050565b60805160a051611fb6620004e86000396000818161050b0152818161095b01528181610a0701528181610dda01528181610e8601528181611183015261165501526000818161069b015281816108a00152610ce50152611fb66000f3fe60806040526004361061023e5760003560e01c80637362377b1161012e578063a37f9f99116100ab578063c87b56dd1161006f578063c87b56dd14610669578063d5abeb0114610689578063e8a3d485146106bd578063e985e9c5146106d2578063f2fde38b1461070d57600080fd5b8063a37f9f99146105d6578063b88d4fde14610603578063bb8762c814610616578063c0a43a7c14610636578063c66485b21461064957600080fd5b80638da5cb5b116100f25780638da5cb5b1461055b578063938e3d7b1461057957806395d89b411461059957806398adcbba146105ae578063a22cb465146105c357600080fd5b80637362377b146104f15780638315ae65146104f95780638467be0d1461052d578063875e18f714610540578063894760691461054857600080fd5b806323b872dd116101bc57806342842e0e1161018057806342842e0e146103c45780636352211e146104615780636817c76c146104815780636eada5aa1461049757806370a08231146104c457600080fd5b806323b872dd146103c457806329c68dc1146103d757806329ee566c146103ec5780632a55205a146104025780634209a2e11461044157600080fd5b8063081812fc11610203578063081812fc1461032d578063095ea7b3146103635780631249c58b1461037857806318160ddd146103805780631d2e2cc4146103a457600080fd5b8062b7aff71461024d57806301e51ae81461028a57806301ffc9a7146102aa57806302fb0c5e146102ea57806306fdde031461030b57600080fd5b3661024857600080fd5b600080fd5b34801561025957600080fd5b5060045461026d906001600160a01b031681565b6040516001600160a01b0390911681526020015b60405180910390f35b34801561029657600080fd5b5060015461026d906001600160a01b031681565b3480156102b657600080fd5b506102da6102c5366004611868565b600e6020526000908152604090205460ff1681565b6040519015158152602001610281565b3480156102f657600080fd5b506000546102da90600160a01b900460ff1681565b34801561031757600080fd5b5061032061072d565b60405161028191906118e4565b34801561033957600080fd5b5061026d6103483660046118f7565b600c602052600090815260409020546001600160a01b031681565b61037661037136600461192c565b6107bb565b005b610376610874565b34801561038c57600080fd5b5061039660055481565b604051908152602001610281565b3480156103b057600080fd5b5060005461026d906001600160a01b031681565b6103766103d2366004611956565b610acd565b3480156103e357600080fd5b50610376610aed565b3480156103f857600080fd5b5061039660085481565b34801561040e57600080fd5b5061042261041d366004611992565b610b4e565b604080516001600160a01b039093168352602083019190915201610281565b34801561044d57600080fd5b5061037661045c3660046118f7565b610b85565b34801561046d57600080fd5b5061026d61047c3660046118f7565b610bca565b34801561048d57600080fd5b5061039660065481565b3480156104a357600080fd5b506103966104b23660046118f7565b600f6020526000908152604090205481565b3480156104d057600080fd5b506103966104df3660046119b4565b600a6020526000908152604090205481565b610376610c13565b34801561050557600080fd5b506103967f000000000000000000000000000000000000000000000000000000000000000081565b61037661053b3660046118f7565b610caf565b610376610f53565b6103766105563660046119b4565b610f96565b34801561056757600080fd5b506001546001600160a01b031661026d565b34801561058557600080fd5b506103766105943660046119cf565b611074565b3480156105a557600080fd5b506103206110c1565b3480156105ba57600080fd5b506103206110ce565b6103766105d1366004611a4f565b6110db565b3480156105e257600080fd5b506103966105f13660046118f7565b60106020526000908152604090205481565b610376610611366004611a9c565b611147565b34801561062257600080fd5b506103966106313660046118f7565b611159565b610376610644366004611b78565b6111ee565b34801561065557600080fd5b506103766106643660046119b4565b6112b4565b34801561067557600080fd5b506103206106843660046118f7565b611316565b34801561069557600080fd5b506103967f000000000000000000000000000000000000000000000000000000000000000081565b3480156106c957600080fd5b50610320611371565b3480156106de57600080fd5b506102da6106ed366004611b96565b600d60209081526000928352604080842090915290825290205460ff1681565b34801561071957600080fd5b506103766107283660046119b4565b61137e565b6002805461073a90611bc9565b80601f016020809104026020016040519081016040528092919081815260200182805461076690611bc9565b80156107b35780601f10610788576101008083540402835291602001916107b3565b820191906000526020600020905b81548152906001019060200180831161079657829003601f168201915b505050505081565b6000818152600b60205260409020546001600160a01b0316331461081b576000818152600b60205260409081902054905163218f7b0b60e11b81526108129133916001600160a01b03909116908490600401611bfd565b60405180910390fd5b6000818152600c602052604080822080546001600160a01b0319166001600160a01b0386169081179091559051839233917f8c5be1e5ebec7d5bd14f71427d1e84f3dd0314c0f7b2291e5b200ac8c7c3b9259190a45050565b600054600160a01b900460ff1661089e576040516375ab03ab60e11b815260040160405180910390fd5b7f0000000000000000000000000000000000000000000000000000000000000000600554106108e05760405163124212e560e21b815260040160405180910390fd5b60065434101561091057600654604051638ad0844f60e01b81526004810191909152346024820152604401610812565b600554600061091e8261141a565b60405160200161092e9190611c3d565b60408051808303601f1901815290829052805160209091012060008054600480546305ef2c7f60e41b86527f000000000000000000000000000000000000000000000000000000000000000091860191909152602485018490523360448601526001600160a01b03908116606486015260848501929092529193501690635ef2c7f09060a401600060405180830381600087803b1580156109ce57600080fd5b505af11580156109e2573d6000803e3d6000fd5b5050506000838152600f602090815260408083208590555185935060109291610a38917f000000000000000000000000000000000000000000000000000000000000000091879101918252602082015260400190565b60408051601f19818403018152918152815160209283012083528282019390935290820160009081209390935560058054600190810190915533808552600a83528385208054909201909155858452600b90915281832080546001600160a01b0319168217905590518492907fddf252ad1be2c89b69c2b068fc378daa952ba7f163c4a11628f55a4df523b3ef908290a45050565b610ae883838360405180602001604052806000815250611523565b505050565b6001546001600160a01b03163314610b2d576001546040516347522c7b60e11b81526001600160a01b039091166004820152336024820152604401610812565b6000805460ff60a01b198116600160a01b9182900460ff1615909102179055565b60015460085460009182916001600160a01b0390911690610b70606486611c85565b610b7a9190611c99565b915091509250929050565b6001546001600160a01b03163314610bc5576001546040516347522c7b60e11b81526001600160a01b039091166004820152336024820152604401610812565b600855565b6000816005548110610bf25760405163b7c882eb60e01b815260048101829052602401610812565b6000838152600b60205260409020546001600160a01b031691505b50919050565b6001546040516000916001600160a01b03169047908381818185875af1925050503d8060008114610c60576040519150601f19603f3d011682016040523d82523d6000602084013e610c65565b606091505b5050905080610cac5760405162461bcd60e51b815260206004820152601360248201527211551217d514905394d1915497d19052531151606a1b6044820152606401610812565b50565b600054600160a01b900460ff16610cd9576040516375ab03ab60e11b815260040160405180910390fd5b600c811180610d1457507f000000000000000000000000000000000000000000000000000000000000000081600554610d129190611cb8565b115b15610d3257604051634d6c426160e01b815260040160405180910390fd5b80600654610d409190611c99565b341015610d785780600654610d559190611c99565b604051638ad0844f60e01b81526004810191909152346024820152604401610812565b6005546000610d878383611cb8565b905060005b81831015610f3657610d9d8361141a565b604051602001610dad9190611c3d565b60408051808303601f1901815290829052805160209091012060008054600480546305ef2c7f60e41b86527f000000000000000000000000000000000000000000000000000000000000000091860191909152602485018490523360448601526001600160a01b03908116606486015260848501929092529193501690635ef2c7f09060a401600060405180830381600087803b158015610e4d57600080fd5b505af1158015610e61573d6000803e3d6000fd5b5050506000848152600f602090815260408083208590555186935060109291610eb7917f000000000000000000000000000000000000000000000000000000000000000091879101918252602082015260400190565b60408051601f198184030181529181528151602092830120835282820193909352908201600090812093909355858352600b905280822080546001600160a01b0319163390811790915590518592907fddf252ad1be2c89b69c2b068fc378daa952ba7f163c4a11628f55a4df523b3ef908290a4826001019250610d8c565b5060055550336000908152600a6020526040902080549091019055565b6001546001600160a01b03163314610f93576001546040516347522c7b60e11b81526001600160a01b039091166004820152336024820152604401610812565b33ff5b6001546040516370a0823160e01b815230600482018190526001600160a01b03848116936323b872dd9391169084906370a0823190602401602060405180830381865afa158015610feb573d6000803e3d6000fd5b505050506040513d601f19601f8201168201806040525081019061100f9190611cd0565b6040518463ffffffff1660e01b815260040161102d93929190611bfd565b6020604051808303816000875af115801561104c573d6000803e3d6000fd5b505050506040513d601f19601f820116820180604052508101906110709190611ce9565b5050565b6001546001600160a01b031633146110b4576001546040516347522c7b60e11b81526001600160a01b039091166004820152336024820152604401610812565b6007610ae8828483611d54565b6003805461073a90611bc9565b6009805461073a90611bc9565b336000818152600d602090815260408083206001600160a01b03871680855290835292819020805460ff191686151590811790915590519081529192917f17307eab39ab6107e8899845ad3d59bd9653f200f220920489ca2b5937696c31910160405180910390a35050565b61115384848484611523565b50505050565b60008160055481106111815760405163b7c882eb60e01b815260048101829052602401610812565b7f0000000000000000000000000000000000000000000000000000000000000000600f6000858152602001908152602001600020546040516020016111d0929190918252602082015260400190565b60405160208183030381529060405280519060200120915050919050565b6001546001600160a01b0316331461122e576001546040516347522c7b60e11b81526001600160a01b039091166004820152336024820152604401610812565b6001600160e01b031980831690036112885760405162461bcd60e51b815260206004820152601a60248201527f494e56414c49445f494e544552464143455f53454c4543544f520000000000006044820152606401610812565b6001600160e01b0319919091166000908152600e60205260409020805460ff1916911515919091179055565b6001546001600160a01b031633146112f4576001546040516347522c7b60e11b81526001600160a01b039091166004820152336024820152604401610812565b600480546001600160a01b0319166001600160a01b0392909216919091179055565b606081600554811061133e5760405163b7c882eb60e01b815260048101829052602401610812565b60096113498461141a565b60405160200161135a929190611e14565b604051602081830303815290604052915050919050565b6007805461073a90611bc9565b6001546001600160a01b031633146113be576001546040516347522c7b60e11b81526001600160a01b039091166004820152336024820152604401610812565b6001546040516001600160a01b038084169216907f8be0079c531659141344cd1fd0a4f28419497f9722a3daafe3b4186f6b6457e090600090a3600180546001600160a01b0319166001600160a01b0392909216919091179055565b6060816000036114415750506040805180820190915260018152600360fc1b602082015290565b8160005b811561146b578061145581611ecc565b91506114649050600a83611c85565b9150611445565b60008167ffffffffffffffff81111561148657611486611a86565b6040519080825280601f01601f1916602001820160405280156114b0576020820181803683370190505b5090505b841561151b576114c5600183611ee5565b91506114d2600a86611efc565b6114dd906030611cb8565b60f81b8183815181106114f2576114f2611f10565b60200101906001600160f81b031916908160001a905350611514600a86611c85565b94506114b4565b949350505050565b6001600160a01b03831661154a5760405163d92e233d60e01b815260040160405180910390fd5b6000828152600b60205260409020546001600160a01b038581169116146115a2576000828152600b602052604090819020549051633d7a057360e11b8152610812916001600160a01b03169086908590600401611bfd565b6000828152600b60205260409020546001600160a01b031633148015906115ed57506001600160a01b0384166000908152600d6020908152604080832033845290915290205460ff16155b801561161057506000828152600c60205260409020546001600160a01b03163314155b156116345733848360405163218f7b0b60e11b815260040161081293929190611bfd565b60008054838252600f6020526040918290205491516306ab592360e01b81527f0000000000000000000000000000000000000000000000000000000000000000600482015260248101929092526001600160a01b03858116604484015216906306ab5923906064016020604051808303816000875af11580156116bb573d6000803e3d6000fd5b505050506040513d601f19601f820116820180604052508101906116df9190611cd0565b506001600160a01b038085166000818152600a60209081526040808320805460001901905593871680835284832080546001019055868352600b825284832080546001600160a01b03199081168317909155600c90925284832080549092169091559251859392917fddf252ad1be2c89b69c2b068fc378daa952ba7f163c4a11628f55a4df523b3ef91a46001600160a01b0383163b1561115357604051630a85bd0160e11b81526001600160a01b0384169063150b7a02906117ac903390889087908790600401611f26565b6020604051808303816000875af19250505080156117e7575060408051601f3d908101601f191682019092526117e491810190611f63565b60015b61180f57604051633a9f8cb360e01b81526001600160a01b0384166004820152602401610812565b6001600160e01b03198116630a85bd0160e11b1461184b57604051633a9f8cb360e01b81526001600160a01b0385166004820152602401610812565b5050505050565b6001600160e01b031981168114610cac57600080fd5b60006020828403121561187a57600080fd5b813561188581611852565b9392505050565b60005b838110156118a757818101518382015260200161188f565b838111156111535750506000910152565b600081518084526118d081602086016020860161188c565b601f01601f19169290920160200192915050565b60208152600061188560208301846118b8565b60006020828403121561190957600080fd5b5035919050565b80356001600160a01b038116811461192757600080fd5b919050565b6000806040838503121561193f57600080fd5b61194883611910565b946020939093013593505050565b60008060006060848603121561196b57600080fd5b61197484611910565b925061198260208501611910565b9150604084013590509250925092565b600080604083850312156119a557600080fd5b50508035926020909101359150565b6000602082840312156119c657600080fd5b61188582611910565b600080602083850312156119e257600080fd5b823567ffffffffffffffff808211156119fa57600080fd5b818501915085601f830112611a0e57600080fd5b813581811115611a1d57600080fd5b866020828501011115611a2f57600080fd5b60209290920196919550909350505050565b8015158114610cac57600080fd5b60008060408385031215611a6257600080fd5b611a6b83611910565b91506020830135611a7b81611a41565b809150509250929050565b634e487b7160e01b600052604160045260246000fd5b60008060008060808587031215611ab257600080fd5b611abb85611910565b9350611ac960208601611910565b925060408501359150606085013567ffffffffffffffff80821115611aed57600080fd5b818701915087601f830112611b0157600080fd5b813581811115611b1357611b13611a86565b604051601f8201601f19908116603f01168101908382118183101715611b3b57611b3b611a86565b816040528281528a6020848701011115611b5457600080fd5b82602086016020830137600060208483010152809550505050505092959194509250565b60008060408385031215611b8b57600080fd5b8235611a6b81611852565b60008060408385031215611ba957600080fd5b611bb283611910565b9150611bc060208401611910565b90509250929050565b600181811c90821680611bdd57607f821691505b602082108103610c0d57634e487b7160e01b600052602260045260246000fd5b6001600160a01b039384168152919092166020820152604081019190915260600190565b60008151611c3381856020860161188c565b9290920192915050565b60008251611c4f81846020870161188c565b9190910192915050565b634e487b7160e01b600052601260045260246000fd5b634e487b7160e01b600052601160045260246000fd5b600082611c9457611c94611c59565b500490565b6000816000190483118215151615611cb357611cb3611c6f565b500290565b60008219821115611ccb57611ccb611c6f565b500190565b600060208284031215611ce257600080fd5b5051919050565b600060208284031215611cfb57600080fd5b815161188581611a41565b601f821115610ae857600081815260208120601f850160051c81016020861015611d2d5750805b601f850160051c820191505b81811015611d4c57828155600101611d39565b505050505050565b67ffffffffffffffff831115611d6c57611d6c611a86565b611d8083611d7a8354611bc9565b83611d06565b6000601f841160018114611db45760008515611d9c5750838201355b600019600387901b1c1916600186901b17835561184b565b600083815260209020601f19861690835b82811015611de55786850135825560209485019460019092019101611dc5565b5086821015611e025760001960f88860031b161c19848701351681555b505060018560011b0183555050505050565b66697066733a2f2f60c81b81526000600760008554611e3281611bc9565b60018281168015611e4a5760018114611e6357611e96565b60ff198416888701528215158302880186019450611e96565b8960005260208060002060005b85811015611e8b5781548b82018a0152908401908201611e70565b505050858389010194505b50602f60f81b8452611eaa81850189611c21565b945050505050611ec18164173539b7b760d91b9052565b600501949350505050565b600060018201611ede57611ede611c6f565b5060010190565b600082821015611ef757611ef7611c6f565b500390565b600082611f0b57611f0b611c59565b500690565b634e487b7160e01b600052603260045260246000fd5b6001600160a01b0385811682528416602082015260408101839052608060608201819052600090611f59908301846118b8565b9695505050505050565b600060208284031215611f7557600080fd5b81516118858161185256fea2646970667358221220e5b94a104c29bef973b1746eb1345dc167d0339e74fc16ae293ce642dd55b94764736f6c634300080f0033516d596757584b4144755367577a694e676d7059613450416d68464c33573761474c52354331646b52754e47664d697066733a2f2f516d636579786f4e71665076314c4e66596e6d677861735872386d38676843335462597546626271684838706656",
    "linkReferences": {}
  },
  "methodIdentifiers": {
    "DESTROY()": "875e18f7",
    "DefaultResolver()": "00b7aff7",
    "Dev()": "01e51ae8",
    "DomainHash()": "8315ae65",
    "ENS()": "1d2e2cc4",
    "ID2Labelhash(uint256)": "6eada5aa",
    "ID2Namehash(uint256)": "bb8762c8",
    "Namehash2ID(bytes32)": "a37f9f99",
    "active()": "02fb0c5e",
    "approve(address,uint256)": "095ea7b3",
    "balanceOf(address)": "70a08231",
    "batchMint(uint256)": "8467be0d",
    "contractURI()": "e8a3d485",
    "getApproved(uint256)": "081812fc",
    "isApprovedForAll(address,address)": "e985e9c5",
    "maxSupply()": "d5abeb01",
    "metaIPFS()": "98adcbba",
    "mint()": "1249c58b",
    "mintPrice()": "6817c76c",
    "name()": "06fdde03",
    "owner()": "8da5cb5b",
    "ownerOf(uint256)": "6352211e",
    "royalty()": "29ee566c",
    "royaltyInfo(uint256,uint256)": "2a55205a",
    "safeTransferFrom(address,address,uint256)": "42842e0e",
    "safeTransferFrom(address,address,uint256,bytes)": "b88d4fde",
    "setApprovalForAll(address,bool)": "a22cb465",
    "setContractURI(string)": "938e3d7b",
    "setDefaultResolver(address)": "c66485b2",
    "setInterface(bytes4,bool)": "c0a43a7c",
    "setRoyalty(uint256)": "4209a2e1",
    "supportsInterface(bytes4)": "01ffc9a7",
    "symbol()": "95d89b41",
    "toggleActive()": "29c68dc1",
    "tokenURI(uint256)": "c87b56dd",
    "totalSupply()": "18160ddd",
    "transferFrom(address,address,uint256)": "23b872dd",
    "transferOwnership(address)": "f2fde38b",
    "withdrawEther()": "7362377b",
    "withdrawToken(address)": "89476069"
  },
  "id": 8
}