{
  "abi": [
    {
      "inputs": [
        {
          "internalType": "address",
          "name": "_metadata",
          "type": "address"
        },
        {
          "internalType": "address",
          "name": "_resolver",
          "type": "address"
        },
        {
          "internalType": "uint256",
          "name": "_maxSupply",
          "type": "uint256"
        }
      ],
      "stateMutability": "nonpayable",
      "type": "constructor"
    },
    {
      "inputs": [],
      "name": "ContractPaused",
      "type": "error"
    },
    {
      "inputs": [
        {
          "internalType": "address",
          "name": "addr",
          "type": "address"
        }
      ],
      "name": "ERC721IncompatibleReceiver",
      "type": "error"
    },
    {
      "inputs": [
        {
          "internalType": "uint256",
          "name": "id",
          "type": "uint256"
        }
      ],
      "name": "InvalidTokenID",
      "type": "error"
    },
    {
      "inputs": [
        {
          "internalType": "uint256",
          "name": "value",
          "type": "uint256"
        }
      ],
      "name": "LessThanMintingCost",
      "type": "error"
    },
    {
      "inputs": [
        {
          "internalType": "address",
          "name": "operator",
          "type": "address"
        },
        {
          "internalType": "address",
          "name": "owner",
          "type": "address"
        },
        {
          "internalType": "uint256",
          "name": "id",
          "type": "uint256"
        }
      ],
      "name": "NotAuthorized",
      "type": "error"
    },
    {
      "inputs": [
        {
          "internalType": "address",
          "name": "owner",
          "type": "address"
        },
        {
          "internalType": "address",
          "name": "src",
          "type": "address"
        },
        {
          "internalType": "uint256",
          "name": "id",
          "type": "uint256"
        }
      ],
      "name": "NotOwner",
      "type": "error"
    },
    {
      "inputs": [],
      "name": "NotSubdomainOwner",
      "type": "error"
    },
    {
      "inputs": [],
      "name": "TheEndOfMint",
      "type": "error"
    },
    {
      "inputs": [],
      "name": "TransferToSelf",
      "type": "error"
    },
    {
      "inputs": [],
      "name": "ZeroAddress",
      "type": "error"
    },
    {
      "anonymous": false,
      "inputs": [
        {
          "indexed": true,
          "internalType": "address",
          "name": "_owner",
          "type": "address"
        },
        {
          "indexed": true,
          "internalType": "address",
          "name": "approved",
          "type": "address"
        },
        {
          "indexed": true,
          "internalType": "uint256",
          "name": "id",
          "type": "uint256"
        }
      ],
      "name": "Approval",
      "type": "event"
    },
    {
      "anonymous": false,
      "inputs": [
        {
          "indexed": true,
          "internalType": "address",
          "name": "_owner",
          "type": "address"
        },
        {
          "indexed": true,
          "internalType": "address",
          "name": "operator",
          "type": "address"
        },
        {
          "indexed": false,
          "internalType": "bool",
          "name": "approved",
          "type": "bool"
        }
      ],
      "name": "ApprovalForAll",
      "type": "event"
    },
    {
      "anonymous": false,
      "inputs": [
        {
          "indexed": true,
          "internalType": "address",
          "name": "previousOwner",
          "type": "address"
        },
        {
          "indexed": true,
          "internalType": "address",
          "name": "newOwner",
          "type": "address"
        }
      ],
      "name": "OwnershipTransferred",
      "type": "event"
    },
    {
      "anonymous": false,
      "inputs": [
        {
          "indexed": true,
          "internalType": "address",
          "name": "src",
          "type": "address"
        },
        {
          "indexed": true,
          "internalType": "address",
          "name": "dest",
          "type": "address"
        },
        {
          "indexed": true,
          "internalType": "uint256",
          "name": "id",
          "type": "uint256"
        }
      ],
      "name": "Transfer",
      "type": "event"
    },
    {
      "inputs": [],
      "name": "DESTROY",
      "outputs": [],
      "stateMutability": "nonpayable",
      "type": "function"
    },
    {
      "inputs": [],
      "name": "DefaultResolver",
      "outputs": [
        {
          "internalType": "address",
          "name": "",
          "type": "address"
        }
      ],
      "stateMutability": "view",
      "type": "function"
    },
    {
      "inputs": [],
      "name": "Dev",
      "outputs": [
        {
          "internalType": "address",
          "name": "",
          "type": "address"
        }
      ],
      "stateMutability": "view",
      "type": "function"
    },
    {
      "inputs": [],
      "name": "DomainHash",
      "outputs": [
        {
          "internalType": "bytes32",
          "name": "",
          "type": "bytes32"
        }
      ],
      "stateMutability": "view",
      "type": "function"
    },
    {
      "inputs": [],
      "name": "DomainHash2",
      "outputs": [
        {
          "internalType": "bytes32",
          "name": "",
          "type": "bytes32"
        }
      ],
      "stateMutability": "view",
      "type": "function"
    },
    {
      "inputs": [],
      "name": "ENS",
      "outputs": [
        {
          "internalType": "contract iENS",
          "name": "",
          "type": "address"
        }
      ],
      "stateMutability": "view",
      "type": "function"
    },
    {
      "inputs": [
        {
          "internalType": "bytes32",
          "name": "",
          "type": "bytes32"
        }
      ],
      "name": "Hash2ID",
      "outputs": [
        {
          "internalType": "uint256",
          "name": "",
          "type": "uint256"
        }
      ],
      "stateMutability": "view",
      "type": "function"
    },
    {
      "inputs": [
        {
          "internalType": "uint256",
          "name": "",
          "type": "uint256"
        }
      ],
      "name": "ID2Labelhash",
      "outputs": [
        {
          "internalType": "bytes32",
          "name": "",
          "type": "bytes32"
        }
      ],
      "stateMutability": "view",
      "type": "function"
    },
    {
      "inputs": [
        {
          "internalType": "uint256",
          "name": "id",
          "type": "uint256"
        }
      ],
      "name": "ID2Namehash",
      "outputs": [
        {
          "internalType": "bytes32",
          "name": "",
          "type": "bytes32"
        }
      ],
      "stateMutability": "view",
      "type": "function"
    },
    {
      "inputs": [],
      "name": "NFTData",
      "outputs": [
        {
          "internalType": "string",
          "name": "",
          "type": "string"
        }
      ],
      "stateMutability": "view",
      "type": "function"
    },
    {
      "inputs": [],
      "name": "active",
      "outputs": [
        {
          "internalType": "bool",
          "name": "",
          "type": "bool"
        }
      ],
      "stateMutability": "view",
      "type": "function"
    },
    {
      "inputs": [
        {
          "internalType": "address",
          "name": "approved",
          "type": "address"
        },
        {
          "internalType": "uint256",
          "name": "id",
          "type": "uint256"
        }
      ],
      "name": "approve",
      "outputs": [],
      "stateMutability": "payable",
      "type": "function"
    },
    {
      "inputs": [
        {
          "internalType": "address",
          "name": "",
          "type": "address"
        }
      ],
      "name": "balanceOf",
      "outputs": [
        {
          "internalType": "uint256",
          "name": "",
          "type": "uint256"
        }
      ],
      "stateMutability": "view",
      "type": "function"
    },
    {
      "inputs": [
        {
          "internalType": "uint256",
          "name": "num",
          "type": "uint256"
        }
      ],
      "name": "batchMint",
      "outputs": [],
      "stateMutability": "payable",
      "type": "function"
    },
    {
      "inputs": [],
      "name": "contractURI",
      "outputs": [
        {
          "internalType": "string",
          "name": "",
          "type": "string"
        }
      ],
      "stateMutability": "view",
      "type": "function"
    },
    {
      "inputs": [
        {
          "internalType": "uint256",
          "name": "",
          "type": "uint256"
        }
      ],
      "name": "getApproved",
      "outputs": [
        {
          "internalType": "address",
          "name": "",
          "type": "address"
        }
      ],
      "stateMutability": "view",
      "type": "function"
    },
    {
      "inputs": [
        {
          "internalType": "address",
          "name": "",
          "type": "address"
        },
        {
          "internalType": "address",
          "name": "",
          "type": "address"
        }
      ],
      "name": "isApprovedForAll",
      "outputs": [
        {
          "internalType": "bool",
          "name": "",
          "type": "bool"
        }
      ],
      "stateMutability": "view",
      "type": "function"
    },
    {
      "inputs": [],
      "name": "maxSupply",
      "outputs": [
        {
          "internalType": "uint256",
          "name": "",
          "type": "uint256"
        }
      ],
      "stateMutability": "view",
      "type": "function"
    },
    {
      "inputs": [],
      "name": "metadata",
      "outputs": [
        {
          "internalType": "contract Metadata",
          "name": "",
          "type": "address"
        }
      ],
      "stateMutability": "view",
      "type": "function"
    },
    {
      "inputs": [],
      "name": "mint",
      "outputs": [],
      "stateMutability": "payable",
      "type": "function"
    },
    {
      "inputs": [],
      "name": "mintingPrice",
      "outputs": [
        {
          "internalType": "uint256",
          "name": "",
          "type": "uint256"
        }
      ],
      "stateMutability": "view",
      "type": "function"
    },
    {
      "inputs": [],
      "name": "name",
      "outputs": [
        {
          "internalType": "string",
          "name": "",
          "type": "string"
        }
      ],
      "stateMutability": "view",
      "type": "function"
    },
    {
      "inputs": [],
      "name": "owner",
      "outputs": [
        {
          "internalType": "address",
          "name": "",
          "type": "address"
        }
      ],
      "stateMutability": "view",
      "type": "function"
    },
    {
      "inputs": [
        {
          "internalType": "uint256",
          "name": "id",
          "type": "uint256"
        }
      ],
      "name": "ownerOf",
      "outputs": [
        {
          "internalType": "address",
          "name": "",
          "type": "address"
        }
      ],
      "stateMutability": "view",
      "type": "function"
    },
    {
      "inputs": [],
      "name": "royalty",
      "outputs": [
        {
          "internalType": "uint256",
          "name": "",
          "type": "uint256"
        }
      ],
      "stateMutability": "view",
      "type": "function"
    },
    {
      "inputs": [
        {
          "internalType": "uint256",
          "name": "id",
          "type": "uint256"
        },
        {
          "internalType": "uint256",
          "name": "_salePrice",
          "type": "uint256"
        }
      ],
      "name": "royaltyInfo",
      "outputs": [
        {
          "internalType": "address",
          "name": "",
          "type": "address"
        },
        {
          "internalType": "uint256",
          "name": "",
          "type": "uint256"
        }
      ],
      "stateMutability": "view",
      "type": "function"
    },
    {
      "inputs": [
        {
          "internalType": "address",
          "name": "src",
          "type": "address"
        },
        {
          "internalType": "address",
          "name": "dest",
          "type": "address"
        },
        {
          "internalType": "uint256",
          "name": "id",
          "type": "uint256"
        }
      ],
      "name": "safeTransferFrom",
      "outputs": [],
      "stateMutability": "payable",
      "type": "function"
    },
    {
      "inputs": [
        {
          "internalType": "address",
          "name": "src",
          "type": "address"
        },
        {
          "internalType": "address",
          "name": "dest",
          "type": "address"
        },
        {
          "internalType": "uint256",
          "name": "id",
          "type": "uint256"
        },
        {
          "internalType": "bytes",
          "name": "data",
          "type": "bytes"
        }
      ],
      "name": "safeTransferFrom",
      "outputs": [],
      "stateMutability": "payable",
      "type": "function"
    },
    {
      "inputs": [
        {
          "internalType": "address",
          "name": "operator",
          "type": "address"
        },
        {
          "internalType": "bool",
          "name": "approved",
          "type": "bool"
        }
      ],
      "name": "setApprovalForAll",
      "outputs": [],
      "stateMutability": "payable",
      "type": "function"
    },
    {
      "inputs": [
        {
          "internalType": "string",
          "name": "_contractURI",
          "type": "string"
        }
      ],
      "name": "setContractURI",
      "outputs": [],
      "stateMutability": "nonpayable",
      "type": "function"
    },
    {
      "inputs": [
        {
          "internalType": "address",
          "name": "_resolver",
          "type": "address"
        }
      ],
      "name": "setDefaultResolver",
      "outputs": [],
      "stateMutability": "nonpayable",
      "type": "function"
    },
    {
      "inputs": [
        {
          "internalType": "bytes4",
          "name": "sig",
          "type": "bytes4"
        },
        {
          "internalType": "bool",
          "name": "value",
          "type": "bool"
        }
      ],
      "name": "setInterface",
      "outputs": [],
      "stateMutability": "payable",
      "type": "function"
    },
    {
      "inputs": [
        {
          "internalType": "address",
          "name": "_metadata",
          "type": "address"
        }
      ],
      "name": "setMetadataContract",
      "outputs": [],
      "stateMutability": "nonpayable",
      "type": "function"
    },
    {
      "inputs": [
        {
          "internalType": "uint256",
          "name": "_royalty",
          "type": "uint256"
        }
      ],
      "name": "setRoyalty",
      "outputs": [],
      "stateMutability": "nonpayable",
      "type": "function"
    },
    {
      "inputs": [
        {
          "internalType": "bytes4",
          "name": "",
          "type": "bytes4"
        }
      ],
      "name": "supportsInterface",
      "outputs": [
        {
          "internalType": "bool",
          "name": "",
          "type": "bool"
        }
      ],
      "stateMutability": "view",
      "type": "function"
    },
    {
      "inputs": [],
      "name": "symbol",
      "outputs": [
        {
          "internalType": "string",
          "name": "",
          "type": "string"
        }
      ],
      "stateMutability": "view",
      "type": "function"
    },
    {
      "inputs": [],
      "name": "toggleActive",
      "outputs": [],
      "stateMutability": "nonpayable",
      "type": "function"
    },
    {
      "inputs": [
        {
          "internalType": "uint256",
          "name": "id",
          "type": "uint256"
        }
      ],
      "name": "tokenURI",
      "outputs": [
        {
          "internalType": "string",
          "name": "",
          "type": "string"
        }
      ],
      "stateMutability": "view",
      "type": "function"
    },
    {
      "inputs": [],
      "name": "totalSupply",
      "outputs": [
        {
          "internalType": "uint256",
          "name": "",
          "type": "uint256"
        }
      ],
      "stateMutability": "view",
      "type": "function"
    },
    {
      "inputs": [
        {
          "internalType": "address",
          "name": "src",
          "type": "address"
        },
        {
          "internalType": "address",
          "name": "dest",
          "type": "address"
        },
        {
          "internalType": "uint256",
          "name": "id",
          "type": "uint256"
        }
      ],
      "name": "transferFrom",
      "outputs": [],
      "stateMutability": "payable",
      "type": "function"
    },
    {
      "inputs": [
        {
          "internalType": "address",
          "name": "newDev",
          "type": "address"
        }
      ],
      "name": "transferOwnership",
      "outputs": [],
      "stateMutability": "nonpayable",
      "type": "function"
    },
    {
      "inputs": [],
      "name": "withdraw",
      "outputs": [],
      "stateMutability": "payable",
      "type": "function"
    },
    {
      "inputs": [
        {
          "internalType": "address",
          "name": "token",
          "type": "address"
        },
        {
          "internalType": "uint256",
          "name": "value",
          "type": "uint256"
        }
      ],
      "name": "withdraw",
      "outputs": [],
      "stateMutability": "payable",
      "type": "function"
    }
  ],
  "bytecode": {
    "object": "0x6001805460ff60a01b1916600160a01b17905560e0604052601560a09081527f426f726564454e535961636874436c75622e657468000000000000000000000060c05260029062000051908262000336565b5060408051808201909152600681526542454e53594360d01b60208201526003906200007e908262000336565b506064600b553480156200009157600080fd5b50604051620028de380380620028de833981016040819052620000b4916200041f565b60018054336001600160a01b03199182161782556009805482166001600160a01b03968716179055600080546e0c2e074ec69a0dfb2997ba6c7d2e1e9083161781556006805490921694909516939093179092556080908152662386f26fc100006008556040805160208082018690527f4f5b812789fc606be1b3b16908db13fc7a9adf7ca72641f84d75b47069d3d7f082840152825180830384018152606083018452805190820120938201939093527f7a46b638f71fee598932cc3ef366f2f3dcdae81da0064fba529d5ae43b3ac9c560a0808301919091528251808303909101815260c0909101909152805190820120600455601190527f3e87c36c65d41f2d1f93bff6c6912ffb5eecfa7a08ec62ba64f325e6f54b62b6805460ff1990811683179091557f64cac87306e9b0553215ed3e49d0f87561005ae5bd8d27eeeacc0b6986e7314880548216831790557f7fe31c34b300e6139c230f3de8239aaceec0a6887735a4aa356c95bf048c388880548216831790557fed0c07505a792b35dc46d92d52f3aa9b2eb49320f7593a35750fca7038c91f42805482168317905563152a902d60e11b9092527fe4d0997c2c8ac3af082784cee2413560e7093b736a167b7894b1818c2b470538805490921617905562000460565b634e487b7160e01b600052604160045260246000fd5b600181811c90821680620002bc57607f821691505b602082108103620002dd57634e487b7160e01b600052602260045260246000fd5b50919050565b601f8211156200033157600081815260208120601f850160051c810160208610156200030c5750805b601f850160051c820191505b818110156200032d5782815560010162000318565b5050505b505050565b81516001600160401b0381111562000352576200035262000291565b6200036a81620003638454620002a7565b84620002e3565b602080601f831160018114620003a25760008415620003895750858301515b600019600386901b1c1916600185901b1785556200032d565b600085815260208120601f198616915b82811015620003d357888601518255948401946001909101908401620003b2565b5085821015620003f25787850151600019600388901b60f8161c191681555b5050505050600190811b01905550565b80516001600160a01b03811681146200041a57600080fd5b919050565b6000806000606084860312156200043557600080fd5b620004408462000402565b9250620004506020850162000402565b9150604084015190509250925092565b6080516124546200048a6000396000818161073b015281816109e90152610e6301526124546000f3fe6080604052600436106102db5760003560e01c80636352211e11610184578063bb8762c8116100d6578063e5187f431161008a578063f2fde38b11610064578063f2fde38b146107cd578063f3fef3a3146107ed578063fd4e5e5f1461080057600080fd5b8063e5187f431461075d578063e8a3d4851461077d578063e985e9c51461079257600080fd5b8063c66485b2116100bb578063c66485b2146106e9578063c87b56dd14610709578063d5abeb011461072957600080fd5b8063bb8762c8146106b6578063c0a43a7c146106d657600080fd5b8063875e18f71161013857806395d89b411161011257806395d89b411461067b578063a22cb46514610690578063b88d4fde146106a357600080fd5b8063875e18f7146106285780638da5cb5b1461063d578063938e3d7b1461065b57600080fd5b806370a082311161016957806370a08231146105d25780638315ae65146105ff5780638467be0d1461061557600080fd5b80636352211e146105855780636eada5aa146105a557600080fd5b806323b872dd1161023d578063392f37e9116101f157806342842e0e116101cb57806342842e0e1461046857806342e5644c146105435780635dc6ddce1461057057600080fd5b8063392f37e9146104fb5780633ccfd60b1461051b5780634209a2e11461052357600080fd5b806329ee566c1161022257806329ee566c146104905780632a55205a146104a657806335db70b5146104e557600080fd5b806323b872dd1461046857806329c68dc11461047b57600080fd5b8063081812fc116102945780631249c58b116102795780631249c58b1461041c57806318160ddd146104245780631d2e2cc41461044857600080fd5b8063081812fc146103d1578063095ea7b31461040757600080fd5b806301ffc9a7116102c557806301ffc9a71461033d57806302fb0c5e1461037d57806306fdde03146103af57600080fd5b8062b7aff7146102e057806301e51ae81461031d575b600080fd5b3480156102ec57600080fd5b50600654610300906001600160a01b031681565b6040516001600160a01b0390911681526020015b60405180910390f35b34801561032957600080fd5b50600154610300906001600160a01b031681565b34801561034957600080fd5b5061036d610358366004611b9f565b60116020526000908152604090205460ff1681565b6040519015158152602001610314565b34801561038957600080fd5b5060015461036d9074010000000000000000000000000000000000000000900460ff1681565b3480156103bb57600080fd5b506103c4610816565b6040516103149190611c1b565b3480156103dd57600080fd5b506103006103ec366004611c2e565b600f602052600090815260409020546001600160a01b031681565b61041a610415366004611c63565b6108a4565b005b61041a610993565b34801561043057600080fd5b5061043a60075481565b604051908152602001610314565b34801561045457600080fd5b50600054610300906001600160a01b031681565b61041a610476366004611c8d565b610be4565b34801561048757600080fd5b5061041a610c04565b34801561049c57600080fd5b5061043a600b5481565b3480156104b257600080fd5b506104c66104c1366004611cc9565b610c68565b604080516001600160a01b039093168352602083019190915201610314565b3480156104f157600080fd5b5061043a60085481565b34801561050757600080fd5b50600954610300906001600160a01b031681565b61041a610c94565b34801561052f57600080fd5b5061041a61053e366004611c2e565b610d2e565b34801561054f57600080fd5b5061043a61055e366004611c2e565b60136020526000908152604090205481565b34801561057c57600080fd5b506103c4610d4a565b34801561059157600080fd5b506103006105a0366004611c2e565b610d57565b3480156105b157600080fd5b5061043a6105c0366004611c2e565b60126020526000908152604090205481565b3480156105de57600080fd5b5061043a6105ed366004611ceb565b600d6020526000908152604090205481565b34801561060b57600080fd5b5061043a60045481565b61041a610623366004611c2e565b610db3565b34801561063457600080fd5b5061041a611030565b34801561064957600080fd5b506001546001600160a01b0316610300565b34801561066757600080fd5b5061041a610676366004611d06565b61104a565b34801561068757600080fd5b506103c461106e565b61041a61069e366004611d86565b61107b565b61041a6106b1366004611e45565b611105565b3480156106c257600080fd5b5061043a6106d1366004611c2e565b611117565b61041a6106e4366004611ef0565b6111a1565b3480156106f557600080fd5b5061041a610704366004611ceb565b6112a6565b34801561071557600080fd5b506103c4610724366004611c2e565b6112f7565b34801561073557600080fd5b5061043a7f000000000000000000000000000000000000000000000000000000000000000081565b34801561076957600080fd5b5061041a610778366004611ceb565b611410565b34801561078957600080fd5b506103c4611461565b34801561079e57600080fd5b5061036d6107ad366004611f0e565b601060209081526000928352604080842090915290825290205460ff1681565b3480156107d957600080fd5b5061041a6107e8366004611ceb565b61146e565b61041a6107fb366004611c63565b6114f9565b34801561080c57600080fd5b5061043a60055481565b6002805461082390611f41565b80601f016020809104026020016040519081016040528092919081815260200182805461084f90611f41565b801561089c5780601f106108715761010080835404028352916020019161089c565b820191906000526020600020905b81548152906001019060200180831161087f57829003601f168201915b505050505081565b6000818152600e60205260409020546001600160a01b03163314610922576000818152600e6020526040908190205490517f575935b80000000000000000000000000000000000000000000000000000000081523360048201526001600160a01b039091166024820152604481018290526064015b60405180910390fd5b6000818152600f602052604080822080547fffffffffffffffffffffffff0000000000000000000000000000000000000000166001600160a01b0386169081179091559051839233917f8c5be1e5ebec7d5bd14f71427d1e84f3dd0314c0f7b2291e5b200ac8c7c3b9259190a45050565b60015474010000000000000000000000000000000000000000900460ff166109e7576040517fab35696f00000000000000000000000000000000000000000000000000000000815260040160405180910390fd5b7f00000000000000000000000000000000000000000000000000000000000000006007541115610a43576040517f266138f200000000000000000000000000000000000000000000000000000000815260040160405180910390fd5b600854341015610a81576040517fc4b73303000000000000000000000000000000000000000000000000000000008152346004820152602401610919565b6007546000610a8f826115a6565b604051602001610a9f9190611fb0565b60408051808303601f1901815290829052805160209091012060008054600480546006547f5ef2c7f000000000000000000000000000000000000000000000000000000000875291860152602485018490523360448601526001600160a01b03908116606486015260848501929092529193501690635ef2c7f09060a401600060405180830381600087803b158015610b3757600080fd5b505af1158015610b4b573d6000803e3d6000fd5b505050600083815260126020908152604080832085905560078054600190810190915533808552600d84528285208054909201909155868452600e90925280832080547fffffffffffffffffffffffff00000000000000000000000000000000000000001683179055518593509091907fddf252ad1be2c89b69c2b068fc378daa952ba7f163c4a11628f55a4df523b3ef908290a45050565b610bff838383604051806020016040528060008152506116e3565b505050565b6001546001600160a01b03163314610c1b57600080fd5b600180547fffffffffffffffffffffff00ffffffffffffffffffffffffffffffffffffffff8116740100000000000000000000000000000000000000009182900460ff1615909102179055565b600154600b5460009182916001600160a01b0390911690610c89908561202a565b915091509250929050565b6001546001600160a01b03163314610cab57600080fd5b60405133904780156108fc02916000818181858888f19350505050610d2c576040517f08c379a000000000000000000000000000000000000000000000000000000000815260206004820152601360248201527f4554485f5452414e534645525f4641494c4544000000000000000000000000006044820152606401610919565b565b6001546001600160a01b03163314610d4557600080fd5b600b55565b600c805461082390611f41565b60006007548210610d97576040517fb7c882eb00000000000000000000000000000000000000000000000000000000815260048101839052602401610919565b506000908152600e60205260409020546001600160a01b031690565b60015474010000000000000000000000000000000000000000900460ff16610e07576040517fab35696f00000000000000000000000000000000000000000000000000000000815260040160405180910390fd5b80600854610e15919061203e565b341015610e50576040517fc4b73303000000000000000000000000000000000000000000000000000000008152346004820152602401610919565b6007546000610e5f838361205d565b90507f0000000000000000000000000000000000000000000000000000000000000000811115610ebb576040517f266138f200000000000000000000000000000000000000000000000000000000815260040160405180910390fd5b80821015611014576000610ece836115a6565b604051602001610ede9190611fb0565b60408051808303601f1901815290829052805160209091012060008054600480546006547f5ef2c7f000000000000000000000000000000000000000000000000000000000875291860152602485018490523360448601526001600160a01b03908116606486015260848501929092529193501690635ef2c7f09060a401600060405180830381600087803b158015610f7657600080fd5b505af1158015610f8a573d6000803e3d6000fd5b5050506000848152601260209081526040808320859055600e90915280822080547fffffffffffffffffffffffff0000000000000000000000000000000000000000163390811790915590518693509091907fddf252ad1be2c89b69c2b068fc378daa952ba7f163c4a11628f55a4df523b3ef908290a4508161100c81612075565b925050610ebb565b60075550336000908152600d6020526040902080549091019055565b6001546001600160a01b0316331461104757600080fd5b33ff5b6001546001600160a01b0316331461106157600080fd5b600a610bff8284836120dd565b6003805461082390611f41565b3360008181526010602090815260408083206001600160a01b0387168085529083529281902080547fffffffffffffffffffffffffffffffffffffffffffffffffffffffffffffff001686151590811790915590519081529192917f17307eab39ab6107e8899845ad3d59bd9653f200f220920489ca2b5937696c31910160405180910390a35050565b611111848484846116e3565b50505050565b60006007548210611157576040517fb7c882eb00000000000000000000000000000000000000000000000000000000815260048101839052602401610919565b60045460008381526012602090815260409182902054915161118493929101918252602082015260400190565b604051602081830303815290604052805190602001209050919050565b6001546001600160a01b031633146111b857600080fd5b7fffffffff000000000000000000000000000000000000000000000000000000008083169003611244576040517f08c379a000000000000000000000000000000000000000000000000000000000815260206004820152601a60248201527f494e56414c49445f494e544552464143455f53454c4543544f520000000000006044820152606401610919565b7fffffffff0000000000000000000000000000000000000000000000000000000091909116600090815260116020526040902080547fffffffffffffffffffffffffffffffffffffffffffffffffffffffffffffff0016911515919091179055565b6001546001600160a01b031633146112bd57600080fd5b600680547fffffffffffffffffffffffff0000000000000000000000000000000000000000166001600160a01b0392909216919091179055565b60606007548210611337576040517fb7c882eb00000000000000000000000000000000000000000000000000000000815260048101839052602401610919565b6000600c805461134690611f41565b9050111561138057600c611359836115a6565b60405160200161136a92919061219e565b6040516020818303038152906040529050919050565b6009546040517f4a7dd523000000000000000000000000000000000000000000000000000000008152600481018490526001600160a01b0390911690634a7dd52390602401600060405180830381865afa1580156113e2573d6000803e3d6000fd5b505050506040513d6000823e601f3d908101601f1916820160405261140a91908101906122be565b92915050565b6001546001600160a01b0316331461142757600080fd5b600980547fffffffffffffffffffffffff0000000000000000000000000000000000000000166001600160a01b0392909216919091179055565b600a805461082390611f41565b6001546001600160a01b0316331461148557600080fd5b6001546040516001600160a01b038084169216907f8be0079c531659141344cd1fd0a4f28419497f9722a3daafe3b4186f6b6457e090600090a3600180547fffffffffffffffffffffffff0000000000000000000000000000000000000000166001600160a01b0392909216919091179055565b6001546001600160a01b0316331461151057600080fd5b6001546040517f23b872dd0000000000000000000000000000000000000000000000000000000081523060048201526001600160a01b03918216602482015260448101839052908316906323b872dd906064016020604051808303816000875af1158015611582573d6000803e3d6000fd5b505050506040513d601f19601f82011682018060405250810190610bff9190612335565b6060816000036115e957505060408051808201909152600181527f3000000000000000000000000000000000000000000000000000000000000000602082015290565b8160005b811561161357806115fd81612075565b915061160c9050600a8361202a565b91506115ed565b60008167ffffffffffffffff81111561162e5761162e611dbd565b6040519080825280601f01601f191660200182016040528015611658576020820181803683370190505b5090505b84156116db5761166d600183612352565b915061167a600a86612369565b61168590603061205d565b60f81b81838151811061169a5761169a61237d565b60200101907effffffffffffffffffffffffffffffffffffffffffffffffffffffffffffff1916908160001a9053506116d4600a8661202a565b945061165c565b949350505050565b60015474010000000000000000000000000000000000000000900460ff16611737576040517fab35696f00000000000000000000000000000000000000000000000000000000815260040160405180910390fd5b6001600160a01b038316611777576040517fd92e233d00000000000000000000000000000000000000000000000000000000815260040160405180910390fd5b6000828152600e60205260409020546001600160a01b038581169116146117f5576000828152600e6020526040908190205490517f61d5c4fe0000000000000000000000000000000000000000000000000000000081526001600160a01b039182166004820152908516602482015260448101839052606401610919565b6000828152600e60205260409020546001600160a01b0316331480159061184057506001600160a01b038416600090815260106020908152604080832033845290915290205460ff16155b801561186357506000828152600f60205260409020546001600160a01b03163314155b156118b2576040517f575935b80000000000000000000000000000000000000000000000000000000081523360048201526001600160a01b038516602482015260448101839052606401610919565b600080546004805485845260126020526040938490205493517f06ab59230000000000000000000000000000000000000000000000000000000081529182015260248101929092526001600160a01b03858116604484015216906306ab5923906064016020604051808303816000875af1158015611934573d6000803e3d6000fd5b505050506040513d601f19601f8201168201806040525081019061195891906123ac565b506001600160a01b038085166000908152600d60209081526040808320805460001901905592861680835283832080546001019055858352600e825283832080547fffffffffffffffffffffffff00000000000000000000000000000000000000009081168317909155600f90925292909120805490911690553b15611b27576040517f150b7a020000000000000000000000000000000000000000000000000000000081526001600160a01b0384169063150b7a0290611a239033908890879087906004016123c5565b6020604051808303816000875af1925050508015611a5e575060408051601f3d908101601f19168201909252611a5b91810190612401565b60015b611a9f576040517f3a9f8cb30000000000000000000000000000000000000000000000000000000081526001600160a01b0384166004820152602401610919565b7fffffffff0000000000000000000000000000000000000000000000000000000081167f150b7a020000000000000000000000000000000000000000000000000000000014611b25576040517f3a9f8cb30000000000000000000000000000000000000000000000000000000081526001600160a01b0385166004820152602401610919565b505b81836001600160a01b0316856001600160a01b03167fddf252ad1be2c89b69c2b068fc378daa952ba7f163c4a11628f55a4df523b3ef60405160405180910390a450505050565b7fffffffff0000000000000000000000000000000000000000000000000000000081168114611b9c57600080fd5b50565b600060208284031215611bb157600080fd5b8135611bbc81611b6e565b9392505050565b60005b83811015611bde578181015183820152602001611bc6565b838111156111115750506000910152565b60008151808452611c07816020860160208601611bc3565b601f01601f19169290920160200192915050565b602081526000611bbc6020830184611bef565b600060208284031215611c4057600080fd5b5035919050565b80356001600160a01b0381168114611c5e57600080fd5b919050565b60008060408385031215611c7657600080fd5b611c7f83611c47565b946020939093013593505050565b600080600060608486031215611ca257600080fd5b611cab84611c47565b9250611cb960208501611c47565b9150604084013590509250925092565b60008060408385031215611cdc57600080fd5b50508035926020909101359150565b600060208284031215611cfd57600080fd5b611bbc82611c47565b60008060208385031215611d1957600080fd5b823567ffffffffffffffff80821115611d3157600080fd5b818501915085601f830112611d4557600080fd5b813581811115611d5457600080fd5b866020828501011115611d6657600080fd5b60209290920196919550909350505050565b8015158114611b9c57600080fd5b60008060408385031215611d9957600080fd5b611da283611c47565b91506020830135611db281611d78565b809150509250929050565b7f4e487b7100000000000000000000000000000000000000000000000000000000600052604160045260246000fd5b604051601f8201601f1916810167ffffffffffffffff81118282101715611e1557611e15611dbd565b604052919050565b600067ffffffffffffffff821115611e3757611e37611dbd565b50601f01601f191660200190565b60008060008060808587031215611e5b57600080fd5b611e6485611c47565b9350611e7260208601611c47565b925060408501359150606085013567ffffffffffffffff811115611e9557600080fd5b8501601f81018713611ea657600080fd5b8035611eb9611eb482611e1d565b611dec565b818152886020838501011115611ece57600080fd5b8160208401602083013760006020838301015280935050505092959194509250565b60008060408385031215611f0357600080fd5b8235611da281611b6e565b60008060408385031215611f2157600080fd5b611f2a83611c47565b9150611f3860208401611c47565b90509250929050565b600181811c90821680611f5557607f821691505b602082108103611f8e577f4e487b7100000000000000000000000000000000000000000000000000000000600052602260045260246000fd5b50919050565b60008151611fa6818560208601611bc3565b9290920192915050565b60008251611fc2818460208701611bc3565b9190910192915050565b7f4e487b7100000000000000000000000000000000000000000000000000000000600052601260045260246000fd5b7f4e487b7100000000000000000000000000000000000000000000000000000000600052601160045260246000fd5b60008261203957612039611fcc565b500490565b600081600019048311821515161561205857612058611ffb565b500290565b6000821982111561207057612070611ffb565b500190565b6000600019820361208857612088611ffb565b5060010190565b601f821115610bff57600081815260208120601f850160051c810160208610156120b65750805b601f850160051c820191505b818110156120d5578281556001016120c2565b505050505050565b67ffffffffffffffff8311156120f5576120f5611dbd565b612109836121038354611f41565b8361208f565b6000601f84116001811461213d57600085156121255750838201355b600019600387901b1c1916600186901b178355612197565b600083815260209020601f19861690835b8281101561216e578685013582556020948501946001909201910161214e565b508682101561218b5760001960f88860031b161c19848701351681555b505060018560011b0183555b5050505050565b7f697066733a2f2f00000000000000000000000000000000000000000000000000815260006007600085546121d281611f41565b600182811680156121ea576001811461222157612254565b7fffffffffffffffffffffffffffffffffffffffffffffffffffffffffffffff008416868901528583151584028901019450612254565b8960005260208060002060005b858110156122495781548b82018a015290840190820161222e565b505050858389010194505b507f2f00000000000000000000000000000000000000000000000000000000000000845261228481850189611f94565b9450505050506122b3817f2e6a736f6e0000000000000000000000000000000000000000000000000000009052565b600501949350505050565b6000602082840312156122d057600080fd5b815167ffffffffffffffff8111156122e757600080fd5b8201601f810184136122f857600080fd5b8051612306611eb482611e1d565b81815285602083850101111561231b57600080fd5b61232c826020830160208601611bc3565b95945050505050565b60006020828403121561234757600080fd5b8151611bbc81611d78565b60008282101561236457612364611ffb565b500390565b60008261237857612378611fcc565b500690565b7f4e487b7100000000000000000000000000000000000000000000000000000000600052603260045260246000fd5b6000602082840312156123be57600080fd5b5051919050565b60006001600160a01b038087168352808616602084015250836040830152608060608301526123f76080830184611bef565b9695505050505050565b60006020828403121561241357600080fd5b8151611bbc81611b6e56fea2646970667358221220640c04ba0b794b12a7c8052713cf7276a0c106d49cdb0a38aa7b89744e7ba7ce64736f6c634300080f0033",
    "linkReferences": {}
  },
  "methodIdentifiers": {
    "DESTROY()": "875e18f7",
    "DefaultResolver()": "00b7aff7",
    "Dev()": "01e51ae8",
    "DomainHash()": "8315ae65",
    "DomainHash2()": "fd4e5e5f",
    "ENS()": "1d2e2cc4",
    "Hash2ID(bytes32)": "42e5644c",
    "ID2Labelhash(uint256)": "6eada5aa",
    "ID2Namehash(uint256)": "bb8762c8",
    "NFTData()": "5dc6ddce",
    "active()": "02fb0c5e",
    "approve(address,uint256)": "095ea7b3",
    "balanceOf(address)": "70a08231",
    "batchMint(uint256)": "8467be0d",
    "contractURI()": "e8a3d485",
    "getApproved(uint256)": "081812fc",
    "isApprovedForAll(address,address)": "e985e9c5",
    "maxSupply()": "d5abeb01",
    "metadata()": "392f37e9",
    "mint()": "1249c58b",
    "mintingPrice()": "35db70b5",
    "name()": "06fdde03",
    "owner()": "8da5cb5b",
    "ownerOf(uint256)": "6352211e",
    "royalty()": "29ee566c",
    "royaltyInfo(uint256,uint256)": "2a55205a",
    "safeTransferFrom(address,address,uint256)": "42842e0e",
    "safeTransferFrom(address,address,uint256,bytes)": "b88d4fde",
    "setApprovalForAll(address,bool)": "a22cb465",
    "setContractURI(string)": "938e3d7b",
    "setDefaultResolver(address)": "c66485b2",
    "setInterface(bytes4,bool)": "c0a43a7c",
    "setMetadataContract(address)": "e5187f43",
    "setRoyalty(uint256)": "4209a2e1",
    "supportsInterface(bytes4)": "01ffc9a7",
    "symbol()": "95d89b41",
    "toggleActive()": "29c68dc1",
    "tokenURI(uint256)": "c87b56dd",
    "totalSupply()": "18160ddd",
    "transferFrom(address,address,uint256)": "23b872dd",
    "transferOwnership(address)": "f2fde38b",
    "withdraw()": "3ccfd60b",
    "withdraw(address,uint256)": "f3fef3a3"
  },
  "id": 7
}