{
  "abi": [
    {
      "inputs": [
        {
          "internalType": "address",
          "name": "_resolver",
          "type": "address"
        },
        {
          "internalType": "uint256",
          "name": "_maxSupply",
          "type": "uint256"
        }
      ],
      "stateMutability": "nonpayable",
      "type": "constructor"
    },
    {
      "inputs": [
        {
          "internalType": "address",
          "name": "addr",
          "type": "address"
        }
      ],
      "name": "ERC721IncompatibleReceiver",
      "type": "error"
    },
    {
      "inputs": [
        {
          "internalType": "uint256",
          "name": "size",
          "type": "uint256"
        },
        {
          "internalType": "uint256",
          "name": "yourSize",
          "type": "uint256"
        }
      ],
      "name": "InsufficientEtherSent",
      "type": "error"
    },
    {
      "inputs": [
        {
          "internalType": "uint256",
          "name": "id",
          "type": "uint256"
        }
      ],
      "name": "InvalidTokenID",
      "type": "error"
    },
    {
      "inputs": [],
      "name": "MintEnded",
      "type": "error"
    },
    {
      "inputs": [],
      "name": "MintingPaused",
      "type": "error"
    },
    {
      "inputs": [
        {
          "internalType": "address",
          "name": "owner",
          "type": "address"
        },
        {
          "internalType": "address",
          "name": "from",
          "type": "address"
        },
        {
          "internalType": "uint256",
          "name": "id",
          "type": "uint256"
        }
      ],
      "name": "NotSubdomainOwner",
      "type": "error"
    },
    {
      "inputs": [
        {
          "internalType": "address",
          "name": "_dev",
          "type": "address"
        },
        {
          "internalType": "address",
          "name": "_you",
          "type": "address"
        }
      ],
      "name": "OnlyDev",
      "type": "error"
    },
    {
      "inputs": [],
      "name": "OversizedBatch",
      "type": "error"
    },
    {
      "inputs": [
        {
          "internalType": "address",
          "name": "operator",
          "type": "address"
        },
        {
          "internalType": "address",
          "name": "owner",
          "type": "address"
        },
        {
          "internalType": "uint256",
          "name": "id",
          "type": "uint256"
        }
      ],
      "name": "Unauthorized",
      "type": "error"
    },
    {
      "inputs": [],
      "name": "ZeroAddress",
      "type": "error"
    },
    {
      "anonymous": false,
      "inputs": [
        {
          "indexed": true,
          "internalType": "address",
          "name": "_owner",
          "type": "address"
        },
        {
          "indexed": true,
          "internalType": "address",
          "name": "approved",
          "type": "address"
        },
        {
          "indexed": true,
          "internalType": "uint256",
          "name": "id",
          "type": "uint256"
        }
      ],
      "name": "Approval",
      "type": "event"
    },
    {
      "anonymous": false,
      "inputs": [
        {
          "indexed": true,
          "internalType": "address",
          "name": "_owner",
          "type": "address"
        },
        {
          "indexed": true,
          "internalType": "address",
          "name": "operator",
          "type": "address"
        },
        {
          "indexed": false,
          "internalType": "bool",
          "name": "approved",
          "type": "bool"
        }
      ],
      "name": "ApprovalForAll",
      "type": "event"
    },
    {
      "anonymous": false,
      "inputs": [
        {
          "indexed": true,
          "internalType": "address",
          "name": "previousOwner",
          "type": "address"
        },
        {
          "indexed": true,
          "internalType": "address",
          "name": "newOwner",
          "type": "address"
        }
      ],
      "name": "OwnershipTransferred",
      "type": "event"
    },
    {
      "anonymous": false,
      "inputs": [
        {
          "indexed": true,
          "internalType": "address",
          "name": "from",
          "type": "address"
        },
        {
          "indexed": true,
          "internalType": "address",
          "name": "to",
          "type": "address"
        },
        {
          "indexed": true,
          "internalType": "uint256",
          "name": "id",
          "type": "uint256"
        }
      ],
      "name": "Transfer",
      "type": "event"
    },
    {
      "stateMutability": "payable",
      "type": "fallback"
    },
    {
      "inputs": [],
      "name": "DESTROY",
      "outputs": [],
      "stateMutability": "payable",
      "type": "function"
    },
    {
      "inputs": [],
      "name": "DefaultResolver",
      "outputs": [
        {
          "internalType": "address",
          "name": "",
          "type": "address"
        }
      ],
      "stateMutability": "view",
      "type": "function"
    },
    {
      "inputs": [],
      "name": "Dev",
      "outputs": [
        {
          "internalType": "address",
          "name": "",
          "type": "address"
        }
      ],
      "stateMutability": "view",
      "type": "function"
    },
    {
      "inputs": [],
      "name": "DomainHash",
      "outputs": [
        {
          "internalType": "bytes32",
          "name": "",
          "type": "bytes32"
        }
      ],
      "stateMutability": "view",
      "type": "function"
    },
    {
      "inputs": [],
      "name": "ENS",
      "outputs": [
        {
          "internalType": "contract iENS",
          "name": "",
          "type": "address"
        }
      ],
      "stateMutability": "view",
      "type": "function"
    },
    {
      "inputs": [
        {
          "internalType": "uint256",
          "name": "",
          "type": "uint256"
        }
      ],
      "name": "ID2Labelhash",
      "outputs": [
        {
          "internalType": "bytes32",
          "name": "",
          "type": "bytes32"
        }
      ],
      "stateMutability": "view",
      "type": "function"
    },
    {
      "inputs": [
        {
          "internalType": "uint256",
          "name": "id",
          "type": "uint256"
        }
      ],
      "name": "ID2Namehash",
      "outputs": [
        {
          "internalType": "bytes32",
          "name": "",
          "type": "bytes32"
        }
      ],
      "stateMutability": "view",
      "type": "function"
    },
    {
      "inputs": [
        {
          "internalType": "bytes32",
          "name": "",
          "type": "bytes32"
        }
      ],
      "name": "Namehash2ID",
      "outputs": [
        {
          "internalType": "uint256",
          "name": "",
          "type": "uint256"
        }
      ],
      "stateMutability": "view",
      "type": "function"
    },
    {
      "inputs": [],
      "name": "active",
      "outputs": [
        {
          "internalType": "bool",
          "name": "",
          "type": "bool"
        }
      ],
      "stateMutability": "view",
      "type": "function"
    },
    {
      "inputs": [
        {
          "internalType": "address",
          "name": "approved",
          "type": "address"
        },
        {
          "internalType": "uint256",
          "name": "id",
          "type": "uint256"
        }
      ],
      "name": "approve",
      "outputs": [],
      "stateMutability": "payable",
      "type": "function"
    },
    {
      "inputs": [
        {
          "internalType": "address",
          "name": "",
          "type": "address"
        }
      ],
      "name": "balanceOf",
      "outputs": [
        {
          "internalType": "uint256",
          "name": "",
          "type": "uint256"
        }
      ],
      "stateMutability": "view",
      "type": "function"
    },
    {
      "inputs": [
        {
          "internalType": "uint256",
          "name": "batchSize",
          "type": "uint256"
        }
      ],
      "name": "batchMint",
      "outputs": [],
      "stateMutability": "payable",
      "type": "function"
    },
    {
      "inputs": [],
      "name": "contractURI",
      "outputs": [
        {
          "internalType": "string",
          "name": "",
          "type": "string"
        }
      ],
      "stateMutability": "view",
      "type": "function"
    },
    {
      "inputs": [
        {
          "internalType": "uint256",
          "name": "",
          "type": "uint256"
        }
      ],
      "name": "getApproved",
      "outputs": [
        {
          "internalType": "address",
          "name": "",
          "type": "address"
        }
      ],
      "stateMutability": "view",
      "type": "function"
    },
    {
      "inputs": [
        {
          "internalType": "address",
          "name": "",
          "type": "address"
        },
        {
          "internalType": "address",
          "name": "",
          "type": "address"
        }
      ],
      "name": "isApprovedForAll",
      "outputs": [
        {
          "internalType": "bool",
          "name": "",
          "type": "bool"
        }
      ],
      "stateMutability": "view",
      "type": "function"
    },
    {
      "inputs": [],
      "name": "maxSupply",
      "outputs": [
        {
          "internalType": "uint256",
          "name": "",
          "type": "uint256"
        }
      ],
      "stateMutability": "view",
      "type": "function"
    },
    {
      "inputs": [],
      "name": "metaIPFS",
      "outputs": [
        {
          "internalType": "string",
          "name": "",
          "type": "string"
        }
      ],
      "stateMutability": "view",
      "type": "function"
    },
    {
      "inputs": [],
      "name": "mint",
      "outputs": [],
      "stateMutability": "payable",
      "type": "function"
    },
    {
      "inputs": [],
      "name": "mintPrice",
      "outputs": [
        {
          "internalType": "uint256",
          "name": "",
          "type": "uint256"
        }
      ],
      "stateMutability": "view",
      "type": "function"
    },
    {
      "inputs": [],
      "name": "name",
      "outputs": [
        {
          "internalType": "string",
          "name": "",
          "type": "string"
        }
      ],
      "stateMutability": "view",
      "type": "function"
    },
    {
      "inputs": [],
      "name": "owner",
      "outputs": [
        {
          "internalType": "address",
          "name": "",
          "type": "address"
        }
      ],
      "stateMutability": "view",
      "type": "function"
    },
    {
      "inputs": [
        {
          "internalType": "uint256",
          "name": "id",
          "type": "uint256"
        }
      ],
      "name": "ownerOf",
      "outputs": [
        {
          "internalType": "address",
          "name": "",
          "type": "address"
        }
      ],
      "stateMutability": "view",
      "type": "function"
    },
    {
      "inputs": [],
      "name": "royalty",
      "outputs": [
        {
          "internalType": "uint256",
          "name": "",
          "type": "uint256"
        }
      ],
      "stateMutability": "view",
      "type": "function"
    },
    {
      "inputs": [
        {
          "internalType": "uint256",
          "name": "id",
          "type": "uint256"
        },
        {
          "internalType": "uint256",
          "name": "_salePrice",
          "type": "uint256"
        }
      ],
      "name": "royaltyInfo",
      "outputs": [
        {
          "internalType": "address",
          "name": "",
          "type": "address"
        },
        {
          "internalType": "uint256",
          "name": "",
          "type": "uint256"
        }
      ],
      "stateMutability": "view",
      "type": "function"
    },
    {
      "inputs": [
        {
          "internalType": "address",
          "name": "from",
          "type": "address"
        },
        {
          "internalType": "address",
          "name": "to",
          "type": "address"
        },
        {
          "internalType": "uint256",
          "name": "id",
          "type": "uint256"
        }
      ],
      "name": "safeTransferFrom",
      "outputs": [],
      "stateMutability": "payable",
      "type": "function"
    },
    {
      "inputs": [
        {
          "internalType": "address",
          "name": "from",
          "type": "address"
        },
        {
          "internalType": "address",
          "name": "to",
          "type": "address"
        },
        {
          "internalType": "uint256",
          "name": "id",
          "type": "uint256"
        },
        {
          "internalType": "bytes",
          "name": "data",
          "type": "bytes"
        }
      ],
      "name": "safeTransferFrom",
      "outputs": [],
      "stateMutability": "payable",
      "type": "function"
    },
    {
      "inputs": [
        {
          "internalType": "address",
          "name": "operator",
          "type": "address"
        },
        {
          "internalType": "bool",
          "name": "approved",
          "type": "bool"
        }
      ],
      "name": "setApprovalForAll",
      "outputs": [],
      "stateMutability": "payable",
      "type": "function"
    },
    {
      "inputs": [
        {
          "internalType": "string",
          "name": "_contractURI",
          "type": "string"
        }
      ],
      "name": "setContractURI",
      "outputs": [],
      "stateMutability": "nonpayable",
      "type": "function"
    },
    {
      "inputs": [
        {
          "internalType": "address",
          "name": "_resolver",
          "type": "address"
        }
      ],
      "name": "setDefaultResolver",
      "outputs": [],
      "stateMutability": "nonpayable",
      "type": "function"
    },
    {
      "inputs": [
        {
          "internalType": "bytes4",
          "name": "sig",
          "type": "bytes4"
        },
        {
          "internalType": "bool",
          "name": "value",
          "type": "bool"
        }
      ],
      "name": "setInterface",
      "outputs": [],
      "stateMutability": "payable",
      "type": "function"
    },
    {
      "inputs": [
        {
          "internalType": "uint256",
          "name": "_royalty",
          "type": "uint256"
        }
      ],
      "name": "setRoyalty",
      "outputs": [],
      "stateMutability": "nonpayable",
      "type": "function"
    },
    {
      "inputs": [
        {
          "internalType": "bytes4",
          "name": "",
          "type": "bytes4"
        }
      ],
      "name": "supportsInterface",
      "outputs": [
        {
          "internalType": "bool",
          "name": "",
          "type": "bool"
        }
      ],
      "stateMutability": "view",
      "type": "function"
    },
    {
      "inputs": [],
      "name": "symbol",
      "outputs": [
        {
          "internalType": "string",
          "name": "",
          "type": "string"
        }
      ],
      "stateMutability": "view",
      "type": "function"
    },
    {
      "inputs": [],
      "name": "toggleActive",
      "outputs": [],
      "stateMutability": "nonpayable",
      "type": "function"
    },
    {
      "inputs": [
        {
          "internalType": "uint256",
          "name": "id",
          "type": "uint256"
        }
      ],
      "name": "tokenURI",
      "outputs": [
        {
          "internalType": "string",
          "name": "",
          "type": "string"
        }
      ],
      "stateMutability": "view",
      "type": "function"
    },
    {
      "inputs": [],
      "name": "totalSupply",
      "outputs": [
        {
          "internalType": "uint256",
          "name": "",
          "type": "uint256"
        }
      ],
      "stateMutability": "view",
      "type": "function"
    },
    {
      "inputs": [
        {
          "internalType": "address",
          "name": "from",
          "type": "address"
        },
        {
          "internalType": "address",
          "name": "to",
          "type": "address"
        },
        {
          "internalType": "uint256",
          "name": "id",
          "type": "uint256"
        }
      ],
      "name": "transferFrom",
      "outputs": [],
      "stateMutability": "payable",
      "type": "function"
    },
    {
      "inputs": [
        {
          "internalType": "address",
          "name": "newDev",
          "type": "address"
        }
      ],
      "name": "transferOwnership",
      "outputs": [],
      "stateMutability": "nonpayable",
      "type": "function"
    },
    {
      "inputs": [],
      "name": "withdrawEther",
      "outputs": [],
      "stateMutability": "payable",
      "type": "function"
    },
    {
      "inputs": [
        {
          "internalType": "address",
          "name": "token",
          "type": "address"
        }
      ],
      "name": "withdrawToken",
      "outputs": [],
      "stateMutability": "payable",
      "type": "function"
    },
    {
      "stateMutability": "payable",
      "type": "receive"
    }
  ],
  "bytecode": {
    "object": "0x6000805460ff60a01b1916600160a01b179055610100604052601560c09081527f426f726564454e535961636874436c75622e657468000000000000000000000060e05260029062000052908262000382565b5060408051808201909152600681526542454e53594360d01b60208201526003906200007f908262000382565b50662386f26fc1000060065560405180606001604052806035815260200162002b0e60359139600790620000b4908262000382565b5060056008556040518060600160405280602e815260200162002ae0602e9139600990620000e3908262000382565b50348015620000f157600080fd5b5060405162002b4338038062002b4383398101604081905262000114916200044e565b60018054336001600160a01b031991821617909155600080546e0c2e074ec69a0dfb2997ba6c7d2e1e908316178155600480549092166001600160a01b038516179091556040805160208101929092527f4f5b812789fc606be1b3b16908db13fc7a9adf7ca72641f84d75b47069d3d7f09082015260600160408051601f198184030181528282528051602091820120908301527f7a46b638f71fee598932cc3ef366f2f3dcdae81da0064fba529d5ae43b3ac9c59082015260600160408051808303601f19018152919052805160209182012060a052608091909152600e9052507ff78053c79e0b9aa452e27b1a016da828f8da009fc4e41d10c85bd3a969c7facb8054600160ff1991821681179092557f2128e120182d3aad40be1b13f6e6837469325eed442c0118fa5598c7f671c92b80548216831790557fee4d32f332f0a2d0ddc34ffb2ec7a1b8568e915f8f5b625da8ece9305abb079a80548216831790557facee4afab9ecaa8ae5295b11b5f85101d139b31d8872b02073faef8923dbb604805482168317905563152a902d60e11b6000527fe13efcc3391fd06a1796af9f3856980176fe91811e54bc42ace51e572d1d17c8805490911690911790556200048a565b634e487b7160e01b600052604160045260246000fd5b600181811c908216806200030857607f821691505b6020821081036200032957634e487b7160e01b600052602260045260246000fd5b50919050565b601f8211156200037d57600081815260208120601f850160051c81016020861015620003585750805b601f850160051c820191505b81811015620003795782815560010162000364565b5050505b505050565b81516001600160401b038111156200039e576200039e620002dd565b620003b681620003af8454620002f3565b846200032f565b602080601f831160018114620003ee5760008415620003d55750858301515b600019600386901b1c1916600185901b17855562000379565b600085815260208120601f198616915b828110156200041f57888601518255948401946001909101908401620003fe565b50858210156200043e5787850151600019600388901b60f8161c191681555b5050505050600190811b01905550565b600080604083850312156200046257600080fd5b82516001600160a01b03811681146200047a57600080fd5b6020939093015192949293505050565b60805160a0516125f8620004e86000396000818161059c01528181610a9701528181610b430152818161103e015281816110ea015281816114b00152611b3501526000818161072c015281816109910152610efe01526125f86000f3fe6080604052600436106102be5760003560e01c80637362377b1161016e578063a37f9f99116100cb578063c87b56dd1161007f578063e8a3d48511610064578063e8a3d4851461074e578063e985e9c514610763578063f2fde38b1461079e57600080fd5b8063c87b56dd146106fa578063d5abeb011461071a57600080fd5b8063bb8762c8116100b0578063bb8762c8146106a7578063c0a43a7c146106c7578063c66485b2146106da57600080fd5b8063a37f9f9914610667578063b88d4fde1461069457600080fd5b80638da5cb5b1161012257806395d89b411161010757806395d89b411461062a57806398adcbba1461063f578063a22cb4651461065457600080fd5b80638da5cb5b146105ec578063938e3d7b1461060a57600080fd5b80638467be0d116101535780638467be0d146105be578063875e18f7146105d157806389476069146105d957600080fd5b80637362377b146105825780638315ae651461058a57600080fd5b806323b872dd1161021c57806342842e0e116101d05780636817c76c116101b55780636817c76c146105125780636eada5aa1461052857806370a082311461055557600080fd5b806342842e0e146104555780636352211e146104f257600080fd5b806329ee566c1161020157806329ee566c1461047d5780632a55205a146104935780634209a2e1146104d257600080fd5b806323b872dd1461045557806329c68dc11461046857600080fd5b8063081812fc116102735780631249c58b116102585780631249c58b1461040957806318160ddd146104115780631d2e2cc41461043557600080fd5b8063081812fc146103be578063095ea7b3146103f457600080fd5b806301ffc9a7116102a457806301ffc9a71461032a57806302fb0c5e1461036a57806306fdde031461039c57600080fd5b8062b7aff7146102cd57806301e51ae81461030a57600080fd5b366102c857600080fd5b600080fd5b3480156102d957600080fd5b506004546102ed906001600160a01b031681565b6040516001600160a01b0390911681526020015b60405180910390f35b34801561031657600080fd5b506001546102ed906001600160a01b031681565b34801561033657600080fd5b5061035a610345366004611df4565b600e6020526000908152604090205460ff1681565b6040519015158152602001610301565b34801561037657600080fd5b5060005461035a9074010000000000000000000000000000000000000000900460ff1681565b3480156103a857600080fd5b506103b16107be565b6040516103019190611e68565b3480156103ca57600080fd5b506102ed6103d9366004611e7b565b600c602052600090815260409020546001600160a01b031681565b610407610402366004611eb0565b61084c565b005b61040761093b565b34801561041d57600080fd5b5061042760055481565b604051908152602001610301565b34801561044157600080fd5b506000546102ed906001600160a01b031681565b610407610463366004611eda565b610c21565b34801561047457600080fd5b50610407610c41565b34801561048957600080fd5b5061042760085481565b34801561049f57600080fd5b506104b36104ae366004611f16565b610ce7565b604080516001600160a01b039093168352602083019190915201610301565b3480156104de57600080fd5b506104076104ed366004611e7b565b610d1e565b3480156104fe57600080fd5b506102ed61050d366004611e7b565b610d7c565b34801561051e57600080fd5b5061042760065481565b34801561053457600080fd5b50610427610543366004611e7b565b600f6020526000908152604090205481565b34801561056157600080fd5b50610427610570366004611f38565b600a6020526000908152604090205481565b610407610dde565b34801561059657600080fd5b506104277f000000000000000000000000000000000000000000000000000000000000000081565b6104076105cc366004611e7b565b610e9e565b6104076111cf565b6104076105e7366004611f38565b61122b565b3480156105f857600080fd5b506001546001600160a01b03166102ed565b34801561061657600080fd5b50610407610625366004611f53565b611351565b34801561063657600080fd5b506103b16113b7565b34801561064b57600080fd5b506103b16113c4565b610407610662366004611fd3565b6113d1565b34801561067357600080fd5b50610427610682366004611e7b565b60106020526000908152604090205481565b6104076106a2366004612039565b61145b565b3480156106b357600080fd5b506104276106c2366004611e7b565b61146d565b6104076106d5366004612115565b61151b565b3480156106e657600080fd5b506104076106f5366004611f38565b611662565b34801561070657600080fd5b506103b1610715366004611e7b565b6116f5565b34801561072657600080fd5b506104277f000000000000000000000000000000000000000000000000000000000000000081565b34801561075a57600080fd5b506103b1611769565b34801561076f57600080fd5b5061035a61077e366004612133565b600d60209081526000928352604080842090915290825290205460ff1681565b3480156107aa57600080fd5b506104076107b9366004611f38565b611776565b600280546107cb90612166565b80601f01602080910402602001604051908101604052809291908181526020018280546107f790612166565b80156108445780601f1061081957610100808354040283529160200191610844565b820191906000526020600020905b81548152906001019060200180831161082757829003601f168201915b505050505081565b6000818152600b60205260409020546001600160a01b031633146108ca576000818152600b6020526040908190205490517f431ef6160000000000000000000000000000000000000000000000000000000081523360048201526001600160a01b039091166024820152604481018290526064015b60405180910390fd5b6000818152600c602052604080822080547fffffffffffffffffffffffff0000000000000000000000000000000000000000166001600160a01b0386169081179091559051839233917f8c5be1e5ebec7d5bd14f71427d1e84f3dd0314c0f7b2291e5b200ac8c7c3b9259190a45050565b60005474010000000000000000000000000000000000000000900460ff1661098f576040517feb56075600000000000000000000000000000000000000000000000000000000815260040160405180910390fd5b7f0000000000000000000000000000000000000000000000000000000000000000600554106109ea576040517f49084b9400000000000000000000000000000000000000000000000000000000815260040160405180910390fd5b600654341015610a33576006546040517f8ad0844f00000000000000000000000000000000000000000000000000000000815260048101919091523460248201526044016108c1565b6005546000610a4182611843565b604051602001610a5191906121cf565b60408051808303601f1901815290829052805160209091012060008054600480547f5ef2c7f00000000000000000000000000000000000000000000000000000000086527f000000000000000000000000000000000000000000000000000000000000000091860191909152602485018490523360448601526001600160a01b03908116606486015260848501929092529193501690635ef2c7f09060a401600060405180830381600087803b158015610b0a57600080fd5b505af1158015610b1e573d6000803e3d6000fd5b5050506000838152600f602090815260408083208590555185935060109291610b74917f000000000000000000000000000000000000000000000000000000000000000091879101918252602082015260400190565b60408051601f19818403018152918152815160209283012083528282019390935290820160009081209390935560058054600190810190915533808552600a83528385208054909201909155858452600b90915281832080547fffffffffffffffffffffffff0000000000000000000000000000000000000000168217905590518492907fddf252ad1be2c89b69c2b068fc378daa952ba7f163c4a11628f55a4df523b3ef908290a45050565b610c3c83838360405180602001604052806000815250611980565b505050565b6001546001600160a01b03163314610c9a576001546040517f8ea458f60000000000000000000000000000000000000000000000000000000081526001600160a01b0390911660048201523360248201526044016108c1565b600080547fffffffffffffffffffffff00ffffffffffffffffffffffffffffffffffffffff8116740100000000000000000000000000000000000000009182900460ff1615909102179055565b60015460085460009182916001600160a01b0390911690610d09606486612249565b610d13919061225d565b915091509250929050565b6001546001600160a01b03163314610d77576001546040517f8ea458f60000000000000000000000000000000000000000000000000000000081526001600160a01b0390911660048201523360248201526044016108c1565b600855565b6000816005548110610dbd576040517fb7c882eb000000000000000000000000000000000000000000000000000000008152600481018290526024016108c1565b6000838152600b60205260409020546001600160a01b031691505b50919050565b6001546040516000916001600160a01b03169047908381818185875af1925050503d8060008114610e2b576040519150601f19603f3d011682016040523d82523d6000602084013e610e30565b606091505b5050905080610e9b576040517f08c379a000000000000000000000000000000000000000000000000000000000815260206004820152601360248201527f4554485f5452414e534645525f4641494c45440000000000000000000000000060448201526064016108c1565b50565b60005474010000000000000000000000000000000000000000900460ff16610ef2576040517feb56075600000000000000000000000000000000000000000000000000000000815260040160405180910390fd5b600c811180610f2d57507f000000000000000000000000000000000000000000000000000000000000000081600554610f2b919061227c565b115b15610f64576040517f4d6c426100000000000000000000000000000000000000000000000000000000815260040160405180910390fd5b80600654610f72919061225d565b341015610fc35780600654610f87919061225d565b6040517f8ad0844f00000000000000000000000000000000000000000000000000000000815260048101919091523460248201526044016108c1565b6005546000610fd2838361227c565b905060005b818310156111b257610fe883611843565b604051602001610ff891906121cf565b60408051808303601f1901815290829052805160209091012060008054600480547f5ef2c7f00000000000000000000000000000000000000000000000000000000086527f000000000000000000000000000000000000000000000000000000000000000091860191909152602485018490523360448601526001600160a01b03908116606486015260848501929092529193501690635ef2c7f09060a401600060405180830381600087803b1580156110b157600080fd5b505af11580156110c5573d6000803e3d6000fd5b5050506000848152600f60209081526040808320859055518693506010929161111b917f000000000000000000000000000000000000000000000000000000000000000091879101918252602082015260400190565b60408051601f198184030181529181528151602092830120835282820193909352908201600090812093909355858352600b905280822080547fffffffffffffffffffffffff0000000000000000000000000000000000000000163390811790915590518592907fddf252ad1be2c89b69c2b068fc378daa952ba7f163c4a11628f55a4df523b3ef908290a4826001019250610fd7565b5060055550336000908152600a6020526040902080549091019055565b6001546001600160a01b03163314611228576001546040517f8ea458f60000000000000000000000000000000000000000000000000000000081526001600160a01b0390911660048201523360248201526044016108c1565b33ff5b6001546040517f70a0823100000000000000000000000000000000000000000000000000000000815230600482018190526001600160a01b03848116936323b872dd9391169084906370a0823190602401602060405180830381865afa158015611299573d6000803e3d6000fd5b505050506040513d601f19601f820116820180604052508101906112bd9190612295565b6040517fffffffff0000000000000000000000000000000000000000000000000000000060e086901b1681526001600160a01b03938416600482015292909116602483015260448201526064016020604051808303816000875af1158015611329573d6000803e3d6000fd5b505050506040513d601f19601f8201168201806040525081019061134d91906122ae565b5050565b6001546001600160a01b031633146113aa576001546040517f8ea458f60000000000000000000000000000000000000000000000000000000081526001600160a01b0390911660048201523360248201526044016108c1565b6007610c3c828483612319565b600380546107cb90612166565b600980546107cb90612166565b336000818152600d602090815260408083206001600160a01b0387168085529083529281902080547fffffffffffffffffffffffffffffffffffffffffffffffffffffffffffffff001686151590811790915590519081529192917f17307eab39ab6107e8899845ad3d59bd9653f200f220920489ca2b5937696c31910160405180910390a35050565b61146784848484611980565b50505050565b60008160055481106114ae576040517fb7c882eb000000000000000000000000000000000000000000000000000000008152600481018290526024016108c1565b7f0000000000000000000000000000000000000000000000000000000000000000600f6000858152602001908152602001600020546040516020016114fd929190918252602082015260400190565b60405160208183030381529060405280519060200120915050919050565b6001546001600160a01b03163314611574576001546040517f8ea458f60000000000000000000000000000000000000000000000000000000081526001600160a01b0390911660048201523360248201526044016108c1565b7fffffffff000000000000000000000000000000000000000000000000000000008083169003611600576040517f08c379a000000000000000000000000000000000000000000000000000000000815260206004820152601a60248201527f494e56414c49445f494e544552464143455f53454c4543544f5200000000000060448201526064016108c1565b7fffffffff00000000000000000000000000000000000000000000000000000000919091166000908152600e6020526040902080547fffffffffffffffffffffffffffffffffffffffffffffffffffffffffffffff0016911515919091179055565b6001546001600160a01b031633146116bb576001546040517f8ea458f60000000000000000000000000000000000000000000000000000000081526001600160a01b0390911660048201523360248201526044016108c1565b600480547fffffffffffffffffffffffff0000000000000000000000000000000000000000166001600160a01b0392909216919091179055565b6060816005548110611736576040517fb7c882eb000000000000000000000000000000000000000000000000000000008152600481018290526024016108c1565b600961174184611843565b6040516020016117529291906123d9565b604051602081830303815290604052915050919050565b600780546107cb90612166565b6001546001600160a01b031633146117cf576001546040517f8ea458f60000000000000000000000000000000000000000000000000000000081526001600160a01b0390911660048201523360248201526044016108c1565b6001546040516001600160a01b038084169216907f8be0079c531659141344cd1fd0a4f28419497f9722a3daafe3b4186f6b6457e090600090a3600180547fffffffffffffffffffffffff0000000000000000000000000000000000000000166001600160a01b0392909216919091179055565b60608160000361188657505060408051808201909152600181527f3000000000000000000000000000000000000000000000000000000000000000602082015290565b8160005b81156118b0578061189a816124f9565b91506118a99050600a83612249565b915061188a565b60008167ffffffffffffffff8111156118cb576118cb61200a565b6040519080825280601f01601f1916602001820160405280156118f5576020820181803683370190505b5090505b84156119785761190a600183612513565b9150611917600a86612526565b61192290603061227c565b60f81b8183815181106119375761193761253a565b60200101907effffffffffffffffffffffffffffffffffffffffffffffffffffffffffffff1916908160001a905350611971600a86612249565b94506118f9565b949350505050565b6001600160a01b0383166119c0576040517fd92e233d00000000000000000000000000000000000000000000000000000000815260040160405180910390fd5b6000828152600b60205260409020546001600160a01b03858116911614611a3e576000828152600b6020526040908190205490517f7af40ae60000000000000000000000000000000000000000000000000000000081526001600160a01b0391821660048201529085166024820152604481018390526064016108c1565b6000828152600b60205260409020546001600160a01b03163314801590611a8957506001600160a01b0384166000908152600d6020908152604080832033845290915290205460ff16155b8015611aac57506000828152600c60205260409020546001600160a01b03163314155b15611afb576040517f431ef6160000000000000000000000000000000000000000000000000000000081523360048201526001600160a01b0385166024820152604481018390526064016108c1565b60008054838252600f6020526040918290205491517f06ab59230000000000000000000000000000000000000000000000000000000081527f0000000000000000000000000000000000000000000000000000000000000000600482015260248101929092526001600160a01b03858116604484015216906306ab5923906064016020604051808303816000875af1158015611b9b573d6000803e3d6000fd5b505050506040513d601f19601f82011682018060405250810190611bbf9190612295565b506001600160a01b038085166000818152600a60209081526040808320805460001901905593871680835284832080546001019055868352600b825284832080547fffffffffffffffffffffffff00000000000000000000000000000000000000009081168317909155600c90925284832080549092169091559251859392917fddf252ad1be2c89b69c2b068fc378daa952ba7f163c4a11628f55a4df523b3ef91a46001600160a01b0383163b15611467576040517f150b7a020000000000000000000000000000000000000000000000000000000081526001600160a01b0384169063150b7a0290611cbd903390889087908790600401612569565b6020604051808303816000875af1925050508015611cf8575060408051601f3d908101601f19168201909252611cf5918101906125a5565b60015b611d39576040517f3a9f8cb30000000000000000000000000000000000000000000000000000000081526001600160a01b03841660048201526024016108c1565b7fffffffff0000000000000000000000000000000000000000000000000000000081167f150b7a020000000000000000000000000000000000000000000000000000000014611dbf576040517f3a9f8cb30000000000000000000000000000000000000000000000000000000081526001600160a01b03851660048201526024016108c1565b5050505050565b7fffffffff0000000000000000000000000000000000000000000000000000000081168114610e9b57600080fd5b600060208284031215611e0657600080fd5b8135611e1181611dc6565b9392505050565b60005b83811015611e33578181015183820152602001611e1b565b50506000910152565b60008151808452611e54816020860160208601611e18565b601f01601f19169290920160200192915050565b602081526000611e116020830184611e3c565b600060208284031215611e8d57600080fd5b5035919050565b80356001600160a01b0381168114611eab57600080fd5b919050565b60008060408385031215611ec357600080fd5b611ecc83611e94565b946020939093013593505050565b600080600060608486031215611eef57600080fd5b611ef884611e94565b9250611f0660208501611e94565b9150604084013590509250925092565b60008060408385031215611f2957600080fd5b50508035926020909101359150565b600060208284031215611f4a57600080fd5b611e1182611e94565b60008060208385031215611f6657600080fd5b823567ffffffffffffffff80821115611f7e57600080fd5b818501915085601f830112611f9257600080fd5b813581811115611fa157600080fd5b866020828501011115611fb357600080fd5b60209290920196919550909350505050565b8015158114610e9b57600080fd5b60008060408385031215611fe657600080fd5b611fef83611e94565b91506020830135611fff81611fc5565b809150509250929050565b7f4e487b7100000000000000000000000000000000000000000000000000000000600052604160045260246000fd5b6000806000806080858703121561204f57600080fd5b61205885611e94565b935061206660208601611e94565b925060408501359150606085013567ffffffffffffffff8082111561208a57600080fd5b818701915087601f83011261209e57600080fd5b8135818111156120b0576120b061200a565b604051601f8201601f19908116603f011681019083821181831017156120d8576120d861200a565b816040528281528a60208487010111156120f157600080fd5b82602086016020830137600060208483010152809550505050505092959194509250565b6000806040838503121561212857600080fd5b8235611fef81611dc6565b6000806040838503121561214657600080fd5b61214f83611e94565b915061215d60208401611e94565b90509250929050565b600181811c9082168061217a57607f821691505b602082108103610dd8577f4e487b7100000000000000000000000000000000000000000000000000000000600052602260045260246000fd5b600081516121c5818560208601611e18565b9290920192915050565b600082516121e1818460208701611e18565b9190910192915050565b7f4e487b7100000000000000000000000000000000000000000000000000000000600052601260045260246000fd5b7f4e487b7100000000000000000000000000000000000000000000000000000000600052601160045260246000fd5b600082612258576122586121eb565b500490565b60008160001904831182151516156122775761227761221a565b500290565b8082018082111561228f5761228f61221a565b92915050565b6000602082840312156122a757600080fd5b5051919050565b6000602082840312156122c057600080fd5b8151611e1181611fc5565b601f821115610c3c57600081815260208120601f850160051c810160208610156122f25750805b601f850160051c820191505b81811015612311578281556001016122fe565b505050505050565b67ffffffffffffffff8311156123315761233161200a565b6123458361233f8354612166565b836122cb565b6000601f84116001811461237957600085156123615750838201355b600019600387901b1c1916600186901b178355611dbf565b600083815260209020601f19861690835b828110156123aa578685013582556020948501946001909201910161238a565b50868210156123c75760001960f88860031b161c19848701351681555b505060018560011b0183555050505050565b7f697066733a2f2f000000000000000000000000000000000000000000000000008152600060076000855461240d81612166565b60018281168015612425576001811461245c5761248f565b7fffffffffffffffffffffffffffffffffffffffffffffffffffffffffffffff00841686890152858315158402890101945061248f565b8960005260208060002060005b858110156124845781548b82018a0152908401908201612469565b505050858389010194505b507f2f0000000000000000000000000000000000000000000000000000000000000084526124bf818501896121b3565b9450505050506124ee817f2e6a736f6e0000000000000000000000000000000000000000000000000000009052565b600501949350505050565b6000600019820361250c5761250c61221a565b5060010190565b8181038181111561228f5761228f61221a565b600082612535576125356121eb565b500690565b7f4e487b7100000000000000000000000000000000000000000000000000000000600052603260045260246000fd5b60006001600160a01b0380871683528086166020840152508360408301526080606083015261259b6080830184611e3c565b9695505050505050565b6000602082840312156125b757600080fd5b8151611e1181611dc656fea2646970667358221220d9f6b1731b479e7f70aa35246b178169fa82845f133bd5a6f1c34273609b92a364736f6c63430008100033516d596757584b4144755367577a694e676d7059613450416d68464c33573761474c52354331646b52754e47664d697066733a2f2f516d636579786f4e71665076314c4e66596e6d677861735872386d38676843335462597546626271684838706656",
    "linkReferences": {}
  },
  "methodIdentifiers": {
    "DESTROY()": "875e18f7",
    "DefaultResolver()": "00b7aff7",
    "Dev()": "01e51ae8",
    "DomainHash()": "8315ae65",
    "ENS()": "1d2e2cc4",
    "ID2Labelhash(uint256)": "6eada5aa",
    "ID2Namehash(uint256)": "bb8762c8",
    "Namehash2ID(bytes32)": "a37f9f99",
    "active()": "02fb0c5e",
    "approve(address,uint256)": "095ea7b3",
    "balanceOf(address)": "70a08231",
    "batchMint(uint256)": "8467be0d",
    "contractURI()": "e8a3d485",
    "getApproved(uint256)": "081812fc",
    "isApprovedForAll(address,address)": "e985e9c5",
    "maxSupply()": "d5abeb01",
    "metaIPFS()": "98adcbba",
    "mint()": "1249c58b",
    "mintPrice()": "6817c76c",
    "name()": "06fdde03",
    "owner()": "8da5cb5b",
    "ownerOf(uint256)": "6352211e",
    "royalty()": "29ee566c",
    "royaltyInfo(uint256,uint256)": "2a55205a",
    "safeTransferFrom(address,address,uint256)": "42842e0e",
    "safeTransferFrom(address,address,uint256,bytes)": "b88d4fde",
    "setApprovalForAll(address,bool)": "a22cb465",
    "setContractURI(string)": "938e3d7b",
    "setDefaultResolver(address)": "c66485b2",
    "setInterface(bytes4,bool)": "c0a43a7c",
    "setRoyalty(uint256)": "4209a2e1",
    "supportsInterface(bytes4)": "01ffc9a7",
    "symbol()": "95d89b41",
    "toggleActive()": "29c68dc1",
    "tokenURI(uint256)": "c87b56dd",
    "totalSupply()": "18160ddd",
    "transferFrom(address,address,uint256)": "23b872dd",
    "transferOwnership(address)": "f2fde38b",
    "withdrawEther()": "7362377b",
    "withdrawToken(address)": "89476069"
  },
  "id": 8
}