{
  "abi": [
    {
      "inputs": [
        {
          "internalType": "address",
          "name": "_bensyc",
          "type": "address"
        }
      ],
      "stateMutability": "nonpayable",
      "type": "constructor"
    },
    {
      "inputs": [
        {
          "internalType": "uint256",
          "name": "id",
          "type": "uint256"
        }
      ],
      "name": "InvalidTokenID",
      "type": "error"
    },
    {
      "inputs": [
        {
          "internalType": "address",
          "name": "owner",
          "type": "address"
        },
        {
          "internalType": "address",
          "name": "from",
          "type": "address"
        },
        {
          "internalType": "uint256",
          "name": "id",
          "type": "uint256"
        }
      ],
      "name": "NotSubdomainOwner",
      "type": "error"
    },
    {
      "inputs": [
        {
          "internalType": "address",
          "name": "_dev",
          "type": "address"
        },
        {
          "internalType": "address",
          "name": "_you",
          "type": "address"
        }
      ],
      "name": "OnlyDev",
      "type": "error"
    },
    {
      "inputs": [
        {
          "internalType": "address",
          "name": "operator",
          "type": "address"
        },
        {
          "internalType": "address",
          "name": "owner",
          "type": "address"
        },
        {
          "internalType": "uint256",
          "name": "id",
          "type": "uint256"
        }
      ],
      "name": "Unauthorized",
      "type": "error"
    },
    {
      "anonymous": false,
      "inputs": [
        {
          "indexed": true,
          "internalType": "bytes32",
          "name": "node",
          "type": "bytes32"
        },
        {
          "indexed": false,
          "internalType": "address",
          "name": "addr",
          "type": "address"
        }
      ],
      "name": "AddressChanged",
      "type": "event"
    },
    {
      "anonymous": false,
      "inputs": [
        {
          "indexed": true,
          "internalType": "bytes32",
          "name": "node",
          "type": "bytes32"
        },
        {
          "indexed": false,
          "internalType": "uint256",
          "name": "coinType",
          "type": "uint256"
        },
        {
          "indexed": false,
          "internalType": "bytes",
          "name": "newAddress",
          "type": "bytes"
        }
      ],
      "name": "AddressChangedForCoin",
      "type": "event"
    },
    {
      "anonymous": false,
      "inputs": [
        {
          "indexed": true,
          "internalType": "bytes32",
          "name": "node",
          "type": "bytes32"
        },
        {
          "indexed": false,
          "internalType": "bytes",
          "name": "_contenthash",
          "type": "bytes"
        }
      ],
      "name": "ContenthashChanged",
      "type": "event"
    },
    {
      "anonymous": false,
      "inputs": [
        {
          "indexed": true,
          "internalType": "bytes32",
          "name": "node",
          "type": "bytes32"
        },
        {
          "indexed": false,
          "internalType": "string",
          "name": "name",
          "type": "string"
        }
      ],
      "name": "NameChanged",
      "type": "event"
    },
    {
      "anonymous": false,
      "inputs": [
        {
          "indexed": true,
          "internalType": "bytes32",
          "name": "node",
          "type": "bytes32"
        },
        {
          "indexed": false,
          "internalType": "bytes32",
          "name": "x",
          "type": "bytes32"
        },
        {
          "indexed": false,
          "internalType": "bytes32",
          "name": "y",
          "type": "bytes32"
        }
      ],
      "name": "PubkeyChanged",
      "type": "event"
    },
    {
      "anonymous": false,
      "inputs": [
        {
          "indexed": true,
          "internalType": "bytes32",
          "name": "node",
          "type": "bytes32"
        },
        {
          "indexed": true,
          "internalType": "string",
          "name": "key",
          "type": "string"
        },
        {
          "indexed": false,
          "internalType": "string",
          "name": "value",
          "type": "string"
        }
      ],
      "name": "TextRecordChanged",
      "type": "event"
    },
    {
      "stateMutability": "payable",
      "type": "fallback"
    },
    {
      "inputs": [],
      "name": "BENSYC",
      "outputs": [
        {
          "internalType": "contract iBENSYC",
          "name": "",
          "type": "address"
        }
      ],
      "stateMutability": "view",
      "type": "function"
    },
    {
      "inputs": [],
      "name": "DefaultContenthash",
      "outputs": [
        {
          "internalType": "bytes",
          "name": "",
          "type": "bytes"
        }
      ],
      "stateMutability": "view",
      "type": "function"
    },
    {
      "inputs": [],
      "name": "ENS",
      "outputs": [
        {
          "internalType": "contract iENS",
          "name": "",
          "type": "address"
        }
      ],
      "stateMutability": "view",
      "type": "function"
    },
    {
      "inputs": [
        {
          "internalType": "bytes32",
          "name": "node",
          "type": "bytes32"
        }
      ],
      "name": "addr",
      "outputs": [
        {
          "internalType": "address payable",
          "name": "",
          "type": "address"
        }
      ],
      "stateMutability": "view",
      "type": "function"
    },
    {
      "inputs": [
        {
          "internalType": "bytes32",
          "name": "node",
          "type": "bytes32"
        },
        {
          "internalType": "uint256",
          "name": "coinType",
          "type": "uint256"
        }
      ],
      "name": "addr",
      "outputs": [
        {
          "internalType": "bytes",
          "name": "_addr",
          "type": "bytes"
        }
      ],
      "stateMutability": "view",
      "type": "function"
    },
    {
      "inputs": [
        {
          "internalType": "bytes32",
          "name": "node",
          "type": "bytes32"
        }
      ],
      "name": "contenthash",
      "outputs": [
        {
          "internalType": "bytes",
          "name": "_hash",
          "type": "bytes"
        }
      ],
      "stateMutability": "view",
      "type": "function"
    },
    {
      "inputs": [
        {
          "internalType": "bytes32",
          "name": "node",
          "type": "bytes32"
        }
      ],
      "name": "name",
      "outputs": [
        {
          "internalType": "string",
          "name": "_name",
          "type": "string"
        }
      ],
      "stateMutability": "view",
      "type": "function"
    },
    {
      "inputs": [
        {
          "internalType": "bytes32",
          "name": "",
          "type": "bytes32"
        }
      ],
      "name": "pubkey",
      "outputs": [
        {
          "internalType": "bytes32",
          "name": "x",
          "type": "bytes32"
        },
        {
          "internalType": "bytes32",
          "name": "y",
          "type": "bytes32"
        }
      ],
      "stateMutability": "view",
      "type": "function"
    },
    {
      "inputs": [
        {
          "internalType": "bytes32",
          "name": "node",
          "type": "bytes32"
        },
        {
          "internalType": "uint256",
          "name": "coinType",
          "type": "uint256"
        },
        {
          "internalType": "bytes",
          "name": "_addr",
          "type": "bytes"
        }
      ],
      "name": "setAddress",
      "outputs": [],
      "stateMutability": "nonpayable",
      "type": "function"
    },
    {
      "inputs": [
        {
          "internalType": "bytes32",
          "name": "node",
          "type": "bytes32"
        },
        {
          "internalType": "address",
          "name": "_addr",
          "type": "address"
        }
      ],
      "name": "setAddress",
      "outputs": [],
      "stateMutability": "nonpayable",
      "type": "function"
    },
    {
      "inputs": [
        {
          "internalType": "bytes32",
          "name": "node",
          "type": "bytes32"
        },
        {
          "internalType": "bytes",
          "name": "_hash",
          "type": "bytes"
        }
      ],
      "name": "setContenthash",
      "outputs": [],
      "stateMutability": "nonpayable",
      "type": "function"
    },
    {
      "inputs": [
        {
          "internalType": "bytes",
          "name": "_content",
          "type": "bytes"
        }
      ],
      "name": "setDefaultContenthash",
      "outputs": [],
      "stateMutability": "nonpayable",
      "type": "function"
    },
    {
      "inputs": [
        {
          "internalType": "string",
          "name": "key",
          "type": "string"
        },
        {
          "internalType": "string",
          "name": "value",
          "type": "string"
        }
      ],
      "name": "setDefaultText",
      "outputs": [],
      "stateMutability": "nonpayable",
      "type": "function"
    },
    {
      "inputs": [
        {
          "internalType": "bytes4",
          "name": "sig",
          "type": "bytes4"
        },
        {
          "internalType": "bool",
          "name": "value",
          "type": "bool"
        }
      ],
      "name": "setInterface",
      "outputs": [],
      "stateMutability": "payable",
      "type": "function"
    },
    {
      "inputs": [
        {
          "internalType": "bytes32",
          "name": "node",
          "type": "bytes32"
        },
        {
          "internalType": "string",
          "name": "_name",
          "type": "string"
        }
      ],
      "name": "setName",
      "outputs": [],
      "stateMutability": "nonpayable",
      "type": "function"
    },
    {
      "inputs": [
        {
          "internalType": "bytes32",
          "name": "node",
          "type": "bytes32"
        },
        {
          "internalType": "bytes32",
          "name": "x",
          "type": "bytes32"
        },
        {
          "internalType": "bytes32",
          "name": "y",
          "type": "bytes32"
        }
      ],
      "name": "setPubkey",
      "outputs": [],
      "stateMutability": "nonpayable",
      "type": "function"
    },
    {
      "inputs": [
        {
          "internalType": "bytes32",
          "name": "node",
          "type": "bytes32"
        },
        {
          "internalType": "string",
          "name": "key",
          "type": "string"
        },
        {
          "internalType": "string",
          "name": "value",
          "type": "string"
        }
      ],
      "name": "setText",
      "outputs": [],
      "stateMutability": "nonpayable",
      "type": "function"
    },
    {
      "inputs": [
        {
          "internalType": "bytes4",
          "name": "",
          "type": "bytes4"
        }
      ],
      "name": "supportsInterface",
      "outputs": [
        {
          "internalType": "bool",
          "name": "",
          "type": "bool"
        }
      ],
      "stateMutability": "view",
      "type": "function"
    },
    {
      "inputs": [
        {
          "internalType": "bytes32",
          "name": "node",
          "type": "bytes32"
        },
        {
          "internalType": "string",
          "name": "key",
          "type": "string"
        }
      ],
      "name": "text",
      "outputs": [
        {
          "internalType": "string",
          "name": "value",
          "type": "string"
        }
      ],
      "stateMutability": "view",
      "type": "function"
    },
    {
      "inputs": [],
      "name": "withdrawEther",
      "outputs": [],
      "stateMutability": "payable",
      "type": "function"
    },
    {
      "inputs": [
        {
          "internalType": "address",
          "name": "token",
          "type": "address"
        },
        {
          "internalType": "uint256",
          "name": "bal",
          "type": "uint256"
        }
      ],
      "name": "withdrawToken",
      "outputs": [],
      "stateMutability": "payable",
      "type": "function"
    },
    {
      "stateMutability": "payable",
      "type": "receive"
    }
  ],
  "bytecode": {
    "object": "0x60806040523480156200001157600080fd5b5060405162002de038038062002de08339810160408190526200003491620001b8565b600180546001600160a01b0319166001600160a01b038316178155600260209081527f7a6ed3a1d03568ba34c4e721c07cc5fb10d48888f825e55b36c6ab346be415bc805460ff1990811684179091557fe7d8388e96e266aad8ecb72206b6c9f49ec78ede7daf2641cf85e1ed4a65f08980548216841790557fe6ca55aedfc0b80b83920adc2dfc31bcc9683a415c93cb2abde430c1112797a480548216841790557ffae26f5ae7a310f954482c36bb01bdf3029f43c23178d2e543a6e98064447be980548216841790557f31fef2b9b014f86315ba22f969ea452f4b57e39ea6f01b341a28c09cd17b85a580548216841790556378e5bf0360e11b6000527ff3a021d6e155b8df234623aa070a4753523dc1738878ec8d17258bf9c7d1249280549091169092179091556040805160608101909152602a808252909162002db6908301396000805260036020527f3617319a054d772f909f7c479a2cebe5066e836a939412e32403c99029b92eff90620001b090826200028f565b50506200035b565b600060208284031215620001cb57600080fd5b81516001600160a01b0381168114620001e357600080fd5b9392505050565b634e487b7160e01b600052604160045260246000fd5b600181811c908216806200021557607f821691505b6020821081036200023657634e487b7160e01b600052602260045260246000fd5b50919050565b601f8211156200028a57600081815260208120601f850160051c81016020861015620002655750805b601f850160051c820191505b81811015620002865782815560010162000271565b5050505b505050565b81516001600160401b03811115620002ab57620002ab620001ea565b620002c381620002bc845462000200565b846200023c565b602080601f831160018114620002fb5760008415620002e25750858301515b600019600386901b1c1916600185901b17855562000286565b600085815260208120601f198616915b828110156200032c578886015182559484019460019091019084016200030b565b50858210156200034b5787850151600019600388901b60f8161c191681555b5050505050600190811b01905550565b612a4b806200036b6000396000f3fe60806040526004361061016e5760003560e01c80637362377b116100cb578063c0a43a7c1161007f578063ca446dd911610059578063ca446dd9146103f5578063e1b6a19014610415578063f1cb7e061461043557600080fd5b8063c0a43a7c14610379578063c86902331461038c578063c9b69059146103d557600080fd5b806393507f3d116100b057806393507f3d146103265780639e281a9814610346578063bc1c58d11461035957600080fd5b80637362377b146102fe578063773722131461030657600080fd5b80633b3b57de116101225780635d81d553116101075780635d81d553146102a9578063691f3431146102c957806369be8bb0146102e957600080fd5b80633b3b57de1461025c57806359d1d43c1461027c57600080fd5b80631d2e2cc4116101535780631d2e2cc4146101e457806329cd62ea1461021c578063304e6ade1461023c57600080fd5b806301ffc9a71461017d57806310f13a8c146101c257600080fd5b3661017857600080fd5b600080fd5b34801561018957600080fd5b506101ad610198366004611fd5565b60026020526000908152604090205460ff1681565b60405190151581526020015b60405180910390f35b3480156101ce57600080fd5b506101e26101dd366004612039565b610455565b005b3480156101f057600080fd5b50600054610204906001600160a01b031681565b6040516001600160a01b0390911681526020016101b9565b34801561022857600080fd5b506101e26102373660046120b3565b6105c2565b34801561024857600080fd5b506101e261025736600461219b565b6106fc565b34801561026857600080fd5b506102046102773660046121e2565b61081f565b34801561028857600080fd5b5061029c6102973660046121fb565b61094d565b6040516101b99190612297565b3480156102b557600080fd5b506101e26102c43660046122aa565b610c4a565b3480156102d557600080fd5b5061029c6102e43660046121e2565b610dcc565b3480156102f557600080fd5b5061029c610f21565b6101e2610fdd565b34801561031257600080fd5b506101e26103213660046121fb565b611107565b34801561033257600080fd5b506101e26103413660046122df565b61125a565b6101e2610354366004612344565b61137d565b34801561036557600080fd5b5061029c6103743660046121e2565b611499565b6101e261038736600461237e565b6115f9565b34801561039857600080fd5b506103c06103a73660046121e2565b6005602052600090815260409020805460019091015482565b604080519283526020830191909152016101b9565b3480156103e157600080fd5b506101e26103f03660046123b5565b6117af565b34801561040157600080fd5b506101e2610410366004612421565b611947565b34801561042157600080fd5b50600154610204906001600160a01b031681565b34801561044157600080fd5b5061029c610450366004612446565b611ab3565b6000546040516302571be360e01b81526004810187905286916001600160a01b0316906302571be390602401602060405180830381865afa15801561049e573d6000803e3d6000fd5b505050506040513d601f19601f820116820180604052508101906104c29190612468565b6001600160a01b0316336001600160a01b0316146105275760405162461bcd60e51b815260206004820152601860248201527f5265736f6c7665723a204e4f545f415554484f5249534544000000000000000060448201526064015b60405180910390fd5b828260066000898152602001908152602001600020878760405161054c929190612485565b90815260200160405180910390209182610567929190612536565b508484604051610578929190612485565b6040518091039020867f6eac6078c9cee83ab95cf8524ac3a05038fbf02b43e2853ae34aabb45d2820d485856040516105b29291906125f7565b60405180910390a3505050505050565b6000546040516302571be360e01b81526004810185905284916001600160a01b0316906302571be390602401602060405180830381865afa15801561060b573d6000803e3d6000fd5b505050506040513d601f19601f8201168201806040525081019061062f9190612468565b6001600160a01b0316336001600160a01b03161461068f5760405162461bcd60e51b815260206004820152601860248201527f5265736f6c7665723a204e4f545f415554484f52495345440000000000000000604482015260640161051e565b60408051808201825284815260208082018581526000888152600583528490209251835551600190920191909155815185815290810184905285917f1d6f5e03d3f63eb58751986629a5439baee5079ff04f345becb66e23eb154e4691015b60405180910390a250505050565b6000546040516302571be360e01b81526004810184905283916001600160a01b0316906302571be390602401602060405180830381865afa158015610745573d6000803e3d6000fd5b505050506040513d601f19601f820116820180604052508101906107699190612468565b6001600160a01b0316336001600160a01b0316146107c95760405162461bcd60e51b815260206004820152601860248201527f5265736f6c7665723a204e4f545f415554484f52495345440000000000000000604482015260640161051e565b60008381526003602052604090206107e18382612626565b50827fe379c1624ed7e714cc0937528a32359d69d5281337765313dba4e081b72d7578836040516108129190612297565b60405180910390a2505050565b6000818152600460209081526040808320603c84529091528120805482919061084790612495565b80601f016020809104026020016040519081016040528092919081815260200182805461087390612495565b80156108c05780601f10610895576101008083540402835291602001916108c0565b820191906000526020600020905b8154815290600101906020018083116108a357829003601f168201915b505050505090508051600003610944576000546040516302571be360e01b8152600481018590526001600160a01b03909116906302571be390602401602060405180830381865afa158015610919573d6000803e3d6000fd5b505050506040513d601f19601f8201168201806040525081019061093d9190612468565b9392505050565b61093d816126e6565b6060600660008581526020019081526020016000208383604051610972929190612485565b9081526020016040518091039020805461098b90612495565b80601f01602080910402602001604051908101604052809291908181526020018280546109b790612495565b8015610a045780601f106109d957610100808354040283529160200191610a04565b820191906000526020600020905b8154815290600101906020018083116109e757829003601f168201915b50505050509050805160000361093d576040518060400160405280600681526020017f6176617461720000000000000000000000000000000000000000000000000000815250610a53906126e6565b610a5d838561270a565b03610b6f57610a6b46611c31565b60015460405160609190911b7fffffffffffffffffffffffffffffffffffffffff000000000000000000000000166020820152610ab990603401604051602081830303815290604052611d6e565b6001546040517fa37f9f9900000000000000000000000000000000000000000000000000000000815260048101889052610b47916001600160a01b03169063a37f9f99906024015b602060405180830381865afa158015610b1e573d6000803e3d6000fd5b505050506040513d601f19601f82011682018060405250810190610b429190612728565b611c31565b604051602001610b5993929190612741565b604051602081830303815290604052905061093d565b6000805260066020526040517f54cdd369e4e8a8515e52ca72ec816c2101831ad1f18bf44102ed171459c9b4f890610baa9085908590612485565b90815260200160405180910390208054610bc390612495565b80601f0160208091040260200160405190810160405280929190818152602001828054610bef90612495565b8015610c3c5780601f10610c1157610100808354040283529160200191610c3c565b820191906000526020600020905b815481529060010190602001808311610c1f57829003601f168201915b505050505090509392505050565b600160009054906101000a90046001600160a01b03166001600160a01b03166301e51ae86040518163ffffffff1660e01b8152600401602060405180830381865afa158015610c9d573d6000803e3d6000fd5b505050506040513d601f19601f82011682018060405250810190610cc19190612468565b6001600160a01b0316336001600160a01b031614610d9457600160009054906101000a90046001600160a01b03166001600160a01b03166301e51ae86040518163ffffffff1660e01b8152600401602060405180830381865afa158015610d2c573d6000803e3d6000fd5b505050506040513d601f19601f82011682018060405250810190610d509190612468565b6040517f8ea458f60000000000000000000000000000000000000000000000000000000081526001600160a01b03909116600482015233602482015260440161051e565b6000805260036020527f3617319a054d772f909f7c479a2cebe5066e836a939412e32403c99029b92eff610dc88282612626565b5050565b6000818152600660205260409081902090517f6e616d650000000000000000000000000000000000000000000000000000000081526060919060040190815260200160405180910390208054610e2190612495565b80601f0160208091040260200160405190810160405280929190818152602001828054610e4d90612495565b8015610e9a5780601f10610e6f57610100808354040283529160200191610e9a565b820191906000526020600020905b815481529060010190602001808311610e7d57829003601f168201915b505050505090508051600003610f1c576001546040517fa37f9f9900000000000000000000000000000000000000000000000000000000815260048101849052610ef6916001600160a01b03169063a37f9f9990602401610b01565b604051602001610f069190612801565b6040516020818303038152906040529050919050565b919050565b6000805260036020527f3617319a054d772f909f7c479a2cebe5066e836a939412e32403c99029b92eff805460609190610f5a90612495565b80601f0160208091040260200160405190810160405280929190818152602001828054610f8690612495565b8015610fd35780601f10610fa857610100808354040283529160200191610fd3565b820191906000526020600020905b815481529060010190602001808311610fb657829003601f168201915b5050505050905090565b600154604080517f01e51ae800000000000000000000000000000000000000000000000000000000815290516000926001600160a01b0316916301e51ae89160048083019260209291908290030181865afa158015611040573d6000803e3d6000fd5b505050506040513d601f19601f820116820180604052508101906110649190612468565b6001600160a01b03164760405160006040518083038185875af1925050503d80600081146110ae576040519150601f19603f3d011682016040523d82523d6000602084013e6110b3565b606091505b50509050806111045760405162461bcd60e51b815260206004820152601360248201527f4554485f5452414e534645525f4641494c454400000000000000000000000000604482015260640161051e565b50565b6000546040516302571be360e01b81526004810185905284916001600160a01b0316906302571be390602401602060405180830381865afa158015611150573d6000803e3d6000fd5b505050506040513d601f19601f820116820180604052508101906111749190612468565b6001600160a01b0316336001600160a01b0316146111d45760405162461bcd60e51b815260206004820152601860248201527f5265736f6c7665723a204e4f545f415554484f52495345440000000000000000604482015260640161051e565b6000848152600660205260409081902081517f6e616d6500000000000000000000000000000000000000000000000000000000815260048101919091529051908190036024019020611227838583612536565b50837fb7d29e911041e8d9b843369e890bcb72c9388692ba48b65ac54e7214c4c348f784846040516106ee9291906125f7565b6000546040516302571be360e01b81526004810185905284916001600160a01b0316906302571be390602401602060405180830381865afa1580156112a3573d6000803e3d6000fd5b505050506040513d601f19601f820116820180604052508101906112c79190612468565b6001600160a01b0316336001600160a01b0316146113275760405162461bcd60e51b815260206004820152601860248201527f5265736f6c7665723a204e4f545f415554484f52495345440000000000000000604482015260640161051e565b6000848152600460209081526040808320868452909152902061134a8382612626565b50837f8ea940b63ed2d74b35182a4212f17b597449038537c7685f96e28e8fb20a575d84846040516106ee929190612842565b816001600160a01b03166323b872dd30600160009054906101000a90046001600160a01b03166001600160a01b03166301e51ae86040518163ffffffff1660e01b8152600401602060405180830381865afa1580156113e0573d6000803e3d6000fd5b505050506040513d601f19601f820116820180604052508101906114049190612468565b6040517fffffffff0000000000000000000000000000000000000000000000000000000060e085901b1681526001600160a01b03928316600482015291166024820152604481018490526064016020604051808303816000875af1158015611470573d6000803e3d6000fd5b505050506040513d601f19601f82011682018060405250810190611494919061285b565b505050565b60008181526003602052604090208054606091906114b690612495565b80601f01602080910402602001604051908101604052809291908181526020018280546114e290612495565b801561152f5780601f106115045761010080835404028352916020019161152f565b820191906000526020600020905b81548152906001019060200180831161151257829003601f168201915b505050505090508051600003610f1c576000805260036020527f3617319a054d772f909f7c479a2cebe5066e836a939412e32403c99029b92eff805461157490612495565b80601f01602080910402602001604051908101604052809291908181526020018280546115a090612495565b80156115ed5780601f106115c2576101008083540402835291602001916115ed565b820191906000526020600020905b8154815290600101906020018083116115d057829003601f168201915b50505050509050919050565b600160009054906101000a90046001600160a01b03166001600160a01b03166301e51ae86040518163ffffffff1660e01b8152600401602060405180830381865afa15801561164c573d6000803e3d6000fd5b505050506040513d601f19601f820116820180604052508101906116709190612468565b6001600160a01b0316336001600160a01b0316146116db57600160009054906101000a90046001600160a01b03166001600160a01b03166301e51ae86040518163ffffffff1660e01b8152600401602060405180830381865afa158015610d2c573d6000803e3d6000fd5b7fffffffff00000000000000000000000000000000000000000000000000000000808316900361174d5760405162461bcd60e51b815260206004820152601a60248201527f494e56414c49445f494e544552464143455f53454c4543544f52000000000000604482015260640161051e565b7fffffffff0000000000000000000000000000000000000000000000000000000091909116600090815260026020526040902080547fffffffffffffffffffffffffffffffffffffffffffffffffffffffffffffff0016911515919091179055565b600160009054906101000a90046001600160a01b03166001600160a01b03166301e51ae86040518163ffffffff1660e01b8152600401602060405180830381865afa158015611802573d6000803e3d6000fd5b505050506040513d601f19601f820116820180604052508101906118269190612468565b6001600160a01b0316336001600160a01b03161461189157600160009054906101000a90046001600160a01b03166001600160a01b03166301e51ae86040518163ffffffff1660e01b8152600401602060405180830381865afa158015610d2c573d6000803e3d6000fd5b600080526006602052604051829082907f54cdd369e4e8a8515e52ca72ec816c2101831ad1f18bf44102ed171459c9b4f8906118d09088908890612485565b908152602001604051809103902091826118eb929190612536565b5083836040516118fc929190612485565b60405180910390206000801b7f6eac6078c9cee83ab95cf8524ac3a05038fbf02b43e2853ae34aabb45d2820d484846040516119399291906125f7565b60405180910390a350505050565b6000546040516302571be360e01b81526004810184905283916001600160a01b0316906302571be390602401602060405180830381865afa158015611990573d6000803e3d6000fd5b505050506040513d601f19601f820116820180604052508101906119b49190612468565b6001600160a01b0316336001600160a01b031614611a145760405162461bcd60e51b815260206004820152601860248201527f5265736f6c7665723a204e4f545f415554484f52495345440000000000000000604482015260640161051e565b6040517fffffffffffffffffffffffffffffffffffffffff000000000000000000000000606084901b16602082015260340160408051601f19818403018152918152600085815260046020908152828220603c835290522090611a779082612626565b506040516001600160a01b038316815283907fce9745511e6b32283e684acf17f26ee2c5d221bf65c95e61c3d6fcfa446462d090602001610812565b60008281526004602090815260408083208484529091529020805460609190611adb90612495565b80601f0160208091040260200160405190810160405280929190818152602001828054611b0790612495565b8015611b545780601f10611b2957610100808354040283529160200191611b54565b820191906000526020600020905b815481529060010190602001808311611b3757829003601f168201915b5050505050905080516000148015611b6c575081603c145b15611c2b576000546040516302571be360e01b8152600481018590526001600160a01b03909116906302571be390602401602060405180830381865afa158015611bba573d6000803e3d6000fd5b505050506040513d601f19601f82011682018060405250810190611bde9190612468565b604051602001611c19919060609190911b7fffffffffffffffffffffffffffffffffffffffff00000000000000000000000016815260140190565b60405160208183030381529060405290505b92915050565b606081600003611c7457505060408051808201909152600181527f3000000000000000000000000000000000000000000000000000000000000000602082015290565b8160005b8115611c9e5780611c88816128a7565b9150611c979050600a836128f0565b9150611c78565b60008167ffffffffffffffff811115611cb957611cb96120df565b6040519080825280601f01601f191660200182016040528015611ce3576020820181803683370190505b5090505b8415611d6657611cf8600183612904565b9150611d05600a86612917565b611d1090603061292b565b60f81b818381518110611d2557611d2561293e565b60200101907effffffffffffffffffffffffffffffffffffffffffffffffffffffffffffff1916908160001a905350611d5f600a866128f0565b9450611ce7565b949350505050565b6060600082516002611d80919061296d565b67ffffffffffffffff811115611d9857611d986120df565b6040519080825280601f01601f191660200182016040528015611dc2576020820181803683370190505b5060408051808201909152601081527f3031323334353637383961626364656600000000000000000000000000000000602082015290915060005b8451811015611f7b57816010868381518110611e1b57611e1b61293e565b0160200151611e2d919060f81c61298c565b60ff1681518110611e4057611e4061293e565b01602001517fff000000000000000000000000000000000000000000000000000000000000001683611e7383600261296d565b81518110611e8357611e8361293e565b60200101907effffffffffffffffffffffffffffffffffffffffffffffffffffffffffffff1916908160001a905350816010868381518110611ec757611ec761293e565b0160200151611ed9919060f81c6129ae565b60ff1681518110611eec57611eec61293e565b01602001517fff000000000000000000000000000000000000000000000000000000000000001683611f1f83600261296d565b611f2a90600161292b565b81518110611f3a57611f3a61293e565b60200101907effffffffffffffffffffffffffffffffffffffffffffffffffffffffffffff1916908160001a90535080611f73816128a7565b915050611dfd565b5081604051602001611f8d91906129d0565b60405160208183030381529060405292505050919050565b80357fffffffff0000000000000000000000000000000000000000000000000000000081168114610f1c57600080fd5b600060208284031215611fe757600080fd5b61093d82611fa5565b60008083601f84011261200257600080fd5b50813567ffffffffffffffff81111561201a57600080fd5b60208301915083602082850101111561203257600080fd5b9250929050565b60008060008060006060868803121561205157600080fd5b85359450602086013567ffffffffffffffff8082111561207057600080fd5b61207c89838a01611ff0565b9096509450604088013591508082111561209557600080fd5b506120a288828901611ff0565b969995985093965092949392505050565b6000806000606084860312156120c857600080fd5b505081359360208301359350604090920135919050565b7f4e487b7100000000000000000000000000000000000000000000000000000000600052604160045260246000fd5b600082601f83011261211f57600080fd5b813567ffffffffffffffff8082111561213a5761213a6120df565b604051601f8301601f19908116603f01168101908282118183101715612162576121626120df565b8160405283815286602085880101111561217b57600080fd5b836020870160208301376000602085830101528094505050505092915050565b600080604083850312156121ae57600080fd5b82359150602083013567ffffffffffffffff8111156121cc57600080fd5b6121d88582860161210e565b9150509250929050565b6000602082840312156121f457600080fd5b5035919050565b60008060006040848603121561221057600080fd5b83359250602084013567ffffffffffffffff81111561222e57600080fd5b61223a86828701611ff0565b9497909650939450505050565b60005b8381101561226257818101518382015260200161224a565b50506000910152565b60008151808452612283816020860160208601612247565b601f01601f19169290920160200192915050565b60208152600061093d602083018461226b565b6000602082840312156122bc57600080fd5b813567ffffffffffffffff8111156122d357600080fd5b611d668482850161210e565b6000806000606084860312156122f457600080fd5b8335925060208401359150604084013567ffffffffffffffff81111561231957600080fd5b6123258682870161210e565b9150509250925092565b6001600160a01b038116811461110457600080fd5b6000806040838503121561235757600080fd5b82356123628161232f565b946020939093013593505050565b801515811461110457600080fd5b6000806040838503121561239157600080fd5b61239a83611fa5565b915060208301356123aa81612370565b809150509250929050565b600080600080604085870312156123cb57600080fd5b843567ffffffffffffffff808211156123e357600080fd5b6123ef88838901611ff0565b9096509450602087013591508082111561240857600080fd5b5061241587828801611ff0565b95989497509550505050565b6000806040838503121561243457600080fd5b8235915060208301356123aa8161232f565b6000806040838503121561245957600080fd5b50508035926020909101359150565b60006020828403121561247a57600080fd5b815161093d8161232f565b8183823760009101908152919050565b600181811c908216806124a957607f821691505b6020821081036124e2577f4e487b7100000000000000000000000000000000000000000000000000000000600052602260045260246000fd5b50919050565b601f82111561149457600081815260208120601f850160051c8101602086101561250f5750805b601f850160051c820191505b8181101561252e5782815560010161251b565b505050505050565b67ffffffffffffffff83111561254e5761254e6120df565b6125628361255c8354612495565b836124e8565b6000601f841160018114612596576000851561257e5750838201355b600019600387901b1c1916600186901b1783556125f0565b600083815260209020601f19861690835b828110156125c757868501358255602094850194600190920191016125a7565b50868210156125e45760001960f88860031b161c19848701351681555b505060018560011b0183555b5050505050565b60208152816020820152818360408301376000818301604090810191909152601f909201601f19160101919050565b815167ffffffffffffffff811115612640576126406120df565b6126548161264e8454612495565b846124e8565b602080601f83116001811461268957600084156126715750858301515b600019600386901b1c1916600185901b17855561252e565b600085815260208120601f198616915b828110156126b857888601518255948401946001909101908401612699565b50858210156126d65787850151600019600388901b60f8161c191681555b5050505050600190811b01905550565b805160208083015191908110156124e25760001960209190910360031b1b16919050565b80356020831015611c2b57600019602084900360031b1b1692915050565b60006020828403121561273a57600080fd5b5051919050565b7f6569703135353a00000000000000000000000000000000000000000000000000815260008451612779816007850160208901612247565b7f2f6572633732313a00000000000000000000000000000000000000000000000060079184019182015284516127b681600f840160208901612247565b7f2f00000000000000000000000000000000000000000000000000000000000000600f929091019182015283516127f4816010840160208801612247565b0160100195945050505050565b60008251612813818460208701612247565b7f2e626f726564656e737961636874636c75622e65746800000000000000000000920191825250601601919050565b828152604060208201526000611d66604083018461226b565b60006020828403121561286d57600080fd5b815161093d81612370565b7f4e487b7100000000000000000000000000000000000000000000000000000000600052601160045260246000fd5b600060001982036128ba576128ba612878565b5060010190565b7f4e487b7100000000000000000000000000000000000000000000000000000000600052601260045260246000fd5b6000826128ff576128ff6128c1565b500490565b81810381811115611c2b57611c2b612878565b600082612926576129266128c1565b500690565b80820180821115611c2b57611c2b612878565b7f4e487b7100000000000000000000000000000000000000000000000000000000600052603260045260246000fd5b600081600019048311821515161561298757612987612878565b500290565b600060ff83168061299f5761299f6128c1565b8060ff84160491505092915050565b600060ff8316806129c1576129c16128c1565b8060ff84160691505092915050565b7f3078000000000000000000000000000000000000000000000000000000000000815260008251612a08816002850160208701612247565b919091016002019291505056fea26469706673582212204c8bd8b73aac4a69367a6a3d416767ebc843bfddd4d7ba604080eb723434e6ab64736f6c63430008100033e5010172002408011220a7448dcfc00e746c22e238de5c1e3b6fb97bae0949e47741b4e0ae8e929abd4f",
    "linkReferences": {}
  },
  "methodIdentifiers": {
    "BENSYC()": "e1b6a190",
    "DefaultContenthash()": "69be8bb0",
    "ENS()": "1d2e2cc4",
    "addr(bytes32)": "3b3b57de",
    "addr(bytes32,uint256)": "f1cb7e06",
    "contenthash(bytes32)": "bc1c58d1",
    "name(bytes32)": "691f3431",
    "pubkey(bytes32)": "c8690233",
    "setAddress(bytes32,address)": "ca446dd9",
    "setAddress(bytes32,uint256,bytes)": "93507f3d",
    "setContenthash(bytes32,bytes)": "304e6ade",
    "setDefaultContenthash(bytes)": "5d81d553",
    "setDefaultText(string,string)": "c9b69059",
    "setInterface(bytes4,bool)": "c0a43a7c",
    "setName(bytes32,string)": "77372213",
    "setPubkey(bytes32,bytes32,bytes32)": "29cd62ea",
    "setText(bytes32,string,string)": "10f13a8c",
    "supportsInterface(bytes4)": "01ffc9a7",
    "text(bytes32,string)": "59d1d43c",
    "withdrawEther()": "7362377b",
    "withdrawToken(address,uint256)": "9e281a98"
  },
  "id": 11
}