{
  "abi": [
    {
      "inputs": [
        {
          "internalType": "address",
          "name": "_bensyc",
          "type": "address"
        }
      ],
      "stateMutability": "nonpayable",
      "type": "constructor"
    },
    {
      "inputs": [
        {
          "internalType": "uint256",
          "name": "id",
          "type": "uint256"
        }
      ],
      "name": "InvalidTokenID",
      "type": "error"
    },
    {
      "inputs": [
        {
          "internalType": "address",
          "name": "owner",
          "type": "address"
        },
        {
          "internalType": "address",
          "name": "from",
          "type": "address"
        },
        {
          "internalType": "uint256",
          "name": "id",
          "type": "uint256"
        }
      ],
      "name": "NotSubdomainOwner",
      "type": "error"
    },
    {
      "inputs": [
        {
          "internalType": "address",
          "name": "_dev",
          "type": "address"
        },
        {
          "internalType": "address",
          "name": "_you",
          "type": "address"
        }
      ],
      "name": "OnlyDev",
      "type": "error"
    },
    {
      "inputs": [
        {
          "internalType": "address",
          "name": "operator",
          "type": "address"
        },
        {
          "internalType": "address",
          "name": "owner",
          "type": "address"
        },
        {
          "internalType": "uint256",
          "name": "id",
          "type": "uint256"
        }
      ],
      "name": "Unauthorized",
      "type": "error"
    },
    {
      "anonymous": false,
      "inputs": [
        {
          "indexed": true,
          "internalType": "bytes32",
          "name": "node",
          "type": "bytes32"
        },
        {
          "indexed": false,
          "internalType": "address",
          "name": "addr",
          "type": "address"
        }
      ],
      "name": "AddrChanged",
      "type": "event"
    },
    {
      "anonymous": false,
      "inputs": [
        {
          "indexed": true,
          "internalType": "bytes32",
          "name": "node",
          "type": "bytes32"
        },
        {
          "indexed": false,
          "internalType": "uint256",
          "name": "coinType",
          "type": "uint256"
        },
        {
          "indexed": false,
          "internalType": "bytes",
          "name": "newAddress",
          "type": "bytes"
        }
      ],
      "name": "AddressChanged",
      "type": "event"
    },
    {
      "anonymous": false,
      "inputs": [
        {
          "indexed": true,
          "internalType": "bytes32",
          "name": "node",
          "type": "bytes32"
        },
        {
          "indexed": false,
          "internalType": "bytes",
          "name": "_contenthash",
          "type": "bytes"
        }
      ],
      "name": "ContenthashChanged",
      "type": "event"
    },
    {
      "anonymous": false,
      "inputs": [
        {
          "indexed": true,
          "internalType": "bytes32",
          "name": "node",
          "type": "bytes32"
        },
        {
          "indexed": false,
          "internalType": "string",
          "name": "name",
          "type": "string"
        }
      ],
      "name": "NameChanged",
      "type": "event"
    },
    {
      "anonymous": false,
      "inputs": [
        {
          "indexed": true,
          "internalType": "bytes32",
          "name": "node",
          "type": "bytes32"
        },
        {
          "indexed": false,
          "internalType": "bytes32",
          "name": "x",
          "type": "bytes32"
        },
        {
          "indexed": false,
          "internalType": "bytes32",
          "name": "y",
          "type": "bytes32"
        }
      ],
      "name": "PubkeyChanged",
      "type": "event"
    },
    {
      "anonymous": false,
      "inputs": [
        {
          "indexed": true,
          "internalType": "bytes32",
          "name": "node",
          "type": "bytes32"
        },
        {
          "indexed": true,
          "internalType": "string",
          "name": "key",
          "type": "string"
        },
        {
          "indexed": false,
          "internalType": "string",
          "name": "value",
          "type": "string"
        }
      ],
      "name": "TextRecordChanged",
      "type": "event"
    },
    {
      "stateMutability": "payable",
      "type": "fallback"
    },
    {
      "inputs": [],
      "name": "BENSYC",
      "outputs": [
        {
          "internalType": "contract iBENSYC",
          "name": "",
          "type": "address"
        }
      ],
      "stateMutability": "view",
      "type": "function"
    },
    {
      "inputs": [],
      "name": "DESTROY",
      "outputs": [],
      "stateMutability": "payable",
      "type": "function"
    },
    {
      "inputs": [],
      "name": "DefaultContenthash",
      "outputs": [
        {
          "internalType": "bytes",
          "name": "",
          "type": "bytes"
        }
      ],
      "stateMutability": "view",
      "type": "function"
    },
    {
      "inputs": [],
      "name": "ENS",
      "outputs": [
        {
          "internalType": "contract iENS",
          "name": "",
          "type": "address"
        }
      ],
      "stateMutability": "view",
      "type": "function"
    },
    {
      "inputs": [
        {
          "internalType": "bytes32",
          "name": "node",
          "type": "bytes32"
        }
      ],
      "name": "addr",
      "outputs": [
        {
          "internalType": "address payable",
          "name": "",
          "type": "address"
        }
      ],
      "stateMutability": "view",
      "type": "function"
    },
    {
      "inputs": [
        {
          "internalType": "bytes32",
          "name": "node",
          "type": "bytes32"
        },
        {
          "internalType": "uint256",
          "name": "coinType",
          "type": "uint256"
        }
      ],
      "name": "addr",
      "outputs": [
        {
          "internalType": "bytes",
          "name": "_addr",
          "type": "bytes"
        }
      ],
      "stateMutability": "view",
      "type": "function"
    },
    {
      "inputs": [
        {
          "internalType": "bytes32",
          "name": "node",
          "type": "bytes32"
        }
      ],
      "name": "contenthash",
      "outputs": [
        {
          "internalType": "bytes",
          "name": "_hash",
          "type": "bytes"
        }
      ],
      "stateMutability": "view",
      "type": "function"
    },
    {
      "inputs": [
        {
          "internalType": "bytes32",
          "name": "node",
          "type": "bytes32"
        }
      ],
      "name": "name",
      "outputs": [
        {
          "internalType": "string",
          "name": "_name",
          "type": "string"
        }
      ],
      "stateMutability": "view",
      "type": "function"
    },
    {
      "inputs": [
        {
          "internalType": "bytes32",
          "name": "",
          "type": "bytes32"
        }
      ],
      "name": "pubkey",
      "outputs": [
        {
          "internalType": "bytes32",
          "name": "x",
          "type": "bytes32"
        },
        {
          "internalType": "bytes32",
          "name": "y",
          "type": "bytes32"
        }
      ],
      "stateMutability": "view",
      "type": "function"
    },
    {
      "inputs": [
        {
          "internalType": "bytes32",
          "name": "node",
          "type": "bytes32"
        },
        {
          "internalType": "uint256",
          "name": "coinType",
          "type": "uint256"
        },
        {
          "internalType": "bytes",
          "name": "_addr",
          "type": "bytes"
        }
      ],
      "name": "setAddress",
      "outputs": [],
      "stateMutability": "nonpayable",
      "type": "function"
    },
    {
      "inputs": [
        {
          "internalType": "bytes32",
          "name": "node",
          "type": "bytes32"
        },
        {
          "internalType": "address",
          "name": "_addr",
          "type": "address"
        }
      ],
      "name": "setAddress",
      "outputs": [],
      "stateMutability": "nonpayable",
      "type": "function"
    },
    {
      "inputs": [
        {
          "internalType": "bytes32",
          "name": "node",
          "type": "bytes32"
        },
        {
          "internalType": "bytes",
          "name": "_hash",
          "type": "bytes"
        }
      ],
      "name": "setContenthash",
      "outputs": [],
      "stateMutability": "nonpayable",
      "type": "function"
    },
    {
      "inputs": [
        {
          "internalType": "bytes",
          "name": "_content",
          "type": "bytes"
        }
      ],
      "name": "setDefaultContenthash",
      "outputs": [],
      "stateMutability": "nonpayable",
      "type": "function"
    },
    {
      "inputs": [
        {
          "internalType": "string",
          "name": "key",
          "type": "string"
        },
        {
          "internalType": "string",
          "name": "value",
          "type": "string"
        }
      ],
      "name": "setDefaultText",
      "outputs": [],
      "stateMutability": "nonpayable",
      "type": "function"
    },
    {
      "inputs": [
        {
          "internalType": "bytes4",
          "name": "sig",
          "type": "bytes4"
        },
        {
          "internalType": "bool",
          "name": "value",
          "type": "bool"
        }
      ],
      "name": "setInterface",
      "outputs": [],
      "stateMutability": "payable",
      "type": "function"
    },
    {
      "inputs": [
        {
          "internalType": "bytes32",
          "name": "node",
          "type": "bytes32"
        },
        {
          "internalType": "string",
          "name": "_name",
          "type": "string"
        }
      ],
      "name": "setName",
      "outputs": [],
      "stateMutability": "nonpayable",
      "type": "function"
    },
    {
      "inputs": [
        {
          "internalType": "bytes32",
          "name": "node",
          "type": "bytes32"
        },
        {
          "internalType": "bytes32",
          "name": "x",
          "type": "bytes32"
        },
        {
          "internalType": "bytes32",
          "name": "y",
          "type": "bytes32"
        }
      ],
      "name": "setPubkey",
      "outputs": [],
      "stateMutability": "nonpayable",
      "type": "function"
    },
    {
      "inputs": [
        {
          "internalType": "bytes32",
          "name": "node",
          "type": "bytes32"
        },
        {
          "internalType": "string",
          "name": "key",
          "type": "string"
        },
        {
          "internalType": "string",
          "name": "value",
          "type": "string"
        }
      ],
      "name": "setText",
      "outputs": [],
      "stateMutability": "nonpayable",
      "type": "function"
    },
    {
      "inputs": [
        {
          "internalType": "bytes4",
          "name": "",
          "type": "bytes4"
        }
      ],
      "name": "supportsInterface",
      "outputs": [
        {
          "internalType": "bool",
          "name": "",
          "type": "bool"
        }
      ],
      "stateMutability": "view",
      "type": "function"
    },
    {
      "inputs": [
        {
          "internalType": "bytes32",
          "name": "node",
          "type": "bytes32"
        },
        {
          "internalType": "string",
          "name": "key",
          "type": "string"
        }
      ],
      "name": "text",
      "outputs": [
        {
          "internalType": "string",
          "name": "value",
          "type": "string"
        }
      ],
      "stateMutability": "view",
      "type": "function"
    },
    {
      "inputs": [],
      "name": "withdrawEther",
      "outputs": [],
      "stateMutability": "payable",
      "type": "function"
    },
    {
      "inputs": [
        {
          "internalType": "address",
          "name": "token",
          "type": "address"
        },
        {
          "internalType": "uint256",
          "name": "bal",
          "type": "uint256"
        }
      ],
      "name": "withdrawToken",
      "outputs": [],
      "stateMutability": "payable",
      "type": "function"
    },
    {
      "stateMutability": "payable",
      "type": "receive"
    }
  ],
  "bytecode": {
    "object": "0x60806040523480156200001157600080fd5b5060405162002ed838038062002ed88339810160408190526200003491620001b8565b600180546001600160a01b0319166001600160a01b038316178155600260209081527f7a6ed3a1d03568ba34c4e721c07cc5fb10d48888f825e55b36c6ab346be415bc805460ff1990811684179091557fe7d8388e96e266aad8ecb72206b6c9f49ec78ede7daf2641cf85e1ed4a65f08980548216841790557fe6ca55aedfc0b80b83920adc2dfc31bcc9683a415c93cb2abde430c1112797a480548216841790557ffae26f5ae7a310f954482c36bb01bdf3029f43c23178d2e543a6e98064447be980548216841790557f31fef2b9b014f86315ba22f969ea452f4b57e39ea6f01b341a28c09cd17b85a580548216841790556378e5bf0360e11b6000527ff3a021d6e155b8df234623aa070a4753523dc1738878ec8d17258bf9c7d1249280549091169092179091556040805160608101909152602a808252909162002eae908301396000805260036020527f3617319a054d772f909f7c479a2cebe5066e836a939412e32403c99029b92eff90620001b090826200028f565b50506200035b565b600060208284031215620001cb57600080fd5b81516001600160a01b0381168114620001e357600080fd5b9392505050565b634e487b7160e01b600052604160045260246000fd5b600181811c908216806200021557607f821691505b6020821081036200023657634e487b7160e01b600052602260045260246000fd5b50919050565b601f8211156200028a57600081815260208120601f850160051c81016020861015620002655750805b601f850160051c820191505b81811015620002865782815560010162000271565b5050505b505050565b81516001600160401b03811115620002ab57620002ab620001ea565b620002c381620002bc845462000200565b846200023c565b602080601f831160018114620002fb5760008415620002e25750858301515b600019600386901b1c1916600185901b17855562000286565b600085815260208120601f198616915b828110156200032c578886015182559484019460019091019084016200030b565b50858210156200034b5787850151600019600388901b60f8161c191681555b5050505050600190811b01905550565b612b43806200036b6000396000f3fe6080604052600436106101795760003560e01c806377372213116100cb578063c0a43a7c1161007f578063ca446dd911610059578063ca446dd914610408578063e1b6a19014610428578063f1cb7e061461044857600080fd5b8063c0a43a7c1461038c578063c86902331461039f578063c9b69059146103e857600080fd5b806393507f3d116100b057806393507f3d146103395780639e281a9814610359578063bc1c58d11461036c57600080fd5b80637737221314610311578063875e18f71461033157600080fd5b80633b3b57de1161012d578063691f343111610107578063691f3431146102d457806369be8bb0146102f45780637362377b1461030957600080fd5b80633b3b57de1461026757806359d1d43c146102875780635d81d553146102b457600080fd5b80631d2e2cc41161015e5780631d2e2cc4146101ef57806329cd62ea14610227578063304e6ade1461024757600080fd5b806301ffc9a71461018857806310f13a8c146101cd57600080fd5b3661018357600080fd5b600080fd5b34801561019457600080fd5b506101b86101a33660046120cd565b60026020526000908152604090205460ff1681565b60405190151581526020015b60405180910390f35b3480156101d957600080fd5b506101ed6101e8366004612131565b610468565b005b3480156101fb57600080fd5b5060005461020f906001600160a01b031681565b6040516001600160a01b0390911681526020016101c4565b34801561023357600080fd5b506101ed6102423660046121ab565b6105d5565b34801561025357600080fd5b506101ed610262366004612293565b61070f565b34801561027357600080fd5b5061020f6102823660046122da565b610832565b34801561029357600080fd5b506102a76102a23660046122f3565b610960565b6040516101c4919061238f565b3480156102c057600080fd5b506101ed6102cf3660046123a2565b610c5d565b3480156102e057600080fd5b506102a76102ef3660046122da565b610ddf565b34801561030057600080fd5b506102a7610f34565b6101ed610ff0565b34801561031d57600080fd5b506101ed61032c3660046122f3565b61111a565b6101ed61126d565b34801561034557600080fd5b506101ed6103543660046123d7565b611352565b6101ed61036736600461243c565b611475565b34801561037857600080fd5b506102a76103873660046122da565b611591565b6101ed61039a366004612476565b6116f1565b3480156103ab57600080fd5b506103d36103ba3660046122da565b6005602052600090815260409020805460019091015482565b604080519283526020830191909152016101c4565b3480156103f457600080fd5b506101ed6104033660046124ad565b6118a7565b34801561041457600080fd5b506101ed610423366004612519565b611a3f565b34801561043457600080fd5b5060015461020f906001600160a01b031681565b34801561045457600080fd5b506102a761046336600461253e565b611bab565b6000546040516302571be360e01b81526004810187905286916001600160a01b0316906302571be390602401602060405180830381865afa1580156104b1573d6000803e3d6000fd5b505050506040513d601f19601f820116820180604052508101906104d59190612560565b6001600160a01b0316336001600160a01b03161461053a5760405162461bcd60e51b815260206004820152601860248201527f5265736f6c7665723a204e4f545f415554484f5249534544000000000000000060448201526064015b60405180910390fd5b828260066000898152602001908152602001600020878760405161055f92919061257d565b9081526020016040518091039020918261057a92919061262e565b50848460405161058b92919061257d565b6040518091039020867f6eac6078c9cee83ab95cf8524ac3a05038fbf02b43e2853ae34aabb45d2820d485856040516105c59291906126ef565b60405180910390a3505050505050565b6000546040516302571be360e01b81526004810185905284916001600160a01b0316906302571be390602401602060405180830381865afa15801561061e573d6000803e3d6000fd5b505050506040513d601f19601f820116820180604052508101906106429190612560565b6001600160a01b0316336001600160a01b0316146106a25760405162461bcd60e51b815260206004820152601860248201527f5265736f6c7665723a204e4f545f415554484f524953454400000000000000006044820152606401610531565b60408051808201825284815260208082018581526000888152600583528490209251835551600190920191909155815185815290810184905285917f1d6f5e03d3f63eb58751986629a5439baee5079ff04f345becb66e23eb154e4691015b60405180910390a250505050565b6000546040516302571be360e01b81526004810184905283916001600160a01b0316906302571be390602401602060405180830381865afa158015610758573d6000803e3d6000fd5b505050506040513d601f19601f8201168201806040525081019061077c9190612560565b6001600160a01b0316336001600160a01b0316146107dc5760405162461bcd60e51b815260206004820152601860248201527f5265736f6c7665723a204e4f545f415554484f524953454400000000000000006044820152606401610531565b60008381526003602052604090206107f4838261271e565b50827fe379c1624ed7e714cc0937528a32359d69d5281337765313dba4e081b72d757883604051610825919061238f565b60405180910390a2505050565b6000818152600460209081526040808320603c84529091528120805482919061085a9061258d565b80601f01602080910402602001604051908101604052809291908181526020018280546108869061258d565b80156108d35780601f106108a8576101008083540402835291602001916108d3565b820191906000526020600020905b8154815290600101906020018083116108b657829003601f168201915b505050505090508051600003610957576000546040516302571be360e01b8152600481018590526001600160a01b03909116906302571be390602401602060405180830381865afa15801561092c573d6000803e3d6000fd5b505050506040513d601f19601f820116820180604052508101906109509190612560565b9392505050565b610950816127de565b606060066000858152602001908152602001600020838360405161098592919061257d565b9081526020016040518091039020805461099e9061258d565b80601f01602080910402602001604051908101604052809291908181526020018280546109ca9061258d565b8015610a175780601f106109ec57610100808354040283529160200191610a17565b820191906000526020600020905b8154815290600101906020018083116109fa57829003601f168201915b505050505090508051600003610950576040518060400160405280600681526020017f6176617461720000000000000000000000000000000000000000000000000000815250610a66906127de565b610a708385612802565b03610b8257610a7e46611d29565b60015460405160609190911b7fffffffffffffffffffffffffffffffffffffffff000000000000000000000000166020820152610acc90603401604051602081830303815290604052611e66565b6001546040517fa37f9f9900000000000000000000000000000000000000000000000000000000815260048101889052610b5a916001600160a01b03169063a37f9f99906024015b602060405180830381865afa158015610b31573d6000803e3d6000fd5b505050506040513d601f19601f82011682018060405250810190610b559190612820565b611d29565b604051602001610b6c93929190612839565b6040516020818303038152906040529050610950565b6000805260066020526040517f54cdd369e4e8a8515e52ca72ec816c2101831ad1f18bf44102ed171459c9b4f890610bbd908590859061257d565b90815260200160405180910390208054610bd69061258d565b80601f0160208091040260200160405190810160405280929190818152602001828054610c029061258d565b8015610c4f5780601f10610c2457610100808354040283529160200191610c4f565b820191906000526020600020905b815481529060010190602001808311610c3257829003601f168201915b505050505090509392505050565b600160009054906101000a90046001600160a01b03166001600160a01b03166301e51ae86040518163ffffffff1660e01b8152600401602060405180830381865afa158015610cb0573d6000803e3d6000fd5b505050506040513d601f19601f82011682018060405250810190610cd49190612560565b6001600160a01b0316336001600160a01b031614610da757600160009054906101000a90046001600160a01b03166001600160a01b03166301e51ae86040518163ffffffff1660e01b8152600401602060405180830381865afa158015610d3f573d6000803e3d6000fd5b505050506040513d601f19601f82011682018060405250810190610d639190612560565b6040517f8ea458f60000000000000000000000000000000000000000000000000000000081526001600160a01b039091166004820152336024820152604401610531565b6000805260036020527f3617319a054d772f909f7c479a2cebe5066e836a939412e32403c99029b92eff610ddb828261271e565b5050565b6000818152600660205260409081902090517f6e616d650000000000000000000000000000000000000000000000000000000081526060919060040190815260200160405180910390208054610e349061258d565b80601f0160208091040260200160405190810160405280929190818152602001828054610e609061258d565b8015610ead5780601f10610e8257610100808354040283529160200191610ead565b820191906000526020600020905b815481529060010190602001808311610e9057829003601f168201915b505050505090508051600003610f2f576001546040517fa37f9f9900000000000000000000000000000000000000000000000000000000815260048101849052610f09916001600160a01b03169063a37f9f9990602401610b14565b604051602001610f1991906128f9565b6040516020818303038152906040529050919050565b919050565b6000805260036020527f3617319a054d772f909f7c479a2cebe5066e836a939412e32403c99029b92eff805460609190610f6d9061258d565b80601f0160208091040260200160405190810160405280929190818152602001828054610f999061258d565b8015610fe65780601f10610fbb57610100808354040283529160200191610fe6565b820191906000526020600020905b815481529060010190602001808311610fc957829003601f168201915b5050505050905090565b600154604080517f01e51ae800000000000000000000000000000000000000000000000000000000815290516000926001600160a01b0316916301e51ae89160048083019260209291908290030181865afa158015611053573d6000803e3d6000fd5b505050506040513d601f19601f820116820180604052508101906110779190612560565b6001600160a01b03164760405160006040518083038185875af1925050503d80600081146110c1576040519150601f19603f3d011682016040523d82523d6000602084013e6110c6565b606091505b50509050806111175760405162461bcd60e51b815260206004820152601360248201527f4554485f5452414e534645525f4641494c4544000000000000000000000000006044820152606401610531565b50565b6000546040516302571be360e01b81526004810185905284916001600160a01b0316906302571be390602401602060405180830381865afa158015611163573d6000803e3d6000fd5b505050506040513d601f19601f820116820180604052508101906111879190612560565b6001600160a01b0316336001600160a01b0316146111e75760405162461bcd60e51b815260206004820152601860248201527f5265736f6c7665723a204e4f545f415554484f524953454400000000000000006044820152606401610531565b6000848152600660205260409081902081517f6e616d650000000000000000000000000000000000000000000000000000000081526004810191909152905190819003602401902061123a83858361262e565b50837fb7d29e911041e8d9b843369e890bcb72c9388692ba48b65ac54e7214c4c348f784846040516107019291906126ef565b600160009054906101000a90046001600160a01b03166001600160a01b03166301e51ae86040518163ffffffff1660e01b8152600401602060405180830381865afa1580156112c0573d6000803e3d6000fd5b505050506040513d601f19601f820116820180604052508101906112e49190612560565b6001600160a01b0316336001600160a01b03161461134f57600160009054906101000a90046001600160a01b03166001600160a01b03166301e51ae86040518163ffffffff1660e01b8152600401602060405180830381865afa158015610d3f573d6000803e3d6000fd5b33ff5b6000546040516302571be360e01b81526004810185905284916001600160a01b0316906302571be390602401602060405180830381865afa15801561139b573d6000803e3d6000fd5b505050506040513d601f19601f820116820180604052508101906113bf9190612560565b6001600160a01b0316336001600160a01b03161461141f5760405162461bcd60e51b815260206004820152601860248201527f5265736f6c7665723a204e4f545f415554484f524953454400000000000000006044820152606401610531565b60008481526004602090815260408083208684529091529020611442838261271e565b50837f65412581168e88a1e60c6459d7f44ae83ad0832e670826c05a4e2476b57af752848460405161070192919061293a565b816001600160a01b03166323b872dd30600160009054906101000a90046001600160a01b03166001600160a01b03166301e51ae86040518163ffffffff1660e01b8152600401602060405180830381865afa1580156114d8573d6000803e3d6000fd5b505050506040513d601f19601f820116820180604052508101906114fc9190612560565b6040517fffffffff0000000000000000000000000000000000000000000000000000000060e085901b1681526001600160a01b03928316600482015291166024820152604481018490526064016020604051808303816000875af1158015611568573d6000803e3d6000fd5b505050506040513d601f19601f8201168201806040525081019061158c9190612953565b505050565b60008181526003602052604090208054606091906115ae9061258d565b80601f01602080910402602001604051908101604052809291908181526020018280546115da9061258d565b80156116275780601f106115fc57610100808354040283529160200191611627565b820191906000526020600020905b81548152906001019060200180831161160a57829003601f168201915b505050505090508051600003610f2f576000805260036020527f3617319a054d772f909f7c479a2cebe5066e836a939412e32403c99029b92eff805461166c9061258d565b80601f01602080910402602001604051908101604052809291908181526020018280546116989061258d565b80156116e55780601f106116ba576101008083540402835291602001916116e5565b820191906000526020600020905b8154815290600101906020018083116116c857829003601f168201915b50505050509050919050565b600160009054906101000a90046001600160a01b03166001600160a01b03166301e51ae86040518163ffffffff1660e01b8152600401602060405180830381865afa158015611744573d6000803e3d6000fd5b505050506040513d601f19601f820116820180604052508101906117689190612560565b6001600160a01b0316336001600160a01b0316146117d357600160009054906101000a90046001600160a01b03166001600160a01b03166301e51ae86040518163ffffffff1660e01b8152600401602060405180830381865afa158015610d3f573d6000803e3d6000fd5b7fffffffff0000000000000000000000000000000000000000000000000000000080831690036118455760405162461bcd60e51b815260206004820152601a60248201527f494e56414c49445f494e544552464143455f53454c4543544f520000000000006044820152606401610531565b7fffffffff0000000000000000000000000000000000000000000000000000000091909116600090815260026020526040902080547fffffffffffffffffffffffffffffffffffffffffffffffffffffffffffffff0016911515919091179055565b600160009054906101000a90046001600160a01b03166001600160a01b03166301e51ae86040518163ffffffff1660e01b8152600401602060405180830381865afa1580156118fa573d6000803e3d6000fd5b505050506040513d601f19601f8201168201806040525081019061191e9190612560565b6001600160a01b0316336001600160a01b03161461198957600160009054906101000a90046001600160a01b03166001600160a01b03166301e51ae86040518163ffffffff1660e01b8152600401602060405180830381865afa158015610d3f573d6000803e3d6000fd5b600080526006602052604051829082907f54cdd369e4e8a8515e52ca72ec816c2101831ad1f18bf44102ed171459c9b4f8906119c8908890889061257d565b908152602001604051809103902091826119e392919061262e565b5083836040516119f492919061257d565b60405180910390206000801b7f6eac6078c9cee83ab95cf8524ac3a05038fbf02b43e2853ae34aabb45d2820d48484604051611a319291906126ef565b60405180910390a350505050565b6000546040516302571be360e01b81526004810184905283916001600160a01b0316906302571be390602401602060405180830381865afa158015611a88573d6000803e3d6000fd5b505050506040513d601f19601f82011682018060405250810190611aac9190612560565b6001600160a01b0316336001600160a01b031614611b0c5760405162461bcd60e51b815260206004820152601860248201527f5265736f6c7665723a204e4f545f415554484f524953454400000000000000006044820152606401610531565b6040517fffffffffffffffffffffffffffffffffffffffff000000000000000000000000606084901b16602082015260340160408051601f19818403018152918152600085815260046020908152828220603c835290522090611b6f908261271e565b506040516001600160a01b038316815283907f52d7d861f09ab3d26239d492e8968629f95e9e318cf0b73bfddc441522a15fd290602001610825565b60008281526004602090815260408083208484529091529020805460609190611bd39061258d565b80601f0160208091040260200160405190810160405280929190818152602001828054611bff9061258d565b8015611c4c5780601f10611c2157610100808354040283529160200191611c4c565b820191906000526020600020905b815481529060010190602001808311611c2f57829003601f168201915b5050505050905080516000148015611c64575081603c145b15611d23576000546040516302571be360e01b8152600481018590526001600160a01b03909116906302571be390602401602060405180830381865afa158015611cb2573d6000803e3d6000fd5b505050506040513d601f19601f82011682018060405250810190611cd69190612560565b604051602001611d11919060609190911b7fffffffffffffffffffffffffffffffffffffffff00000000000000000000000016815260140190565b60405160208183030381529060405290505b92915050565b606081600003611d6c57505060408051808201909152600181527f3000000000000000000000000000000000000000000000000000000000000000602082015290565b8160005b8115611d965780611d808161299f565b9150611d8f9050600a836129e8565b9150611d70565b60008167ffffffffffffffff811115611db157611db16121d7565b6040519080825280601f01601f191660200182016040528015611ddb576020820181803683370190505b5090505b8415611e5e57611df06001836129fc565b9150611dfd600a86612a0f565b611e08906030612a23565b60f81b818381518110611e1d57611e1d612a36565b60200101907effffffffffffffffffffffffffffffffffffffffffffffffffffffffffffff1916908160001a905350611e57600a866129e8565b9450611ddf565b949350505050565b6060600082516002611e789190612a65565b67ffffffffffffffff811115611e9057611e906121d7565b6040519080825280601f01601f191660200182016040528015611eba576020820181803683370190505b5060408051808201909152601081527f3031323334353637383961626364656600000000000000000000000000000000602082015290915060005b845181101561207357816010868381518110611f1357611f13612a36565b0160200151611f25919060f81c612a84565b60ff1681518110611f3857611f38612a36565b01602001517fff000000000000000000000000000000000000000000000000000000000000001683611f6b836002612a65565b81518110611f7b57611f7b612a36565b60200101907effffffffffffffffffffffffffffffffffffffffffffffffffffffffffffff1916908160001a905350816010868381518110611fbf57611fbf612a36565b0160200151611fd1919060f81c612aa6565b60ff1681518110611fe457611fe4612a36565b01602001517fff000000000000000000000000000000000000000000000000000000000000001683612017836002612a65565b612022906001612a23565b8151811061203257612032612a36565b60200101907effffffffffffffffffffffffffffffffffffffffffffffffffffffffffffff1916908160001a9053508061206b8161299f565b915050611ef5565b50816040516020016120859190612ac8565b60405160208183030381529060405292505050919050565b80357fffffffff0000000000000000000000000000000000000000000000000000000081168114610f2f57600080fd5b6000602082840312156120df57600080fd5b6109508261209d565b60008083601f8401126120fa57600080fd5b50813567ffffffffffffffff81111561211257600080fd5b60208301915083602082850101111561212a57600080fd5b9250929050565b60008060008060006060868803121561214957600080fd5b85359450602086013567ffffffffffffffff8082111561216857600080fd5b61217489838a016120e8565b9096509450604088013591508082111561218d57600080fd5b5061219a888289016120e8565b969995985093965092949392505050565b6000806000606084860312156121c057600080fd5b505081359360208301359350604090920135919050565b7f4e487b7100000000000000000000000000000000000000000000000000000000600052604160045260246000fd5b600082601f83011261221757600080fd5b813567ffffffffffffffff80821115612232576122326121d7565b604051601f8301601f19908116603f0116810190828211818310171561225a5761225a6121d7565b8160405283815286602085880101111561227357600080fd5b836020870160208301376000602085830101528094505050505092915050565b600080604083850312156122a657600080fd5b82359150602083013567ffffffffffffffff8111156122c457600080fd5b6122d085828601612206565b9150509250929050565b6000602082840312156122ec57600080fd5b5035919050565b60008060006040848603121561230857600080fd5b83359250602084013567ffffffffffffffff81111561232657600080fd5b612332868287016120e8565b9497909650939450505050565b60005b8381101561235a578181015183820152602001612342565b50506000910152565b6000815180845261237b81602086016020860161233f565b601f01601f19169290920160200192915050565b6020815260006109506020830184612363565b6000602082840312156123b457600080fd5b813567ffffffffffffffff8111156123cb57600080fd5b611e5e84828501612206565b6000806000606084860312156123ec57600080fd5b8335925060208401359150604084013567ffffffffffffffff81111561241157600080fd5b61241d86828701612206565b9150509250925092565b6001600160a01b038116811461111757600080fd5b6000806040838503121561244f57600080fd5b823561245a81612427565b946020939093013593505050565b801515811461111757600080fd5b6000806040838503121561248957600080fd5b6124928361209d565b915060208301356124a281612468565b809150509250929050565b600080600080604085870312156124c357600080fd5b843567ffffffffffffffff808211156124db57600080fd5b6124e7888389016120e8565b9096509450602087013591508082111561250057600080fd5b5061250d878288016120e8565b95989497509550505050565b6000806040838503121561252c57600080fd5b8235915060208301356124a281612427565b6000806040838503121561255157600080fd5b50508035926020909101359150565b60006020828403121561257257600080fd5b815161095081612427565b8183823760009101908152919050565b600181811c908216806125a157607f821691505b6020821081036125da577f4e487b7100000000000000000000000000000000000000000000000000000000600052602260045260246000fd5b50919050565b601f82111561158c57600081815260208120601f850160051c810160208610156126075750805b601f850160051c820191505b8181101561262657828155600101612613565b505050505050565b67ffffffffffffffff831115612646576126466121d7565b61265a83612654835461258d565b836125e0565b6000601f84116001811461268e57600085156126765750838201355b600019600387901b1c1916600186901b1783556126e8565b600083815260209020601f19861690835b828110156126bf578685013582556020948501946001909201910161269f565b50868210156126dc5760001960f88860031b161c19848701351681555b505060018560011b0183555b5050505050565b60208152816020820152818360408301376000818301604090810191909152601f909201601f19160101919050565b815167ffffffffffffffff811115612738576127386121d7565b61274c81612746845461258d565b846125e0565b602080601f83116001811461278157600084156127695750858301515b600019600386901b1c1916600185901b178555612626565b600085815260208120601f198616915b828110156127b057888601518255948401946001909101908401612791565b50858210156127ce5787850151600019600388901b60f8161c191681555b5050505050600190811b01905550565b805160208083015191908110156125da5760001960209190910360031b1b16919050565b80356020831015611d2357600019602084900360031b1b1692915050565b60006020828403121561283257600080fd5b5051919050565b7f6569703135353a0000000000000000000000000000000000000000000000000081526000845161287181600785016020890161233f565b7f2f6572633732313a00000000000000000000000000000000000000000000000060079184019182015284516128ae81600f84016020890161233f565b7f2f00000000000000000000000000000000000000000000000000000000000000600f929091019182015283516128ec81601084016020880161233f565b0160100195945050505050565b6000825161290b81846020870161233f565b7f2e626f726564656e737961636874636c75622e65746800000000000000000000920191825250601601919050565b828152604060208201526000611e5e6040830184612363565b60006020828403121561296557600080fd5b815161095081612468565b7f4e487b7100000000000000000000000000000000000000000000000000000000600052601160045260246000fd5b600060001982036129b2576129b2612970565b5060010190565b7f4e487b7100000000000000000000000000000000000000000000000000000000600052601260045260246000fd5b6000826129f7576129f76129b9565b500490565b81810381811115611d2357611d23612970565b600082612a1e57612a1e6129b9565b500690565b80820180821115611d2357611d23612970565b7f4e487b7100000000000000000000000000000000000000000000000000000000600052603260045260246000fd5b6000816000190483118215151615612a7f57612a7f612970565b500290565b600060ff831680612a9757612a976129b9565b8060ff84160491505092915050565b600060ff831680612ab957612ab96129b9565b8060ff84160691505092915050565b7f3078000000000000000000000000000000000000000000000000000000000000815260008251612b0081600285016020870161233f565b919091016002019291505056fea26469706673582212208dc9c2ba54ea1eb9b00680517dbbd0b9642482de2212bd14c30bf93296307e0564736f6c63430008100033e5010172002408011220a7448dcfc00e746c22e238de5c1e3b6fb97bae0949e47741b4e0ae8e929abd4f",
    "linkReferences": {}
  },
  "methodIdentifiers": {
    "BENSYC()": "e1b6a190",
    "DESTROY()": "875e18f7",
    "DefaultContenthash()": "69be8bb0",
    "ENS()": "1d2e2cc4",
    "addr(bytes32)": "3b3b57de",
    "addr(bytes32,uint256)": "f1cb7e06",
    "contenthash(bytes32)": "bc1c58d1",
    "name(bytes32)": "691f3431",
    "pubkey(bytes32)": "c8690233",
    "setAddress(bytes32,address)": "ca446dd9",
    "setAddress(bytes32,uint256,bytes)": "93507f3d",
    "setContenthash(bytes32,bytes)": "304e6ade",
    "setDefaultContenthash(bytes)": "5d81d553",
    "setDefaultText(string,string)": "c9b69059",
    "setInterface(bytes4,bool)": "c0a43a7c",
    "setName(bytes32,string)": "77372213",
    "setPubkey(bytes32,bytes32,bytes32)": "29cd62ea",
    "setText(bytes32,string,string)": "10f13a8c",
    "supportsInterface(bytes4)": "01ffc9a7",
    "text(bytes32,string)": "59d1d43c",
    "withdrawEther()": "7362377b",
    "withdrawToken(address,uint256)": "9e281a98"
  },
  "id": 11
}