{
  "abi": [
    {
      "inputs": [
        {
          "internalType": "address",
          "name": "_bensyc",
          "type": "address"
        }
      ],
      "stateMutability": "nonpayable",
      "type": "constructor"
    },
    {
      "inputs": [],
      "name": "NotAllowed",
      "type": "error"
    },
    {
      "inputs": [],
      "name": "OnlyDev",
      "type": "error"
    },
    {
      "anonymous": false,
      "inputs": [
        {
          "indexed": true,
          "internalType": "bytes32",
          "name": "node",
          "type": "bytes32"
        },
        {
          "indexed": false,
          "internalType": "address",
          "name": "a",
          "type": "address"
        }
      ],
      "name": "AddrChanged",
      "type": "event"
    },
    {
      "anonymous": false,
      "inputs": [
        {
          "indexed": true,
          "internalType": "bytes32",
          "name": "node",
          "type": "bytes32"
        },
        {
          "indexed": false,
          "internalType": "uint256",
          "name": "coinType",
          "type": "uint256"
        },
        {
          "indexed": false,
          "internalType": "bytes",
          "name": "newAddress",
          "type": "bytes"
        }
      ],
      "name": "AddressChanged",
      "type": "event"
    },
    {
      "anonymous": false,
      "inputs": [
        {
          "indexed": true,
          "internalType": "bytes32",
          "name": "node",
          "type": "bytes32"
        },
        {
          "indexed": false,
          "internalType": "bytes",
          "name": "_contenthash",
          "type": "bytes"
        }
      ],
      "name": "ContenthashChanged",
      "type": "event"
    },
    {
      "anonymous": false,
      "inputs": [
        {
          "indexed": true,
          "internalType": "bytes32",
          "name": "node",
          "type": "bytes32"
        },
        {
          "indexed": false,
          "internalType": "string",
          "name": "name",
          "type": "string"
        }
      ],
      "name": "NameChanged",
      "type": "event"
    },
    {
      "anonymous": false,
      "inputs": [
        {
          "indexed": true,
          "internalType": "bytes32",
          "name": "node",
          "type": "bytes32"
        },
        {
          "indexed": false,
          "internalType": "bytes32",
          "name": "x",
          "type": "bytes32"
        },
        {
          "indexed": false,
          "internalType": "bytes32",
          "name": "y",
          "type": "bytes32"
        }
      ],
      "name": "PubkeyChanged",
      "type": "event"
    },
    {
      "anonymous": false,
      "inputs": [
        {
          "indexed": true,
          "internalType": "bytes32",
          "name": "node",
          "type": "bytes32"
        },
        {
          "indexed": true,
          "internalType": "string",
          "name": "key",
          "type": "string"
        },
        {
          "indexed": false,
          "internalType": "string",
          "name": "value",
          "type": "string"
        }
      ],
      "name": "TextChanged",
      "type": "event"
    },
    {
      "stateMutability": "payable",
      "type": "fallback"
    },
    {
      "inputs": [],
      "name": "BENSYC",
      "outputs": [
        {
          "internalType": "contract iBENSYC",
          "name": "",
          "type": "address"
        }
      ],
      "stateMutability": "view",
      "type": "function"
    },
    {
      "inputs": [],
      "name": "DESTROY",
      "outputs": [],
      "stateMutability": "nonpayable",
      "type": "function"
    },
    {
      "inputs": [],
      "name": "DefaultContenthash",
      "outputs": [
        {
          "internalType": "bytes",
          "name": "",
          "type": "bytes"
        }
      ],
      "stateMutability": "view",
      "type": "function"
    },
    {
      "inputs": [],
      "name": "ENS",
      "outputs": [
        {
          "internalType": "contract iENS",
          "name": "",
          "type": "address"
        }
      ],
      "stateMutability": "view",
      "type": "function"
    },
    {
      "inputs": [
        {
          "internalType": "bytes32",
          "name": "",
          "type": "bytes32"
        },
        {
          "internalType": "string",
          "name": "",
          "type": "string"
        }
      ],
      "name": "_text",
      "outputs": [
        {
          "internalType": "string",
          "name": "",
          "type": "string"
        }
      ],
      "stateMutability": "view",
      "type": "function"
    },
    {
      "inputs": [
        {
          "internalType": "bytes32",
          "name": "node",
          "type": "bytes32"
        }
      ],
      "name": "addr",
      "outputs": [
        {
          "internalType": "address payable",
          "name": "",
          "type": "address"
        }
      ],
      "stateMutability": "view",
      "type": "function"
    },
    {
      "inputs": [
        {
          "internalType": "bytes32",
          "name": "node",
          "type": "bytes32"
        },
        {
          "internalType": "uint256",
          "name": "coinType",
          "type": "uint256"
        }
      ],
      "name": "addr",
      "outputs": [
        {
          "internalType": "bytes",
          "name": "_addr",
          "type": "bytes"
        }
      ],
      "stateMutability": "view",
      "type": "function"
    },
    {
      "inputs": [
        {
          "internalType": "bytes32",
          "name": "node",
          "type": "bytes32"
        }
      ],
      "name": "contenthash",
      "outputs": [
        {
          "internalType": "bytes",
          "name": "_hash",
          "type": "bytes"
        }
      ],
      "stateMutability": "view",
      "type": "function"
    },
    {
      "inputs": [
        {
          "internalType": "bytes32",
          "name": "node",
          "type": "bytes32"
        }
      ],
      "name": "name",
      "outputs": [
        {
          "internalType": "string",
          "name": "_name",
          "type": "string"
        }
      ],
      "stateMutability": "view",
      "type": "function"
    },
    {
      "inputs": [
        {
          "internalType": "bytes32",
          "name": "",
          "type": "bytes32"
        }
      ],
      "name": "pubkey",
      "outputs": [
        {
          "internalType": "bytes32",
          "name": "x",
          "type": "bytes32"
        },
        {
          "internalType": "bytes32",
          "name": "y",
          "type": "bytes32"
        }
      ],
      "stateMutability": "view",
      "type": "function"
    },
    {
      "inputs": [
        {
          "internalType": "bytes32",
          "name": "node",
          "type": "bytes32"
        },
        {
          "internalType": "uint256",
          "name": "coinType",
          "type": "uint256"
        },
        {
          "internalType": "bytes",
          "name": "_addr",
          "type": "bytes"
        }
      ],
      "name": "setAddr",
      "outputs": [],
      "stateMutability": "nonpayable",
      "type": "function"
    },
    {
      "inputs": [
        {
          "internalType": "bytes32",
          "name": "node",
          "type": "bytes32"
        },
        {
          "internalType": "address",
          "name": "_addr",
          "type": "address"
        }
      ],
      "name": "setAddr",
      "outputs": [],
      "stateMutability": "nonpayable",
      "type": "function"
    },
    {
      "inputs": [
        {
          "internalType": "bytes32",
          "name": "node",
          "type": "bytes32"
        },
        {
          "internalType": "bytes",
          "name": "_hash",
          "type": "bytes"
        }
      ],
      "name": "setContenthash",
      "outputs": [],
      "stateMutability": "nonpayable",
      "type": "function"
    },
    {
      "inputs": [
        {
          "internalType": "bytes",
          "name": "_content",
          "type": "bytes"
        }
      ],
      "name": "setDefaultContenthash",
      "outputs": [],
      "stateMutability": "nonpayable",
      "type": "function"
    },
    {
      "inputs": [
        {
          "internalType": "bytes32",
          "name": "node",
          "type": "bytes32"
        },
        {
          "internalType": "string",
          "name": "_name",
          "type": "string"
        }
      ],
      "name": "setName",
      "outputs": [],
      "stateMutability": "nonpayable",
      "type": "function"
    },
    {
      "inputs": [
        {
          "internalType": "bytes32",
          "name": "node",
          "type": "bytes32"
        },
        {
          "internalType": "bytes32",
          "name": "x",
          "type": "bytes32"
        },
        {
          "internalType": "bytes32",
          "name": "y",
          "type": "bytes32"
        }
      ],
      "name": "setPubkey",
      "outputs": [],
      "stateMutability": "nonpayable",
      "type": "function"
    },
    {
      "inputs": [
        {
          "internalType": "bytes32",
          "name": "node",
          "type": "bytes32"
        },
        {
          "internalType": "string",
          "name": "key",
          "type": "string"
        },
        {
          "internalType": "string",
          "name": "value",
          "type": "string"
        }
      ],
      "name": "setText",
      "outputs": [],
      "stateMutability": "nonpayable",
      "type": "function"
    },
    {
      "inputs": [
        {
          "internalType": "bytes4",
          "name": "",
          "type": "bytes4"
        }
      ],
      "name": "supportsInterface",
      "outputs": [
        {
          "internalType": "bool",
          "name": "",
          "type": "bool"
        }
      ],
      "stateMutability": "view",
      "type": "function"
    },
    {
      "inputs": [
        {
          "internalType": "bytes32",
          "name": "node",
          "type": "bytes32"
        },
        {
          "internalType": "string",
          "name": "key",
          "type": "string"
        }
      ],
      "name": "text",
      "outputs": [
        {
          "internalType": "string",
          "name": "value",
          "type": "string"
        }
      ],
      "stateMutability": "view",
      "type": "function"
    },
    {
      "stateMutability": "payable",
      "type": "receive"
    }
  ],
  "bytecode": {
    "object": "0x608060405234801561001057600080fd5b50604051620025d8380380620025d883398101604081905261003191610179565b600180546001600160a01b039092166001600160a01b0319928316178155600080549092166e0c2e074ec69a0dfb2997ba6c7d2e1e17825560026020527f7a6ed3a1d03568ba34c4e721c07cc5fb10d48888f825e55b36c6ab346be415bc805460ff1990811683179091557fe7d8388e96e266aad8ecb72206b6c9f49ec78ede7daf2641cf85e1ed4a65f08980548216831790557fe6ca55aedfc0b80b83920adc2dfc31bcc9683a415c93cb2abde430c1112797a480548216831790557ffae26f5ae7a310f954482c36bb01bdf3029f43c23178d2e543a6e98064447be980548216831790557f31fef2b9b014f86315ba22f969ea452f4b57e39ea6f01b341a28c09cd17b85a580548216831790556378e5bf0360e11b9092527ff3a021d6e155b8df234623aa070a4753523dc1738878ec8d17258bf9c7d1249280549092161790556101a9565b60006020828403121561018b57600080fd5b81516001600160a01b03811681146101a257600080fd5b9392505050565b61241f80620001b96000396000f3fe6080604052600436106101485760003560e01c806369be8bb0116100c0578063bc1c58d111610074578063d5fa2b0011610059578063d5fa2b001461042a578063e1b6a1901461044a578063f1cb7e06146104775761017f565b8063bc1c58d1146103c1578063c8690233146103e15761017f565b8063875e18f7116100a5578063875e18f71461036c5780638b95dd7114610381578063b0671b71146103a15761017f565b806369be8bb014610337578063773722131461034c5761017f565b8063304e6ade1161011757806359d1d43c116100fc57806359d1d43c146102ca5780635d81d553146102f7578063691f3431146103175761017f565b8063304e6ade1461028a5780633b3b57de146102aa5761017f565b806301ffc9a7146101b157806310f13a8c146101f65780631d2e2cc41461021857806329cd62ea1461026a5761017f565b3661017f576040517f3d693ada00000000000000000000000000000000000000000000000000000000815260040160405180910390fd5b6040517f3d693ada00000000000000000000000000000000000000000000000000000000815260040160405180910390fd5b3480156101bd57600080fd5b506101e16101cc366004611a4b565b60026020526000908152604090205460ff1681565b60405190151581526020015b60405180910390f35b34801561020257600080fd5b50610216610211366004611ad6565b610497565b005b34801561022457600080fd5b506000546102459073ffffffffffffffffffffffffffffffffffffffff1681565b60405173ffffffffffffffffffffffffffffffffffffffff90911681526020016101ed565b34801561027657600080fd5b50610216610285366004611b50565b610635565b34801561029657600080fd5b506102166102a5366004611c41565b6107a0565b3480156102b657600080fd5b506102456102c5366004611c88565b6108f4565b3480156102d657600080fd5b506102ea6102e5366004611ca1565b610a2f565b6040516101ed9190611d49565b34801561030357600080fd5b50610216610312366004611d5c565b610ca8565b34801561032357600080fd5b506102ea610332366004611c88565b610dad565b34801561034357600080fd5b506102ea610e87565b34801561035857600080fd5b50610216610367366004611ca1565b610f15565b34801561037857600080fd5b50610216611098565b34801561038d57600080fd5b5061021661039c366004611d91565b611163565b3480156103ad57600080fd5b506102ea6103bc366004611de1565b6112b6565b3480156103cd57600080fd5b506102ea6103dc366004611c88565b6112eb565b3480156103ed57600080fd5b506104156103fc366004611c88565b6006602052600090815260409020805460019091015482565b604080519283526020830191909152016101ed565b34801561043657600080fd5b50610216610445366004611e57565b6113a3565b34801561045657600080fd5b506001546102459073ffffffffffffffffffffffffffffffffffffffff1681565b34801561048357600080fd5b506102ea610492366004611e87565b61154c565b600080546040516302571be360e01b81526004810188905287929173ffffffffffffffffffffffffffffffffffffffff16906302571be390602401602060405180830381865afa1580156104ef573d6000803e3d6000fd5b505050506040513d601f19601f820116820180604052508101906105139190611ea9565b90503373ffffffffffffffffffffffffffffffffffffffff821614610599576040517f08c379a000000000000000000000000000000000000000000000000000000000815260206004820152601760248201527f5265736f6c7665723a4e6f745f417574686f726973656400000000000000000060448201526064015b60405180910390fd5b8383600760008a815260200190815260200160002088886040516105be929190611ec6565b908152602001604051809103902091826105d9929190611f78565b5085856040516105ea929190611ec6565b6040518091039020877fd8c9334b1a9c2f9da342a0a2b32629c1a229b6445dad78947f674b44444a75508686604051610624929190612039565b60405180910390a350505050505050565b600080546040516302571be360e01b81526004810186905285929173ffffffffffffffffffffffffffffffffffffffff16906302571be390602401602060405180830381865afa15801561068d573d6000803e3d6000fd5b505050506040513d601f19601f820116820180604052508101906106b19190611ea9565b90503373ffffffffffffffffffffffffffffffffffffffff821614610732576040517f08c379a000000000000000000000000000000000000000000000000000000000815260206004820152601760248201527f5265736f6c7665723a4e6f745f417574686f72697365640000000000000000006044820152606401610590565b60408051808201825285815260208082018681526000898152600683528490209251835551600190920191909155815186815290810185905286917f1d6f5e03d3f63eb58751986629a5439baee5079ff04f345becb66e23eb154e4691015b60405180910390a25050505050565b600080546040516302571be360e01b81526004810185905284929173ffffffffffffffffffffffffffffffffffffffff16906302571be390602401602060405180830381865afa1580156107f8573d6000803e3d6000fd5b505050506040513d601f19601f8201168201806040525081019061081c9190611ea9565b90503373ffffffffffffffffffffffffffffffffffffffff82161461089d576040517f08c379a000000000000000000000000000000000000000000000000000000000815260206004820152601760248201527f5265736f6c7665723a4e6f745f417574686f72697365640000000000000000006044820152606401610590565b60008481526004602052604090206108b58482612068565b50837fe379c1624ed7e714cc0937528a32359d69d5281337765313dba4e081b72d7578846040516108e69190611d49565b60405180910390a250505050565b6000818152600560209081526040808320603c84529091528120805482919061091c90611ed6565b80601f016020809104026020016040519081016040528092919081815260200182805461094890611ed6565b80156109955780601f1061096a57610100808354040283529160200191610995565b820191906000526020600020905b81548152906001019060200180831161097857829003601f168201915b505050505090508051600003610a26576000546040516302571be360e01b81526004810185905273ffffffffffffffffffffffffffffffffffffffff909116906302571be390602401602060405180830381865afa1580156109fb573d6000803e3d6000fd5b505050506040513d601f19601f82011682018060405250810190610a1f9190611ea9565b9392505050565b610a1f81612128565b6060600760008581526020019081526020016000208383604051610a54929190611ec6565b90815260200160405180910390208054610a6d90611ed6565b80601f0160208091040260200160405190810160405280929190818152602001828054610a9990611ed6565b8015610ae65780601f10610abb57610100808354040283529160200191610ae6565b820191906000526020600020905b815481529060010190602001808311610ac957829003601f168201915b505050505090508051600003610a1f576040518060400160405280600681526020017f6176617461720000000000000000000000000000000000000000000000000000815250610b3590612128565b610b3f838561214c565b03610bcd57610b4d466116d7565b60015460405160609190911b7fffffffffffffffffffffffffffffffffffffffff000000000000000000000000166020820152610b9b90603401604051602081830303815290604052611814565b610ba560016116d7565b604051602001610bb79392919061216a565b6040516020818303038152906040529050610a1f565b6000805260076020526040517f6d5257204ebe7d88fd91ae87941cb2dd9d8062b64ae5a2bd2d28ec40b9fbf6df90610c089085908590611ec6565b90815260200160405180910390208054610c2190611ed6565b80601f0160208091040260200160405190810160405280929190818152602001828054610c4d90611ed6565b8015610c9a5780601f10610c6f57610100808354040283529160200191610c9a565b820191906000526020600020905b815481529060010190602001808311610c7d57829003601f168201915b505050505090509392505050565b600160009054906101000a900473ffffffffffffffffffffffffffffffffffffffff1673ffffffffffffffffffffffffffffffffffffffff166301e51ae86040518163ffffffff1660e01b8152600401602060405180830381865afa158015610d15573d6000803e3d6000fd5b505050506040513d601f19601f82011682018060405250810190610d399190611ea9565b73ffffffffffffffffffffffffffffffffffffffff163373ffffffffffffffffffffffffffffffffffffffff1614610d9d576040517f64c42c6300000000000000000000000000000000000000000000000000000000815260040160405180910390fd5b6003610da98282612068565b5050565b6000818152600760205260409081902090517f6e616d650000000000000000000000000000000000000000000000000000000081526060919060040190815260200160405180910390208054610e0290611ed6565b80601f0160208091040260200160405190810160405280929190818152602001828054610e2e90611ed6565b8015610e7b5780601f10610e5057610100808354040283529160200191610e7b565b820191906000526020600020905b815481529060010190602001808311610e5e57829003601f168201915b50505050509050919050565b60038054610e9490611ed6565b80601f0160208091040260200160405190810160405280929190818152602001828054610ec090611ed6565b8015610f0d5780601f10610ee257610100808354040283529160200191610f0d565b820191906000526020600020905b815481529060010190602001808311610ef057829003601f168201915b505050505081565b600080546040516302571be360e01b81526004810186905285929173ffffffffffffffffffffffffffffffffffffffff16906302571be390602401602060405180830381865afa158015610f6d573d6000803e3d6000fd5b505050506040513d601f19601f82011682018060405250810190610f919190611ea9565b90503373ffffffffffffffffffffffffffffffffffffffff821614611012576040517f08c379a000000000000000000000000000000000000000000000000000000000815260206004820152601760248201527f5265736f6c7665723a4e6f745f417574686f72697365640000000000000000006044820152606401610590565b6000858152600760205260409081902081517f6e616d6500000000000000000000000000000000000000000000000000000000815260048101919091529051908190036024019020611065848683611f78565b50847fb7d29e911041e8d9b843369e890bcb72c9388692ba48b65ac54e7214c4c348f78585604051610791929190612039565b600160009054906101000a900473ffffffffffffffffffffffffffffffffffffffff1673ffffffffffffffffffffffffffffffffffffffff166301e51ae86040518163ffffffff1660e01b8152600401602060405180830381865afa158015611105573d6000803e3d6000fd5b505050506040513d601f19601f820116820180604052508101906111299190611ea9565b73ffffffffffffffffffffffffffffffffffffffff163373ffffffffffffffffffffffffffffffffffffffff161461116057600080fd5b33ff5b600080546040516302571be360e01b81526004810186905285929173ffffffffffffffffffffffffffffffffffffffff16906302571be390602401602060405180830381865afa1580156111bb573d6000803e3d6000fd5b505050506040513d601f19601f820116820180604052508101906111df9190611ea9565b90503373ffffffffffffffffffffffffffffffffffffffff821614611260576040517f08c379a000000000000000000000000000000000000000000000000000000000815260206004820152601760248201527f5265736f6c7665723a4e6f745f417574686f72697365640000000000000000006044820152606401610590565b600085815260056020908152604080832087845290915290206112838482612068565b50847f65412581168e88a1e60c6459d7f44ae83ad0832e670826c05a4e2476b57af752858560405161079192919061222a565b6007602090815260009283526040909220815180830184018051928152908401929093019190912091528054610e9490611ed6565b600081815260046020526040902080546060919061130890611ed6565b80601f016020809104026020016040519081016040528092919081815260200182805461133490611ed6565b80156113815780601f1061135657610100808354040283529160200191611381565b820191906000526020600020905b81548152906001019060200180831161136457829003601f168201915b50505050509050805160000361139e5760038054610e0290611ed6565b919050565b600080546040516302571be360e01b81526004810185905284929173ffffffffffffffffffffffffffffffffffffffff16906302571be390602401602060405180830381865afa1580156113fb573d6000803e3d6000fd5b505050506040513d601f19601f8201168201806040525081019061141f9190611ea9565b90503373ffffffffffffffffffffffffffffffffffffffff8216146114a0576040517f08c379a000000000000000000000000000000000000000000000000000000000815260206004820152601760248201527f5265736f6c7665723a4e6f745f417574686f72697365640000000000000000006044820152606401610590565b6040517fffffffffffffffffffffffffffffffffffffffff000000000000000000000000606085901b16602082015260340160408051601f19818403018152918152600086815260056020908152828220603c8352905220906115039082612068565b5060405173ffffffffffffffffffffffffffffffffffffffff8416815284907f52d7d861f09ab3d26239d492e8968629f95e9e318cf0b73bfddc441522a15fd2906020016108e6565b6000828152600560209081526040808320848452909152902080546060919061157490611ed6565b80601f01602080910402602001604051908101604052809291908181526020018280546115a090611ed6565b80156115ed5780601f106115c2576101008083540402835291602001916115ed565b820191906000526020600020905b8154815290600101906020018083116115d057829003601f168201915b5050505050905080516000148015611605575081603c145b156116d1576000546040516302571be360e01b81526004810185905273ffffffffffffffffffffffffffffffffffffffff909116906302571be390602401602060405180830381865afa158015611660573d6000803e3d6000fd5b505050506040513d601f19601f820116820180604052508101906116849190611ea9565b6040516020016116bf919060609190911b7fffffffffffffffffffffffffffffffffffffffff00000000000000000000000016815260140190565b60405160208183030381529060405290505b92915050565b60608160000361171a57505060408051808201909152600181527f3000000000000000000000000000000000000000000000000000000000000000602082015290565b8160005b8115611744578061172e81612272565b915061173d9050600a836122bb565b915061171e565b60008167ffffffffffffffff81111561175f5761175f611b7c565b6040519080825280601f01601f191660200182016040528015611789576020820181803683370190505b5090505b841561180c5761179e6001836122cf565b91506117ab600a866122e6565b6117b69060306122fa565b60f81b8183815181106117cb576117cb612312565b60200101907effffffffffffffffffffffffffffffffffffffffffffffffffffffffffffff1916908160001a905350611805600a866122bb565b945061178d565b949350505050565b60606000825160026118269190612341565b67ffffffffffffffff81111561183e5761183e611b7c565b6040519080825280601f01601f191660200182016040528015611868576020820181803683370190505b5060408051808201909152601081527f3031323334353637383961626364656600000000000000000000000000000000602082015290915060005b8451811015611a21578160108683815181106118c1576118c1612312565b01602001516118d3919060f81c612360565b60ff16815181106118e6576118e6612312565b01602001517fff000000000000000000000000000000000000000000000000000000000000001683611919836002612341565b8151811061192957611929612312565b60200101907effffffffffffffffffffffffffffffffffffffffffffffffffffffffffffff1916908160001a90535081601086838151811061196d5761196d612312565b016020015161197f919060f81c612382565b60ff168151811061199257611992612312565b01602001517fff0000000000000000000000000000000000000000000000000000000000000016836119c5836002612341565b6119d09060016122fa565b815181106119e0576119e0612312565b60200101907effffffffffffffffffffffffffffffffffffffffffffffffffffffffffffff1916908160001a90535080611a1981612272565b9150506118a3565b5081604051602001611a3391906123a4565b60405160208183030381529060405292505050919050565b600060208284031215611a5d57600080fd5b81357fffffffff0000000000000000000000000000000000000000000000000000000081168114610a1f57600080fd5b60008083601f840112611a9f57600080fd5b50813567ffffffffffffffff811115611ab757600080fd5b602083019150836020828501011115611acf57600080fd5b9250929050565b600080600080600060608688031215611aee57600080fd5b85359450602086013567ffffffffffffffff80821115611b0d57600080fd5b611b1989838a01611a8d565b90965094506040880135915080821115611b3257600080fd5b50611b3f88828901611a8d565b969995985093965092949392505050565b600080600060608486031215611b6557600080fd5b505081359360208301359350604090920135919050565b7f4e487b7100000000000000000000000000000000000000000000000000000000600052604160045260246000fd5b600067ffffffffffffffff80841115611bc657611bc6611b7c565b604051601f8501601f19908116603f01168101908282118183101715611bee57611bee611b7c565b81604052809350858152868686011115611c0757600080fd5b858560208301376000602087830101525050509392505050565b600082601f830112611c3257600080fd5b610a1f83833560208501611bab565b60008060408385031215611c5457600080fd5b82359150602083013567ffffffffffffffff811115611c7257600080fd5b611c7e85828601611c21565b9150509250929050565b600060208284031215611c9a57600080fd5b5035919050565b600080600060408486031215611cb657600080fd5b83359250602084013567ffffffffffffffff811115611cd457600080fd5b611ce086828701611a8d565b9497909650939450505050565b60005b83811015611d08578181015183820152602001611cf0565b83811115611d17576000848401525b50505050565b60008151808452611d35816020860160208601611ced565b601f01601f19169290920160200192915050565b602081526000610a1f6020830184611d1d565b600060208284031215611d6e57600080fd5b813567ffffffffffffffff811115611d8557600080fd5b61180c84828501611c21565b600080600060608486031215611da657600080fd5b8335925060208401359150604084013567ffffffffffffffff811115611dcb57600080fd5b611dd786828701611c21565b9150509250925092565b60008060408385031215611df457600080fd5b82359150602083013567ffffffffffffffff811115611e1257600080fd5b8301601f81018513611e2357600080fd5b611c7e85823560208401611bab565b73ffffffffffffffffffffffffffffffffffffffff81168114611e5457600080fd5b50565b60008060408385031215611e6a57600080fd5b823591506020830135611e7c81611e32565b809150509250929050565b60008060408385031215611e9a57600080fd5b50508035926020909101359150565b600060208284031215611ebb57600080fd5b8151610a1f81611e32565b8183823760009101908152919050565b600181811c90821680611eea57607f821691505b602082108103611f23577f4e487b7100000000000000000000000000000000000000000000000000000000600052602260045260246000fd5b50919050565b601f821115611f7357600081815260208120601f850160051c81016020861015611f505750805b601f850160051c820191505b81811015611f6f57828155600101611f5c565b5050505b505050565b67ffffffffffffffff831115611f9057611f90611b7c565b611fa483611f9e8354611ed6565b83611f29565b6000601f841160018114611fd85760008515611fc05750838201355b600019600387901b1c1916600186901b178355612032565b600083815260209020601f19861690835b828110156120095786850135825560209485019460019092019101611fe9565b50868210156120265760001960f88860031b161c19848701351681555b505060018560011b0183555b5050505050565b60208152816020820152818360408301376000818301604090810191909152601f909201601f19160101919050565b815167ffffffffffffffff81111561208257612082611b7c565b612096816120908454611ed6565b84611f29565b602080601f8311600181146120cb57600084156120b35750858301515b600019600386901b1c1916600185901b178555611f6f565b600085815260208120601f198616915b828110156120fa578886015182559484019460019091019084016120db565b50858210156121185787850151600019600388901b60f8161c191681555b5050505050600190811b01905550565b80516020808301519190811015611f235760001960209190910360031b1b16919050565b803560208310156116d157600019602084900360031b1b1692915050565b7f6569703135353a000000000000000000000000000000000000000000000000008152600084516121a2816007850160208901611ced565b7f2f6572633732313a00000000000000000000000000000000000000000000000060079184019182015284516121df81600f840160208901611ced565b7f2f00000000000000000000000000000000000000000000000000000000000000600f9290910191820152835161221d816010840160208801611ced565b0160100195945050505050565b82815260406020820152600061180c6040830184611d1d565b7f4e487b7100000000000000000000000000000000000000000000000000000000600052601160045260246000fd5b6000600019820361228557612285612243565b5060010190565b7f4e487b7100000000000000000000000000000000000000000000000000000000600052601260045260246000fd5b6000826122ca576122ca61228c565b500490565b6000828210156122e1576122e1612243565b500390565b6000826122f5576122f561228c565b500690565b6000821982111561230d5761230d612243565b500190565b7f4e487b7100000000000000000000000000000000000000000000000000000000600052603260045260246000fd5b600081600019048311821515161561235b5761235b612243565b500290565b600060ff8316806123735761237361228c565b8060ff84160491505092915050565b600060ff8316806123955761239561228c565b8060ff84160691505092915050565b7f30780000000000000000000000000000000000000000000000000000000000008152600082516123dc816002850160208701611ced565b919091016002019291505056fea2646970667358221220d6aa3401e5c6558de1b7faaa60f0fa510304344b496098d1925db06f03b4695664736f6c634300080f0033",
    "linkReferences": {}
  },
  "methodIdentifiers": {
    "BENSYC()": "e1b6a190",
    "DESTROY()": "875e18f7",
    "DefaultContenthash()": "69be8bb0",
    "ENS()": "1d2e2cc4",
    "_text(bytes32,string)": "b0671b71",
    "addr(bytes32)": "3b3b57de",
    "addr(bytes32,uint256)": "f1cb7e06",
    "contenthash(bytes32)": "bc1c58d1",
    "name(bytes32)": "691f3431",
    "pubkey(bytes32)": "c8690233",
    "setAddr(bytes32,address)": "d5fa2b00",
    "setAddr(bytes32,uint256,bytes)": "8b95dd71",
    "setContenthash(bytes32,bytes)": "304e6ade",
    "setDefaultContenthash(bytes)": "5d81d553",
    "setName(bytes32,string)": "77372213",
    "setPubkey(bytes32,bytes32,bytes32)": "29cd62ea",
    "setText(bytes32,string,string)": "10f13a8c",
    "supportsInterface(bytes4)": "01ffc9a7",
    "text(bytes32,string)": "59d1d43c"
  },
  "id": 10
}